{
  "_format": "hh-sol-artifact-1",
  "contractName": "MPond",
  "sourceName": "contracts/MPond.sol",
  "abi": [
    {
      "anonymous": false,
      "inputs": [
        {
          "indexed": true,
          "internalType": "address",
          "name": "owner",
          "type": "address"
        },
        {
          "indexed": true,
          "internalType": "address",
          "name": "spender",
          "type": "address"
        },
        {
          "indexed": false,
          "internalType": "uint256",
          "name": "amount",
          "type": "uint256"
        }
      ],
      "name": "Approval",
      "type": "event"
    },
    {
      "anonymous": false,
      "inputs": [
        {
          "indexed": true,
          "internalType": "address",
          "name": "delegator",
          "type": "address"
        },
        {
          "indexed": true,
          "internalType": "address",
          "name": "fromDelegate",
          "type": "address"
        },
        {
          "indexed": true,
          "internalType": "address",
          "name": "toDelegate",
          "type": "address"
        }
      ],
      "name": "DelegateChanged",
      "type": "event"
    },
    {
      "anonymous": false,
      "inputs": [
        {
          "indexed": true,
          "internalType": "address",
          "name": "delegate",
          "type": "address"
        },
        {
          "indexed": false,
          "internalType": "uint256",
          "name": "previousBalance",
          "type": "uint256"
        },
        {
          "indexed": false,
          "internalType": "uint256",
          "name": "newBalance",
          "type": "uint256"
        }
      ],
      "name": "DelegateVotesChanged",
      "type": "event"
    },
    {
      "anonymous": false,
      "inputs": [
        {
          "indexed": true,
          "internalType": "address",
          "name": "from",
          "type": "address"
        },
        {
          "indexed": true,
          "internalType": "address",
          "name": "to",
          "type": "address"
        },
        {
          "indexed": false,
          "internalType": "uint256",
          "name": "amount",
          "type": "uint256"
        }
      ],
      "name": "Transfer",
      "type": "event"
    },
    {
      "inputs": [],
      "name": "DELEGATION_TYPEHASH",
      "outputs": [
        {
          "internalType": "bytes32",
          "name": "",
          "type": "bytes32"
        }
      ],
      "stateMutability": "view",
      "type": "function"
    },
    {
      "inputs": [],
      "name": "DOMAIN_TYPEHASH",
      "outputs": [
        {
          "internalType": "bytes32",
          "name": "",
          "type": "bytes32"
        }
      ],
      "stateMutability": "view",
      "type": "function"
    },
    {
      "inputs": [],
      "name": "UNDELEGATION_TYPEHASH",
      "outputs": [
        {
          "internalType": "bytes32",
          "name": "",
          "type": "bytes32"
        }
      ],
      "stateMutability": "view",
      "type": "function"
    },
    {
      "inputs": [
        {
          "internalType": "address",
          "name": "_address",
          "type": "address"
        }
      ],
      "name": "addWhiteListAddress",
      "outputs": [
        {
          "internalType": "bool",
          "name": "",
          "type": "bool"
        }
      ],
      "stateMutability": "nonpayable",
      "type": "function"
    },
    {
      "inputs": [],
      "name": "admin",
      "outputs": [
        {
          "internalType": "address",
          "name": "",
          "type": "address"
        }
      ],
      "stateMutability": "view",
      "type": "function"
    },
    {
      "inputs": [
        {
          "internalType": "address",
          "name": "account",
          "type": "address"
        },
        {
          "internalType": "address",
          "name": "spender",
          "type": "address"
        }
      ],
      "name": "allowance",
      "outputs": [
        {
          "internalType": "uint256",
          "name": "",
          "type": "uint256"
        }
      ],
      "stateMutability": "view",
      "type": "function"
    },
    {
      "inputs": [
        {
          "internalType": "address",
          "name": "spender",
          "type": "address"
        },
        {
          "internalType": "uint256",
          "name": "rawAmount",
          "type": "uint256"
        }
      ],
      "name": "approve",
      "outputs": [
        {
          "internalType": "bool",
          "name": "",
          "type": "bool"
        }
      ],
      "stateMutability": "nonpayable",
      "type": "function"
    },
    {
      "inputs": [
        {
          "internalType": "address",
          "name": "account",
          "type": "address"
        }
      ],
      "name": "balanceOf",
      "outputs": [
        {
          "internalType": "uint256",
          "name": "",
          "type": "uint256"
        }
      ],
      "stateMutability": "view",
      "type": "function"
    },
    {
      "inputs": [],
      "name": "bridgeSupply",
      "outputs": [
        {
          "internalType": "uint256",
          "name": "",
          "type": "uint256"
        }
      ],
      "stateMutability": "view",
      "type": "function"
    },
    {
      "inputs": [
        {
          "internalType": "address",
          "name": "_updatedBridge",
          "type": "address"
        }
      ],
      "name": "changeDropBridge",
      "outputs": [],
      "stateMutability": "nonpayable",
      "type": "function"
    },
    {
      "inputs": [
        {
          "internalType": "address",
          "name": "",
          "type": "address"
        },
        {
          "internalType": "uint32",
          "name": "",
          "type": "uint32"
        }
      ],
      "name": "checkpoints",
      "outputs": [
        {
          "internalType": "uint32",
          "name": "fromBlock",
          "type": "uint32"
        },
        {
          "internalType": "uint96",
          "name": "votes",
          "type": "uint96"
        }
      ],
      "stateMutability": "view",
      "type": "function"
    },
    {
      "inputs": [],
      "name": "decimals",
      "outputs": [
        {
          "internalType": "uint8",
          "name": "",
          "type": "uint8"
        }
      ],
      "stateMutability": "view",
      "type": "function"
    },
    {
      "inputs": [
        {
          "internalType": "address",
          "name": "spender",
          "type": "address"
        },
        {
          "internalType": "uint256",
          "name": "removedAmount",
          "type": "uint256"
        }
      ],
      "name": "decreaseAllowance",
      "outputs": [
        {
          "internalType": "bool",
          "name": "",
          "type": "bool"
        }
      ],
      "stateMutability": "nonpayable",
      "type": "function"
    },
    {
      "inputs": [
        {
          "internalType": "address",
          "name": "delegatee",
          "type": "address"
        },
        {
          "internalType": "uint96",
          "name": "amount",
          "type": "uint96"
        }
      ],
      "name": "delegate",
      "outputs": [],
      "stateMutability": "nonpayable",
      "type": "function"
    },
    {
      "inputs": [
        {
          "internalType": "address",
          "name": "delegatee",
          "type": "address"
        },
        {
          "internalType": "uint256",
          "name": "nonce",
          "type": "uint256"
        },
        {
          "internalType": "uint256",
          "name": "expiry",
          "type": "uint256"
        },
        {
          "internalType": "uint8",
          "name": "v",
          "type": "uint8"
        },
        {
          "internalType": "bytes32",
          "name": "r",
          "type": "bytes32"
        },
        {
          "internalType": "bytes32",
          "name": "s",
          "type": "bytes32"
        },
        {
          "internalType": "uint96",
          "name": "amount",
          "type": "uint96"
        }
      ],
      "name": "delegateBySig",
      "outputs": [],
      "stateMutability": "nonpayable",
      "type": "function"
    },
    {
      "inputs": [
        {
          "internalType": "address",
          "name": "",
          "type": "address"
        },
        {
          "internalType": "address",
          "name": "",
          "type": "address"
        }
      ],
      "name": "delegates",
      "outputs": [
        {
          "internalType": "uint96",
          "name": "",
          "type": "uint96"
        }
      ],
      "stateMutability": "view",
      "type": "function"
    },
    {
      "inputs": [],
      "name": "disableAllTransfers",
      "outputs": [
        {
          "internalType": "bool",
          "name": "",
          "type": "bool"
        }
      ],
      "stateMutability": "nonpayable",
      "type": "function"
    },
    {
      "inputs": [],
      "name": "dropBridge",
      "outputs": [
        {
          "internalType": "address",
          "name": "",
          "type": "address"
        }
      ],
      "stateMutability": "view",
      "type": "function"
    },
    {
      "inputs": [],
      "name": "enableAllTranfers",
      "outputs": [
        {
          "internalType": "bool",
          "name": "",
          "type": "bool"
        }
      ],
      "stateMutability": "view",
      "type": "function"
    },
    {
      "inputs": [],
      "name": "enableAllTransfers",
      "outputs": [
        {
          "internalType": "bool",
          "name": "",
          "type": "bool"
        }
      ],
      "stateMutability": "nonpayable",
      "type": "function"
    },
    {
      "inputs": [
        {
          "internalType": "address",
          "name": "account",
          "type": "address"
        }
      ],
      "name": "getCurrentVotes",
      "outputs": [
        {
          "internalType": "uint96",
          "name": "",
          "type": "uint96"
        }
      ],
      "stateMutability": "view",
      "type": "function"
    },
    {
      "inputs": [
        {
          "internalType": "address",
          "name": "account",
          "type": "address"
        },
        {
          "internalType": "uint256",
          "name": "blockNumber",
          "type": "uint256"
        }
      ],
      "name": "getPriorVotes",
      "outputs": [
        {
          "internalType": "uint96",
          "name": "",
          "type": "uint96"
        }
      ],
      "stateMutability": "view",
      "type": "function"
    },
    {
      "inputs": [
        {
          "internalType": "address",
          "name": "spender",
          "type": "address"
        },
        {
          "internalType": "uint256",
          "name": "addedAmount",
          "type": "uint256"
        }
      ],
      "name": "increaseAllowance",
      "outputs": [
        {
          "internalType": "bool",
          "name": "",
          "type": "bool"
        }
      ],
      "stateMutability": "nonpayable",
      "type": "function"
    },
    {
      "inputs": [
        {
          "internalType": "address",
          "name": "account",
          "type": "address"
        },
        {
          "internalType": "address",
          "name": "bridge",
          "type": "address"
        },
        {
          "internalType": "address",
          "name": "dropBridgeAddress",
          "type": "address"
        }
      ],
      "name": "initialize",
      "outputs": [],
      "stateMutability": "nonpayable",
      "type": "function"
    },
    {
      "inputs": [
        {
          "internalType": "address",
          "name": "",
          "type": "address"
        }
      ],
      "name": "isWhiteListed",
      "outputs": [
        {
          "internalType": "bool",
          "name": "",
          "type": "bool"
        }
      ],
      "stateMutability": "view",
      "type": "function"
    },
    {
      "inputs": [
        {
          "internalType": "address",
          "name": "_address1",
          "type": "address"
        },
        {
          "internalType": "address",
          "name": "_address2",
          "type": "address"
        }
      ],
      "name": "isWhiteListedTransfer",
      "outputs": [
        {
          "internalType": "bool",
          "name": "",
          "type": "bool"
        }
      ],
      "stateMutability": "view",
      "type": "function"
    },
    {
      "inputs": [],
      "name": "name",
      "outputs": [
        {
          "internalType": "string",
          "name": "",
          "type": "string"
        }
      ],
      "stateMutability": "view",
      "type": "function"
    },
    {
      "inputs": [
        {
          "internalType": "address",
          "name": "",
          "type": "address"
        }
      ],
      "name": "nonces",
      "outputs": [
        {
          "internalType": "uint256",
          "name": "",
          "type": "uint256"
        }
      ],
      "stateMutability": "view",
      "type": "function"
    },
    {
      "inputs": [
        {
          "internalType": "address",
          "name": "",
          "type": "address"
        }
      ],
      "name": "numCheckpoints",
      "outputs": [
        {
          "internalType": "uint32",
          "name": "",
          "type": "uint32"
        }
      ],
      "stateMutability": "view",
      "type": "function"
    },
    {
      "inputs": [
        {
          "internalType": "address",
          "name": "_address",
          "type": "address"
        }
      ],
      "name": "removeWhiteListAddress",
      "outputs": [
        {
          "internalType": "bool",
          "name": "",
          "type": "bool"
        }
      ],
      "stateMutability": "nonpayable",
      "type": "function"
    },
    {
      "inputs": [],
      "name": "symbol",
      "outputs": [
        {
          "internalType": "string",
          "name": "",
          "type": "string"
        }
      ],
      "stateMutability": "view",
      "type": "function"
    },
    {
      "inputs": [],
      "name": "totalSupply",
      "outputs": [
        {
          "internalType": "uint256",
          "name": "",
          "type": "uint256"
        }
      ],
      "stateMutability": "view",
      "type": "function"
    },
    {
      "inputs": [
        {
          "internalType": "address",
          "name": "dst",
          "type": "address"
        },
        {
          "internalType": "uint256",
          "name": "rawAmount",
          "type": "uint256"
        }
      ],
      "name": "transfer",
      "outputs": [
        {
          "internalType": "bool",
          "name": "",
          "type": "bool"
        }
      ],
      "stateMutability": "nonpayable",
      "type": "function"
    },
    {
      "inputs": [
        {
          "internalType": "address",
          "name": "src",
          "type": "address"
        },
        {
          "internalType": "address",
          "name": "dst",
          "type": "address"
        },
        {
          "internalType": "uint256",
          "name": "rawAmount",
          "type": "uint256"
        }
      ],
      "name": "transferFrom",
      "outputs": [
        {
          "internalType": "bool",
          "name": "",
          "type": "bool"
        }
      ],
      "stateMutability": "nonpayable",
      "type": "function"
    },
    {
      "inputs": [
        {
          "internalType": "address",
          "name": "delegatee",
          "type": "address"
        },
        {
          "internalType": "uint96",
          "name": "amount",
          "type": "uint96"
        }
      ],
      "name": "undelegate",
      "outputs": [],
      "stateMutability": "nonpayable",
      "type": "function"
    },
    {
      "inputs": [
        {
          "internalType": "address",
          "name": "delegatee",
          "type": "address"
        },
        {
          "internalType": "uint256",
          "name": "nonce",
          "type": "uint256"
        },
        {
          "internalType": "uint256",
          "name": "expiry",
          "type": "uint256"
        },
        {
          "internalType": "uint8",
          "name": "v",
          "type": "uint8"
        },
        {
          "internalType": "bytes32",
          "name": "r",
          "type": "bytes32"
        },
        {
          "internalType": "bytes32",
          "name": "s",
          "type": "bytes32"
        },
        {
          "internalType": "uint96",
          "name": "amount",
          "type": "uint96"
        }
      ],
      "name": "undelegateBySig",
      "outputs": [],
      "stateMutability": "nonpayable",
      "type": "function"
    }
  ],
  "bytecode": "0x608060405234801561001057600080fd5b5061332e806100206000396000f3fe608060405234801561001057600080fd5b506004361061025c5760003560e01c806395d89b4111610145578063ce114c25116100bd578063e7a324dc1161008c578063f425859211610071578063f4258592146105f1578063f851a44014610604578063fd71d86a1461062f57600080fd5b8063e7a324dc14610576578063f1127ed81461057f57600080fd5b8063ce114c25146104d0578063dd62ed3e146104e3578063e1032b831461052a578063e58432421461053d57600080fd5b8063b4b5ea5711610114578063c0c53b8b116100f9578063c0c53b8b146104a8578063c43ff0c8146104bb578063c6d6125e146104c857600080fd5b8063b4b5ea571461048c578063b93713431461049f57600080fd5b806395d89b411461044b578063a457c2d714610453578063a65835da14610466578063a9059cbb1461047957600080fd5b806367cb1601116101d857806370a08231116101a75780637ecebe001161018c5780637ecebe00146104055780638164c309146104255780638b41166c1461043857600080fd5b806370a082311461039e578063782d6fe1146103d557600080fd5b806367cb1601146103255780636ab5cc381461032d5780636f9170f6146103405780636fcfff451461036357600080fd5b806318160ddd1161022f57806323b872dd1161021457806323b872dd146102e0578063313ce567146102f3578063395093511461031257600080fd5b806318160ddd146102ce57806320606b70146102d757600080fd5b806302cb3a881461026157806306fdde0314610276578063095ea7b31461029457806316aeac20146102b7575b600080fd5b61027461026f366004612b10565b610642565b005b61027e61098c565b60405161028b9190612b82565b60405180910390f35b6102a76102a2366004612bf5565b610a1a565b604051901515815260200161028b565b6102c0600e5481565b60405190815260200161028b565b6102c060045481565b6102c0600c5481565b6102a76102ee366004612c1f565b610b09565b6003546103009060ff1681565b60405160ff909116815260200161028b565b6102a7610320366004612bf5565b610d2a565b6102a7610e60565b6102a761033b366004612c5b565b610ec0565b6102a761034e366004612c8e565b60116020526000908152604090205460ff1681565b610389610371366004612c8e565b600b6020526000908152604090205463ffffffff1681565b60405163ffffffff909116815260200161028b565b6102c06103ac366004612c8e565b6001600160a01b03166000908152600860205260409020546bffffffffffffffffffffffff1690565b6103e86103e3366004612bf5565b610f43565b6040516bffffffffffffffffffffffff909116815260200161028b565b6102c0610413366004612c8e565b600f6020526000908152604090205481565b6102a7610433366004612c8e565b6111f2565b610274610446366004612ca9565b611287565b61027e611296565b6102a7610461366004612bf5565b6112a3565b610274610474366004612b10565b61135e565b6102a7610487366004612bf5565b611696565b6103e861049a366004612c8e565b61179b565b6102c060055481565b6102746104b6366004612cd3565b61181f565b6012546102a79060ff1681565b6102a7611b64565b6102a76104de366004612c8e565b611bbe565b6102c06104f1366004612c5b565b6001600160a01b0391821660009081526007602090815260408083209390941682529190915220546bffffffffffffffffffffffff1690565b610274610538366004612ca9565b611c2d565b6103e861054b366004612c5b565b60096020908152600092835260408084209091529082529020546bffffffffffffffffffffffff1681565b6102c0600d5481565b6105c861058d366004612d16565b600a60209081526000928352604080842090915290825290205463ffffffff81169064010000000090046bffffffffffffffffffffffff1682565b6040805163ffffffff90931683526bffffffffffffffffffffffff90911660208301520161028b565b6102746105ff366004612c8e565b611c38565b601054610617906001600160a01b031681565b6040516001600160a01b03909116815260200161028b565b600654610617906001600160a01b031681565b6000600c5460016040516106569190612da4565b6040805191829003822060208084019490945282820152466060830152306080808401919091528151808403909101815260a083018252805190840120600e5460c08401526001600160a01b038c1660e084015261010083018b905261012083018a90526bffffffffffffffffffffffff861661014080850191909152825180850390910181526101608401909252815191909301207f190100000000000000000000000000000000000000000000000000000000000061018083015261018282018390526101a282018190529192506000906101c201604080517fffffffffffffffffffffffffffffffffffffffffffffffffffffffffffffffe08184030181528282528051602091820120600080855291840180845281905260ff8b169284019290925260608301899052608083018890529092509060019060a0016020604051602081039080840390855afa1580156107b6573d6000803e3d6000fd5b50506040517fffffffffffffffffffffffffffffffffffffffffffffffffffffffffffffffe001519150506001600160a01b0381166108625760405162461bcd60e51b815260206004820152602960248201527f4d506f6e643a3a756e64656c656761746542795369673a20696e76616c69642060448201527f7369676e6174757265000000000000000000000000000000000000000000000060648201526084015b60405180910390fd5b6001600160a01b0381166000908152600f6020526040812080549161088683612e88565b919050558a146108fe5760405162461bcd60e51b815260206004820152602560248201527f4d506f6e643a3a756e64656c656761746542795369673a20696e76616c69642060448201527f6e6f6e63650000000000000000000000000000000000000000000000000000006064820152608401610859565b884211156109745760405162461bcd60e51b815260206004820152602960248201527f4d506f6e643a3a756e64656c656761746542795369673a207369676e6174757260448201527f65206578706972656400000000000000000000000000000000000000000000006064820152608401610859565b61097f818c87611cba565b5050505050505050505050565b6001805461099990612d56565b80601f01602080910402602001604051908101604052809291908181526020018280546109c590612d56565b8015610a125780601f106109e757610100808354040283529160200191610a12565b820191906000526020600020905b8154815290600101906020018083116109f557829003601f168201915b505050505081565b6000807fffffffffffffffffffffffffffffffffffffffffffffffffffffffffffffffff831415610a5857506bffffffffffffffffffffffff610a7d565b610a7a8360405180606001604052806026815260200161313860269139611e51565b90505b3360008181526007602090815260408083206001600160a01b0389168085529083529281902080546bffffffffffffffffffffffff19166bffffffffffffffffffffffff871690811790915590519081529192917f8c5be1e5ebec7d5bd14f71427d1e84f3dd0314c0f7b2291e5b200ac8c7c3b92591015b60405180910390a360019150505b92915050565b6000610b158484610ec0565b610bd35760405162461bcd60e51b815260206004820152607760248201527f41746c65617374206f6e65206f6620746865206164647265737320287372632060448201527f6f7220647374292073686f756c642062652077686974656c6973746564206f7260648201527f20616c6c207472616e7366657273206d75737420626520656e61626c6564207660848201527f696120656e61626c65416c6c5472616e7366657273282900000000000000000060a482015260c401610859565b6001600160a01b03841660009081526007602090815260408083203380855290835281842054825160608101909352602680845291946bffffffffffffffffffffffff909116939092610c2e92889261313890830139611e51565b9050866001600160a01b0316836001600160a01b031614158015610c6057506bffffffffffffffffffffffff82811614155b15610d12576000610c8a83836040518060600160405280603e815260200161309e603e9139611e89565b6001600160a01b038981166000818152600760209081526040808320948a168084529482529182902080546bffffffffffffffffffffffff19166bffffffffffffffffffffffff87169081179091559151918252939450919290917f8c5be1e5ebec7d5bd14f71427d1e84f3dd0314c0f7b2291e5b200ac8c7c3b925910160405180910390a3505b610d1d878783611edd565b5060019695505050505050565b6000807fffffffffffffffffffffffffffffffffffffffffffffffffffffffffffffffff831415610d6857506bffffffffffffffffffffffff610d8d565b610d8a836040518060600160405280602b8152602001613028602b9139611e51565b90505b3360009081526007602090815260408083206001600160a01b0388168452825291829020548251606081019093526032808452610de5936bffffffffffffffffffffffff9092169285929190613186908301396122e9565b3360008181526007602090815260408083206001600160a01b038a168085529083529281902080546bffffffffffffffffffffffff19166bffffffffffffffffffffffff9690961695861790555193845290927f8c5be1e5ebec7d5bd14f71427d1e84f3dd0314c0f7b2291e5b200ac8c7c3b9259101610af5565b60006040518060600160405280602381526020016132846023913960105481906001600160a01b03163314610ea85760405162461bcd60e51b81526004016108599190612b82565b506012805460ff1916600190811790915591505b5090565b60125460009060ff1680610eec57506001600160a01b03831660009081526011602052604090205460ff165b80610f0f57506001600160a01b03821660009081526011602052604090205460ff165b15610f1c57506001610b03565b6006546001600160a01b0384811691161415610f3a57506001610b03565b50600092915050565b6000438210610fba5760405162461bcd60e51b815260206004820152602860248201527f4d506f6e643a3a6765745072696f72566f7465733a206e6f742079657420646560448201527f7465726d696e65640000000000000000000000000000000000000000000000006064820152608401610859565b6001600160a01b0383166000908152600b602052604090205463ffffffff1680610fe8576000915050610b03565b6001600160a01b0384166000908152600a60205260408120849161100d600185612ec1565b63ffffffff90811682526020820192909252604001600020541611611086576001600160a01b0384166000908152600a6020526040812090611050600184612ec1565b63ffffffff16815260208101919091526040016000205464010000000090046bffffffffffffffffffffffff169150610b039050565b6001600160a01b0384166000908152600a6020908152604080832083805290915290205463ffffffff168310156110c1576000915050610b03565b6000806110cf600184612ec1565b90505b8163ffffffff168163ffffffff1611156111a757600060026110f48484612ec1565b6110fe9190612ee6565b6111089083612ec1565b6001600160a01b0388166000908152600a6020908152604080832063ffffffff8581168552908352928190208151808301909252549283168082526401000000009093046bffffffffffffffffffffffff169181019190915291925087141561117b57602001519450610b039350505050565b805163ffffffff16871115611192578193506111a0565b61119d600183612ec1565b92505b50506110d2565b506001600160a01b0385166000908152600a6020908152604080832063ffffffff909416835292905220546bffffffffffffffffffffffff6401000000009091041691505092915050565b60408051808201909152601881527f4f6e6c792061646d696e2063616e2077686974656c697374000000000000000060208201526010546000919081906001600160a01b031633146112575760405162461bcd60e51b81526004016108599190612b82565b506001600160a01b0383166000908152601160205260409020805460ff1916600190811790915591505b50919050565b611292338383612340565b5050565b6002805461099990612d56565b6000807fffffffffffffffffffffffffffffffffffffffffffffffffffffffffffffffff8314156112e157506bffffffffffffffffffffffff611306565b611303836040518060600160405280602d81526020016131eb602d9139611e51565b90505b3360009081526007602090815260408083206001600160a01b0388168452825291829020548251606081019093526033808452610de5936bffffffffffffffffffffffff90921692859291906131b890830139611e89565b6000600c5460016040516113729190612da4565b6040805191829003822060208084019490945282820152466060830152306080808401919091528151808403909101815260a083018252805190840120600d5460c08401526001600160a01b038c1660e084015261010083018b905261012083018a90526bffffffffffffffffffffffff861661014080850191909152825180850390910181526101608401909252815191909301207f190100000000000000000000000000000000000000000000000000000000000061018083015261018282018390526101a282018190529192506000906101c201604080517fffffffffffffffffffffffffffffffffffffffffffffffffffffffffffffffe08184030181528282528051602091820120600080855291840180845281905260ff8b169284019290925260608301899052608083018890529092509060019060a0016020604051602081039080840390855afa1580156114d2573d6000803e3d6000fd5b50506040517fffffffffffffffffffffffffffffffffffffffffffffffffffffffffffffffe001519150506001600160a01b0381166115795760405162461bcd60e51b815260206004820152602760248201527f4d506f6e643a3a64656c656761746542795369673a20696e76616c696420736960448201527f676e6174757265000000000000000000000000000000000000000000000000006064820152608401610859565b6001600160a01b0381166000908152600f6020526040812080549161159d83612e88565b919050558a146116155760405162461bcd60e51b815260206004820152602360248201527f4d506f6e643a3a64656c656761746542795369673a20696e76616c6964206e6f60448201527f6e636500000000000000000000000000000000000000000000000000000000006064820152608401610859565b8842111561168b5760405162461bcd60e51b815260206004820152602760248201527f4d506f6e643a3a64656c656761746542795369673a207369676e61747572652060448201527f65787069726564000000000000000000000000000000000000000000000000006064820152608401610859565b61097f818c87612340565b60006116a23384610ec0565b6117605760405162461bcd60e51b815260206004820152607760248201527f41746c65617374206f6e65206f6620746865206164647265737320287372632060448201527f6f7220647374292073686f756c642062652077686974656c6973746564206f7260648201527f20616c6c207472616e7366657273206d75737420626520656e61626c6564207660848201527f696120656e61626c65416c6c5472616e7366657273282900000000000000000060a482015260c401610859565b60006117848360405180606001604052806027815260200161307760279139611e51565b9050611791338583611edd565b5060019392505050565b6001600160a01b0381166000908152600b602052604081205463ffffffff16806117c6576000611818565b6001600160a01b0383166000908152600a60205260408120906117ea600184612ec1565b63ffffffff16815260208101919091526040016000205464010000000090046bffffffffffffffffffffffff165b9392505050565b600054610100900460ff1680611838575060005460ff16155b6118aa5760405162461bcd60e51b815260206004820152602e60248201527f496e697469616c697a61626c653a20636f6e747261637420697320616c72656160448201527f647920696e697469616c697a65640000000000000000000000000000000000006064820152608401610859565b600054610100900460ff161580156118e957600080547fffffffffffffffffffffffffffffffffffffffffffffffffffffffffffff0000166101011790555b6118f16124d0565b826001600160a01b0316846001600160a01b031614156119795760405162461bcd60e51b815260206004820152603160248201527f42726964676520616e64206163636f756e742073686f756c64206e6f7420626560448201527f207468652073616d6520616464726573730000000000000000000000000000006064820152608401610859565b600580546001600160a01b038516600081815260086020908152604080832080546bffffffffffffffffffffffff9687166bffffffffffffffffffffffff1991821617909155865460098452828520858052845282852080549190971691161790945582825260119052828120805460ff19166001179055925491519092917fddf252ad1be2c89b69c2b068fc378daa952ba7f163c4a11628f55a4df523b3ef91611a2691815260200190565b60405180910390a36000611a576004546005546040518060600160405280602e8152602001612ffa602e9139611e89565b6001600160a01b03868116600081815260086020908152604080832080546bffffffffffffffffffffffff199081166bffffffffffffffffffffffff891690811790925560098452828520858052845282852080549091168217905584845260118352818420805460ff19166001179055600680547fffffffffffffffffffffffff000000000000000000000000000000000000000016968b169690961790955551938452939450909290917fddf252ad1be2c89b69c2b068fc378daa952ba7f163c4a11628f55a4df523b3ef910160405180910390a3508015611b5e57600080547fffffffffffffffffffffffffffffffffffffffffffffffffffffffffffff00ff1690555b50505050565b60006040518060600160405280602481526020016130536024913960105481906001600160a01b03163314611bac5760405162461bcd60e51b81526004016108599190612b82565b50506012805460ff1916905550600190565b6000604051806060016040528060248152602001612fa56024913960105481906001600160a01b03163314611c065760405162461bcd60e51b81526004016108599190612b82565b5050506001600160a01b03166000908152601160205260409020805460ff19169055600190565b611292338383611cba565b6040518060600160405280602181526020016132d86021913960105481906001600160a01b03163314611c7e5760405162461bcd60e51b81526004016108599190612b82565b5050600680547fffffffffffffffffffffffff0000000000000000000000000000000000000000166001600160a01b0392909216919091179055565b6001600160a01b038084166000908152600960209081526040808320938616835292815290829020548251808401909352601c83527f4d506f6e643a20756e64656c65676174657320756e646572666c6f770000000091830191909152611d33916bffffffffffffffffffffffff909116908390611e89565b6001600160a01b038481166000908152600960209081526040808320938716835292815282822080546bffffffffffffffffffffffff19166bffffffffffffffffffffffff95861617905581805290829020548251808401909352601a83527f4d506f6e643a2064656c65676174657320756e646572666c6f7700000000000091830191909152611dc792169083906122e9565b6001600160a01b03848116600081815260096020908152604080832083805290915280822080546bffffffffffffffffffffffff19166bffffffffffffffffffffffff96909616959095179094559251918516917f3134e8a2e6d97e929a7e54011ea5485d7d196dd5f0ba4d4ef95803e8e3fc257f908490a4611e4c8260008361261b565b505050565b6000816c010000000000000000000000008410611e815760405162461bcd60e51b81526004016108599190612b82565b509192915050565b6000836bffffffffffffffffffffffff16836bffffffffffffffffffffffff1611158290611eca5760405162461bcd60e51b81526004016108599190612b82565b50611ed58385612f30565b949350505050565b6001600160a01b038316611f595760405162461bcd60e51b815260206004820152603d60248201527f4d506f6e643a3a5f7472616e73666572546f6b656e733a2063616e6e6f74207460448201527f72616e736665722066726f6d20746865207a65726f20616464726573730000006064820152608401610859565b6001600160a01b03831660009081526009602090815260408083208380529091529020546bffffffffffffffffffffffff808316911610156120295760405162461bcd60e51b815260206004820152605160248201527f4d506f6e643a205f7472616e73666572546f6b656e733a20756e64656c65676160448201527f74656420616d6f756e742073686f756c6420626520677265617465722074686160648201527f6e207472616e7366657220616d6f756e74000000000000000000000000000000608482015260a401610859565b6001600160a01b0382166120a55760405162461bcd60e51b815260206004820152603b60248201527f4d506f6e643a3a5f7472616e73666572546f6b656e733a2063616e6e6f74207460448201527f72616e7366657220746f20746865207a65726f206164647265737300000000006064820152608401610859565b6001600160a01b0383166000908152600860209081526040918290205482516060810190935260378084526120f5936bffffffffffffffffffffffff909216928592919061324d90830139611e89565b6001600160a01b038416600090815260086020908152604080832080546bffffffffffffffffffffffff19166bffffffffffffffffffffffff9586161790556009825280832083805282529182902054825160608101909352603380845261216d949190911692859290919061310590830139611e89565b6001600160a01b038481166000908152600960209081526040808320838052825280832080546bffffffffffffffffffffffff19166bffffffffffffffffffffffff968716179055928616825260088152908290205482516060810190935260318084526121eb9491909116928592909190612fc9908301396122e9565b6001600160a01b038316600090815260086020908152604080832080546bffffffffffffffffffffffff19166bffffffffffffffffffffffff9586161790556009825280832083805282529182902054825160608101909352603180845261226394919091169285929091906132a7908301396122e9565b6001600160a01b03838116600081815260096020908152604080832083805282529182902080546bffffffffffffffffffffffff19166bffffffffffffffffffffffff968716179055905193851684529092918616917fddf252ad1be2c89b69c2b068fc378daa952ba7f163c4a11628f55a4df523b3ef910160405180910390a3505050565b6000806122f68486612f55565b9050846bffffffffffffffffffffffff16816bffffffffffffffffffffffff16101583906123375760405162461bcd60e51b81526004016108599190612b82565b50949350505050565b6001600160a01b0383166000908152600960209081526040808320838052825291829020548251808401909352601a83527f4d506f6e643a2064656c65676174657320756e646572666c6f77000000000000918301919091526123b5916bffffffffffffffffffffffff909116908390611e89565b6001600160a01b038481166000908152600960209081526040808320838052825280832080546bffffffffffffffffffffffff19166bffffffffffffffffffffffff968716179055928616825290829020548251808401909352601983527f4d506f6e643a2064656c656761746573206f766572666c6f77000000000000009183019190915261244892169083906122e9565b6001600160a01b0384811660008181526009602090815260408083209488168084529490915280822080546bffffffffffffffffffffffff19166bffffffffffffffffffffffff969096169590951790945592519192917f3134e8a2e6d97e929a7e54011ea5485d7d196dd5f0ba4d4ef95803e8e3fc257f908390a4611e4c6000838361261b565b6040805180820190915260068082527f4d61726c696e0000000000000000000000000000000000000000000000000000602090920191825261251491600191612a48565b506040805180820190915260058082527f4d506f6e64000000000000000000000000000000000000000000000000000000602090920191825261255991600291612a48565b506003805460ff1916601217905569021e19e0c9bab240000060045569017b7883c069166000006005557f8cad95687ba82c2ce50e74f7b754645e5117c3a5bec8151c0726d5857980a866600c557fee15044614b31d47e846313dae86ff14f14a42386a492dcc6b086cdd1600a14a600d557f3001685306e2a9f6f760b7c5c2d24b3cda3fd7534488f2cedcaf2728fb7d99d6600e55601080547fffffffffffffffffffffffff00000000000000000000000000000000000000001633179055565b816001600160a01b0316836001600160a01b03161415801561264a57506bffffffffffffffffffffffff811615155b15611e4c576001600160a01b03831615612715576001600160a01b0383166000908152600b602052604081205463ffffffff16908161268a5760006126dc565b6001600160a01b0385166000908152600a60205260408120906126ae600185612ec1565b63ffffffff16815260208101919091526040016000205464010000000090046bffffffffffffffffffffffff165b9050600061270382856040518060600160405280602981526020016130dc60299139611e89565b9050612711868484846127df565b5050505b6001600160a01b03821615611e4c576001600160a01b0382166000908152600b602052604081205463ffffffff1690816127505760006127a2565b6001600160a01b0384166000908152600a6020526040812090612774600185612ec1565b63ffffffff16815260208101919091526040016000205464010000000090046bffffffffffffffffffffffff165b905060006127c9828560405180606001604052806028815260200161315e602891396122e9565b90506127d7858484846127df565b505050505050565b60006128034360405180606001604052806035815260200161321860359139612a20565b905063ffffffff84161580159061285c57506001600160a01b0385166000908152600a6020526040812063ffffffff831691612840600188612ec1565b63ffffffff908116825260208201929092526040016000205416145b156128e5576001600160a01b0385166000908152600a602052604081208391612886600188612ec1565b63ffffffff168152602081019190915260400160002080546bffffffffffffffffffffffff92909216640100000000027fffffffffffffffffffffffffffffffff000000000000000000000000ffffffff9092169190911790556129c6565b60408051808201825263ffffffff80841682526bffffffffffffffffffffffff80861660208085019182526001600160a01b038b166000908152600a82528681208b8616825290915294909420925183549451909116640100000000027fffffffffffffffffffffffffffffffff0000000000000000000000000000000090941691161791909117905561297a846001612f85565b6001600160a01b0386166000908152600b6020526040902080547fffffffffffffffffffffffffffffffffffffffffffffffffffffffff000000001663ffffffff929092169190911790555b604080516bffffffffffffffffffffffff8086168252841660208201526001600160a01b038716917fdec2bacdd2f05b59de34da9b523dff8be42e5e38e818c82fdb0bae774387a724910160405180910390a25050505050565b6000816401000000008410611e815760405162461bcd60e51b81526004016108599190612b82565b828054612a5490612d56565b90600052602060002090601f016020900481019282612a765760008555612abc565b82601f10612a8f57805160ff1916838001178555612abc565b82800160010185558215612abc579182015b82811115612abc578251825591602001919060010190612aa1565b50610ebc9291505b80821115610ebc5760008155600101612ac4565b80356001600160a01b0381168114612aef57600080fd5b919050565b80356bffffffffffffffffffffffff81168114612aef57600080fd5b600080600080600080600060e0888a031215612b2b57600080fd5b612b3488612ad8565b96506020880135955060408801359450606088013560ff81168114612b5857600080fd5b93506080880135925060a08801359150612b7460c08901612af4565b905092959891949750929550565b600060208083528351808285015260005b81811015612baf57858101830151858201604001528201612b93565b81811115612bc1576000604083870101525b50601f017fffffffffffffffffffffffffffffffffffffffffffffffffffffffffffffffe016929092016040019392505050565b60008060408385031215612c0857600080fd5b612c1183612ad8565b946020939093013593505050565b600080600060608486031215612c3457600080fd5b612c3d84612ad8565b9250612c4b60208501612ad8565b9150604084013590509250925092565b60008060408385031215612c6e57600080fd5b612c7783612ad8565b9150612c8560208401612ad8565b90509250929050565b600060208284031215612ca057600080fd5b61181882612ad8565b60008060408385031215612cbc57600080fd5b612cc583612ad8565b9150612c8560208401612af4565b600080600060608486031215612ce857600080fd5b612cf184612ad8565b9250612cff60208501612ad8565b9150612d0d60408501612ad8565b90509250925092565b60008060408385031215612d2957600080fd5b612d3283612ad8565b9150602083013563ffffffff81168114612d4b57600080fd5b809150509250929050565b600181811c90821680612d6a57607f821691505b60208210811415611281577f4e487b7100000000000000000000000000000000000000000000000000000000600052602260045260246000fd5b600080835481600182811c915080831680612dc057607f831692505b6020808410821415612df9577f4e487b710000000000000000000000000000000000000000000000000000000086526022600452602486fd5b818015612e0d5760018114612e1e57612e4b565b60ff19861689528489019650612e4b565b60008a81526020902060005b86811015612e435781548b820152908501908301612e2a565b505084890196505b509498975050505050505050565b7f4e487b7100000000000000000000000000000000000000000000000000000000600052601160045260246000fd5b60007fffffffffffffffffffffffffffffffffffffffffffffffffffffffffffffffff821415612eba57612eba612e59565b5060010190565b600063ffffffff83811690831681811015612ede57612ede612e59565b039392505050565b600063ffffffff80841680612f24577f4e487b7100000000000000000000000000000000000000000000000000000000600052601260045260246000fd5b92169190910492915050565b60006bffffffffffffffffffffffff83811690831681811015612ede57612ede612e59565b60006bffffffffffffffffffffffff808316818516808303821115612f7c57612f7c612e59565b01949350505050565b600063ffffffff808316818516808303821115612f7c57612f7c612e5956fe4f6e6c792061646d696e2063616e2072656d6f76652066726f6d2077686974656c6973744d506f6e643a3a5f7472616e73666572546f6b656e733a207472616e7366657220616d6f756e74206f766572666c6f77734d506f6e643a205375627472616374696f6e206f766572666c6f7720696e2074686520636f6e7374727563746f724d506f6e643a3a617070726f76653a206164646564416d6f756e74206578636565647320393620626974734f6e6c792061646d696e2063616e2064697361626c6520616c6c207472616e73666572734d506f6e643a3a7472616e736665723a20616d6f756e74206578636565647320393620626974734d506f6e643a3a7472616e7366657246726f6d3a207472616e7366657220616d6f756e742065786365656473207370656e64657220616c6c6f77616e63654d506f6e643a3a5f6d6f7665566f7465733a20766f746520616d6f756e7420756e646572666c6f77734d506f6e643a205f7472616e666572546f6b656e733a20756e64656c6567617465207375627472616374696f6e206572726f724d506f6e643a3a617070726f76653a20616d6f756e74206578636565647320393620626974734d506f6e643a3a5f6d6f7665566f7465733a20766f746520616d6f756e74206f766572666c6f77734d506f6e643a20696e637265617365416c6c6f77616e636520616c6c6f77616e63652076616c7565206f766572666c6f77734d506f6e643a206465637265617365416c6c6f77616e636520616c6c6f77616e63652076616c756520756e646572666c6f77734d506f6e643a3a617070726f76653a2072656d6f766564416d6f756e74206578636565647320393620626974734d506f6e643a3a5f7772697465436865636b706f696e743a20626c6f636b206e756d626572206578636565647320333220626974734d506f6e643a3a5f7472616e73666572546f6b656e733a207472616e7366657220616d6f756e7420657863656564732062616c616e63654f6e6c792061646d696e2063616e20656e61626c6520616c6c207472616e73666572734d506f6e643a205f7472616e73666572546f6b656e733a20756e64656c6567617465206164646974696f6e206572726f724f6e6c792061646d696e2063616e206368616e67652064726f7020627269646765a2646970667358221220fb8550af5878839726af9405d5ea670f6f43a3fc27a5375d9d8eedf663cd65ce64736f6c63430008090033",
  "linkReferences": {},
  "deployedLinkReferences": {}
}