{
  "contractName": "Ops",
  "abi": [
    {
      "constant": true,
      "inputs": [
        {
          "name": "str",
          "type": "bytes"
        },
        {
          "name": "startIndex",
          "type": "uint256"
        },
        {
          "name": "endIndex",
          "type": "uint256"
        }
      ],
      "name": "slice",
      "outputs": [
        {
          "name": "",
          "type": "bytes"
        }
      ],
      "payable": false,
      "stateMutability": "pure",
      "type": "function"
    },
    {
      "constant": true,
      "inputs": [
        {
          "name": "_address",
          "type": "bytes"
        }
      ],
      "name": "bytesToAddress",
      "outputs": [
        {
          "name": "",
          "type": "address"
        }
      ],
      "payable": false,
      "stateMutability": "pure",
      "type": "function"
    }
  ],
  "bytecode": "0x6103d4610026600b82828239805160001a60731461001957fe5b30600052607381538281f3fe73000000000000000000000000000000000000000030146080604052600436106100405760003560e01c806342526e4e14610045578063e004139614610140575b600080fd5b6100fe6004803603602081101561005b57600080fd5b810190808035906020019064010000000081111561007857600080fd5b82018360208201111561008a57600080fd5b803590602001918460018302840111640100000000831117156100ac57600080fd5b91908080601f016020809104026020016040519081016040528093929190818152602001838380828437600081840152601f19601f820116905080830192505050505050509192919290505050610288565b604051808273ffffffffffffffffffffffffffffffffffffffff1673ffffffffffffffffffffffffffffffffffffffff16815260200191505060405180910390f35b61020d6004803603606081101561015657600080fd5b810190808035906020019064010000000081111561017357600080fd5b82018360208201111561018557600080fd5b803590602001918460018302840111640100000000831117156101a757600080fd5b91908080601f016020809104026020016040519081016040528093929190818152602001838380828437600081840152601f19601f82011690508083019250505050505050919291929080359060200190929190803590602001909291905050506102ec565b6040518080602001828103825283818151815260200191508051906020019080838360005b8381101561024d578082015181840152602081019050610232565b50505050905090810190601f16801561027a5780820380516001836020036101000a031916815260200191505b509250505060405180910390f35b60008060009050600080905060008090505b60148160ff1610156102e15761010083029250848160ff16815181106102bc57fe5b602001015160f81c60f81b60f81c60ff1691508183019250808060010191505061029a565b508192505050919050565b60608084905060608484036040519080825280601f01601f1916602001820160405280156103295781602001600182028038833980820191505090505b50905060008590505b8481101561039b5782818151811061034657fe5b602001015160f81c60f81b828783038151811061035f57fe5b60200101907effffffffffffffffffffffffffffffffffffffffffffffffffffffffffffff1916908160001a9053508080600101915050610332565b508092505050939250505056fea165627a7a72305820c7c169546bb096cbfb8707763a54f2e84891accdbabd82dd1f933aa4dfe0fbb90029",
  "source": "pragma solidity ^0.5.0;\r\n\r\nlibrary Ops{\r\n    \r\n    function slice(bytes memory str, uint startIndex, uint endIndex) public pure returns (bytes memory) {\r\n        bytes memory strBytes = str;\r\n        bytes memory result = new bytes(endIndex-startIndex);\r\n        for(uint i = startIndex; i < endIndex; i++) {\r\n            result[i-startIndex] = strBytes[i];\r\n        }\r\n        return result;\r\n    }\r\n    \r\n    function bytesToAddress(bytes memory _address) public pure returns (address) {\r\n        uint160 m = 0;\r\n        uint160 b = 0;\r\n    \r\n        for (uint8 i = 0; i < 20; i++) {\r\n          m *= 256;\r\n          b = uint160(uint8(_address[i]));\r\n          m += (b);\r\n        }\r\n    \r\n        return address(m);\r\n    }\r\n    \r\n}",
  "sourcePath": "C:\\Users\\Sarang Parikh\\Desktop\\marlin-payment\\marlin-payments\\contracts\\Ops.sol",
  "compiler": {
    "name": "solc",
    "version": "0.5.8+commit.23d335f2.Emscripten.clang"
  },
  "schemaVersion": "3.0.16",
  "updatedAt": "2019-11-01T20:02:56.338Z",
  "devdoc": {
    "methods": {}
  },
  "userdoc": {
    "methods": {}
  }
}