{
  "_format": "hh-sol-artifact-1",
  "contractName": "StakeManager",
  "sourceName": "contracts/staking/StakeManager.sol",
  "abi": [
    {
      "anonymous": false,
      "inputs": [
        {
          "indexed": false,
          "internalType": "bytes32",
          "name": "stashId",
          "type": "bytes32"
        },
        {
          "indexed": false,
          "internalType": "address",
          "name": "delegatedCluster",
          "type": "address"
        },
        {
          "indexed": false,
          "internalType": "bytes32[]",
          "name": "tokens",
          "type": "bytes32[]"
        },
        {
          "indexed": false,
          "internalType": "uint256[]",
          "name": "amounts",
          "type": "uint256[]"
        }
      ],
      "name": "AddedToStash",
      "type": "event"
    },
    {
      "anonymous": false,
      "inputs": [
        {
          "indexed": false,
          "internalType": "address",
          "name": "previousAdmin",
          "type": "address"
        },
        {
          "indexed": false,
          "internalType": "address",
          "name": "newAdmin",
          "type": "address"
        }
      ],
      "name": "AdminChanged",
      "type": "event"
    },
    {
      "anonymous": false,
      "inputs": [
        {
          "indexed": true,
          "internalType": "address",
          "name": "beacon",
          "type": "address"
        }
      ],
      "name": "BeaconUpgraded",
      "type": "event"
    },
    {
      "anonymous": false,
      "inputs": [
        {
          "indexed": false,
          "internalType": "bytes32",
          "name": "selector",
          "type": "bytes32"
        },
        {
          "indexed": false,
          "internalType": "uint256",
          "name": "prevLockTime",
          "type": "uint256"
        },
        {
          "indexed": false,
          "internalType": "uint256",
          "name": "updatedLockTime",
          "type": "uint256"
        }
      ],
      "name": "LockTimeUpdated",
      "type": "event"
    },
    {
      "anonymous": false,
      "inputs": [
        {
          "indexed": true,
          "internalType": "address",
          "name": "previousOwner",
          "type": "address"
        },
        {
          "indexed": true,
          "internalType": "address",
          "name": "newOwner",
          "type": "address"
        }
      ],
      "name": "OwnershipTransferred",
      "type": "event"
    },
    {
      "anonymous": false,
      "inputs": [
        {
          "indexed": false,
          "internalType": "bytes32",
          "name": "stashId",
          "type": "bytes32"
        },
        {
          "indexed": false,
          "internalType": "address",
          "name": "updatedCluster",
          "type": "address"
        }
      ],
      "name": "Redelegated",
      "type": "event"
    },
    {
      "anonymous": false,
      "inputs": [
        {
          "indexed": true,
          "internalType": "bytes32",
          "name": "_stashId",
          "type": "bytes32"
        }
      ],
      "name": "RedelegationCancelled",
      "type": "event"
    },
    {
      "anonymous": false,
      "inputs": [
        {
          "indexed": false,
          "internalType": "bytes32",
          "name": "stashId",
          "type": "bytes32"
        },
        {
          "indexed": false,
          "internalType": "address",
          "name": "currentCluster",
          "type": "address"
        },
        {
          "indexed": false,
          "internalType": "address",
          "name": "updatedCluster",
          "type": "address"
        },
        {
          "indexed": false,
          "internalType": "uint256",
          "name": "redelegatesAt",
          "type": "uint256"
        }
      ],
      "name": "RedelegationRequested",
      "type": "event"
    },
    {
      "anonymous": false,
      "inputs": [
        {
          "indexed": false,
          "internalType": "bytes32",
          "name": "stashId",
          "type": "bytes32"
        },
        {
          "indexed": true,
          "internalType": "address",
          "name": "staker",
          "type": "address"
        }
      ],
      "name": "StashClosed",
      "type": "event"
    },
    {
      "anonymous": false,
      "inputs": [
        {
          "indexed": true,
          "internalType": "address",
          "name": "creator",
          "type": "address"
        },
        {
          "indexed": false,
          "internalType": "bytes32",
          "name": "stashId",
          "type": "bytes32"
        },
        {
          "indexed": false,
          "internalType": "uint256",
          "name": "stashIndex",
          "type": "uint256"
        },
        {
          "indexed": false,
          "internalType": "bytes32[]",
          "name": "tokens",
          "type": "bytes32[]"
        },
        {
          "indexed": false,
          "internalType": "uint256[]",
          "name": "amounts",
          "type": "uint256[]"
        }
      ],
      "name": "StashCreated",
      "type": "event"
    },
    {
      "anonymous": false,
      "inputs": [
        {
          "indexed": false,
          "internalType": "bytes32",
          "name": "stashId",
          "type": "bytes32"
        },
        {
          "indexed": false,
          "internalType": "address",
          "name": "delegatedCluster",
          "type": "address"
        }
      ],
      "name": "StashDelegated",
      "type": "event"
    },
    {
      "anonymous": false,
      "inputs": [
        {
          "indexed": false,
          "internalType": "bytes32",
          "name": "_newStashId",
          "type": "bytes32"
        },
        {
          "indexed": false,
          "internalType": "bytes32",
          "name": "_stashId",
          "type": "bytes32"
        },
        {
          "indexed": false,
          "internalType": "uint256",
          "name": "_stashIndex",
          "type": "uint256"
        },
        {
          "indexed": false,
          "internalType": "bytes32[]",
          "name": "_splitTokens",
          "type": "bytes32[]"
        },
        {
          "indexed": false,
          "internalType": "uint256[]",
          "name": "_splitAmounts",
          "type": "uint256[]"
        }
      ],
      "name": "StashSplit",
      "type": "event"
    },
    {
      "anonymous": false,
      "inputs": [
        {
          "indexed": false,
          "internalType": "bytes32",
          "name": "stashId",
          "type": "bytes32"
        },
        {
          "indexed": false,
          "internalType": "address",
          "name": "undelegatedCluster",
          "type": "address"
        },
        {
          "indexed": false,
          "internalType": "uint256",
          "name": "undelegatesAt",
          "type": "uint256"
        }
      ],
      "name": "StashUndelegated",
      "type": "event"
    },
    {
      "anonymous": false,
      "inputs": [
        {
          "indexed": false,
          "internalType": "bytes32",
          "name": "_stashId",
          "type": "bytes32"
        }
      ],
      "name": "StashUndelegationCancelled",
      "type": "event"
    },
    {
      "anonymous": false,
      "inputs": [
        {
          "indexed": false,
          "internalType": "bytes32",
          "name": "stashId",
          "type": "bytes32"
        },
        {
          "indexed": false,
          "internalType": "bytes32[]",
          "name": "tokens",
          "type": "bytes32[]"
        },
        {
          "indexed": false,
          "internalType": "uint256[]",
          "name": "amounts",
          "type": "uint256[]"
        }
      ],
      "name": "StashWithdrawn",
      "type": "event"
    },
    {
      "anonymous": false,
      "inputs": [
        {
          "indexed": false,
          "internalType": "bytes32",
          "name": "_stashId1",
          "type": "bytes32"
        },
        {
          "indexed": false,
          "internalType": "bytes32",
          "name": "_stashId2",
          "type": "bytes32"
        }
      ],
      "name": "StashesMerged",
      "type": "event"
    },
    {
      "anonymous": false,
      "inputs": [
        {
          "indexed": false,
          "internalType": "bytes32",
          "name": "tokenId",
          "type": "bytes32"
        },
        {
          "indexed": false,
          "internalType": "address",
          "name": "tokenAddress",
          "type": "address"
        }
      ],
      "name": "TokenAdded",
      "type": "event"
    },
    {
      "anonymous": false,
      "inputs": [
        {
          "indexed": false,
          "internalType": "bytes32",
          "name": "tokenId",
          "type": "bytes32"
        }
      ],
      "name": "TokenRemoved",
      "type": "event"
    },
    {
      "anonymous": false,
      "inputs": [
        {
          "indexed": false,
          "internalType": "bytes32",
          "name": "tokenId",
          "type": "bytes32"
        },
        {
          "indexed": false,
          "internalType": "address",
          "name": "tokenAddress",
          "type": "address"
        }
      ],
      "name": "TokenUpdated",
      "type": "event"
    },
    {
      "anonymous": false,
      "inputs": [
        {
          "indexed": false,
          "internalType": "uint256",
          "name": "undelegationWaitTime",
          "type": "uint256"
        }
      ],
      "name": "UndelegationWaitTimeUpdated",
      "type": "event"
    },
    {
      "anonymous": false,
      "inputs": [
        {
          "indexed": true,
          "internalType": "address",
          "name": "implementation",
          "type": "address"
        }
      ],
      "name": "Upgraded",
      "type": "event"
    },
    {
      "inputs": [
        {
          "internalType": "bytes32",
          "name": "_stashId",
          "type": "bytes32"
        },
        {
          "internalType": "bytes32[]",
          "name": "_tokens",
          "type": "bytes32[]"
        },
        {
          "internalType": "uint256[]",
          "name": "_amounts",
          "type": "uint256[]"
        }
      ],
      "name": "addToStash",
      "outputs": [],
      "stateMutability": "nonpayable",
      "type": "function"
    },
    {
      "inputs": [
        {
          "internalType": "bytes32",
          "name": "_stashId",
          "type": "bytes32"
        }
      ],
      "name": "cancelRedelegation",
      "outputs": [],
      "stateMutability": "nonpayable",
      "type": "function"
    },
    {
      "inputs": [
        {
          "internalType": "bytes32",
          "name": "_stashId",
          "type": "bytes32"
        },
        {
          "internalType": "address",
          "name": "_delegatedCluster",
          "type": "address"
        }
      ],
      "name": "cancelUndelegation",
      "outputs": [],
      "stateMutability": "nonpayable",
      "type": "function"
    },
    {
      "inputs": [
        {
          "internalType": "address",
          "name": "_MPONDTokenAddress",
          "type": "address"
        }
      ],
      "name": "changeMPONDTokenAddress",
      "outputs": [],
      "stateMutability": "nonpayable",
      "type": "function"
    },
    {
      "inputs": [
        {
          "internalType": "bytes32[]",
          "name": "_tokens",
          "type": "bytes32[]"
        },
        {
          "internalType": "uint256[]",
          "name": "_amounts",
          "type": "uint256[]"
        }
      ],
      "name": "createStash",
      "outputs": [
        {
          "internalType": "bytes32",
          "name": "",
          "type": "bytes32"
        }
      ],
      "stateMutability": "nonpayable",
      "type": "function"
    },
    {
      "inputs": [
        {
          "internalType": "bytes32[]",
          "name": "_tokens",
          "type": "bytes32[]"
        },
        {
          "internalType": "uint256[]",
          "name": "_amounts",
          "type": "uint256[]"
        },
        {
          "internalType": "address",
          "name": "_delegatedCluster",
          "type": "address"
        }
      ],
      "name": "createStashAndDelegate",
      "outputs": [],
      "stateMutability": "nonpayable",
      "type": "function"
    },
    {
      "inputs": [
        {
          "internalType": "bytes32",
          "name": "_stashId",
          "type": "bytes32"
        },
        {
          "internalType": "address",
          "name": "_delegatedCluster",
          "type": "address"
        }
      ],
      "name": "delegateStash",
      "outputs": [],
      "stateMutability": "nonpayable",
      "type": "function"
    },
    {
      "inputs": [
        {
          "internalType": "bytes32",
          "name": "_tokenId",
          "type": "bytes32"
        }
      ],
      "name": "disableToken",
      "outputs": [],
      "stateMutability": "nonpayable",
      "type": "function"
    },
    {
      "inputs": [
        {
          "internalType": "bytes32",
          "name": "_tokenId",
          "type": "bytes32"
        },
        {
          "internalType": "address",
          "name": "_address",
          "type": "address"
        }
      ],
      "name": "enableToken",
      "outputs": [],
      "stateMutability": "nonpayable",
      "type": "function"
    },
    {
      "inputs": [
        {
          "internalType": "bytes32",
          "name": "_stashId",
          "type": "bytes32"
        },
        {
          "internalType": "bytes32",
          "name": "_tokenId",
          "type": "bytes32"
        }
      ],
      "name": "getTokenAmountInStash",
      "outputs": [
        {
          "internalType": "uint256",
          "name": "",
          "type": "uint256"
        }
      ],
      "stateMutability": "view",
      "type": "function"
    },
    {
      "inputs": [
        {
          "internalType": "bytes32[]",
          "name": "_tokenIds",
          "type": "bytes32[]"
        },
        {
          "internalType": "address[]",
          "name": "_tokenAddresses",
          "type": "address[]"
        },
        {
          "internalType": "address",
          "name": "_MPONDTokenAddress",
          "type": "address"
        },
        {
          "internalType": "address",
          "name": "_rewardDelegatorsAddress",
          "type": "address"
        },
        {
          "internalType": "address",
          "name": "_owner",
          "type": "address"
        },
        {
          "internalType": "uint256",
          "name": "_undelegationWaitTime",
          "type": "uint256"
        }
      ],
      "name": "initialize",
      "outputs": [],
      "stateMutability": "nonpayable",
      "type": "function"
    },
    {
      "inputs": [
        {
          "internalType": "bytes32",
          "name": "",
          "type": "bytes32"
        }
      ],
      "name": "lockWaitTime",
      "outputs": [
        {
          "internalType": "uint256",
          "name": "",
          "type": "uint256"
        }
      ],
      "stateMutability": "view",
      "type": "function"
    },
    {
      "inputs": [
        {
          "internalType": "bytes32",
          "name": "",
          "type": "bytes32"
        }
      ],
      "name": "locks",
      "outputs": [
        {
          "internalType": "uint256",
          "name": "unlockBlock",
          "type": "uint256"
        },
        {
          "internalType": "uint256",
          "name": "iValue",
          "type": "uint256"
        }
      ],
      "stateMutability": "view",
      "type": "function"
    },
    {
      "inputs": [
        {
          "internalType": "bytes32",
          "name": "_stashId1",
          "type": "bytes32"
        },
        {
          "internalType": "bytes32",
          "name": "_stashId2",
          "type": "bytes32"
        }
      ],
      "name": "mergeStash",
      "outputs": [],
      "stateMutability": "nonpayable",
      "type": "function"
    },
    {
      "inputs": [],
      "name": "owner",
      "outputs": [
        {
          "internalType": "address",
          "name": "",
          "type": "address"
        }
      ],
      "stateMutability": "view",
      "type": "function"
    },
    {
      "inputs": [
        {
          "internalType": "bytes32",
          "name": "_stashId",
          "type": "bytes32"
        }
      ],
      "name": "redelegateStash",
      "outputs": [],
      "stateMutability": "nonpayable",
      "type": "function"
    },
    {
      "inputs": [
        {
          "internalType": "bytes32[]",
          "name": "_stashIds",
          "type": "bytes32[]"
        }
      ],
      "name": "redelegateStashes",
      "outputs": [],
      "stateMutability": "nonpayable",
      "type": "function"
    },
    {
      "inputs": [],
      "name": "renounceOwnership",
      "outputs": [],
      "stateMutability": "nonpayable",
      "type": "function"
    },
    {
      "inputs": [
        {
          "internalType": "bytes32",
          "name": "_stashId",
          "type": "bytes32"
        },
        {
          "internalType": "address",
          "name": "_newCluster",
          "type": "address"
        }
      ],
      "name": "requestStashRedelegation",
      "outputs": [],
      "stateMutability": "nonpayable",
      "type": "function"
    },
    {
      "inputs": [
        {
          "internalType": "bytes32[]",
          "name": "_stashIds",
          "type": "bytes32[]"
        },
        {
          "internalType": "address[]",
          "name": "_newClusters",
          "type": "address[]"
        }
      ],
      "name": "requestStashRedelegations",
      "outputs": [],
      "stateMutability": "nonpayable",
      "type": "function"
    },
    {
      "inputs": [],
      "name": "rewardDelegators",
      "outputs": [
        {
          "internalType": "contract IRewardDelegators",
          "name": "",
          "type": "address"
        }
      ],
      "stateMutability": "view",
      "type": "function"
    },
    {
      "inputs": [
        {
          "internalType": "bytes32",
          "name": "_stashId",
          "type": "bytes32"
        },
        {
          "internalType": "bytes32[]",
          "name": "_tokens",
          "type": "bytes32[]"
        },
        {
          "internalType": "uint256[]",
          "name": "_amounts",
          "type": "uint256[]"
        }
      ],
      "name": "splitStash",
      "outputs": [],
      "stateMutability": "nonpayable",
      "type": "function"
    },
    {
      "inputs": [],
      "name": "stashIndex",
      "outputs": [
        {
          "internalType": "uint256",
          "name": "",
          "type": "uint256"
        }
      ],
      "stateMutability": "view",
      "type": "function"
    },
    {
      "inputs": [
        {
          "internalType": "bytes32",
          "name": "",
          "type": "bytes32"
        }
      ],
      "name": "stashes",
      "outputs": [
        {
          "internalType": "address",
          "name": "staker",
          "type": "address"
        },
        {
          "internalType": "address",
          "name": "delegatedCluster",
          "type": "address"
        },
        {
          "internalType": "uint256",
          "name": "undelegatesAt",
          "type": "uint256"
        }
      ],
      "stateMutability": "view",
      "type": "function"
    },
    {
      "inputs": [
        {
          "internalType": "address",
          "name": "newOwner",
          "type": "address"
        }
      ],
      "name": "transferOwnership",
      "outputs": [],
      "stateMutability": "nonpayable",
      "type": "function"
    },
    {
      "inputs": [
        {
          "internalType": "bytes32",
          "name": "_stashId",
          "type": "bytes32"
        }
      ],
      "name": "undelegateStash",
      "outputs": [],
      "stateMutability": "nonpayable",
      "type": "function"
    },
    {
      "inputs": [
        {
          "internalType": "bytes32[]",
          "name": "_stashIds",
          "type": "bytes32[]"
        }
      ],
      "name": "undelegateStashes",
      "outputs": [],
      "stateMutability": "nonpayable",
      "type": "function"
    },
    {
      "inputs": [],
      "name": "undelegationWaitTime",
      "outputs": [
        {
          "internalType": "uint256",
          "name": "",
          "type": "uint256"
        }
      ],
      "stateMutability": "view",
      "type": "function"
    },
    {
      "inputs": [
        {
          "internalType": "bytes32",
          "name": "_selector",
          "type": "bytes32"
        },
        {
          "internalType": "uint256",
          "name": "_updatedWaitTime",
          "type": "uint256"
        }
      ],
      "name": "updateLockWaitTime",
      "outputs": [],
      "stateMutability": "nonpayable",
      "type": "function"
    },
    {
      "inputs": [
        {
          "internalType": "address",
          "name": "_updatedRewardDelegator",
          "type": "address"
        }
      ],
      "name": "updateRewardDelegators",
      "outputs": [],
      "stateMutability": "nonpayable",
      "type": "function"
    },
    {
      "inputs": [
        {
          "internalType": "uint256",
          "name": "_undelegationWaitTime",
          "type": "uint256"
        }
      ],
      "name": "updateUndelegationWaitTime",
      "outputs": [],
      "stateMutability": "nonpayable",
      "type": "function"
    },
    {
      "inputs": [
        {
          "internalType": "address",
          "name": "newImplementation",
          "type": "address"
        }
      ],
      "name": "upgradeTo",
      "outputs": [],
      "stateMutability": "nonpayable",
      "type": "function"
    },
    {
      "inputs": [
        {
          "internalType": "address",
          "name": "newImplementation",
          "type": "address"
        },
        {
          "internalType": "bytes",
          "name": "data",
          "type": "bytes"
        }
      ],
      "name": "upgradeToAndCall",
      "outputs": [],
      "stateMutability": "payable",
      "type": "function"
    },
    {
      "inputs": [
        {
          "internalType": "bytes32",
          "name": "_stashId",
          "type": "bytes32"
        }
      ],
      "name": "withdrawStash",
      "outputs": [],
      "stateMutability": "nonpayable",
      "type": "function"
    },
    {
      "inputs": [
        {
          "internalType": "bytes32",
          "name": "_stashId",
          "type": "bytes32"
        },
        {
          "internalType": "bytes32[]",
          "name": "_tokens",
          "type": "bytes32[]"
        },
        {
          "internalType": "uint256[]",
          "name": "_amounts",
          "type": "uint256[]"
        }
      ],
      "name": "withdrawStash",
      "outputs": [],
      "stateMutability": "nonpayable",
      "type": "function"
    }
  ],
  "bytecode": "0x60a06040523060805234801561001457600080fd5b5060805161532b61004560003960008181610c0301528181610c990152818161171e01526117b4015261532b6000f3fe6080604052600436106102345760003560e01c80637a099cce11610138578063b6ce4dd3116100b0578063c0403fb11161007f578063ed5e843711610064578063ed5e8437146106b0578063f2fde38b146106f9578063fff0d1901461071957600080fd5b8063c0403fb114610670578063c5ccd6971461069057600080fd5b8063b6ce4dd3146105f0578063bc66c94b14610610578063bcda640814610630578063bf3e116b1461065057600080fd5b80639a5e0e6011610107578063a8834f4e116100ec578063a8834f4e14610590578063aa49f091146105b0578063b1f4d1cf146105d057600080fd5b80639a5e0e60146104e5578063a76f955f1461052157600080fd5b80637a099cce146104675780638616e44d146104875780638da5cb5b146104a7578063934efeb9146104c557600080fd5b8063452a6279116101cb5780634f1ef2861161019a578063625aa5551161017f578063625aa5551461041c5780636dd3266d14610432578063715018a61461045257600080fd5b80634f1ef286146103e95780635dc47b57146103fc57600080fd5b8063452a62791461035c57806347ae58b31461037c57806348ad85721461039c5780634c8e7d81146103c957600080fd5b8063315db6d811610207578063315db6d8146102c45780633659cfe6146102e457806338e6cc38146103045780633fa364cd1461032457600080fd5b8063044ff62b1461023957806315c5dfa51461025b5780631a282d9914610284578063244864d8146102a4575b600080fd5b34801561024557600080fd5b50610259610254366004614960565b610739565b005b34801561026757600080fd5b5061027160ca5481565b6040519081526020015b60405180910390f35b34801561029057600080fd5b5061025961029f366004614960565b6107fc565b3480156102b057600080fd5b506102596102bf366004614ae6565b610977565b3480156102d057600080fd5b506102596102df366004614b4a565b610a27565b3480156102f057600080fd5b506102596102ff366004614b76565b610bf8565b34801561031057600080fd5b5061025961031f366004614b4a565b610d93565b34801561033057600080fd5b5060cf54610344906001600160a01b031681565b6040516001600160a01b03909116815260200161027b565b34801561036857600080fd5b50610259610377366004614960565b611186565b34801561038857600080fd5b50610259610397366004614b76565b61156e565b3480156103a857600080fd5b506102716103b7366004614960565b60d16020526000908152604090205481565b3480156103d557600080fd5b506102596103e4366004614960565b611615565b6102596103f7366004614b91565b611713565b34801561040857600080fd5b50610259610417366004614960565b6118a2565b34801561042857600080fd5b5061027160d25481565b34801561043e57600080fd5b5061025961044d366004614b4a565b611c26565b34801561045e57600080fd5b50610259611dca565b34801561047357600080fd5b50610259610482366004614b76565b611e30565b34801561049357600080fd5b506102596104a2366004614c83565b611f28565b3480156104b357600080fd5b506097546001600160a01b0316610344565b3480156104d157600080fd5b506102596104e0366004614960565b6122a6565b3480156104f157600080fd5b50610271610500366004614cfd565b600091825260c9602090815260408084209284526002909201905290205490565b34801561052d57600080fd5b5061056a61053c366004614960565b60c9602052600090815260409020805460018201546003909201546001600160a01b03918216929091169083565b604080516001600160a01b0394851681529390921660208401529082015260600161027b565b34801561059c57600080fd5b506102596105ab366004614c83565b612335565b3480156105bc57600080fd5b506102596105cb366004614c83565b6126b6565b3480156105dc57600080fd5b506102596105eb366004614d1f565b612a7d565b3480156105fc57600080fd5b5061025961060b366004614d1f565b612abd565b34801561061c57600080fd5b5061025961062b366004614d5c565b612afd565b34801561063c57600080fd5b5061025961064b366004614cfd565b612de8565b34801561065c57600080fd5b5061025961066b366004614dfa565b613368565b34801561067c57600080fd5b5061027161068b366004614e6e565b613380565b34801561069c57600080fd5b506102596106ab366004614b4a565b61368d565b3480156106bc57600080fd5b506106e46106cb366004614960565b60d0602052600090815260409020805460019091015482565b6040805192835260208301919091520161027b565b34801561070557600080fd5b50610259610714366004614b76565b6137f5565b34801561072557600080fd5b50610259610734366004614cfd565b6138d4565b600081815260c960205260409020546001600160a01b031633146107a45760405162461bcd60e51b815260206004820152600360248201527f435231000000000000000000000000000000000000000000000000000000000060448201526064015b60405180910390fd5b6107ad8161398f565b6107f95760405162461bcd60e51b815260206004820152600360248201527f4352320000000000000000000000000000000000000000000000000000000000604482015260640161079b565b50565b600081815260c960205260409020600101546001600160a01b03166108635760405162461bcd60e51b815260206004820152600360248201527f5253310000000000000000000000000000000000000000000000000000000000604482015260640161079b565b604080517fc9fb5027edad04dc7cbd44766b39dcb7d42c498b3b47b80001805039c63cf1e0602082015290810182905260009060600160408051601f198184030181529181528151602092830120600081815260d090935291205490915080158015906108d05750438111155b61091c5760405162461bcd60e51b815260206004820152600360248201527f5253320000000000000000000000000000000000000000000000000000000000604482015260640161079b565b600082815260d06020908152604080832060019081015487855260c990935292208054920154909161095d9186916001600160a01b03908116911684613a44565b5050600090815260d0602052604081208181556001015550565b80518251146109c85760405162461bcd60e51b815260206004820152601c60248201527f534d3a52535273202d20496e76616c696420696e707574206461746100000000604482015260640161079b565b60005b8251811015610a2257610a108382815181106109e9576109e9614ec8565b6020026020010151838381518110610a0357610a03614ec8565b6020026020010151611c26565b80610a1a81614f26565b9150506109cb565b505050565b600082815260c96020526040902080546003909101546001600160a01b0390911690338214610a985760405162461bcd60e51b815260206004820152600360248201527f4355310000000000000000000000000000000000000000000000000000000000604482015260640161079b565b438111610ae75760405162461bcd60e51b815260206004820152600360248201527f4355320000000000000000000000000000000000000000000000000000000000604482015260640161079b565b7fc9fb5027edad04dc7cbd44766b39dcb7d42c498b3b47b80001805039c63cf1e060005260d16020527f65a7a9b7d255c8cc69a8c0165ff8f20c6357001ea985b43094e2ea8d2f0ea6d45460d254610b3f9043614f5f565b610b499190614f77565b8110610b975760405162461bcd60e51b815260206004820152600360248201527f4355330000000000000000000000000000000000000000000000000000000000604482015260640161079b565b600084815260c9602052604080822060030191909155517fe82d816130a7347cc60ff37b0c5e9c5eb73bbd73c5a4260112932e100111232790610bdd9086815260200190565b60405180910390a1610bf28483600086613a44565b50505050565b306001600160a01b037f0000000000000000000000000000000000000000000000000000000000000000161415610c975760405162461bcd60e51b815260206004820152602c60248201527f46756e6374696f6e206d7573742062652063616c6c6564207468726f7567682060448201527f64656c656761746563616c6c0000000000000000000000000000000000000000606482015260840161079b565b7f00000000000000000000000000000000000000000000000000000000000000006001600160a01b0316610cf27f360894a13ba1a3210667c828492db98dca3e2076cc3735a920a3ca505d382bbc546001600160a01b031690565b6001600160a01b031614610d6e5760405162461bcd60e51b815260206004820152602c60248201527f46756e6374696f6e206d7573742062652063616c6c6564207468726f7567682060448201527f6163746976652070726f78790000000000000000000000000000000000000000606482015260840161079b565b610d7781613d3b565b604080516000808252602082019092526107f991839190613d95565b600082815260c960205260409020546001600160a01b03163314610df95760405162461bcd60e51b815260206004820152600360248201527f4453310000000000000000000000000000000000000000000000000000000000604482015260640161079b565b6001600160a01b038116610e4f5760405162461bcd60e51b815260206004820152600360248201527f4453320000000000000000000000000000000000000000000000000000000000604482015260640161079b565b600082815260c960205260409020600101546001600160a01b031615610eb75760405162461bcd60e51b815260206004820152600360248201527f4453330000000000000000000000000000000000000000000000000000000000604482015260640161079b565b600082815260c96020526040902060030154431015610f185760405162461bcd60e51b815260206004820152600360248201527f4453340000000000000000000000000000000000000000000000000000000000604482015260640161079b565b600082815260c960205260408082206001810180547fffffffffffffffffffffffff0000000000000000000000000000000000000000166001600160a01b0386811691909117909155600390910183905560cf5482517f2cd767580000000000000000000000000000000000000000000000000000000081529251911691632cd767589160048083019286929190829003018186803b158015610fba57600080fd5b505afa158015610fce573d6000803e3d6000fd5b505050506040513d6000823e601f3d908101601f19168201604052610ff69190810190614f8e565b90506000815167ffffffffffffffff81111561101457611014614979565b60405190808252806020026020018201604052801561103d578160200160208202803683370190505b50905060005b82518110156110bc5760c96000868152602001908152602001600020600201600084838151811061107657611076614ec8565b602002602001015181526020019081526020016000205482828151811061109f5761109f614ec8565b6020908102919091010152806110b481614f26565b915050611043565b5060cf546040517f242ae3580000000000000000000000000000000000000000000000000000000081526001600160a01b039091169063242ae3589061110c90339087908790879060040161505a565b600060405180830381600087803b15801561112657600080fd5b505af115801561113a573d6000803e3d6000fd5b5050604080518781526001600160a01b03871660208201527f1d7a1ceec042fe10baf115a3343fbc7647382acfb27b3bb9d63877a592627c81935001905060405180910390a150505050565b600081815260c960205260409020546001600160a01b031633146111ec5760405162461bcd60e51b815260206004820152600360248201527f5753310000000000000000000000000000000000000000000000000000000000604482015260640161079b565b600081815260c960205260409020600101546001600160a01b0316156112545760405162461bcd60e51b815260206004820152600360248201527f5753320000000000000000000000000000000000000000000000000000000000604482015260640161079b565b600081815260c960205260409020600301544310156112b55760405162461bcd60e51b815260206004820152600360248201527f5753330000000000000000000000000000000000000000000000000000000000604482015260640161079b565b60cf54604080517f2cd7675800000000000000000000000000000000000000000000000000000000815290516000926001600160a01b031691632cd767589160048083019286929190829003018186803b15801561131257600080fd5b505afa158015611326573d6000803e3d6000fd5b505050506040513d6000823e601f3d908101601f1916820160405261134e9190810190614f8e565b90506000815167ffffffffffffffff81111561136c5761136c614979565b604051908082528060200260200182016040528015611395578160200160208202803683370190505b50905060005b82518110156114bd5760c9600085815260200190815260200160002060020160008483815181106113ce576113ce614ec8565b60200260200101518152602001908152602001600020548282815181106113f7576113f7614ec8565b60200260200101818152505081818151811061141557611415614ec8565b60200260200101516000141561142a576114ab565b60c96000858152602001908152602001600020600201600084838151811061145457611454614ec8565b60200260200101518152602001908152602001600020600090556114ab83828151811061148357611483614ec8565b602002602001015183838151811061149d5761149d614ec8565b602002602001015133613f95565b806114b581614f26565b91505061139b565b50600083815260c9602052604080822080547fffffffffffffffffffffffff000000000000000000000000000000000000000016815560030191909155517ff7b17d83b1c6d7f3c428e708ce63a8afc9ce528790694f379bd32da3b09d58509061152c90859085908590615098565b60405180910390a160405183815233907f44ec1f9e039c512541fb6904909fc8b3fd32a960374888656587103a37a0c0f89060200160405180910390a2505050565b6097546001600160a01b031633146115c85760405162461bcd60e51b815260206004820181905260248201527f4f776e61626c653a2063616c6c6572206973206e6f7420746865206f776e6572604482015260640161079b565b6001600160a01b0381166115db57600080fd5b60cf80547fffffffffffffffffffffffff0000000000000000000000000000000000000000166001600160a01b0392909216919091179055565b6097546001600160a01b0316331461166f5760405162461bcd60e51b815260206004820181905260248201527f4f776e61626c653a2063616c6c6572206973206e6f7420746865206f776e6572604482015260640161079b565b600081815260cb602052604090205474010000000000000000000000000000000000000000900460ff166116a257600080fd5b600081815260cb60205260409081902080547fffffffffffffffffffffff00ffffffffffffffffffffffffffffffffffffffff169055517f27b51627532fe8cd0df946e5a9590efb06cc367d3d611c1e4084c7e1dccb3ab4906117089083815260200190565b60405180910390a150565b306001600160a01b037f00000000000000000000000000000000000000000000000000000000000000001614156117b25760405162461bcd60e51b815260206004820152602c60248201527f46756e6374696f6e206d7573742062652063616c6c6564207468726f7567682060448201527f64656c656761746563616c6c0000000000000000000000000000000000000000606482015260840161079b565b7f00000000000000000000000000000000000000000000000000000000000000006001600160a01b031661180d7f360894a13ba1a3210667c828492db98dca3e2076cc3735a920a3ca505d382bbc546001600160a01b031690565b6001600160a01b0316146118895760405162461bcd60e51b815260206004820152602c60248201527f46756e6374696f6e206d7573742062652063616c6c6564207468726f7567682060448201527f6163746976652070726f78790000000000000000000000000000000000000000606482015260840161079b565b61189282613d3b565b61189e82826001613d95565b5050565b600081815260c960205260409020546001600160a01b031633146119085760405162461bcd60e51b815260206004820152600360248201527f5553310000000000000000000000000000000000000000000000000000000000604482015260640161079b565b600081815260c960205260409020600101546001600160a01b031661196f5760405162461bcd60e51b815260206004820152600360248201527f5553320000000000000000000000000000000000000000000000000000000000604482015260640161079b565b60d254600061197e8243614f5f565b600084815260c9602052604090206003810182905560010180547fffffffffffffffffffffffff000000000000000000000000000000000000000016905590506119c78361398f565b5060cf54604080517f2cd7675800000000000000000000000000000000000000000000000000000000815290516000926001600160a01b031691632cd767589160048083019286929190829003018186803b158015611a2557600080fd5b505afa158015611a39573d6000803e3d6000fd5b505050506040513d6000823e601f3d908101601f19168201604052611a619190810190614f8e565b90506000815167ffffffffffffffff811115611a7f57611a7f614979565b604051908082528060200260200182016040528015611aa8578160200160208202803683370190505b50905060005b8251811015611b275760c960008781526020019081526020016000206002016000848381518110611ae157611ae1614ec8565b6020026020010151815260200190815260200160002054828281518110611b0a57611b0a614ec8565b602090810291909101015280611b1f81614f26565b915050611aae565b5060cf54600086815260c96020526040908190206001015490517f9a943e000000000000000000000000000000000000000000000000000000000081526001600160a01b0392831692639a943e0092611b8c923392909116908790879060040161505a565b600060405180830381600087803b158015611ba657600080fd5b505af1158015611bba573d6000803e3d6000fd5b505050600086815260c960209081526040918290206001015482518981526001600160a01b03909116918101919091529081018590527f910aaad05eef8babc75a5bbd3987092b49f6dcd0fd06c860d9af177b650c562591506060015b60405180910390a15050505050565b600082815260c960205260409020546001600160a01b03163314611c8e5760405162461bcd60e51b815260040161079b9060208082526004908201527f5253523100000000000000000000000000000000000000000000000000000000604082015260600190565b600082815260c960205260409020600101546001600160a01b0316611cf75760405162461bcd60e51b815260040161079b9060208082526004908201527f5253523200000000000000000000000000000000000000000000000000000000604082015260600190565b6001600160a01b038116611d4f5760405162461bcd60e51b815260040161079b9060208082526004908201527f5253523300000000000000000000000000000000000000000000000000000000604082015260600190565b6000611d5b83836141e0565b600084815260c960209081526040918290206001015482518781526001600160a01b03918216928101929092528516818301526060810183905290519192507fcc9ff84a5150218e8e56d3d43cfd422a96d5994a3877a760afc1f85dcbab545d919081900360800190a1505050565b6097546001600160a01b03163314611e245760405162461bcd60e51b815260206004820181905260248201527f4f776e61626c653a2063616c6c6572206973206e6f7420746865206f776e6572604482015260640161079b565b611e2e6000614327565b565b6097546001600160a01b03163314611e8a5760405162461bcd60e51b815260206004820181905260248201527f4f776e61626c653a2063616c6c6572206973206e6f7420746865206f776e6572604482015260640161079b565b60cc805460cd80546001600160a01b038084167fffffffffffffffffffffffff000000000000000000000000000000000000000092831617909255909116908316908117909155604080517f9d76bde6f6a1e9bf8e29a98238a6cb26e11f790c4377a675d10c5b375109dbc8815260208101929092527f2aada7c835843a942d6bae43540591b084921c87edbb049c55d49d11442427949101611708565b600085815260c960205260409020546001600160a01b03163314611f8e5760405162461bcd60e51b815260206004820152600360248201527f4153310000000000000000000000000000000000000000000000000000000000604482015260640161079b565b600085815260c96020526040902060030154431015611fef5760405162461bcd60e51b815260206004820152600360248201527f4153320000000000000000000000000000000000000000000000000000000000604482015260640161079b565b82811461203e5760405162461bcd60e51b815260206004820152600360248201527f4153330000000000000000000000000000000000000000000000000000000000604482015260640161079b565b600085815260c960205260409020600101546001600160a01b0316156120f95760cf54600086815260c96020526040908190206001015490517f242ae3580000000000000000000000000000000000000000000000000000000081526001600160a01b039283169263242ae358926120c692339290911690899089908990899060040161511c565b600060405180830381600087803b1580156120e057600080fd5b505af11580156120f4573d6000803e3d6000fd5b505050505b60005b8381101561225057600085858381811061211857612118614ec8565b60209081029290920135600081815260cb9093526040909220549192505074010000000000000000000000000000000000000000900460ff1661219d5760405162461bcd60e51b815260206004820152600360248201527f4153340000000000000000000000000000000000000000000000000000000000604482015260640161079b565b8383838181106121af576121af614ec8565b9050602002013560001461223d578383838181106121cf576121cf614ec8565b60008a815260c9602090815260408083208784526002018252909120546121fd949190920201359150614f5f565b600088815260c96020908152604080832085845260020190915290205561223d8185858581811061223057612230614ec8565b9050602002013533614391565b508061224881614f26565b9150506120fc565b50600085815260c96020526040908190206001015490517f08fc62a716797765934c34e699a0dd8276e455b0dd6e2831d026bb7764a3945c91611c179188916001600160a01b0316908890889088908890615169565b6097546001600160a01b031633146123005760405162461bcd60e51b815260206004820181905260248201527f4f776e61626c653a2063616c6c6572206973206e6f7420746865206f776e6572604482015260640161079b565b60d28190556040518181527fd2d74b9fbd3364e161a82e64e07b2f1d94a781cf730d0e65810f7fb5a57c462590602001611708565b600085815260c960205260409020546001600160a01b0316331461239d5760405162461bcd60e51b815260040161079b9060208082526004908201527f5753433100000000000000000000000000000000000000000000000000000000604082015260600190565b600085815260c960205260409020600101546001600160a01b0316156124075760405162461bcd60e51b815260040161079b9060208082526004908201527f5753433200000000000000000000000000000000000000000000000000000000604082015260600190565b600085815260c9602052604090206003015443101561246a5760405162461bcd60e51b815260040161079b9060208082526004908201527f5753433300000000000000000000000000000000000000000000000000000000604082015260600190565b8281146124bb5760405162461bcd60e51b815260040161079b9060208082526004908201527f5753433400000000000000000000000000000000000000000000000000000000604082015260600190565b60005b8381101561267e57600086815260c960205260408120600201818787858181106124ea576124ea614ec8565b90506020020135815260200190815260200160002054905083838381811061251457612514614ec8565b9050602002013581101561256c5760405162461bcd60e51b815260040161079b9060208082526004908201527f5753433500000000000000000000000000000000000000000000000000000000604082015260600190565b83838381811061257e5761257e614ec8565b905060200201358114156125ce57600087815260c960205260408120600201908787858181106125b0576125b0614ec8565b90506020020135815260200190815260200160002060009055612630565b8383838181106125e0576125e0614ec8565b90506020020135816125f29190614f77565b600088815260c9602052604081206002019088888681811061261657612616614ec8565b905060200201358152602001908152602001600020819055505b61266b86868481811061264557612645614ec8565b9050602002013585858581811061265e5761265e614ec8565b9050602002013533613f95565b508061267681614f26565b9150506124be565b507ff7b17d83b1c6d7f3c428e708ce63a8afc9ce528790694f379bd32da3b09d58508585858585604051611c17959493929190615192565b600085815260c960205260409020546001600160a01b0316331461271c5760405162461bcd60e51b815260206004820152600360248201527f5353310000000000000000000000000000000000000000000000000000000000604482015260640161079b565b826127695760405162461bcd60e51b815260206004820152600360248201527f5353320000000000000000000000000000000000000000000000000000000000604482015260640161079b565b8281146127b85760405162461bcd60e51b815260206004820152600360248201527f5353330000000000000000000000000000000000000000000000000000000000604482015260640161079b565b60ca54604080516020808201849052825180830382018152918301909252805191012060005b858110156129b75760008787838181106127fa576127fa614ec8565b905060200201359050600086868481811061281757612817614ec8565b600087815260c960209081526040808320888452600201825290912054910292909201359250501561288b5760405162461bcd60e51b815260206004820152600360248201527f5353340000000000000000000000000000000000000000000000000000000000604482015260640161079b565b806128d85760405162461bcd60e51b815260206004820152600360248201527f5353350000000000000000000000000000000000000000000000000000000000604482015260640161079b565b60008a815260c9602090815260408083208584526002019091529020548111156129445760405162461bcd60e51b815260206004820152600360248201527f5353360000000000000000000000000000000000000000000000000000000000604482015260640161079b565b60008a815260c96020908152604080832085845260020190915290205461296c908290614f77565b60008b815260c96020818152604080842087855260029081018352818520959095558884529181528183209583529490920190935290912055806129af81614f26565b9150506127de565b50600081815260c9602052604080822080547fffffffffffffffffffffffff0000000000000000000000000000000000000000908116331782558a845282842060018181015490840180549093166001600160a01b039190911617909155600390810154938590520191909155517f147f8735c585be62efbb75aee3c165de6e2b5f7cdc0fb65b9e5d358ce2871cfd90612a5e9083908a9086908b908b908b908b906151cb565b60405180910390a1612a71826001614f5f565b60ca5550505050505050565b60005b815181101561189e57612aab828281518110612a9e57612a9e614ec8565b60200260200101516107fc565b80612ab581614f26565b915050612a80565b60005b815181101561189e57612aeb828281518110612ade57612ade614ec8565b60200260200101516118a2565b80612af581614f26565b915050612ac0565b600054610100900460ff1680612b16575060005460ff16155b612b885760405162461bcd60e51b815260206004820152602e60248201527f496e697469616c697a61626c653a20636f6e747261637420697320616c72656160448201527f647920696e697469616c697a6564000000000000000000000000000000000000606482015260840161079b565b600054610100900460ff16158015612bc757600080547fffffffffffffffffffffffffffffffffffffffffffffffffffffffffffff0000166101011790555b8551875114612bd557600080fd5b60005b8751811015612d39576040518060400160405280888381518110612bfe57612bfe614ec8565b60200260200101516001600160a01b031681526020016001151581525060cb60008a8481518110612c3157612c31614ec8565b602090810291909101810151825281810192909252604001600020825181549390920151151574010000000000000000000000000000000000000000027fffffffffffffffffffffff0000000000000000000000000000000000000000009093166001600160a01b039092169190911791909117905587517f662cc3305b9b4ea3a5fd06717cdaece79b6ac0a7734fd44eabe0f37951dc587c90899083908110612cdd57612cdd614ec8565b6020026020010151888381518110612cf757612cf7614ec8565b6020026020010151604051612d1f9291909182526001600160a01b0316602082015260400190565b60405180910390a180612d3181614f26565b915050612bd8565b5060cc80546001600160a01b038088167fffffffffffffffffffffffff00000000000000000000000000000000000000009283161790925560cf80549287169290911691909117905560d2829055612d8f614543565b612d97614543565b612d9f614543565b612da761463e565b612db0836137f5565b8015612ddf57600080547fffffffffffffffffffffffffffffffffffffffffffffffffffffffffffff00ff1690555b50505050505050565b80821415612e385760405162461bcd60e51b815260206004820152600360248201527f4d53310000000000000000000000000000000000000000000000000000000000604482015260640161079b565b600082815260c960205260409020546001600160a01b031633148015612e745750600081815260c960205260409020546001600160a01b031633145b612ec05760405162461bcd60e51b815260206004820152600360248201527f4d53320000000000000000000000000000000000000000000000000000000000604482015260640161079b565b600081815260c9602052604080822060019081015485845291909220909101546001600160a01b03908116911614612f3a5760405162461bcd60e51b815260206004820152600360248201527f4d53330000000000000000000000000000000000000000000000000000000000604482015260640161079b565b600082815260c960205260409020600301541580612f695750600082815260c960205260409020600301544310155b8015612f9f5750600081815260c960205260409020600301541580612f9f5750600081815260c960205260409020600301544310155b612feb5760405162461bcd60e51b815260206004820152600360248201527f4d53340000000000000000000000000000000000000000000000000000000000604482015260640161079b565b604080517fc9fb5027edad04dc7cbd44766b39dcb7d42c498b3b47b80001805039c63cf1e0602082015290810183905260009060600160408051808303601f190181528282528051602091820120600081815260d08352838120547fc9fb5027edad04dc7cbd44766b39dcb7d42c498b3b47b80001805039c63cf1e09386019390935292840186905293509160600160408051601f198184030181529181528151602092830120600081815260d0909352912054909150821580156130ae575080155b6130fa5760405162461bcd60e51b815260206004820152600360248201527f4d53350000000000000000000000000000000000000000000000000000000000604482015260640161079b565b60cf54604080517f2cd7675800000000000000000000000000000000000000000000000000000000815290516000926001600160a01b031691632cd767589160048083019286929190829003018186803b15801561315757600080fd5b505afa15801561316b573d6000803e3d6000fd5b505050506040513d6000823e601f3d908101601f191682016040526131939190810190614f8e565b905060005b81518110156132dd57600060c9600089815260200190815260200160002060020160008484815181106131cd576131cd614ec8565b6020026020010151815260200190815260200160002054905080600014156131f557506132cb565b60c96000898152602001908152602001600020600201600084848151811061321f5761321f614ec8565b60200260200101518152602001908152602001600020600090558060c960008b8152602001908152602001600020600201600085858151811061326457613264614ec8565b60200260200101518152602001908152602001600020546132859190614f5f565b60c960008b815260200190815260200160002060020160008585815181106132af576132af614ec8565b6020026020010151815260200190815260200160002081905550505b806132d581614f26565b915050613198565b50600086815260c96020908152604080832080547fffffffffffffffffffffffff0000000000000000000000000000000000000000908116825560018201805490911690556003019290925581518981529081018890527f24a7a8f3e9dc071723fbfe550a5ad792fcba5e3886938d619dede64aebacd844910160405180910390a150505050505050565b60006133748484613380565b9050610bf28183610d93565b600081518351146133d35760405162461bcd60e51b815260206004820152600360248201527f4353310000000000000000000000000000000000000000000000000000000000604482015260640161079b565b82516134215760405162461bcd60e51b815260206004820152600360248201527f4353320000000000000000000000000000000000000000000000000000000000604482015260640161079b565b60ca54604080516020808201849052825180830382018152918301909252805191012060005b85518110156135fe57600086828151811061346457613464614ec8565b60200260200101519050600086838151811061348257613482614ec8565b602090810291909101810151600084815260cb90925260409091205490915074010000000000000000000000000000000000000000900460ff166135085760405162461bcd60e51b815260206004820152600360248201527f4353330000000000000000000000000000000000000000000000000000000000604482015260640161079b565b600084815260c960209081526040808320858452600201909152902054156135725760405162461bcd60e51b815260206004820152600360248201527f4353340000000000000000000000000000000000000000000000000000000000604482015260640161079b565b806135bf5760405162461bcd60e51b815260206004820152600360248201527f4353350000000000000000000000000000000000000000000000000000000000604482015260640161079b565b600084815260c96020908152604080832085845260020190915290208190556135e9828233614391565b505080806135f690614f26565b915050613447565b50600081815260c960205260409081902080547fffffffffffffffffffffffff0000000000000000000000000000000000000000163390811790915590517f614d6f8319493a3bb5dd50287615457dd869414d3d6b96136f80ac1c1ef2428d9061366f90849086908a908a90615212565b60405180910390a2613682826001614f5f565b60ca55949350505050565b6097546001600160a01b031633146136e75760405162461bcd60e51b815260206004820181905260248201527f4f776e61626c653a2063616c6c6572206973206e6f7420746865206f776e6572604482015260640161079b565b600082815260cb602052604090205474010000000000000000000000000000000000000000900460ff161561371b57600080fd5b6001600160a01b03811661372e57600080fd5b6040805180820182526001600160a01b03808416825260016020808401918252600087815260cb909152849020925183549151151574010000000000000000000000000000000000000000027fffffffffffffffffffffff000000000000000000000000000000000000000000909216921691909117179055517f662cc3305b9b4ea3a5fd06717cdaece79b6ac0a7734fd44eabe0f37951dc587c906137e990849084909182526001600160a01b0316602082015260400190565b60405180910390a15050565b6097546001600160a01b0316331461384f5760405162461bcd60e51b815260206004820181905260248201527f4f776e61626c653a2063616c6c6572206973206e6f7420746865206f776e6572604482015260640161079b565b6001600160a01b0381166138cb5760405162461bcd60e51b815260206004820152602660248201527f4f776e61626c653a206e6577206f776e657220697320746865207a65726f206160448201527f6464726573730000000000000000000000000000000000000000000000000000606482015260840161079b565b6107f981614327565b6097546001600160a01b0316331461392e5760405162461bcd60e51b815260206004820181905260248201527f4f776e61626c653a2063616c6c6572206973206e6f7420746865206f776e6572604482015260640161079b565b600082815260d16020908152604091829020548251858152918201529081018290527f5793ae75ad4ae6b7dc6492360b49ac802ad3f243d386419158aa87761383df5a9060600160405180910390a1600091825260d1602052604090912055565b604080517fc9fb5027edad04dc7cbd44766b39dcb7d42c498b3b47b80001805039c63cf1e06020820152908101829052600090819060600160408051601f198184030181529181528151602092830120600081815260d090935291205490915015613a3b57600081815260d060205260408082208281556001018290555184917ff61bf087105cbbc9ce12db206c8223c224de07a98a51c1d606ed90322480b48b91a250600192915050565b50600092915050565b60cf54604080517f2cd7675800000000000000000000000000000000000000000000000000000000815290516000926001600160a01b031691632cd767589160048083019286929190829003018186803b158015613aa157600080fd5b505afa158015613ab5573d6000803e3d6000fd5b505050506040513d6000823e601f3d908101601f19168201604052613add9190810190614f8e565b90506000815167ffffffffffffffff811115613afb57613afb614979565b604051908082528060200260200182016040528015613b24578160200160208202803683370190505b50905060005b8251811015613ba35760c960008881526020019081526020016000206002016000848381518110613b5d57613b5d614ec8565b6020026020010151815260200190815260200160002054828281518110613b8657613b86614ec8565b602090810291909101015280613b9b81614f26565b915050613b2a565b506001600160a01b03841615613c355760cf546040517f9a943e000000000000000000000000000000000000000000000000000000000081526001600160a01b0390911690639a943e0090613c0290889088908790879060040161505a565b600060405180830381600087803b158015613c1c57600080fd5b505af1158015613c30573d6000803e3d6000fd5b505050505b60cf546040517f242ae3580000000000000000000000000000000000000000000000000000000081526001600160a01b039091169063242ae35890613c8490889087908790879060040161505a565b600060405180830381600087803b158015613c9e57600080fd5b505af1158015613cb2573d6000803e3d6000fd5b505050600087815260c9602090815260409182902060010180547fffffffffffffffffffffffff0000000000000000000000000000000000000000166001600160a01b03881690811790915582518a8152918201527f63c996749362048abd5162a384284583851200b5c4cb4ae2fa1ebb098152890592500160405180910390a1505050505050565b6097546001600160a01b031633146107f95760405162461bcd60e51b815260206004820181905260248201527f4f776e61626c653a2063616c6c6572206973206e6f7420746865206f776e6572604482015260640161079b565b6000613dc87f360894a13ba1a3210667c828492db98dca3e2076cc3735a920a3ca505d382bbc546001600160a01b031690565b9050613dd384614711565b600083511180613de05750815b15613df157613def84846147de565b505b7f4910fdfa16fed3260ed0e7147f7cc6da11a60208b5b9406d12a635614ffd9143805460ff16613f8e5780547fffffffffffffffffffffffffffffffffffffffffffffffffffffffffffffff001660011781556040516001600160a01b0383166024820152613ebc90869060440160408051601f198184030181529190526020810180517bffffffffffffffffffffffffffffffffffffffffffffffffffffffff167f3659cfe6000000000000000000000000000000000000000000000000000000001790526147de565b5080547fffffffffffffffffffffffffffffffffffffffffffffffffffffffffffffff001681557f360894a13ba1a3210667c828492db98dca3e2076cc3735a920a3ca505d382bbc546001600160a01b03838116911614613f855760405162461bcd60e51b815260206004820152602f60248201527f45524331393637557067726164653a207570677261646520627265616b73206660448201527f7572746865722075706772616465730000000000000000000000000000000000606482015260840161079b565b613f8e856148e0565b5050505050565b81613f9f57505050565b600083815260cb602052604090205460cc546001600160a01b0391821691168114156140565760cc546040517fe1032b830000000000000000000000000000000000000000000000000000000081526001600160a01b0384811660048301526bffffffffffffffffffffffff861660248301529091169063e1032b8390604401600060405180830381600087803b15801561403957600080fd5b505af115801561404d573d6000803e3d6000fd5b505050506140f9565b60cd546001600160a01b03828116911614156140f95760cd546040517fe1032b830000000000000000000000000000000000000000000000000000000081526001600160a01b0384811660048301526bffffffffffffffffffffffff861660248301529091169063e1032b8390604401600060405180830381600087803b1580156140e057600080fd5b505af11580156140f4573d6000803e3d6000fd5b505050505b6040517fa9059cbb0000000000000000000000000000000000000000000000000000000081526001600160a01b0383811660048301526024820185905282169063a9059cbb90604401602060405180830381600087803b15801561415c57600080fd5b505af1158015614170573d6000803e3d6000fd5b505050506040513d601f19601f820116820180604052508101906141949190615231565b610bf25760405162461bcd60e51b815260206004820152600360248201527f5554310000000000000000000000000000000000000000000000000000000000604482015260640161079b565b604080517fc9fb5027edad04dc7cbd44766b39dcb7d42c498b3b47b80001805039c63cf1e06020820152908101839052600090819060600160408051601f198184030181529181528151602092830120600081815260d0909352912054909150801561428e5760405162461bcd60e51b815260206004820152600560248201527f4952535231000000000000000000000000000000000000000000000000000000604482015260640161079b565b7fc9fb5027edad04dc7cbd44766b39dcb7d42c498b3b47b80001805039c63cf1e0600090815260d16020527f65a7a9b7d255c8cc69a8c0165ff8f20c6357001ea985b43094e2ea8d2f0ea6d4546142e59043614f5f565b6040805180820182528281526001600160a01b03979097166020808901918252600096875260d090529420955186559251600190950194909455509392505050565b609780546001600160a01b038381167fffffffffffffffffffffffff0000000000000000000000000000000000000000831681179093556040519116919082907f8be0079c531659141344cd1fd0a4f28419497f9722a3daafe3b4186f6b6457e090600090a35050565b8161439b57505050565b600083815260cb6020526040908190205490517f23b872dd0000000000000000000000000000000000000000000000000000000081526001600160a01b038381166004830152306024830152604482018590529091169081906323b872dd90606401602060405180830381600087803b15801561441757600080fd5b505af115801561442b573d6000803e3d6000fd5b505050506040513d601f19601f8201168201806040525081019061444f9190615231565b61449b5760405162461bcd60e51b815260206004820152600360248201527f4c54310000000000000000000000000000000000000000000000000000000000604482015260640161079b565b60cc546001600160a01b0382811691161415610bf25760cc546040517f8b41166c0000000000000000000000000000000000000000000000000000000081526001600160a01b0384811660048301526bffffffffffffffffffffffff8616602483015290911690638b41166c90604401600060405180830381600087803b15801561452557600080fd5b505af1158015614539573d6000803e3d6000fd5b5050505050505050565b600054610100900460ff168061455c575060005460ff16155b6145ce5760405162461bcd60e51b815260206004820152602e60248201527f496e697469616c697a61626c653a20636f6e747261637420697320616c72656160448201527f647920696e697469616c697a6564000000000000000000000000000000000000606482015260840161079b565b600054610100900460ff1615801561460d57600080547fffffffffffffffffffffffffffffffffffffffffffffffffffffffffffff0000166101011790555b80156107f957600080547fffffffffffffffffffffffffffffffffffffffffffffffffffffffffffff00ff16905550565b600054610100900460ff1680614657575060005460ff16155b6146c95760405162461bcd60e51b815260206004820152602e60248201527f496e697469616c697a61626c653a20636f6e747261637420697320616c72656160448201527f647920696e697469616c697a6564000000000000000000000000000000000000606482015260840161079b565b600054610100900460ff1615801561470857600080547fffffffffffffffffffffffffffffffffffffffffffffffffffffffffffff0000166101011790555b61460d33614327565b803b6147855760405162461bcd60e51b815260206004820152602d60248201527f455243313936373a206e657720696d706c656d656e746174696f6e206973206e60448201527f6f74206120636f6e747261637400000000000000000000000000000000000000606482015260840161079b565b7f360894a13ba1a3210667c828492db98dca3e2076cc3735a920a3ca505d382bbc80547fffffffffffffffffffffffff0000000000000000000000000000000000000000166001600160a01b0392909216919091179055565b6060823b6148545760405162461bcd60e51b815260206004820152602660248201527f416464726573733a2064656c65676174652063616c6c20746f206e6f6e2d636f60448201527f6e74726163740000000000000000000000000000000000000000000000000000606482015260840161079b565b600080846001600160a01b03168460405161486f919061527f565b600060405180830381855af49150503d80600081146148aa576040519150601f19603f3d011682016040523d82523d6000602084013e6148af565b606091505b50915091506148d782826040518060600160405280602781526020016152cf60279139614920565b95945050505050565b6148e981614711565b6040516001600160a01b038216907fbc7cd75a20ee27fd9adebab32041f755214dbc6bffa90cc0225b39da2e5c2d3b90600090a250565b6060831561492f575081614959565b82511561493f5782518084602001fd5b8160405162461bcd60e51b815260040161079b919061529b565b9392505050565b60006020828403121561497257600080fd5b5035919050565b7f4e487b7100000000000000000000000000000000000000000000000000000000600052604160045260246000fd5b604051601f8201601f1916810167ffffffffffffffff811182821017156149d1576149d1614979565b604052919050565b600067ffffffffffffffff8211156149f3576149f3614979565b5060051b60200190565b600082601f830112614a0e57600080fd5b81356020614a23614a1e836149d9565b6149a8565b82815260059290921b84018101918181019086841115614a4257600080fd5b8286015b84811015614a5d5780358352918301918301614a46565b509695505050505050565b80356001600160a01b0381168114614a7f57600080fd5b919050565b600082601f830112614a9557600080fd5b81356020614aa5614a1e836149d9565b82815260059290921b84018101918181019086841115614ac457600080fd5b8286015b84811015614a5d57614ad981614a68565b8352918301918301614ac8565b60008060408385031215614af957600080fd5b823567ffffffffffffffff80821115614b1157600080fd5b614b1d868387016149fd565b93506020850135915080821115614b3357600080fd5b50614b4085828601614a84565b9150509250929050565b60008060408385031215614b5d57600080fd5b82359150614b6d60208401614a68565b90509250929050565b600060208284031215614b8857600080fd5b61495982614a68565b60008060408385031215614ba457600080fd5b614bad83614a68565b915060208084013567ffffffffffffffff80821115614bcb57600080fd5b818601915086601f830112614bdf57600080fd5b813581811115614bf157614bf1614979565b614c0384601f19601f840116016149a8565b91508082528784828501011115614c1957600080fd5b80848401858401376000848284010152508093505050509250929050565b60008083601f840112614c4957600080fd5b50813567ffffffffffffffff811115614c6157600080fd5b6020830191508360208260051b8501011115614c7c57600080fd5b9250929050565b600080600080600060608688031215614c9b57600080fd5b85359450602086013567ffffffffffffffff80821115614cba57600080fd5b614cc689838a01614c37565b90965094506040880135915080821115614cdf57600080fd5b50614cec88828901614c37565b969995985093965092949392505050565b60008060408385031215614d1057600080fd5b50508035926020909101359150565b600060208284031215614d3157600080fd5b813567ffffffffffffffff811115614d4857600080fd5b614d54848285016149fd565b949350505050565b60008060008060008060c08789031215614d7557600080fd5b863567ffffffffffffffff80821115614d8d57600080fd5b614d998a838b016149fd565b97506020890135915080821115614daf57600080fd5b50614dbc89828a01614a84565b955050614dcb60408801614a68565b9350614dd960608801614a68565b9250614de760808801614a68565b915060a087013590509295509295509295565b600080600060608486031215614e0f57600080fd5b833567ffffffffffffffff80821115614e2757600080fd5b614e33878388016149fd565b94506020860135915080821115614e4957600080fd5b50614e56868287016149fd565b925050614e6560408501614a68565b90509250925092565b60008060408385031215614e8157600080fd5b823567ffffffffffffffff80821115614e9957600080fd5b614ea5868387016149fd565b93506020850135915080821115614ebb57600080fd5b50614b40858286016149fd565b7f4e487b7100000000000000000000000000000000000000000000000000000000600052603260045260246000fd5b7f4e487b7100000000000000000000000000000000000000000000000000000000600052601160045260246000fd5b60007fffffffffffffffffffffffffffffffffffffffffffffffffffffffffffffffff821415614f5857614f58614ef7565b5060010190565b60008219821115614f7257614f72614ef7565b500190565b600082821015614f8957614f89614ef7565b500390565b60006020808385031215614fa157600080fd5b825167ffffffffffffffff811115614fb857600080fd5b8301601f81018513614fc957600080fd5b8051614fd7614a1e826149d9565b81815260059190911b82018301908381019087831115614ff657600080fd5b928401925b8284101561501457835182529284019290840190614ffb565b979650505050505050565b600081518084526020808501945080840160005b8381101561504f57815187529582019590820190600101615033565b509495945050505050565b60006001600160a01b03808716835280861660208401525060806040830152615086608083018561501f565b8281036060840152615014818561501f565b8381526060602082015260006150b1606083018561501f565b82810360408401526150c3818561501f565b9695505050505050565b81835260007f07ffffffffffffffffffffffffffffffffffffffffffffffffffffffffffffff8311156150ff57600080fd5b8260051b8083602087013760009401602001938452509192915050565b60006001600160a01b038089168352808816602084015250608060408301526151496080830186886150cd565b828103606084015261515c8185876150cd565b9998505050505050505050565b8681526001600160a01b03861660208201526080604082015260006151496080830186886150cd565b8581526060602082015260006151ac6060830186886150cd565b82810360408401526151bf8185876150cd565b98975050505050505050565b87815286602082015285604082015260a0606082015260006151f160a0830186886150cd565b82810360808401526152048185876150cd565b9a9950505050505050505050565b848152836020820152608060408201526000615086608083018561501f565b60006020828403121561524357600080fd5b8151801515811461495957600080fd5b60005b8381101561526e578181015183820152602001615256565b83811115610bf25750506000910152565b60008251615291818460208701615253565b9190910192915050565b60208152600082518060208401526152ba816040850160208701615253565b601f01601f1916919091016040019291505056fe416464726573733a206c6f772d6c6576656c2064656c65676174652063616c6c206661696c6564a2646970667358221220ba308f80891b8a984ff77c5c33d7f605279a90723ed5c03a1ce54362073ea12464736f6c63430008090033",
  "linkReferences": {},
  "deployedLinkReferences": {}
}