{
  "contractName": "CertificateVerifier",
  "abi": [
    {
      "constant": true,
      "inputs": [
        {
          "name": "_publisher",
          "type": "address"
        },
        {
          "name": "_client",
          "type": "address"
        },
        {
          "name": "_maxNonce",
          "type": "uint8"
        },
        {
          "name": "_v",
          "type": "uint8"
        },
        {
          "name": "_r",
          "type": "bytes32"
        },
        {
          "name": "_s",
          "type": "bytes32"
        }
      ],
      "name": "isValidAuthCertificate",
      "outputs": [
        {
          "name": "_valid",
          "type": "bool"
        }
      ],
      "payable": false,
      "stateMutability": "pure",
      "type": "function"
    },
    {
      "constant": true,
      "inputs": [
        {
          "name": "_publisher",
          "type": "address"
        },
        {
          "name": "_client",
          "type": "address"
        },
        {
          "name": "_maxNonce",
          "type": "uint8"
        },
        {
          "name": "_authV",
          "type": "uint8"
        },
        {
          "name": "_authR",
          "type": "bytes32"
        },
        {
          "name": "_authS",
          "type": "bytes32"
        },
        {
          "name": "_nonce",
          "type": "uint8"
        },
        {
          "name": "_servV",
          "type": "uint8"
        },
        {
          "name": "_servR",
          "type": "bytes32"
        },
        {
          "name": "_servS",
          "type": "bytes32"
        }
      ],
      "name": "isValidServiceCertificate",
      "outputs": [
        {
          "name": "_valid",
          "type": "bool"
        }
      ],
      "payable": false,
      "stateMutability": "pure",
      "type": "function"
    },
    {
      "constant": true,
      "inputs": [
        {
          "name": "_publisher",
          "type": "address"
        },
        {
          "name": "_client",
          "type": "address"
        },
        {
          "name": "_maxNonce",
          "type": "uint8"
        },
        {
          "name": "_nonce",
          "type": "uint8"
        },
        {
          "name": "_vArray",
          "type": "uint8[3]"
        },
        {
          "name": "_rArray",
          "type": "bytes32[3]"
        },
        {
          "name": "_sArray",
          "type": "bytes32[3]"
        },
        {
          "name": "_winner",
          "type": "address"
        }
      ],
      "name": "isValidClaimCertificate",
      "outputs": [
        {
          "name": "_is",
          "type": "bool"
        }
      ],
      "payable": false,
      "stateMutability": "pure",
      "type": "function"
    },
    {
      "constant": true,
      "inputs": [
        {
          "name": "_self",
          "type": "CertificateVerifier.ReplayProtectionStruct storage"
        },
        {
          "name": "_hash",
          "type": "bytes32"
        }
      ],
      "name": "isServiceCertUsed",
      "outputs": [
        {
          "name": "_used",
          "type": "bool"
        }
      ],
      "payable": false,
      "stateMutability": "view",
      "type": "function"
    }
  ],
  "bytecode": "0x610e1b610030600b82828239805160001a6073146000811461002057610022565bfe5b5030600052607381538281f3007300000000000000000000000000000000000000003014608060405260043610610078576000357c0100000000000000000000000000000000000000000000000000000000900463ffffffff168062101ce31461007d5780630ba8396f146100c35780634b1f354714610167578063a51755c41461029c575b600080fd5b6100a9600480360381019080803590602001909291908035600019169060200190929190505050610376565b604051808215151515815260200191505060405180910390f35b61014d600480360381019080803573ffffffffffffffffffffffffffffffffffffffff169060200190929190803573ffffffffffffffffffffffffffffffffffffffff169060200190929190803560ff169060200190929190803560ff169060200190929190803560001916906020019092919080356000191690602001909291905050506103ab565b604051808215151515815260200191505060405180910390f35b610282600480360381019080803573ffffffffffffffffffffffffffffffffffffffff169060200190929190803573ffffffffffffffffffffffffffffffffffffffff169060200190929190803560ff169060200190929190803560ff169060200190929190806060019060038060200260405190810160405280929190826003602002808284378201915050505050919291929080606001906003806020026040519081016040528092919082600360200280828437820191505050505091929192908060600190600380602002604051908101604052809291908260036020028082843782019150505050509192919290803573ffffffffffffffffffffffffffffffffffffffff16906020019092919050505061062c565b604051808215151515815260200191505060405180910390f35b61035c600480360381019080803573ffffffffffffffffffffffffffffffffffffffff169060200190929190803573ffffffffffffffffffffffffffffffffffffffff169060200190929190803560ff169060200190929190803560ff16906020019092919080356000191690602001909291908035600019169060200190929190803560ff169060200190929190803560ff169060200190929190803560001916906020019092919080356000191690602001909291905050506109d9565b604051808215151515815260200191505060405180910390f35b6000826000016000836000191660001916815260200190815260200160002060009054906101000a900460ff16905092915050565b60008060006040805190810160405280601c81526020017f19457468657265756d205369676e6564204d6573736167653a0a3431000000008152508989896040516020018085805190602001908083835b60208310151561042157805182526020820191506020810190506020830392506103fc565b6001836020036101000a0380198251168184511680821785525050505050509050018473ffffffffffffffffffffffffffffffffffffffff1673ffffffffffffffffffffffffffffffffffffffff166c010000000000000000000000000281526014018373ffffffffffffffffffffffffffffffffffffffff1673ffffffffffffffffffffffffffffffffffffffff166c010000000000000000000000000281526014018260ff1660ff167f01000000000000000000000000000000000000000000000000000000000000000281526001019450505050506040516020818303038152906040526040518082805190602001908083835b60208310151561053d5780518252602082019150602081019050602083039250610518565b6001836020036101000a03801982511681845116808217855250505050505090500191505060405180910390209150600182878787604051600081526020016040526040518085600019166000191681526020018460ff1660ff1681526020018360001916600019168152602001826000191660001916815260200194505050505060206040516020810390808403906000865af11580156105e3573d6000803e3d6000fd5b5050506020604051035190508873ffffffffffffffffffffffffffffffffffffffff168173ffffffffffffffffffffffffffffffffffffffff1614925050509695505050505050565b60008060006106b58b8b8b8a600060038110151561064657fe5b60200201518a600060038110151561065a57fe5b60200201518a600060038110151561066e57fe5b60200201518e8e600160038110151561068357fe5b60200201518e600160038110151561069757fe5b60200201518e60016003811015156106ab57fe5b60200201516109d9565b151561074f576040517f08c379a00000000000000000000000000000000000000000000000000000000081526004018080602001828103825260238152602001807f536572766963652063657274696669636174652073686f756c6420626520766181526020017f6c6964000000000000000000000000000000000000000000000000000000000081525060400191505060405180910390fd5b6040805190810160405280601c81526020017f19457468657265756d205369676e6564204d6573736167653a0a36350000000081525086600160038110151561079457fe5b60200201518660016003811015156107a857fe5b60200201518960016003811015156107bc57fe5b60200201516040516020018085805190602001908083835b6020831015156107f957805182526020820191506020810190506020830392506107d4565b6001836020036101000a038019825116818451168082178552505050505050905001846000191660001916815260200183600019166000191681526020018260ff1660ff167f01000000000000000000000000000000000000000000000000000000000000000281526001019450505050506040516020818303038152906040526040518082805190602001908083835b6020831015156108af578051825260208201915060208101905060208303925061088a565b6001836020036101000a038019825116818451168082178552505050505050905001915050604051809103902091506001828860026003811015156108f057fe5b602002015188600260038110151561090457fe5b602002015188600260038110151561091857fe5b6020020151604051600081526020016040526040518085600019166000191681526020018460ff1660ff1681526020018360001916600019168152602001826000191660001916815260200194505050505060206040516020810390808403906000865af115801561098e573d6000803e3d6000fd5b5050506020604051035190508373ffffffffffffffffffffffffffffffffffffffff168173ffffffffffffffffffffffffffffffffffffffff16149250505098975050505050505050565b60008060006109ec8d8d8d8d8d8d6103ab565b1515610a86576040517f08c379a00000000000000000000000000000000000000000000000000000000081526004018080602001828103825260298152602001807f417574686f72697a6174696f6e2063657274696669636174652073686f756c6481526020017f2062652076616c6964000000000000000000000000000000000000000000000081525060400191505060405180910390fd5b60008760ff16111515610b01576040517f08c379a00000000000000000000000000000000000000000000000000000000081526004018080602001828103825260188152602001807f4e6f6e63652073686f756c6420626520706f736974697665000000000000000081525060200191505060405180910390fd5b8a60ff168760ff1611151515610ba5576040517f08c379a00000000000000000000000000000000000000000000000000000000081526004018080602001828103825260218152602001807f4e6f6e63652073686f756c64206265206c657373207468616e206d6178696d7581526020017f6d0000000000000000000000000000000000000000000000000000000000000081525060400191505060405180910390fd5b6040805190810160405280601c81526020017f19457468657265756d205369676e6564204d6573736167653a0a36360000000081525089898c8a6040516020018086805190602001908083835b602083101515610c175780518252602082019150602081019050602083039250610bf2565b6001836020036101000a038019825116818451168082178552505050505050905001856000191660001916815260200184600019166000191681526020018360ff1660ff167f01000000000000000000000000000000000000000000000000000000000000000281526001018260ff1660ff167f0100000000000000000000000000000000000000000000000000000000000000028152600101955050505050506040516020818303038152906040526040518082805190602001908083835b602083101515610cfc5780518252602082019150602081019050602083039250610cd7565b6001836020036101000a03801982511681845116808217855250505050505090500191505060405180910390209150600182878787604051600081526020016040526040518085600019166000191681526020018460ff1660ff1681526020018360001916600019168152602001826000191660001916815260200194505050505060206040516020810390808403906000865af1158015610da2573d6000803e3d6000fd5b5050506020604051035190508b73ffffffffffffffffffffffffffffffffffffffff168173ffffffffffffffffffffffffffffffffffffffff1614925050509a99505050505050505050505600a165627a7a7230582080ea7af06f0e0888bd0c3795e1651de2d7157a65b83bba87ab6c249b4696de320029",
  "source": "pragma solidity ^0.4.24;\n\n\n/**\n * @title Library for certificate verification\n * @author Marlin Labs\n * @notice This will be used by the Certificate contract\n */\nlibrary CertificateVerifier {\n\n    // Message - _publisher+_client+_maxNonce, Size - 20+20+1\n    string constant SIGNED_MSG_AUTH_PREFIX = \"\\x19Ethereum Signed Message:\\n41\";\n\n    /**\n    @notice Verifies authorization certificate\n    @param _publisher Address of the publisher\n    @param _client Address of the client\n    @param _maxNonce Max nonce\n    @param _v Recovery ID of ECDSA signature\n    @param _r R-value of ECDSA signature\n    @param _s S-value of ECDSA signature\n    @return {\n      \"_success\": \"Boolean, true if the certificate is valid\"\n    }\n    */\n    function isValidAuthCertificate(\n        address _publisher,\n        address _client,\n        uint8 _maxNonce,\n        uint8 _v,\n        bytes32 _r,\n        bytes32 _s\n    )\n        public\n        pure\n        returns (bool _valid)\n    {\n        // Construct message and check if signature is valid\n        bytes32 _hashedMsg = keccak256(\n            abi.encodePacked(\n                SIGNED_MSG_AUTH_PREFIX,\n                _publisher,\n                _client,\n                _maxNonce\n            )\n        );\n        address _signer = ecrecover(\n            _hashedMsg,\n            _v,\n            _r,\n            _s\n        );\n        _valid = (_signer == _publisher);\n    }\n\n    // Message - _authR+_authS+_authV+_nonce, Size - 32+32+1+1\n    string constant SIGNED_MSG_SERV_PREFIX = \"\\x19Ethereum Signed Message:\\n66\";\n\n    /**\n    @notice Verifies service certificate\n    @param _publisher Address of the publisher\n    @param _client Address of the client\n    @param _maxNonce Max nonce\n    @param _authV Recovery ID of ECDSA signature in authorization certificate\n    @param _authR R-value of ECDSA signature in authorization certificate\n    @param _authS S-value of ECDSA signature in authorization certificate\n    @param _nonce Nonce of this txn\n    @param _authV Recovery ID of ECDSA signature in service certificate\n    @param _authR R-value of ECDSA signature in service certificate\n    @param _authS S-value of ECDSA signature in service certificate\n    @return {\n      \"_success\": \"Boolean, true if the certificate is valid\"\n    }\n    */\n    function isValidServiceCertificate(\n        address _publisher,\n        address _client,\n        uint8 _maxNonce,\n        uint8 _authV,\n        bytes32 _authR,\n        bytes32 _authS,\n        uint8 _nonce,\n        uint8 _servV,\n        bytes32 _servR,\n        bytes32 _servS\n    )\n        public\n        pure\n        returns (bool _valid)\n    {\n        // Verify authorization certificate\n        require(\n            isValidAuthCertificate(\n                _publisher,\n                _client,\n                _maxNonce,\n                _authV,\n                _authR,\n                _authS\n            ),\n            \"Authorization certificate should be valid\"\n        );\n\n        // Verify nonce is within range\n        require(_nonce > 0, \"Nonce should be positive\");\n        require(_nonce <= _maxNonce, \"Nonce should be less than maximum\");\n\n\n        // Construct message and check if signature is valid\n        bytes32 _hashedMsg = keccak256(\n            abi.encodePacked(\n                SIGNED_MSG_SERV_PREFIX,\n                _authR,\n                _authS,\n                _authV,\n                _nonce\n            )\n        );\n        address _signer = ecrecover(\n            _hashedMsg,\n            _servV,\n            _servR,\n            _servS\n        );\n        _valid = (_signer == _client);\n    }\n\n    // Message - _servR+_servS+_servV, Size - 32+32+1\n    string constant SIGNED_MSG_WIN_PREFIX = \"\\x19Ethereum Signed Message:\\n65\";\n\n    /**\n    @notice Verifies claim certificate\n    @param _publisher Address of the publisher\n    @param _client Address of the client\n    @param _maxNonce Max nonce\n    @param _nonce Nonce of this txn\n    @param _vArray Array of the recovery IDs of the signatures\n    @param _rArray Array of the r-value of ECDSA signatures\n    @param _sArray Array of the s-value of ECDSA signatures\n    @return {\n      \"_success\": \"Boolean, true if the certificate is valid\"\n    }\n    */\n    function isValidClaimCertificate(\n        address _publisher,\n        address _client,\n        uint8 _maxNonce,\n        uint8 _nonce,\n        uint8[3] _vArray,\n        bytes32[3] _rArray,\n        bytes32[3] _sArray,\n        address _winner\n    )\n        public\n        pure\n        returns (bool _is)\n    {\n        // Verify service certificate\n        require(\n            isValidServiceCertificate(\n                _publisher,\n                _client,\n                _maxNonce,\n                _vArray[0],\n                _rArray[0],\n                _sArray[0],\n                _nonce,\n                _vArray[1],\n                _rArray[1],\n                _sArray[1]\n            ),\n            \"Service certificate should be valid\"\n        );\n\n        // Construct message and check if signature is valid\n        bytes32 _hashedMsg = keccak256(\n            abi.encodePacked(\n                SIGNED_MSG_WIN_PREFIX,\n                _rArray[1],\n                _sArray[1],\n                _vArray[1]\n            )\n        );\n        address _signer = ecrecover(\n            _hashedMsg,\n            _vArray[2],\n            _rArray[2],\n            _sArray[2]\n        );\n        _is = (_signer == _winner);\n    }\n\n\n    struct ReplayProtectionStruct {\n        mapping(bytes32 => bool) used;\n    }\n\n    function isServiceCertUsed(ReplayProtectionStruct storage _self, bytes32 _hash)\n        public\n        view\n        returns (bool _used)\n    {\n        _used = _self.used[_hash];\n    }\n}\n",
  "sourcePath": "/Users/roshanr/Developer/Marlin/marlin-contracts/contracts/library/CertificateVerifier.sol",
  "compiler": {
    "name": "solc",
    "version": "0.4.24+commit.e67f0147.Emscripten.clang"
  },
  "schemaVersion": "2.0.1",
  "updatedAt": "2018-10-04T11:35:03.577Z"
}