{
  "contractName": "Certificate",
  "abi": [
    {
      "inputs": [
        {
          "name": "_tokenContractAddress",
          "type": "address"
        },
        {
          "name": "_uploadContractAddress",
          "type": "address"
        }
      ],
      "payable": false,
      "stateMutability": "nonpayable",
      "type": "constructor"
    },
    {
      "constant": false,
      "inputs": [
        {
          "name": "_offerId",
          "type": "bytes32"
        },
        {
          "name": "_publisher",
          "type": "address"
        },
        {
          "name": "_client",
          "type": "address"
        },
        {
          "name": "_maxNonce",
          "type": "uint8"
        },
        {
          "name": "_nonce",
          "type": "uint8"
        },
        {
          "name": "_vArray",
          "type": "uint8[3]"
        },
        {
          "name": "_rArray",
          "type": "bytes32[3]"
        },
        {
          "name": "_sArray",
          "type": "bytes32[3]"
        }
      ],
      "name": "settleWinningCertificate",
      "outputs": [
        {
          "name": "_success",
          "type": "bool"
        }
      ],
      "payable": false,
      "stateMutability": "nonpayable",
      "type": "function"
    }
  ],
  "bytecode": "0x608060405234801561001057600080fd5b50604051604080610ab38339810180604052810190808051906020019092919080519060200190929190505050816000806101000a81548173ffffffffffffffffffffffffffffffffffffffff021916908373ffffffffffffffffffffffffffffffffffffffff16021790555080600160006101000a81548173ffffffffffffffffffffffffffffffffffffffff021916908373ffffffffffffffffffffffffffffffffffffffff16021790555050506109e4806100cf6000396000f300608060405260043610610041576000357c0100000000000000000000000000000000000000000000000000000000900463ffffffff168063ffa57d7d14610046575b600080fd5b34801561005257600080fd5b5061015c6004803603810190808035600019169060200190929190803573ffffffffffffffffffffffffffffffffffffffff169060200190929190803573ffffffffffffffffffffffffffffffffffffffff169060200190929190803560ff169060200190929190803560ff169060200190929190806060019060038060200260405190810160405280929190826003602002808284378201915050505050919291929080606001906003806020026040519081016040528092919082600360200280828437820191505050505091929192908060600190600380602002604051908101604052809291908260036020028082843782019150505050509192919290505050610176565b604051808215151515815260200191505060405180910390f35b600080600085600160038110151561018a57fe5b602002015185600160038110151561019e57fe5b60200201518560016003811015156101b257fe5b6020020151604051602001808460ff1660ff167f01000000000000000000000000000000000000000000000000000000000000000281526001018360001916600019168152602001826000191660001916815260200193505050506040516020818303038152906040526040518082805190602001908083835b602083101515610251578051825260208201915060208101905060208303925061022c565b6001836020036101000a0380198251168184511680821785525050505050509050019150506040518091039020915060001515600273__CertificateVerifier___________________62101ce39091856040518363ffffffff167c01000000000000000000000000000000000000000000000000000000000281526004018083815260200182600019166000191681526020019250505060206040518083038186803b15801561030157600080fd5b505af4158015610315573d6000803e3d6000fd5b505050506040513d602081101561032b57600080fd5b810190808051906020019092919050505015151415156103b3576040517f08c379a00000000000000000000000000000000000000000000000000000000081526004018080602001828103825260118152602001807f5265706c61792070726f74656374696f6e00000000000000000000000000000081525060200191505060405180910390fd5b600160026000016000846000191660001916815260200190815260200160002060006101000a81548160ff02191690831515021790555073__CertificateVerifier___________________634b1f35478b8b8b8b8b8b8b336040518963ffffffff167c0100000000000000000000000000000000000000000000000000000000028152600401808973ffffffffffffffffffffffffffffffffffffffff1673ffffffffffffffffffffffffffffffffffffffff1681526020018873ffffffffffffffffffffffffffffffffffffffff1673ffffffffffffffffffffffffffffffffffffffff1681526020018760ff1660ff1681526020018660ff1660ff16815260200185600360200280838360005b838110156104de5780820151818401526020810190506104c3565b5050505090500184600360200280838360005b8381101561050c5780820151818401526020810190506104f1565b5050505090500183600360200280838360005b8381101561053a57808201518184015260208101905061051f565b505050509050018273ffffffffffffffffffffffffffffffffffffffff1673ffffffffffffffffffffffffffffffffffffffff1681526020019850505050505050505060206040518083038186803b15801561059557600080fd5b505af41580156105a9573d6000803e3d6000fd5b505050506040513d60208110156105bf57600080fd5b81019080805190602001909291905050501515610644576040517f08c379a000000000000000000000000000000000000000000000000000000000815260040180806020018281038252601d8152602001807f43657274696669636174652073686f756c642062652077696e6e696e6700000081525060200191505060405180910390fd5b600160009054906101000a900473ffffffffffffffffffffffffffffffffffffffff1673ffffffffffffffffffffffffffffffffffffffff16632b611c498c6040518263ffffffff167c0100000000000000000000000000000000000000000000000000000000028152600401808260001916600019168152602001915050600060405180830381600087803b1580156106dd57600080fd5b505af11580156106f1573d6000803e3d6000fd5b505050506040513d6000823e3d601f19601f8201168201806040525061012081101561071c57600080fd5b8101908080519060200190929190805164010000000081111561073e57600080fd5b8281019050602081018481111561075457600080fd5b815185600182028301116401000000008211171561077157600080fd5b5050929190602001805164010000000081111561078d57600080fd5b828101905060208101848111156107a357600080fd5b81518560018202830111640100000000821117156107c057600080fd5b505092919060200180519060200190929190805190602001909291908051906020019092919080519060200190929190805190602001909291908051906020019092919050505090919293949596975090919293949596509091929394955090919293945090919250909150905050809150506000809054906101000a900473ffffffffffffffffffffffffffffffffffffffff1673ffffffffffffffffffffffffffffffffffffffff1663a9059cbb33836040518363ffffffff167c0100000000000000000000000000000000000000000000000000000000028152600401808373ffffffffffffffffffffffffffffffffffffffff1673ffffffffffffffffffffffffffffffffffffffff16815260200182815260200192505050602060405180830381600087803b1580156108f757600080fd5b505af115801561090b573d6000803e3d6000fd5b505050506040513d602081101561092157600080fd5b810190808051906020019092919050505015156109a6576040517f08c379a00000000000000000000000000000000000000000000000000000000081526004018080602001828103825260138152602001807f5375636365737366756c207472616e736665720000000000000000000000000081525060200191505060405180910390fd5b600192505050989750505050505050505600a165627a7a723058203040ec5b93d807d40e8722b90ce73b8a3b2494884f8e1847d998044425eec55c0029",
  "source": "pragma solidity ^0.4.24;\n\nimport \"./library/CertificateVerifier.sol\";\nimport \"openzeppelin-solidity/contracts/token/ERC20/ERC20.sol\";\n\n\ncontract UploadInterface {\n    function readStake(address _node) public view returns (uint256);\n    function readPublisherOffer(bytes32 _id) public view returns (address, string, string, uint256, uint256, uint256, uint256, uint256, uint256);\n}\n\n\n/**\n@title Certificate-verification and payout-handling contract\n@author Marlin Labs\n@notice Master nodes/storage nodes can fetch rewards for their certificates\n*/\ncontract Certificate {\n\n    using CertificateVerifier for CertificateVerifier;\n    using CertificateVerifier for CertificateVerifier.ReplayProtectionStruct;\n\n    address tokenContractAddress;\n    address uploadContractAddress;\n\n    CertificateVerifier.ReplayProtectionStruct serviceCerts;\n\n    /**\n    @notice Constructor that sets the Marlin token contract address and Publisher-side Upload contract address\n    @param _tokenContractAddress Address of the Marlin token contract\n    @param _uploadContractAddress Address of the publisher-side Upload contract\n    */\n    constructor(address _tokenContractAddress, address _uploadContractAddress) public {\n        tokenContractAddress = _tokenContractAddress;\n        uploadContractAddress = _uploadContractAddress;\n    }\n\n    /**\n    @notice Function to be called to fetch reward for delivery certificate\n    @param _offerId ID of the publisher offer from the Upload contract\n    @param _publisher Address of the publisher\n    @param _client Address of the client\n    @param _maxNonce Max nonce\n    @param _nonce Nonce of this txn\n    @param _vArray Array of the recovery IDs of the signatures\n    @param _rArray Array of the r-value of ECDSA signatures\n    @param _sArray Array of the s-value of ECDSA signatures\n    @return {\n      \"_success\": \"Boolean, true if the payout was successful\"\n    }\n    */\n    function settleWinningCertificate(\n        bytes32 _offerId,\n        address _publisher,\n        address _client,\n        uint8 _maxNonce,\n        uint8 _nonce,\n        uint8[3] _vArray,\n        bytes32[3] _rArray,\n        bytes32[3] _sArray\n    )\n        public\n        returns (bool _success)\n    {\n        // make sure service certificate is not re-used\n        bytes32 _servCertHashed = keccak256(abi.encodePacked(_vArray[1], _rArray[1], _sArray[1]));\n        require(serviceCerts.isServiceCertUsed(_servCertHashed) == false, \"Replay protection\");\n        serviceCerts.used[_servCertHashed] = true;\n\n        require(\n            CertificateVerifier.isValidClaimCertificate(\n                _publisher,\n                _client,\n                _maxNonce,\n                _nonce,\n                _vArray,\n                _rArray,\n                _sArray,\n                msg.sender\n            ),\n            \"Certificate should be winning\"\n        );\n\n        // fetch delivery reward from upload contract\n        uint256 _deliveryReward;\n        (,,,,_deliveryReward,,,,) = UploadInterface(uploadContractAddress).readPublisherOffer(_offerId);\n        require(ERC20(tokenContractAddress).transfer(msg.sender, _deliveryReward), \"Successful transfer\");\n\n        _success = true;\n    }\n}\n",
  "sourcePath": "/Users/roshanr/Developer/Marlin/marlin-contracts/contracts/Certificate.sol",
  "compiler": {
    "name": "solc",
    "version": "0.4.24+commit.e67f0147.Emscripten.clang"
  },
  "schemaVersion": "2.0.1",
  "updatedAt": "2018-10-04T11:35:03.591Z"
}