{
  "contractName": "Upload",
  "abi": [
    {
      "constant": true,
      "inputs": [],
      "name": "tokenContractAddress",
      "outputs": [
        {
          "name": "",
          "type": "address"
        }
      ],
      "payable": false,
      "stateMutability": "view",
      "type": "function"
    },
    {
      "inputs": [
        {
          "name": "_tokenContractAddress",
          "type": "address"
        }
      ],
      "payable": false,
      "stateMutability": "nonpayable",
      "type": "constructor"
    },
    {
      "anonymous": false,
      "inputs": [
        {
          "indexed": false,
          "name": "id",
          "type": "bytes32"
        }
      ],
      "name": "NewPublisherOffer",
      "type": "event"
    },
    {
      "anonymous": false,
      "inputs": [
        {
          "indexed": false,
          "name": "id",
          "type": "bytes32"
        },
        {
          "indexed": false,
          "name": "node",
          "type": "address"
        }
      ],
      "name": "ServePublisherOffer",
      "type": "event"
    },
    {
      "constant": false,
      "inputs": [
        {
          "name": "_id",
          "type": "bytes32"
        },
        {
          "name": "_amount",
          "type": "uint256"
        }
      ],
      "name": "fundOffer",
      "outputs": [
        {
          "name": "success",
          "type": "bool"
        }
      ],
      "payable": false,
      "stateMutability": "nonpayable",
      "type": "function"
    },
    {
      "constant": false,
      "inputs": [
        {
          "name": "_id",
          "type": "bytes32"
        }
      ],
      "name": "closeOffer",
      "outputs": [
        {
          "name": "success",
          "type": "bool"
        }
      ],
      "payable": false,
      "stateMutability": "nonpayable",
      "type": "function"
    },
    {
      "constant": false,
      "inputs": [],
      "name": "withdraw",
      "outputs": [
        {
          "name": "success",
          "type": "bool"
        }
      ],
      "payable": false,
      "stateMutability": "nonpayable",
      "type": "function"
    },
    {
      "constant": false,
      "inputs": [
        {
          "name": "certificateContractAddress",
          "type": "address"
        }
      ],
      "name": "approve",
      "outputs": [
        {
          "name": "success",
          "type": "bool"
        }
      ],
      "payable": false,
      "stateMutability": "nonpayable",
      "type": "function"
    },
    {
      "constant": false,
      "inputs": [
        {
          "name": "_offerId",
          "type": "bytes32"
        },
        {
          "name": "_to",
          "type": "address"
        },
        {
          "name": "_amount",
          "type": "uint256"
        }
      ],
      "name": "transfer",
      "outputs": [
        {
          "name": "success",
          "type": "bool"
        }
      ],
      "payable": false,
      "stateMutability": "nonpayable",
      "type": "function"
    },
    {
      "constant": false,
      "inputs": [
        {
          "name": "_namespace",
          "type": "string"
        },
        {
          "name": "_archiveUrl",
          "type": "string"
        },
        {
          "name": "_storageReward",
          "type": "uint256"
        },
        {
          "name": "_deliveryReward",
          "type": "uint256"
        },
        {
          "name": "_duration",
          "type": "uint256"
        },
        {
          "name": "_expiry",
          "type": "uint256"
        },
        {
          "name": "_replication",
          "type": "uint256"
        },
        {
          "name": "_requiredStake",
          "type": "uint256"
        },
        {
          "name": "_geoHash",
          "type": "bytes32"
        },
        {
          "name": "_archiveSize",
          "type": "uint256"
        },
        {
          "name": "_archiveHash",
          "type": "bytes32"
        }
      ],
      "name": "addPublisherOffer",
      "outputs": [],
      "payable": false,
      "stateMutability": "nonpayable",
      "type": "function"
    },
    {
      "constant": false,
      "inputs": [
        {
          "name": "_id",
          "type": "bytes32"
        },
        {
          "name": "_replication",
          "type": "uint256"
        }
      ],
      "name": "scalePublisherOffer",
      "outputs": [
        {
          "name": "_success",
          "type": "bool"
        }
      ],
      "payable": false,
      "stateMutability": "nonpayable",
      "type": "function"
    },
    {
      "constant": false,
      "inputs": [
        {
          "name": "_id",
          "type": "bytes32"
        }
      ],
      "name": "servePublisherOffer",
      "outputs": [
        {
          "name": "_success",
          "type": "bool"
        }
      ],
      "payable": false,
      "stateMutability": "nonpayable",
      "type": "function"
    },
    {
      "constant": false,
      "inputs": [
        {
          "name": "_id",
          "type": "bytes32"
        }
      ],
      "name": "withdrawStake",
      "outputs": [
        {
          "name": "_success",
          "type": "bool"
        }
      ],
      "payable": false,
      "stateMutability": "nonpayable",
      "type": "function"
    },
    {
      "constant": false,
      "inputs": [],
      "name": "withdrawRefund",
      "outputs": [],
      "payable": false,
      "stateMutability": "nonpayable",
      "type": "function"
    },
    {
      "constant": true,
      "inputs": [
        {
          "name": "_id",
          "type": "bytes32"
        }
      ],
      "name": "readPublisherOffer",
      "outputs": [
        {
          "name": "_publisher",
          "type": "address"
        },
        {
          "name": "_namespace",
          "type": "string"
        },
        {
          "name": "_archiveUrl",
          "type": "string"
        },
        {
          "name": "_storageReward",
          "type": "uint256"
        },
        {
          "name": "_deliveryReward",
          "type": "uint256"
        },
        {
          "name": "_validTill",
          "type": "uint256"
        },
        {
          "name": "_expiry",
          "type": "uint256"
        },
        {
          "name": "_replication",
          "type": "uint256"
        },
        {
          "name": "_requiredStake",
          "type": "uint256"
        },
        {
          "name": "_geoHash",
          "type": "bytes32"
        },
        {
          "name": "_archiveSize",
          "type": "uint256"
        },
        {
          "name": "_archiveHash",
          "type": "bytes32"
        }
      ],
      "payable": false,
      "stateMutability": "view",
      "type": "function"
    },
    {
      "constant": true,
      "inputs": [
        {
          "name": "_node",
          "type": "address"
        }
      ],
      "name": "readRefund",
      "outputs": [
        {
          "name": "_value",
          "type": "uint256"
        }
      ],
      "payable": false,
      "stateMutability": "view",
      "type": "function"
    },
    {
      "constant": true,
      "inputs": [
        {
          "name": "_id",
          "type": "bytes32"
        },
        {
          "name": "_node",
          "type": "address"
        }
      ],
      "name": "readStake",
      "outputs": [
        {
          "name": "_value",
          "type": "uint256"
        }
      ],
      "payable": false,
      "stateMutability": "view",
      "type": "function"
    }
  ],
  "bytecode": "0x608060405234801561001057600080fd5b50604051602080612ebb83398101806040528101908080519060200190929190505050806000806101000a81548173ffffffffffffffffffffffffffffffffffffffff021916908373ffffffffffffffffffffffffffffffffffffffff16021790555050612e38806100836000396000f3006080604052600436106100d0576000357c0100000000000000000000000000000000000000000000000000000000900463ffffffff168063110f8874146100d5578063134358b7146100ec57806323bb2dea146101515780632b611c49146101a85780633ccfd60b146103405780633feb1bd81461036f5780636fe9b8ab146103e257806382edaf94146104355780639cc2f88c1461048c5780639e0cd016146104d5578063b95ff6891461051e578063d735fd9d14610567578063daea85c5146105ba578063dfa9034314610615575b600080fd5b3480156100e157600080fd5b506100ea610726565b005b3480156100f857600080fd5b5061013b6004803603810190808035600019169060200190929190803573ffffffffffffffffffffffffffffffffffffffff1690602001909291905050506108cb565b6040518082815260200191505060405180910390f35b34801561015d57600080fd5b50610192600480360381019080803573ffffffffffffffffffffffffffffffffffffffff16906020019092919050505061096a565b6040518082815260200191505060405180910390f35b3480156101b457600080fd5b506101d760048036038101908080356000191690602001909291905050506109b3565b604051808d73ffffffffffffffffffffffffffffffffffffffff1673ffffffffffffffffffffffffffffffffffffffff16815260200180602001806020018c81526020018b81526020018a81526020018981526020018881526020018781526020018660001916600019168152602001858152602001846000191660001916815260200183810383528e818151815260200191508051906020019080838360005b83811015610293578082015181840152602081019050610278565b50505050905090810190601f1680156102c05780820380516001836020036101000a031916815260200191505b5083810382528d818151815260200191508051906020019080838360005b838110156102f95780820151818401526020810190506102de565b50505050905090810190601f1680156103265780820380516001836020036101000a031916815260200191505b509e50505050505050505050505050505060405180910390f35b34801561034c57600080fd5b50610355610cb1565b604051808215151515815260200191505060405180910390f35b34801561037b57600080fd5b506103c86004803603810190808035600019169060200190929190803573ffffffffffffffffffffffffffffffffffffffff16906020019092919080359060200190929190505050610eb1565b604051808215151515815260200191505060405180910390f35b3480156103ee57600080fd5b5061041b60048036038101908080356000191690602001909291908035906020019092919050505061114c565b604051808215151515815260200191505060405180910390f35b34801561044157600080fd5b5061044a61140f565b604051808273ffffffffffffffffffffffffffffffffffffffff1673ffffffffffffffffffffffffffffffffffffffff16815260200191505060405180910390f35b34801561049857600080fd5b506104bb6004803603810190808035600019169060200190929190505050611434565b604051808215151515815260200191505060405180910390f35b3480156104e157600080fd5b506105046004803603810190808035600019169060200190929190505050611635565b604051808215151515815260200191505060405180910390f35b34801561052a57600080fd5b5061054d6004803603810190808035600019169060200190929190505050611c32565b604051808215151515815260200191505060405180910390f35b34801561057357600080fd5b506105a0600480360381019080803560001916906020019092919080359060200190929190505050611fc5565b604051808215151515815260200191505060405180910390f35b3480156105c657600080fd5b506105fb600480360381019080803573ffffffffffffffffffffffffffffffffffffffff16906020019092919050505061216e565b604051808215151515815260200191505060405180910390f35b34801561062157600080fd5b50610724600480360381019080803590602001908201803590602001908080601f0160208091040260200160405190810160405280939291908181526020018383808284378201915050505050509192919290803590602001908201803590602001908080601f016020809104026020016040519081016040528093929190818152602001838380828437820191505050505050919291929080359060200190929190803590602001909291908035906020019092919080359060200190929190803590602001909291908035906020019092919080356000191690602001909291908035906020019092919080356000191690602001909291905050506122b1565b005b6000600260003373ffffffffffffffffffffffffffffffffffffffff1673ffffffffffffffffffffffffffffffffffffffff16815260200190815260200160002054905060008111151561077957600080fd5b6000600260003373ffffffffffffffffffffffffffffffffffffffff1673ffffffffffffffffffffffffffffffffffffffff168152602001908152602001600020819055506000809054906101000a900473ffffffffffffffffffffffffffffffffffffffff1673ffffffffffffffffffffffffffffffffffffffff1663a9059cbb33836040518363ffffffff167c0100000000000000000000000000000000000000000000000000000000028152600401808373ffffffffffffffffffffffffffffffffffffffff1673ffffffffffffffffffffffffffffffffffffffff16815260200182815260200192505050602060405180830381600087803b15801561088257600080fd5b505af1158015610896573d6000803e3d6000fd5b505050506040513d60208110156108ac57600080fd5b810190808051906020019092919050505015156108c857600080fd5b50565b600060011515600460008560001916600019168152602001908152602001600020600a0160008473ffffffffffffffffffffffffffffffffffffffff1673ffffffffffffffffffffffffffffffffffffffff16815260200190815260200160002060009054906101000a900460ff1615151415610964576004600084600019166000191681526020019081526020016000206008015490505b92915050565b6000600260008373ffffffffffffffffffffffffffffffffffffffff1673ffffffffffffffffffffffffffffffffffffffff168152602001908152602001600020549050919050565b60006060806000806000806000806000806000600460008e6000191660001916815260200190815260200160002060000160009054906101000a900473ffffffffffffffffffffffffffffffffffffffff169b50600460008e600019166000191681526020019081526020016000206001018054600181600116156101000203166002900480601f016020809104026020016040519081016040528092919081815260200182805460018160011615610100020316600290048015610ab95780601f10610a8e57610100808354040283529160200191610ab9565b820191906000526020600020905b815481529060010190602001808311610a9c57829003601f168201915b50505050509a50600460008e600019166000191681526020019081526020016000206002018054600181600116156101000203166002900480601f016020809104026020016040519081016040528092919081815260200182805460018160011615610100020316600290048015610b725780601f10610b4757610100808354040283529160200191610b72565b820191906000526020600020905b815481529060010190602001808311610b5557829003601f168201915b50505050509950600460008e60001916600019168152602001908152602001600020600301549850600460008e60001916600019168152602001908152602001600020600401549750600460008e60001916600019168152602001908152602001600020600501549650600460008e60001916600019168152602001908152602001600020600601549550600460008e60001916600019168152602001908152602001600020600701549450600460008e60001916600019168152602001908152602001600020600801549350600460008e60001916600019168152602001908152602001600020600b01549250600460008e60001916600019168152602001908152602001600020600c01549150600460008e60001916600019168152602001908152602001600020600d0154905091939597999b5091939597999b565b60008060009054906101000a900473ffffffffffffffffffffffffffffffffffffffff1673ffffffffffffffffffffffffffffffffffffffff1663a9059cbb33600260003373ffffffffffffffffffffffffffffffffffffffff1673ffffffffffffffffffffffffffffffffffffffff168152602001908152602001600020546040518363ffffffff167c0100000000000000000000000000000000000000000000000000000000028152600401808373ffffffffffffffffffffffffffffffffffffffff1673ffffffffffffffffffffffffffffffffffffffff16815260200182815260200192505050602060405180830381600087803b158015610db657600080fd5b505af1158015610dca573d6000803e3d6000fd5b505050506040513d6020811015610de057600080fd5b81019080805190602001909291905050501515610e65576040517f08c379a000000000000000000000000000000000000000000000000000000000815260040180806020018281038252600e8152602001807f546f6b656e207472616e7366657200000000000000000000000000000000000081525060200191505060405180910390fd5b6000600260003373ffffffffffffffffffffffffffffffffffffffff1673ffffffffffffffffffffffffffffffffffffffff168152602001908152602001600020819055506001905090565b60008060046000866000191660001916815260200190815260200160002060000160009054906101000a900473ffffffffffffffffffffffffffffffffffffffff1633604051602001808373ffffffffffffffffffffffffffffffffffffffff1673ffffffffffffffffffffffffffffffffffffffff166c010000000000000000000000000281526014018273ffffffffffffffffffffffffffffffffffffffff1673ffffffffffffffffffffffffffffffffffffffff166c01000000000000000000000000028152601401925050506040516020818303038152906040526040518082805190602001908083835b602083101515610fc55780518252602082019150602081019050602083039250610fa0565b6001836020036101000a038019825116818451168082178552505050505050905001915050604051809103902090506001151560036000836000191660001916815260200190815260200160002060009054906101000a900460ff1615151415156110be576040517f08c379a00000000000000000000000000000000000000000000000000000000081526004018080602001828103825260278152602001807f436572746966696361746520636f6e74726163742073686f756c64206265206181526020017f7070726f7665640000000000000000000000000000000000000000000000000081525060400191505060405180910390fd5b6110ec83600160008860001916600019168152602001908152602001600020546128de90919063ffffffff16565b5061113f83600260008773ffffffffffffffffffffffffffffffffffffffff1673ffffffffffffffffffffffffffffffffffffffff168152602001908152602001600020546128f790919063ffffffff16565b5060019150509392505050565b60003373ffffffffffffffffffffffffffffffffffffffff1660046000856000191660001916815260200190815260200160002060000160009054906101000a900473ffffffffffffffffffffffffffffffffffffffff1673ffffffffffffffffffffffffffffffffffffffff1614151561122f576040517f08c379a00000000000000000000000000000000000000000000000000000000081526004018080602001828103825260108152602001807f566572696679206f776e6572736869700000000000000000000000000000000081525060200191505060405180910390fd5b6000809054906101000a900473ffffffffffffffffffffffffffffffffffffffff1673ffffffffffffffffffffffffffffffffffffffff166323b872dd3330856040518463ffffffff167c0100000000000000000000000000000000000000000000000000000000028152600401808473ffffffffffffffffffffffffffffffffffffffff1673ffffffffffffffffffffffffffffffffffffffff1681526020018373ffffffffffffffffffffffffffffffffffffffff1673ffffffffffffffffffffffffffffffffffffffff1681526020018281526020019350505050602060405180830381600087803b15801561132757600080fd5b505af115801561133b573d6000803e3d6000fd5b505050506040513d602081101561135157600080fd5b810190808051906020019092919050505015156113d6576040517f08c379a000000000000000000000000000000000000000000000000000000000815260040180806020018281038252600e8152602001807f546f6b656e207472616e7366657200000000000000000000000000000000000081525060200191505060405180910390fd5b61140482600160008660001916600019168152602001908152602001600020546128f790919063ffffffff16565b506001905092915050565b6000809054906101000a900473ffffffffffffffffffffffffffffffffffffffff1681565b60003373ffffffffffffffffffffffffffffffffffffffff1660046000846000191660001916815260200190815260200160002060000160009054906101000a900473ffffffffffffffffffffffffffffffffffffffff1673ffffffffffffffffffffffffffffffffffffffff16141515611517576040517f08c379a00000000000000000000000000000000000000000000000000000000081526004018080602001828103825260108152602001807f566572696679206f776e6572736869700000000000000000000000000000000081525060200191505060405180910390fd5b60046000836000191660001916815260200190815260200160002060060154421115156115ac576040517f08c379a00000000000000000000000000000000000000000000000000000000081526004018080602001828103825260178152602001807f4f666665722073686f756c64206265206578706972656400000000000000000081525060200191505060405180910390fd5b60016000836000191660001916815260200190815260200160002054600260003373ffffffffffffffffffffffffffffffffffffffff1673ffffffffffffffffffffffffffffffffffffffff1681526020019081526020016000208190555060006001600084600019166000191681526020019081526020016000208190555060019050919050565b600042600460008460001916600019168152602001908152602001600020600501541115156116cc576040517f08c379a000000000000000000000000000000000000000000000000000000000815260040180806020018281038252600e8152602001807f436865636b2076616c696469747900000000000000000000000000000000000081525060200191505060405180910390fd5b4260046000846000191660001916815260200190815260200160002060060154111515611761576040517f08c379a000000000000000000000000000000000000000000000000000000000815260040180806020018281038252600c8152602001807f436865636b20657870697279000000000000000000000000000000000000000081525060200191505060405180910390fd5b60001515600460008460001916600019168152602001908152602001600020600a0160003373ffffffffffffffffffffffffffffffffffffffff1673ffffffffffffffffffffffffffffffffffffffff16815260200190815260200160002060009054906101000a900460ff161515141515611845576040517f08c379a00000000000000000000000000000000000000000000000000000000081526004018080602001828103825260158152602001807f436865636b206475706c6963617465206e6f646573000000000000000000000081525060200191505060405180910390fd5b60046000836000191660001916815260200190815260200160002060070154600460008460001916600019168152602001908152602001600020600901805490501015156118fb576040517f08c379a00000000000000000000000000000000000000000000000000000000081526004018080602001828103825260118152602001807f436865636b207265706c69636174696f6e00000000000000000000000000000081525060200191505060405180910390fd5b6001600460008460001916600019168152602001908152602001600020600a0160003373ffffffffffffffffffffffffffffffffffffffff1673ffffffffffffffffffffffffffffffffffffffff16815260200190815260200160002060006101000a81548160ff0219169083151502179055506004600083600019166000191681526020019081526020016000206009013390806001815401808255809150509060018203906000526020600020016000909192909190916101000a81548173ffffffffffffffffffffffffffffffffffffffff021916908373ffffffffffffffffffffffffffffffffffffffff160217905550506000809054906101000a900473ffffffffffffffffffffffffffffffffffffffff1673ffffffffffffffffffffffffffffffffffffffff166323b872dd3330600460008760001916600019168152602001908152602001600020600801546040518463ffffffff167c0100000000000000000000000000000000000000000000000000000000028152600401808473ffffffffffffffffffffffffffffffffffffffff1673ffffffffffffffffffffffffffffffffffffffff1681526020018373ffffffffffffffffffffffffffffffffffffffff1673ffffffffffffffffffffffffffffffffffffffff1681526020018281526020019350505050602060405180830381600087803b158015611b0757600080fd5b505af1158015611b1b573d6000803e3d6000fd5b505050506040513d6020811015611b3157600080fd5b81019080805190602001909291905050501515611bb6576040517f08c379a000000000000000000000000000000000000000000000000000000000815260040180806020018281038252600e8152602001807f546f6b656e207472616e7366657200000000000000000000000000000000000081525060200191505060405180910390fd5b7fda16b9dde29d13254b2754fce987e518888423367f48e6ac81b6ef657a4ebbec82336040518083600019166000191681526020018273ffffffffffffffffffffffffffffffffffffffff1673ffffffffffffffffffffffffffffffffffffffff1681526020019250505060405180910390a160019050919050565b60006004600083600019166000191681526020019081526020016000206005015442111515611cc9576040517f08c379a000000000000000000000000000000000000000000000000000000000815260040180806020018281038252600e8152602001807f436865636b2076616c696469747900000000000000000000000000000000000081525060200191505060405180910390fd5b60011515600460008460001916600019168152602001908152602001600020600a0160003373ffffffffffffffffffffffffffffffffffffffff1673ffffffffffffffffffffffffffffffffffffffff16815260200190815260200160002060009054906101000a900460ff161515141515611dad576040517f08c379a00000000000000000000000000000000000000000000000000000000081526004018080602001828103825260168152602001807f4e6f64652073686f756c642062652073657276696e670000000000000000000081525060200191505060405180910390fd5b611db78233612913565b6000600460008460001916600019168152602001908152602001600020600a0160003373ffffffffffffffffffffffffffffffffffffffff1673ffffffffffffffffffffffffffffffffffffffff16815260200190815260200160002060006101000a81548160ff0219169083151502179055506000809054906101000a900473ffffffffffffffffffffffffffffffffffffffff1673ffffffffffffffffffffffffffffffffffffffff1663a9059cbb33600460008660001916600019168152602001908152602001600020600801546040518363ffffffff167c0100000000000000000000000000000000000000000000000000000000028152600401808373ffffffffffffffffffffffffffffffffffffffff1673ffffffffffffffffffffffffffffffffffffffff16815260200182815260200192505050602060405180830381600087803b158015611f0d57600080fd5b505af1158015611f21573d6000803e3d6000fd5b505050506040513d6020811015611f3757600080fd5b81019080805190602001909291905050501515611fbc576040517f08c379a000000000000000000000000000000000000000000000000000000000815260040180806020018281038252600e8152602001807f546f6b656e207472616e7366657200000000000000000000000000000000000081525060200191505060405180910390fd5b60019050919050565b600060046000846000191660001916815260200190815260200160002060000160009054906101000a900473ffffffffffffffffffffffffffffffffffffffff1673ffffffffffffffffffffffffffffffffffffffff163373ffffffffffffffffffffffffffffffffffffffff161415156120a8576040517f08c379a000000000000000000000000000000000000000000000000000000000815260040180806020018281038252600d8152602001807f5665726966792073656e6465720000000000000000000000000000000000000081525060200191505060405180910390fd5b816004600085600019166000191681526020019081526020016000206009018054905011151515612141576040517f08c379a000000000000000000000000000000000000000000000000000000000815260040180806020018281038252601a8152602001807f566572696679206d6178696d756d207265706c69636174696f6e00000000000081525060200191505060405180910390fd5b81600460008560001916600019168152602001908152602001600020600701819055506001905092915050565b6000803383604051602001808373ffffffffffffffffffffffffffffffffffffffff1673ffffffffffffffffffffffffffffffffffffffff166c010000000000000000000000000281526014018273ffffffffffffffffffffffffffffffffffffffff1673ffffffffffffffffffffffffffffffffffffffff166c01000000000000000000000000028152601401925050506040516020818303038152906040526040518082805190602001908083835b602083101515612244578051825260208201915060208101905060208303925061221f565b6001836020036101000a03801982511681845116808217855250505050505090500191505060405180910390209050600160036000836000191660001916815260200190815260200160002060006101000a81548160ff0219169083151502179055506001915050919050565b60008b8b6040516020018083805190602001908083835b6020831015156122ed57805182526020820191506020810190506020830392506122c8565b6001836020036101000a03801982511681845116808217855250505050505090500182805190602001908083835b602083101515612340578051825260208201915060208101905060208303925061231b565b6001836020036101000a038019825116818451168082178552505050505050905001925050506040516020818303038152906040526040518082805190602001908083835b6020831015156123aa5780518252602082019150602081019050602083039250612385565b6001836020036101000a038019825116818451168082178552505050505050905001915050604051809103902090506123e281612a60565b1515612456576040517f08c379a00000000000000000000000000000000000000000000000000000000081526004018080602001828103825260098152602001807f556e69717565206964000000000000000000000000000000000000000000000081525060200191505060405180910390fd5b86421015156124cd576040517f08c379a000000000000000000000000000000000000000000000000000000000815260040180806020018281038252600c8152602001807f56616c696420657870697279000000000000000000000000000000000000000081525060200191505060405180910390fd5b600085111515612545576040517f08c379a00000000000000000000000000000000000000000000000000000000081526004018080602001828103825260148152602001807f56616c6964207265717569726564207374616b6500000000000000000000000081525060200191505060405180910390fd5b600060046000836000191660001916815260200190815260200160002060090180549050111561265a5760046000826000191660001916815260200190815260200160002060000160009054906101000a900473ffffffffffffffffffffffffffffffffffffffff1673ffffffffffffffffffffffffffffffffffffffff163373ffffffffffffffffffffffffffffffffffffffff16141515612650576040517f08c379a000000000000000000000000000000000000000000000000000000000815260040180806020018281038252600e8152602001807f4578697374696e67206f6666657200000000000000000000000000000000000081525060200191505060405180910390fd5b61265981612aec565b5b3360046000836000191660001916815260200190815260200160002060000160006101000a81548173ffffffffffffffffffffffffffffffffffffffff021916908373ffffffffffffffffffffffffffffffffffffffff1602179055508b60046000836000191660001916815260200190815260200160002060010190805190602001906126e9929190612d67565b508a600460008360001916600019168152602001908152602001600020600201908051906020019061271c929190612d67565b508960046000836000191660001916815260200190815260200160002060030181905550886004600083600019166000191681526020019081526020016000206004018190555061277688426128f790919063ffffffff16565b6004600083600019166000191681526020019081526020016000206005018190555086600460008360001916600019168152602001908152602001600020600601819055508560046000836000191660001916815260200190815260200160002060070181905550846004600083600019166000191681526020019081526020016000206008018190555083600460008360001916600019168152602001908152602001600020600b01816000191690555082600460008360001916600019168152602001908152602001600020600c018190555081600460008360001916600019168152602001908152602001600020600d0181600019169055506128908161288b6103e88c612d2f90919063ffffffff16565b61114c565b507f91e5f0025cd0da002142435b64c05a08a1c08d559dbac5d25139ea827f32b0908160405180826000191660001916815260200191505060405180910390a1505050505050505050505050565b60008282111515156128ec57fe5b818303905092915050565b6000818301905082811015151561290a57fe5b80905092915050565b606060006004600085600019166000191681526020019081526020016000206009018054806020026020016040519081016040528092919081815260200182805480156129b557602002820191906000526020600020905b8160009054906101000a900473ffffffffffffffffffffffffffffffffffffffff1673ffffffffffffffffffffffffffffffffffffffff168152602001906001019080831161296b575b50505050509150815190505b6000811115612a5a578273ffffffffffffffffffffffffffffffffffffffff1682828151811015156129ef57fe5b9060200190602002015173ffffffffffffffffffffffffffffffffffffffff161415612a4c578181815181101515612a2357fe5b906020019060200201600073ffffffffffffffffffffffffffffffffffffffff16815250612a5a565b8080600190039150506129c1565b50505050565b600060046000836000191660001916815260200190815260200160002060060154421180612aac5750600060046000846000191660001916815260200190815260200160002060060154145b80612ad457506004600083600019166000191681526020019081526020016000206005015442115b15612ae25760019050612ae7565b600090505b919050565b60606000806004600085600019166000191681526020019081526020016000206005015442111515612b1d57600080fd5b600460008560001916600019168152602001908152602001600020600901805480602002602001604051908101604052809291908181526020018280548015612bbb57602002820191906000526020600020905b8160009054906101000a900473ffffffffffffffffffffffffffffffffffffffff1673ffffffffffffffffffffffffffffffffffffffff1681526020019060010190808311612b71575b50505050509250825191505b6000821115612d29578282815181101515612bde57fe5b906020019060200201519050612c5a60046000866000191660001916815260200190815260200160002060080154600260008473ffffffffffffffffffffffffffffffffffffffff1673ffffffffffffffffffffffffffffffffffffffff168152602001908152602001600020546128f790919063ffffffff16565b600260008373ffffffffffffffffffffffffffffffffffffffff1673ffffffffffffffffffffffffffffffffffffffff16815260200190815260200160002081905550612ca78482612913565b6000600460008660001916600019168152602001908152602001600020600a0160008373ffffffffffffffffffffffffffffffffffffffff1673ffffffffffffffffffffffffffffffffffffffff16815260200190815260200160002060006101000a81548160ff021916908315150217905550818060019003925050612bc7565b50505050565b600080831415612d425760009050612d61565b8183029050818382811515612d5357fe5b04141515612d5d57fe5b8090505b92915050565b828054600181600116156101000203166002900490600052602060002090601f016020900481019282601f10612da857805160ff1916838001178555612dd6565b82800160010185558215612dd6579182015b82811115612dd5578251825591602001919060010190612dba565b5b509050612de39190612de7565b5090565b612e0991905b80821115612e05576000816000905550600101612ded565b5090565b905600a165627a7a72305820ec6e8f04057d22783a8746b19398ec0f7d378a561abc23aa294ea89ac11b58c20029",
  "source": "pragma solidity ^0.4.24;\n\nimport \"openzeppelin-solidity/contracts/token/ERC20/ERC20.sol\";\nimport \"openzeppelin-solidity/contracts/math/SafeMath.sol\";\n\n\n/**\n@title Publisher-side upload offers\n@author Marlin Labs\n@notice Publishers can create new offers for storing and delivering content\n*/\ncontract Upload {\n\n    using SafeMath for uint256;\n\n\n    //-------------------------------- Initialization --------------------------------//\n\n    address public tokenContractAddress;\n\n    /**\n    @notice Constructor that saves the address of the Marlin token contract\n    @param _tokenContractAddress    Address of Marlin token contract\n    */\n    constructor(address _tokenContractAddress) public {\n        tokenContractAddress = _tokenContractAddress;\n    }\n\n\n    //-------------------------------- Offers token escrow --------------------------------//\n\n    // Map offers to balances\n    mapping(bytes32 => uint256) offerBalances;\n\n    function fundOffer(\n        bytes32 _id,\n        uint256 _amount\n    )\n        public\n        returns (bool success)\n    {\n        require(offers[_id].publisher == msg.sender, \"Verify ownership\");\n        require(\n            ERC20(tokenContractAddress).transferFrom(\n                msg.sender,\n                address(this),\n                _amount\n            ),\n            \"Token transfer\"\n        );\n        offerBalances[_id].add(_amount);\n        return true;\n    }\n\n    function closeOffer(\n        bytes32 _id\n    )\n        public\n        returns (bool success)\n    {\n        require(offers[_id].publisher == msg.sender, \"Verify ownership\");\n        require(now > offers[_id].expiry, \"Offer should be expired\");\n\n        balances[msg.sender] = offerBalances[_id];\n        offerBalances[_id] = 0;\n        return true;\n    }\n\n    //-------------------------------- Token balances --------------------------------//\n\n    mapping(address => uint256) balances;\n\n    function withdraw() public returns (bool success) {\n        require(\n            ERC20(tokenContractAddress).transfer(\n                msg.sender,\n                balances[msg.sender]\n            ),\n            \"Token transfer\"\n        );\n        balances[msg.sender] = 0;\n        return true;\n    }\n\n\n    //-------------------------------- Certificate transfer interface --------------------------------//\n\n    // Map publishers to certificate address approvals\n    mapping(bytes32 => bool) approvals;\n\n    function approve(\n        address certificateContractAddress\n    )\n        public\n        returns (bool success)\n    {\n        bytes32 hash = keccak256(abi.encodePacked(msg.sender, certificateContractAddress));\n        approvals[hash] = true;\n        return true;\n    }\n\n    function transfer(\n        bytes32 _offerId,\n        address _to,\n        uint256 _amount\n    )\n        public\n        returns (bool success)\n    {\n        bytes32 hash = keccak256(abi.encodePacked(offers[_offerId].publisher, msg.sender));\n        require(approvals[hash] == true, \"Certificate contract should be approved\");\n        offerBalances[_offerId].sub(_amount);\n        balances[_to].add(_amount);\n        return true;\n    }\n\n\n\n    /**\n    @notice Struct for Publisher Offer\n    @param publisher        Address of the publisher\n    @param namespace        Namespace of the website/project\n    @param archiveUrl       URL of the file archive\n    @param storageReward    Reward (LIN) for storing this content\n    @param deliveryReward   Reward (LIN) for delivering/serving this content\n    @param validTill        UTC timestamp till which this offer is valid\n    @param expiry           UTC timestamp at which offer auto-expires if no master nodes join\n    @param replication      Replication factor of the content\n    @param requiredStake    Stake (LIN) required to store/deliver this content\n    @param nodes            Addresses of the master nodes that have joined this offer\n    @param activeNodes      Mapping of whether an address has joined this offer or not\n    @param geoHash          Geohash specifies region from which nodes can accept offer\n    @param archiveSize      Size of archive\n    @param archiveHash      Hash of archive, will be used for validation\n    */\n    struct PublisherOffer {\n        address publisher;\n        string namespace;\n        string archiveUrl;\n        uint256 storageReward;\n        uint256 deliveryReward;\n        uint256 validTill;\n        uint256 expiry;\n        uint256 replication;\n        uint256 requiredStake;\n        address[] nodes;\n        mapping(address => bool) activeNodes;\n        bytes32 geoHash;\n        uint256 archiveSize;\n        bytes32 archiveHash;\n    }\n\n    mapping(bytes32 => PublisherOffer) offers;\n\n    event NewPublisherOffer(bytes32 id);\n    event ServePublisherOffer(bytes32 id, address node);\n\n    /**\n    @notice Function to create a new publisher-side offer\n    @dev This may also be called to renew a offer whose validity was over\n    @param _namespace Namespace of the website/project\n    @param _archiveUrl URL of the file archive\n    @param _storageReward Reward (LIN) for storing this content\n    @param _deliveryReward Reward (LIN) for delivering/serving this content\n    @param _duration Duration of the offer after which its validity ends (seconds)\n    @param _expiry UTC timestamp at which offer auto-expires if no master nodes join\n    @param _replication Replication factor of the content\n    @param _requiredStake Stake (LIN) required to store/deliver this content\n    @param _geoHash geographic region from which nodes can accept this offer\n    @param _archiveSize size of archive\n    @param _archiveHash hash of archive\n    */\n    function addPublisherOffer(\n        string _namespace,\n        string _archiveUrl,\n        uint256 _storageReward,\n        uint256 _deliveryReward,\n        uint256 _duration,\n        uint256 _expiry,\n        uint256 _replication,\n        uint256 _requiredStake,\n        bytes32 _geoHash,\n        uint256 _archiveSize,\n        bytes32 _archiveHash\n    )\n        public\n    {\n        bytes32 _id = keccak256(abi.encodePacked(_namespace, _archiveUrl));\n        require(isUnique(_id), \"Unique id\");\n        require(now < _expiry, \"Valid expiry\");\n        require(_requiredStake > 0, \"Valid required stake\");\n        if (offers[_id].nodes.length > 0) {\n            require(msg.sender == offers[_id].publisher, \"Existing offer\");\n            refundPublisherOffer(_id);\n        }\n\n        offers[_id].publisher = msg.sender;\n        offers[_id].namespace = _namespace;\n        offers[_id].archiveUrl = _archiveUrl;\n        offers[_id].storageReward = _storageReward;\n        offers[_id].deliveryReward = _deliveryReward;\n        offers[_id].validTill = now.add(_duration);\n        offers[_id].expiry = _expiry;\n        offers[_id].replication = _replication;\n        offers[_id].requiredStake = _requiredStake;\n        offers[_id].geoHash = _geoHash;\n        offers[_id].archiveSize = _archiveSize;\n        offers[_id].archiveHash = _archiveHash;\n\n        fundOffer(_id, _deliveryReward.mul(1000));\n\n        emit NewPublisherOffer(_id);\n    }\n\n    /**\n    @notice Function to be called by publisher to scale out/in replication factor\n    @dev Can scale in only upto the already joined number of master nodes\n    @param _id keccak256(_namespace, _archiveUrl) is the ID of the offer\n    @param _replication Replication factor of the content\n    @return {\n      \"_success\": \"Boolean, true if updated successfully\"\n    }\n    */\n    function scalePublisherOffer(\n        bytes32 _id,\n        uint256 _replication\n    )\n        public\n        returns (bool _success)\n    {\n        require(msg.sender == offers[_id].publisher, \"Verify sender\");\n\n        require(offers[_id].nodes.length <= _replication, \"Verify maximum replication\");\n        offers[_id].replication = _replication;\n\n        _success = true;\n    }\n\n    /**\n    @notice Function to join a offer and deliver/serve content\n    @dev Offer can only be joined till the replication is not satisfied\n         msg.sender must approve this contract to transferFrom LIN tokens on their behalf\n    @param _id keccak256(_namespace, _archiveUrl) is the ID of the offer\n    @return {\n      \"_success\": \"Boolean, true if joined the offer successfully\"\n    }\n    */\n    function servePublisherOffer(bytes32 _id)\n        public\n        returns (bool _success)\n    {\n        // make sure upload contract is valid\n        require(offers[_id].validTill > now, \"Check validity\");\n        require(offers[_id].expiry > now, \"Check expiry\");\n\n        // make sure it is a new node\n        require(offers[_id].activeNodes[msg.sender] == false, \"Check duplicate nodes\");\n\n        // make sure upload contract has slots remaining, if yes, add new node\n        require(offers[_id].nodes.length < offers[_id].replication, \"Check replication\");\n        offers[_id].activeNodes[msg.sender] = true;\n        offers[_id].nodes.push(msg.sender);\n\n        // make sure transfer of tokens is possible\n        require(\n            ERC20(tokenContractAddress).transferFrom(\n                msg.sender,\n                address(this),\n                offers[_id].requiredStake\n            ),\n            \"Token transfer\"\n        );\n\n        emit ServePublisherOffer(_id, msg.sender);\n        _success = true;\n    }\n\n    /**\n    @notice Leave the offer after its validity is over\n    @dev This also means the staked LIN tokens will be transferred back\n    @param _id keccak256(_namespace, _archiveUrl) is the ID of the offer\n    @return {\n      \"_success\": \"Boolean, true if withdrawn successfully\"\n    }\n    */\n    function withdrawStake(bytes32 _id)\n        public\n        returns (bool _success)\n    {\n        // make sure upload contract is not valid anymore\n        require(now > offers[_id].validTill, \"Check validity\");\n\n        // make sure this node was serving\n        require(offers[_id].activeNodes[msg.sender] == true, \"Node should be serving\");\n        removeNode(_id, msg.sender);\n        offers[_id].activeNodes[msg.sender] = false;\n\n        // withdraw tokens\n        require(ERC20(tokenContractAddress).transfer(msg.sender, offers[_id].requiredStake), \"Token transfer\");\n\n        _success = true;\n    }\n\n    /**\n    @notice Function to withdraw refundable LIN tokens from this contract\n    @dev Tokens are refunded if the publisher renews their offer beyond the initial offer validity\n    */\n    function withdrawRefund()\n        public\n    {\n        uint256 _refund = balances[msg.sender];\n        require(_refund > 0);\n        balances[msg.sender] = 0;\n        require(ERC20(tokenContractAddress).transfer(msg.sender, _refund));\n    }\n\n    /**\n    @notice Function to read publisher-side offer details\n    @param _id keccak256(_namespace, _archiveUrl) is the ID of the offer\n    @return {\n      \"_publisher\": \"Address of the publisher, who created this offer\",\n      \"_namespace\": \"Namespace of the website/project\",\n      \"_archiveUrl\": \"URL of the file archive\",\n      \"_storageReward\": \"Reward (LIN) for storing this content\",\n      \"_deliveryReward\": \"Reward (LIN) for delivering/serving this content\",\n      \"_validTill\": \"UTC timestamp at which offer's validity is over\",\n      \"_expiry\": \"UTC timestamp at which offer auto-expires if no master nodes join\",\n      \"_replication\": \"Replication factor of the content\",\n      \"_requiredStake\": \"Stake (LIN) required to store/deliver this content\",\n      \"_geoHash\": \"geographic region from which nodes can accpe this offer\",\n      \"_archiveSize\": \"size of archive\",\n      \"_archiveHash\": \"hash of archive\"\n    }\n    */\n    function readPublisherOffer(bytes32 _id)\n        public\n        view\n        returns (\n            address _publisher,\n            string _namespace,\n            string _archiveUrl,\n            uint256 _storageReward,\n            uint256 _deliveryReward,\n            uint256 _validTill,\n            uint256 _expiry,\n            uint256 _replication,\n            uint256 _requiredStake,\n            bytes32 _geoHash,\n            uint256 _archiveSize,\n            bytes32 _archiveHash\n        )\n    {\n        _publisher = offers[_id].publisher;\n        _namespace = offers[_id].namespace;\n        _archiveUrl = offers[_id].archiveUrl;\n        _storageReward = offers[_id].storageReward;\n        _deliveryReward = offers[_id].deliveryReward;\n        _validTill = offers[_id].validTill;\n        _expiry = offers[_id].expiry;\n        _replication = offers[_id].replication;\n        _requiredStake = offers[_id].requiredStake;\n        _geoHash = offers[_id].geoHash;\n        _archiveSize = offers[_id].archiveSize;\n        _archiveHash = offers[_id].archiveHash;\n    }\n\n    /**\n    @notice Function to read the refund value of a master node\n    @param _node Address of the master node\n    @return {\n      \"_value\": \"Refund value of the master node\"\n    }\n    */\n    function readRefund(address _node)\n        public\n        view\n        returns (uint256 _value)\n    {\n        _value = balances[_node];\n    }\n\n    /**\n    @notice Function to read the stake of a master node for specific offer\n    @param _id keccak256(_namespace, _archiveUrl) is the ID of the offer\n    @param _node Address of the master node\n    @return {\n      \"_value\": \"LIN tokens staked by the master node for this offer\"\n    }\n    */\n    function readStake(bytes32 _id, address _node)\n        public\n        view\n        returns (uint256 _value)\n    {\n        if (offers[_id].activeNodes[_node] == true) {\n            _value = offers[_id].requiredStake;\n        }\n    }\n\n    function isInList(bytes32[] _list, bytes32 _item)\n        internal\n        pure\n        returns (bool _success)\n    {\n        uint256 _length = _list.length;\n        for (uint256 _i = 0; _i < _length; _i++) {\n            if (_item == _list[_i]) {\n                _success = true;\n                break;\n            }\n        }\n    }\n\n    function refundPublisherOffer(bytes32 _id)\n        internal\n    {\n        // make sure upload contract is not valid anymore\n        require(now > offers[_id].validTill);\n\n        address[] memory _nodes = offers[_id].nodes;\n        for (uint256 i = _nodes.length; i > 0; i--) {\n            address _node = _nodes[i];\n            balances[_node] = balances[_node].add(offers[_id].requiredStake);\n            removeNode(_id, _node);\n            offers[_id].activeNodes[_node] = false;\n        }\n    }\n\n    function removeNode(bytes32 _id, address _node)\n        internal\n        view\n    {\n        address[] memory _nodes = offers[_id].nodes;\n        for (uint256 i = _nodes.length; i > 0; i--) {\n            if (_nodes[i] == _node) {\n                delete _nodes[i];\n                break;\n            }\n        }\n    }\n\n    function isUnique(bytes32 _id)\n        internal\n        view\n        returns (bool _is)\n    {\n        if (\n            (now > offers[_id].expiry) ||\n            (offers[_id].expiry == 0) ||\n            (now > offers[_id].validTill)\n        ) {\n            return true;\n        }\n        return false;\n    }\n}\n",
  "sourcePath": "/Users/roshanr/Developer/Marlin/marlin-contracts/contracts/Upload.sol",
  "compiler": {
    "name": "solc",
    "version": "0.4.24+commit.e67f0147.Emscripten.clang"
  },
  "schemaVersion": "2.0.1",
  "updatedAt": "2018-10-04T11:36:38.842Z"
}