{
  "_format": "hh-sol-artifact-1",
  "contractName": "RewardDelegators",
  "sourceName": "contracts/staking/RewardDelegators.sol",
  "abi": [
    {
      "anonymous": false,
      "inputs": [
        {
          "indexed": false,
          "internalType": "bytes32",
          "name": "tokenId",
          "type": "bytes32"
        },
        {
          "indexed": false,
          "internalType": "uint256",
          "name": "rewardFactor",
          "type": "uint256"
        }
      ],
      "name": "AddReward",
      "type": "event"
    },
    {
      "anonymous": false,
      "inputs": [
        {
          "indexed": false,
          "internalType": "address",
          "name": "previousAdmin",
          "type": "address"
        },
        {
          "indexed": false,
          "internalType": "address",
          "name": "newAdmin",
          "type": "address"
        }
      ],
      "name": "AdminChanged",
      "type": "event"
    },
    {
      "anonymous": false,
      "inputs": [
        {
          "indexed": true,
          "internalType": "address",
          "name": "beacon",
          "type": "address"
        }
      ],
      "name": "BeaconUpgraded",
      "type": "event"
    },
    {
      "anonymous": false,
      "inputs": [
        {
          "indexed": false,
          "internalType": "address",
          "name": "_updatedClusterRegistry",
          "type": "address"
        }
      ],
      "name": "ClusterRegistryUpdated",
      "type": "event"
    },
    {
      "anonymous": false,
      "inputs": [
        {
          "indexed": false,
          "internalType": "address",
          "name": "cluster",
          "type": "address"
        }
      ],
      "name": "ClusterRewardDistributed",
      "type": "event"
    },
    {
      "anonymous": false,
      "inputs": [
        {
          "indexed": false,
          "internalType": "address",
          "name": "_updatedClusterRewards",
          "type": "address"
        }
      ],
      "name": "ClusterRewardsAddressUpdated",
      "type": "event"
    },
    {
      "anonymous": false,
      "inputs": [
        {
          "indexed": false,
          "internalType": "bytes32",
          "name": "MPONDTokenId",
          "type": "bytes32"
        }
      ],
      "name": "MPONDTokenIdUpdated",
      "type": "event"
    },
    {
      "anonymous": false,
      "inputs": [
        {
          "indexed": false,
          "internalType": "uint256",
          "name": "minMPONDStake",
          "type": "uint256"
        }
      ],
      "name": "MinMPONDStakeUpdated",
      "type": "event"
    },
    {
      "anonymous": false,
      "inputs": [
        {
          "indexed": true,
          "internalType": "address",
          "name": "previousOwner",
          "type": "address"
        },
        {
          "indexed": true,
          "internalType": "address",
          "name": "newOwner",
          "type": "address"
        }
      ],
      "name": "OwnershipTransferred",
      "type": "event"
    },
    {
      "anonymous": false,
      "inputs": [
        {
          "indexed": false,
          "internalType": "address",
          "name": "_updatedPOND",
          "type": "address"
        }
      ],
      "name": "PONDAddressUpdated",
      "type": "event"
    },
    {
      "anonymous": false,
      "inputs": [
        {
          "indexed": false,
          "internalType": "bytes32",
          "name": "tokenId",
          "type": "bytes32"
        }
      ],
      "name": "RemoveReward",
      "type": "event"
    },
    {
      "anonymous": false,
      "inputs": [
        {
          "indexed": false,
          "internalType": "bytes32",
          "name": "tokenId",
          "type": "bytes32"
        },
        {
          "indexed": false,
          "internalType": "uint256",
          "name": "rewardFactor",
          "type": "uint256"
        }
      ],
      "name": "RewardsUpdated",
      "type": "event"
    },
    {
      "anonymous": false,
      "inputs": [
        {
          "indexed": false,
          "internalType": "address",
          "name": "cluster",
          "type": "address"
        },
        {
          "indexed": false,
          "internalType": "address",
          "name": "delegator",
          "type": "address"
        },
        {
          "indexed": false,
          "internalType": "bytes32[]",
          "name": "tokenIds",
          "type": "bytes32[]"
        },
        {
          "indexed": false,
          "internalType": "uint256",
          "name": "rewards",
          "type": "uint256"
        }
      ],
      "name": "RewardsWithdrawn",
      "type": "event"
    },
    {
      "anonymous": false,
      "inputs": [
        {
          "indexed": false,
          "internalType": "address",
          "name": "_updatedStakeAddress",
          "type": "address"
        }
      ],
      "name": "StakeAddressUpdated",
      "type": "event"
    },
    {
      "anonymous": false,
      "inputs": [
        {
          "indexed": true,
          "internalType": "address",
          "name": "implementation",
          "type": "address"
        }
      ],
      "name": "Upgraded",
      "type": "event"
    },
    {
      "inputs": [],
      "name": "MPONDTokenId",
      "outputs": [
        {
          "internalType": "bytes32",
          "name": "",
          "type": "bytes32"
        }
      ],
      "stateMutability": "view",
      "type": "function"
    },
    {
      "inputs": [
        {
          "internalType": "address",
          "name": "_cluster",
          "type": "address"
        }
      ],
      "name": "_updateRewards",
      "outputs": [],
      "stateMutability": "nonpayable",
      "type": "function"
    },
    {
      "inputs": [
        {
          "internalType": "bytes32",
          "name": "_tokenId",
          "type": "bytes32"
        },
        {
          "internalType": "uint256",
          "name": "_rewardFactor",
          "type": "uint256"
        }
      ],
      "name": "addRewardFactor",
      "outputs": [],
      "stateMutability": "nonpayable",
      "type": "function"
    },
    {
      "inputs": [
        {
          "internalType": "address",
          "name": "_delegator",
          "type": "address"
        },
        {
          "internalType": "address",
          "name": "_cluster",
          "type": "address"
        },
        {
          "internalType": "bytes32[]",
          "name": "_tokens",
          "type": "bytes32[]"
        },
        {
          "internalType": "uint256[]",
          "name": "_amounts",
          "type": "uint256[]"
        }
      ],
      "name": "delegate",
      "outputs": [],
      "stateMutability": "nonpayable",
      "type": "function"
    },
    {
      "inputs": [
        {
          "internalType": "address",
          "name": "_cluster",
          "type": "address"
        },
        {
          "internalType": "bytes32",
          "name": "_tokenId",
          "type": "bytes32"
        }
      ],
      "name": "getAccRewardPerShare",
      "outputs": [
        {
          "internalType": "uint256",
          "name": "",
          "type": "uint256"
        }
      ],
      "stateMutability": "view",
      "type": "function"
    },
    {
      "inputs": [
        {
          "internalType": "address",
          "name": "_cluster",
          "type": "address"
        },
        {
          "internalType": "bytes32",
          "name": "_tokenId",
          "type": "bytes32"
        }
      ],
      "name": "getClusterDelegation",
      "outputs": [
        {
          "internalType": "uint256",
          "name": "",
          "type": "uint256"
        }
      ],
      "stateMutability": "view",
      "type": "function"
    },
    {
      "inputs": [
        {
          "internalType": "address",
          "name": "_cluster",
          "type": "address"
        },
        {
          "internalType": "address",
          "name": "_delegator",
          "type": "address"
        },
        {
          "internalType": "bytes32",
          "name": "_tokenId",
          "type": "bytes32"
        }
      ],
      "name": "getDelegation",
      "outputs": [
        {
          "internalType": "uint256",
          "name": "",
          "type": "uint256"
        }
      ],
      "stateMutability": "view",
      "type": "function"
    },
    {
      "inputs": [],
      "name": "getFullTokenList",
      "outputs": [
        {
          "internalType": "bytes32[]",
          "name": "",
          "type": "bytes32[]"
        }
      ],
      "stateMutability": "view",
      "type": "function"
    },
    {
      "inputs": [
        {
          "internalType": "address",
          "name": "_stakeAddress",
          "type": "address"
        },
        {
          "internalType": "address",
          "name": "_clusterRewardsAddress",
          "type": "address"
        },
        {
          "internalType": "address",
          "name": "_clusterRegistry",
          "type": "address"
        },
        {
          "internalType": "address",
          "name": "_rewardDelegatorsAdmin",
          "type": "address"
        },
        {
          "internalType": "uint256",
          "name": "_minMPONDStake",
          "type": "uint256"
        },
        {
          "internalType": "bytes32",
          "name": "_MPONDTokenId",
          "type": "bytes32"
        },
        {
          "internalType": "address",
          "name": "_PONDAddress",
          "type": "address"
        },
        {
          "internalType": "bytes32[]",
          "name": "_tokenIds",
          "type": "bytes32[]"
        },
        {
          "internalType": "uint256[]",
          "name": "_rewardFactors",
          "type": "uint256[]"
        }
      ],
      "name": "initialize",
      "outputs": [],
      "stateMutability": "nonpayable",
      "type": "function"
    },
    {
      "inputs": [
        {
          "internalType": "address",
          "name": "_cluster",
          "type": "address"
        }
      ],
      "name": "isClusterActive",
      "outputs": [
        {
          "internalType": "bool",
          "name": "",
          "type": "bool"
        }
      ],
      "stateMutability": "nonpayable",
      "type": "function"
    },
    {
      "inputs": [],
      "name": "minMPONDStake",
      "outputs": [
        {
          "internalType": "uint256",
          "name": "",
          "type": "uint256"
        }
      ],
      "stateMutability": "view",
      "type": "function"
    },
    {
      "inputs": [],
      "name": "owner",
      "outputs": [
        {
          "internalType": "address",
          "name": "",
          "type": "address"
        }
      ],
      "stateMutability": "view",
      "type": "function"
    },
    {
      "inputs": [
        {
          "internalType": "bytes32",
          "name": "_tokenId",
          "type": "bytes32"
        }
      ],
      "name": "removeRewardFactor",
      "outputs": [],
      "stateMutability": "nonpayable",
      "type": "function"
    },
    {
      "inputs": [],
      "name": "renounceOwnership",
      "outputs": [],
      "stateMutability": "nonpayable",
      "type": "function"
    },
    {
      "inputs": [
        {
          "internalType": "address",
          "name": "newOwner",
          "type": "address"
        }
      ],
      "name": "transferOwnership",
      "outputs": [],
      "stateMutability": "nonpayable",
      "type": "function"
    },
    {
      "inputs": [
        {
          "internalType": "address",
          "name": "_delegator",
          "type": "address"
        },
        {
          "internalType": "address",
          "name": "_cluster",
          "type": "address"
        },
        {
          "internalType": "bytes32[]",
          "name": "_tokens",
          "type": "bytes32[]"
        },
        {
          "internalType": "uint256[]",
          "name": "_amounts",
          "type": "uint256[]"
        }
      ],
      "name": "undelegate",
      "outputs": [],
      "stateMutability": "nonpayable",
      "type": "function"
    },
    {
      "inputs": [
        {
          "internalType": "address",
          "name": "_updatedClusterRegistry",
          "type": "address"
        }
      ],
      "name": "updateClusterRegistry",
      "outputs": [],
      "stateMutability": "nonpayable",
      "type": "function"
    },
    {
      "inputs": [
        {
          "internalType": "address",
          "name": "_updatedClusterRewards",
          "type": "address"
        }
      ],
      "name": "updateClusterRewards",
      "outputs": [],
      "stateMutability": "nonpayable",
      "type": "function"
    },
    {
      "inputs": [
        {
          "internalType": "bytes32",
          "name": "_updatedMPONDTokenId",
          "type": "bytes32"
        }
      ],
      "name": "updateMPONDTokenId",
      "outputs": [],
      "stateMutability": "nonpayable",
      "type": "function"
    },
    {
      "inputs": [
        {
          "internalType": "uint256",
          "name": "_minMPONDStake",
          "type": "uint256"
        }
      ],
      "name": "updateMinMPONDStake",
      "outputs": [],
      "stateMutability": "nonpayable",
      "type": "function"
    },
    {
      "inputs": [
        {
          "internalType": "address",
          "name": "_updatedPOND",
          "type": "address"
        }
      ],
      "name": "updatePONDAddress",
      "outputs": [],
      "stateMutability": "nonpayable",
      "type": "function"
    },
    {
      "inputs": [
        {
          "internalType": "bytes32",
          "name": "_tokenId",
          "type": "bytes32"
        },
        {
          "internalType": "uint256",
          "name": "_updatedRewardFactor",
          "type": "uint256"
        }
      ],
      "name": "updateRewardFactor",
      "outputs": [],
      "stateMutability": "nonpayable",
      "type": "function"
    },
    {
      "inputs": [
        {
          "internalType": "address",
          "name": "_updatedStakeAddress",
          "type": "address"
        }
      ],
      "name": "updateStakeAddress",
      "outputs": [],
      "stateMutability": "nonpayable",
      "type": "function"
    },
    {
      "inputs": [
        {
          "internalType": "address",
          "name": "newImplementation",
          "type": "address"
        }
      ],
      "name": "upgradeTo",
      "outputs": [],
      "stateMutability": "nonpayable",
      "type": "function"
    },
    {
      "inputs": [
        {
          "internalType": "address",
          "name": "newImplementation",
          "type": "address"
        },
        {
          "internalType": "bytes",
          "name": "data",
          "type": "bytes"
        }
      ],
      "name": "upgradeToAndCall",
      "outputs": [],
      "stateMutability": "payable",
      "type": "function"
    },
    {
      "inputs": [
        {
          "internalType": "address",
          "name": "_delegator",
          "type": "address"
        },
        {
          "internalType": "address[]",
          "name": "_clusters",
          "type": "address[]"
        }
      ],
      "name": "withdrawRewards",
      "outputs": [],
      "stateMutability": "nonpayable",
      "type": "function"
    },
    {
      "inputs": [
        {
          "internalType": "address",
          "name": "_delegator",
          "type": "address"
        },
        {
          "internalType": "address",
          "name": "_cluster",
          "type": "address"
        }
      ],
      "name": "withdrawRewards",
      "outputs": [
        {
          "internalType": "uint256",
          "name": "",
          "type": "uint256"
        }
      ],
      "stateMutability": "nonpayable",
      "type": "function"
    }
  ],
  "bytecode": "0x60a06040523060805234801561001457600080fd5b5060805161334d6100456000396000818161100d015281816110a3015281816112e7015261137d015261334d6000f3fe6080604052600436106101ac5760003560e01c806371c343b3116100ec578063c4b07bcc1161008a578063dd62c94411610064578063dd62c944146104de578063e20981ca146104fe578063ec57002b1461051e578063f2fde38b1461053e57600080fd5b8063c4b07bcc1461047e578063d0e655381461049e578063dcee4cca146104be57600080fd5b80638da5cb5b116100c65780638da5cb5b146103d35780639a943e00146103fb578063a702730e1461041b578063b66206d41461045e57600080fd5b806371c343b314610356578063762c0396146103765780638c656107146103bd57600080fd5b80633463803111610159578063378885c511610133578063378885c5146102f857806339bc83da1461030e5780634f1ef2861461032e578063715018a61461034157600080fd5b8063346380311461028a578063360dfd22146102aa5780633659cfe6146102d857600080fd5b80632bc51f6d1161018a5780632bc51f6d146102285780632cd767581461024857806332be8d7f1461026a57600080fd5b80631efd4106146101b15780632243822c146101d3578063242ae35814610208575b600080fd5b3480156101bd57600080fd5b506101d16101cc366004612b4e565b61055e565b005b3480156101df57600080fd5b506101f36101ee366004612b4e565b6106a6565b60405190151581526020015b60405180910390f35b34801561021457600080fd5b506101d1610223366004612c78565b610786565b34801561023457600080fd5b506101d1610243366004612b4e565b61081a565b34801561025457600080fd5b5061025d610c69565b6040516101ff9190612d3c565b34801561027657600080fd5b506101d1610285366004612d4f565b610cc1565b34801561029657600080fd5b506101d16102a5366004612b4e565b610e8c565b3480156102b657600080fd5b506102ca6102c5366004612d68565b610fc8565b6040519081526020016101ff565b3480156102e457600080fd5b506101d16102f3366004612b4e565b611002565b34801561030457600080fd5b506102ca60cd5481565b34801561031a57600080fd5b506101d1610329366004612b4e565b6111a0565b6101d161033c366004612da9565b6112dc565b34801561034d57600080fd5b506101d161146b565b34801561036257600080fd5b506101d1610371366004612d4f565b6114d1565b34801561038257600080fd5b506102ca610391366004612e6f565b6001600160a01b0391909116600090815260c96020908152604080832093835260039093019052205490565b3480156103c957600080fd5b506102ca60cc5481565b3480156103df57600080fd5b506097546040516001600160a01b0390911681526020016101ff565b34801561040757600080fd5b506101d1610416366004612c78565b611560565b34801561042757600080fd5b506102ca610436366004612e6f565b6001600160a01b0391909116600090815260c960209081526040808320938352929052205490565b34801561046a57600080fd5b506101d1610479366004612e9b565b6115ed565b34801561048a57600080fd5b506101d1610499366004612b4e565b61163c565b3480156104aa57600080fd5b506101d16104b9366004612d4f565b611778565b3480156104ca57600080fd5b506101d16104d9366004612f23565b611807565b3480156104ea57600080fd5b506101d16104f9366004612ff2565b611bed565b34801561050a57600080fd5b506102ca610519366004613014565b611d65565b34801561052a57600080fd5b506101d1610539366004612ff2565b611e0a565b34801561054a57600080fd5b506101d1610559366004612b4e565b611f91565b6097546001600160a01b031633146105bd5760405162461bcd60e51b815260206004820181905260248201527f4f776e61626c653a2063616c6c6572206973206e6f7420746865206f776e657260448201526064015b60405180910390fd5b6001600160a01b0381166106395760405162461bcd60e51b815260206004820152602960248201527f52443a5543522d436c757374657220526567697374727920616464726573732060448201527f63616e742062652030000000000000000000000000000000000000000000000060648201526084016105b4565b60d380547fffffffffffffffffffffffff0000000000000000000000000000000000000000166001600160a01b0383169081179091556040519081527f4351260b1696230c4813cbc69203806934609b506e3a438dd911d22e6965ed39906020015b60405180910390a150565b60d3546040517f51ce9fae0000000000000000000000000000000000000000000000000000000081526001600160a01b03838116600483015260009216906351ce9fae90602401602060405180830381600087803b15801561070757600080fd5b505af115801561071b573d6000803e3d6000fd5b505050506040513d601f19601f8201168201806040525081019061073f919061304d565b8015610771575060cc546001600160a01b038316600090815260c96020908152604080832060cd548452909152902054115b1561077e57506001919050565b506000919050565b60cb546001600160a01b031633146108055760405162461bcd60e51b8152602060048201526024808201527f52443a4f532d6f6e6c79207374616b6520636f6e74726163742063616e20696e60448201527f766f6b650000000000000000000000000000000000000000000000000000000060648201526084016105b4565b610813848484846001612070565b5050505050565b60d2546040517fd279c1910000000000000000000000000000000000000000000000000000000081526001600160a01b038381166004830152600092169063d279c19190602401602060405180830381600087803b15801561087b57600080fd5b505af115801561088f573d6000803e3d6000fd5b505050506040513d601f19601f820116820180604052508101906108b3919061306f565b9050806108be575050565b60d3546040517f06032d740000000000000000000000000000000000000000000000000000000081526001600160a01b03848116600483015260009283929116906306032d74906024016040805180830381600087803b15801561092157600080fd5b505af1158015610935573d6000803e3d6000fd5b505050506040513d601f19601f820116820180604052508101906109599190613088565b90925090506000606461096c84866130dc565b6109769190613119565b905060006109848286613154565b9050600060d18054806020026020016040519081016040528092919081815260200182805480156109d457602002820191906000526020600020905b8154815260200190600101908083116109c0575b505050505090506000815167ffffffffffffffff8111156109f7576109f7612b6b565b604051908082528060200260200182016040528015610a20578160200160208202803683370190505b5090506000805b8351811015610ad5576001600160a01b038a16600090815260c9602052604081208551909190869084908110610a5f57610a5f61316b565b6020026020010151815260200190815260200160002054838281518110610a8857610a8861316b565b602002602001018181525050828181518110610aa657610aa661316b565b6020026020010151600014610ac35781610abf8161319a565b9250505b80610acd8161319a565b915050610a27565b5060005b8351811015610c1157828181518110610af457610af461316b565b6020026020010151600014610bff57828181518110610b1557610b1561316b565b602002602001015182866c0c9f2c9cd04674edea40000000610b3791906130dc565b610b419190613119565b610b4b9190613119565b60c960008c6001600160a01b03166001600160a01b031681526020019081526020016000206003016000868481518110610b8757610b8761316b565b6020026020010151815260200190815260200160002054610ba891906131d3565b60c960008c6001600160a01b03166001600160a01b031681526020019081526020016000206003016000868481518110610be457610be461316b565b60200260200101518152602001908152602001600020819055505b80610c098161319a565b915050610ad9565b508415610c2257610c228686612164565b6040516001600160a01b038a1681527f643d0f768d20758fe82686d7de201866faaee92f36542c9b1ea68fe26217dc909060200160405180910390a1505050505050505050565b606060d1805480602002602001604051908101604052809291908181526020018280548015610cb757602002820191906000526020600020905b815481526020019060010190808311610ca3575b5050505050905090565b6097546001600160a01b03163314610d1b5760405162461bcd60e51b815260206004820181905260248201527f4f776e61626c653a2063616c6c6572206973206e6f7420746865206f776e657260448201526064016105b4565b600081815260ce6020526040902054610d765760405162461bcd60e51b815260206004820152601960248201527f52443a52522d52657761726420646f65736e742065786973740000000000000060448201526064016105b4565b60d1805460009190610d8a90600190613154565b81548110610d9a57610d9a61316b565b90600052602060002001549050600060cf60008481526020019081526020016000205490508160d18281548110610dd357610dd361316b565b600091825260208083209091019290925583815260cf9091526040902081905560d1805480610e0457610e046131eb565b600082815260208082207fffffffffffffffffffffffffffffffffffffffffffffffffffffffffffffffff908401810183905590920190925584825260ce8152604080832083905560cf82528083209290925590518481527fc21f2202b563765aa875aa0a6a2fde3881f4c11badde30a726d5608eb1afa109910160405180910390a1505050565b6097546001600160a01b03163314610ee65760405162461bcd60e51b815260206004820181905260248201527f4f776e61626c653a2063616c6c6572206973206e6f7420746865206f776e657260448201526064016105b4565b6001600160a01b038116610f625760405162461bcd60e51b815260206004820152602b60248201527f52443a5550412d5570646174656420504f4e4420746f6b656e2061646472657360448201527f732063616e74206265203000000000000000000000000000000000000000000060648201526084016105b4565b60d480547fffffffffffffffffffffffff0000000000000000000000000000000000000000166001600160a01b0383169081179091556040519081527f7c5c83d102d6ea0acddb82e57f9c4b34d02eff8d010a0634dc65378f16eb03239060200161069b565b6001600160a01b03808416600090815260c960209081526040808320938616835260019093018152828220848352905220545b9392505050565b306001600160a01b037f00000000000000000000000000000000000000000000000000000000000000001614156110a15760405162461bcd60e51b815260206004820152602c60248201527f46756e6374696f6e206d7573742062652063616c6c6564207468726f7567682060448201527f64656c656761746563616c6c000000000000000000000000000000000000000060648201526084016105b4565b7f00000000000000000000000000000000000000000000000000000000000000006001600160a01b03166110fc7f360894a13ba1a3210667c828492db98dca3e2076cc3735a920a3ca505d382bbc546001600160a01b031690565b6001600160a01b0316146111785760405162461bcd60e51b815260206004820152602c60248201527f46756e6374696f6e206d7573742062652063616c6c6564207468726f7567682060448201527f6163746976652070726f7879000000000000000000000000000000000000000060648201526084016105b4565b61118181612208565b6040805160008082526020820190925261119d91839190612262565b50565b6097546001600160a01b031633146111fa5760405162461bcd60e51b815260206004820181905260248201527f4f776e61626c653a2063616c6c6572206973206e6f7420746865206f776e657260448201526064016105b4565b6001600160a01b0381166112765760405162461bcd60e51b815260206004820152602760248201527f52443a5543522d436c757374657252657761726473206164647265737320636160448201527f6e7420626520300000000000000000000000000000000000000000000000000060648201526084016105b4565b60d280547fffffffffffffffffffffffff0000000000000000000000000000000000000000166001600160a01b0383169081179091556040519081527fdc995512cdbd25ea12dfdeb157d3c8e916bab71a2237322efa834846db5262bf9060200161069b565b306001600160a01b037f000000000000000000000000000000000000000000000000000000000000000016141561137b5760405162461bcd60e51b815260206004820152602c60248201527f46756e6374696f6e206d7573742062652063616c6c6564207468726f7567682060448201527f64656c656761746563616c6c000000000000000000000000000000000000000060648201526084016105b4565b7f00000000000000000000000000000000000000000000000000000000000000006001600160a01b03166113d67f360894a13ba1a3210667c828492db98dca3e2076cc3735a920a3ca505d382bbc546001600160a01b031690565b6001600160a01b0316146114525760405162461bcd60e51b815260206004820152602c60248201527f46756e6374696f6e206d7573742062652063616c6c6564207468726f7567682060448201527f6163746976652070726f7879000000000000000000000000000000000000000060648201526084016105b4565b61145b82612208565b61146782826001612262565b5050565b6097546001600160a01b031633146114c55760405162461bcd60e51b815260206004820181905260248201527f4f776e61626c653a2063616c6c6572206973206e6f7420746865206f776e657260448201526064016105b4565b6114cf6000612479565b565b6097546001600160a01b0316331461152b5760405162461bcd60e51b815260206004820181905260248201527f4f776e61626c653a2063616c6c6572206973206e6f7420746865206f776e657260448201526064016105b4565b60cd8190556040518181527f19bf77b9c0b21245dbb3946e7cf82ad86d3d1d7be68247895103eaf216efd6379060200161069b565b60cb546001600160a01b031633146115df5760405162461bcd60e51b8152602060048201526024808201527f52443a4f532d6f6e6c79207374616b6520636f6e74726163742063616e20696e60448201527f766f6b650000000000000000000000000000000000000000000000000000000060648201526084016105b4565b610813848484846000612070565b60005b81811015611636576116238484848481811061160e5761160e61316b565b90506020020160208101906105199190612b4e565b508061162e8161319a565b9150506115f0565b50505050565b6097546001600160a01b031633146116965760405162461bcd60e51b815260206004820181905260248201527f4f776e61626c653a2063616c6c6572206973206e6f7420746865206f776e657260448201526064016105b4565b6001600160a01b0381166117125760405162461bcd60e51b815260206004820152602760248201527f52443a5553412d5374616b6520636f6e7472616374206164647265737320636160448201527f6e7420626520300000000000000000000000000000000000000000000000000060648201526084016105b4565b60cb80547fffffffffffffffffffffffff0000000000000000000000000000000000000000166001600160a01b0383169081179091556040519081527faea47bea602f2b18a4721cdacf1aafd7e3962d8574680ee8e15714cc7739e4549060200161069b565b6097546001600160a01b031633146117d25760405162461bcd60e51b815260206004820181905260248201527f4f776e61626c653a2063616c6c6572206973206e6f7420746865206f776e657260448201526064016105b4565b60cc8190556040518181527fb7d65bae8e16a50750e055c22b59632b927ad1b461e60818febcc97f57a7bedd9060200161069b565b600054610100900460ff1680611820575060005460ff16155b6118925760405162461bcd60e51b815260206004820152602e60248201527f496e697469616c697a61626c653a20636f6e747261637420697320616c72656160448201527f647920696e697469616c697a656400000000000000000000000000000000000060648201526084016105b4565b600054610100900460ff161580156118d157600080547fffffffffffffffffffffffffffffffffffffffffffffffffffffffffffff0000166101011790555b815183511461196e5760405162461bcd60e51b815260206004820152604a60248201527f52443a492d4561636820546f6b656e49642073686f756c64206861766520612060448201527f636f72726573706f6e64696e672052657761726420466163746f7220616e642060648201527f7669636520766572736100000000000000000000000000000000000000000000608482015260a4016105b4565b60cb80547fffffffffffffffffffffffff00000000000000000000000000000000000000009081166001600160a01b038d81169190911790925560d3805482168b841617905560d2805482168c841617905560d4805490911691861691909117905560cc8690556040518681527fb7d65bae8e16a50750e055c22b59632b927ad1b461e60818febcc97f57a7bedd9060200160405180910390a160cd8590556040518581527f19bf77b9c0b21245dbb3946e7cf82ad86d3d1d7be68247895103eaf216efd6379060200160405180910390a160005b8351811015611b8857828181518110611a5e57611a5e61316b565b602002602001015160ce6000868481518110611a7c57611a7c61316b565b602002602001015181526020019081526020016000208190555060d18054905060cf6000868481518110611ab257611ab261316b565b602002602001015181526020019081526020016000208190555060d1848281518110611ae057611ae061316b565b6020908102919091018101518254600181018455600093845291909220015583517faf18f84b562d534f966cd12a369a21eb5e9264df24b55799ac5950deace3a7e390859083908110611b3557611b3561316b565b6020026020010151848381518110611b4f57611b4f61316b565b6020026020010151604051611b6e929190918252602082015260400190565b60405180910390a180611b808161319a565b915050611a43565b50611b916124e3565b611b996124e3565b611ba16124e3565b611ba96125de565b611bb287611f91565b8015611be157600080547fffffffffffffffffffffffffffffffffffffffffffffffffffffffffffff00ff1690555b50505050505050505050565b6097546001600160a01b03163314611c475760405162461bcd60e51b815260206004820181905260248201527f4f776e61626c653a2063616c6c6572206973206e6f7420746865206f776e657260448201526064016105b4565b600082815260ce6020526040902054611cc85760405162461bcd60e51b815260206004820152602a60248201527f52443a55522d43616e742075706461746520726577617264207468617420646f60448201527f65736e742065786973740000000000000000000000000000000000000000000060648201526084016105b4565b80611d155760405162461bcd60e51b815260206004820152601660248201527f52443a55522d5265776172642063616e7420626520300000000000000000000060448201526064016105b4565b600082815260ce602090815260409182902083905581518481529081018390527f724ced771231b28817afaf7ec57ee9b21a844ac261955fbca7ee727ce8826e6691015b60405180910390a15050565b6000610ffb838360d1805480602002602001604051908101604052809291908181526020018280548015611db857602002820191906000526020600020905b815481526020019060010190808311611da4575b505060d1549250505067ffffffffffffffff811115611dd957611dd9612b6b565b604051908082528060200260200182016040528015611e02578160200160208202803683370190505b506001612070565b6097546001600160a01b03163314611e645760405162461bcd60e51b815260206004820181905260248201527f4f776e61626c653a2063616c6c6572206973206e6f7420746865206f776e657260448201526064016105b4565b600082815260ce602052604090205415611ec05760405162461bcd60e51b815260206004820152601b60248201527f52443a41522d52657761726420616c726561647920657869737473000000000060448201526064016105b4565b80611f0d5760405162461bcd60e51b815260206004820152601660248201527f52443a41522d5265776172642063616e7420626520300000000000000000000060448201526064016105b4565b600082815260ce6020908152604080832084905560d1805460cf845282852081905560018101825593527f695fb3134ad82c3b8022bc5464edd0bcc9424ef672b52245dcb6ab2374327ce390920184905581518481529081018390527faf18f84b562d534f966cd12a369a21eb5e9264df24b55799ac5950deace3a7e39101611d59565b6097546001600160a01b03163314611feb5760405162461bcd60e51b815260206004820181905260248201527f4f776e61626c653a2063616c6c6572206973206e6f7420746865206f776e657260448201526064016105b4565b6001600160a01b0381166120675760405162461bcd60e51b815260206004820152602660248201527f4f776e61626c653a206e6577206f776e657220697320746865207a65726f206160448201527f646472657373000000000000000000000000000000000000000000000000000060648201526084016105b4565b61119d81612479565b600061207b8561081a565b60005b845181101561210c57600085828151811061209b5761209b61316b565b6020026020010151905060008583815181106120b9576120b961316b565b602002602001015190506000806120d38a8c86868b6126b1565b9150915060006120e68b8d8786866127fd565b90506120f281886131d3565b9650505050505080806121049061319a565b91505061207e565b50801561215b5761211d8682612164565b7f54e8f034636217314f27bfc2c4e0aec174ceab3a2b1196d2e00f8bae09ac52fd85878684604051612152949392919061321a565b60405180910390a15b95945050505050565b60d4546040517fa9059cbb0000000000000000000000000000000000000000000000000000000081526001600160a01b038481166004830152602482018490529091169063a9059cbb90604401602060405180830381600087803b1580156121cb57600080fd5b505af11580156121df573d6000803e3d6000fd5b505050506040513d601f19601f82011682018060405250810190612203919061304d565b505050565b6097546001600160a01b0316331461119d5760405162461bcd60e51b815260206004820181905260248201527f4f776e61626c653a2063616c6c6572206973206e6f7420746865206f776e657260448201526064016105b4565b60006122957f360894a13ba1a3210667c828492db98dca3e2076cc3735a920a3ca505d382bbc546001600160a01b031690565b90506122a0846128ea565b6000835111806122ad5750815b156122be576122bc84846129b7565b505b7f4910fdfa16fed3260ed0e7147f7cc6da11a60208b5b9406d12a635614ffd9143805460ff166108135780547fffffffffffffffffffffffffffffffffffffffffffffffffffffffffffffff001660011781556040516001600160a01b03831660248201526123a7908690604401604080517fffffffffffffffffffffffffffffffffffffffffffffffffffffffffffffffe08184030181529190526020810180517bffffffffffffffffffffffffffffffffffffffffffffffffffffffff167f3659cfe6000000000000000000000000000000000000000000000000000000001790526129b7565b5080547fffffffffffffffffffffffffffffffffffffffffffffffffffffffffffffff001681557f360894a13ba1a3210667c828492db98dca3e2076cc3735a920a3ca505d382bbc546001600160a01b038381169116146124705760405162461bcd60e51b815260206004820152602f60248201527f45524331393637557067726164653a207570677261646520627265616b73206660448201527f757274686572207570677261646573000000000000000000000000000000000060648201526084016105b4565b61081385612ab0565b609780546001600160a01b038381167fffffffffffffffffffffffff0000000000000000000000000000000000000000831681179093556040519116919082907f8be0079c531659141344cd1fd0a4f28419497f9722a3daafe3b4186f6b6457e090600090a35050565b600054610100900460ff16806124fc575060005460ff16155b61256e5760405162461bcd60e51b815260206004820152602e60248201527f496e697469616c697a61626c653a20636f6e747261637420697320616c72656160448201527f647920696e697469616c697a656400000000000000000000000000000000000060648201526084016105b4565b600054610100900460ff161580156125ad57600080547fffffffffffffffffffffffffffffffffffffffffffffffffffffffffffff0000166101011790555b801561119d57600080547fffffffffffffffffffffffffffffffffffffffffffffffffffffffffffff00ff16905550565b600054610100900460ff16806125f7575060005460ff16155b6126695760405162461bcd60e51b815260206004820152602e60248201527f496e697469616c697a61626c653a20636f6e747261637420697320616c72656160448201527f647920696e697469616c697a656400000000000000000000000000000000000060648201526084016105b4565b600054610100900460ff161580156126a857600080547fffffffffffffffffffffffffffffffffffffffffffffffffffffffffffff0000166101011790555b6125ad33612479565b6001600160a01b03808616600090815260c96020908152604080832093881683526001909301815282822086835290529081205490836126f25750806127f3565b821561275d5761270284836131d3565b6001600160a01b038816600090815260c9602090815260408083208984529091529020549091506127349085906131d3565b6001600160a01b038816600090815260c9602090815260408083208984529091529020556127be565b6127678483613154565b6001600160a01b038816600090815260c960209081526040808320898452909152902054909150612799908590613154565b6001600160a01b038816600090815260c9602090815260408083208984529091529020555b6001600160a01b03808816600090815260c960209081526040808320938a168352600190930181528282208883529052208190555b9550959350505050565b6001600160a01b03808616600090815260c9602090815260408083208784526003810183528184205494891684526002018252808320878452909152812054909190826c0c9f2c9cd04674edea4000000061285887856130dc565b6128629190613119565b905061286e8282613154565b9350848614801561287d575083155b1561288a5750505061215b565b6c0c9f2c9cd04674edea400000006128a286856130dc565b6128ac9190613119565b6001600160a01b03808b16600090815260c960209081526040808320938d168352600290930181528282208b83529052205550505095945050505050565b803b61295e5760405162461bcd60e51b815260206004820152602d60248201527f455243313936373a206e657720696d706c656d656e746174696f6e206973206e60448201527f6f74206120636f6e74726163740000000000000000000000000000000000000060648201526084016105b4565b7f360894a13ba1a3210667c828492db98dca3e2076cc3735a920a3ca505d382bbc80547fffffffffffffffffffffffff0000000000000000000000000000000000000000166001600160a01b0392909216919091179055565b6060823b612a2d5760405162461bcd60e51b815260206004820152602660248201527f416464726573733a2064656c65676174652063616c6c20746f206e6f6e2d636f60448201527f6e7472616374000000000000000000000000000000000000000000000000000060648201526084016105b4565b600080846001600160a01b031684604051612a489190613283565b600060405180830381855af49150503d8060008114612a83576040519150601f19603f3d011682016040523d82523d6000602084013e612a88565b606091505b509150915061215b82826040518060600160405280602781526020016132f160279139612af0565b612ab9816128ea565b6040516001600160a01b038216907fbc7cd75a20ee27fd9adebab32041f755214dbc6bffa90cc0225b39da2e5c2d3b90600090a250565b60608315612aff575081610ffb565b825115612b0f5782518084602001fd5b8160405162461bcd60e51b81526004016105b4919061329f565b6001600160a01b038116811461119d57600080fd5b8035612b4981612b29565b919050565b600060208284031215612b6057600080fd5b8135610ffb81612b29565b7f4e487b7100000000000000000000000000000000000000000000000000000000600052604160045260246000fd5b604051601f82017fffffffffffffffffffffffffffffffffffffffffffffffffffffffffffffffe016810167ffffffffffffffff81118282101715612be157612be1612b6b565b604052919050565b600067ffffffffffffffff821115612c0357612c03612b6b565b5060051b60200190565b600082601f830112612c1e57600080fd5b81356020612c33612c2e83612be9565b612b9a565b82815260059290921b84018101918181019086841115612c5257600080fd5b8286015b84811015612c6d5780358352918301918301612c56565b509695505050505050565b60008060008060808587031215612c8e57600080fd5b8435612c9981612b29565b93506020850135612ca981612b29565b9250604085013567ffffffffffffffff80821115612cc657600080fd5b612cd288838901612c0d565b93506060870135915080821115612ce857600080fd5b50612cf587828801612c0d565b91505092959194509250565b600081518084526020808501945080840160005b83811015612d3157815187529582019590820190600101612d15565b509495945050505050565b602081526000610ffb6020830184612d01565b600060208284031215612d6157600080fd5b5035919050565b600080600060608486031215612d7d57600080fd5b8335612d8881612b29565b92506020840135612d9881612b29565b929592945050506040919091013590565b60008060408385031215612dbc57600080fd5b8235612dc781612b29565b915060208381013567ffffffffffffffff80821115612de557600080fd5b818601915086601f830112612df957600080fd5b813581811115612e0b57612e0b612b6b565b612e3b847fffffffffffffffffffffffffffffffffffffffffffffffffffffffffffffffe0601f84011601612b9a565b91508082528784828501011115612e5157600080fd5b80848401858401376000848284010152508093505050509250929050565b60008060408385031215612e8257600080fd5b8235612e8d81612b29565b946020939093013593505050565b600080600060408486031215612eb057600080fd5b8335612ebb81612b29565b9250602084013567ffffffffffffffff80821115612ed857600080fd5b818601915086601f830112612eec57600080fd5b813581811115612efb57600080fd5b8760208260051b8501011115612f1057600080fd5b6020830194508093505050509250925092565b60008060008060008060008060006101208a8c031215612f4257600080fd5b8935612f4d81612b29565b985060208a0135612f5d81612b29565b9750612f6b60408b01612b3e565b9650612f7960608b01612b3e565b955060808a0135945060a08a01359350612f9560c08b01612b3e565b925060e08a013567ffffffffffffffff80821115612fb257600080fd5b612fbe8d838e01612c0d565b93506101008c0135915080821115612fd557600080fd5b50612fe28c828d01612c0d565b9150509295985092959850929598565b6000806040838503121561300557600080fd5b50508035926020909101359150565b6000806040838503121561302757600080fd5b823561303281612b29565b9150602083013561304281612b29565b809150509250929050565b60006020828403121561305f57600080fd5b81518015158114610ffb57600080fd5b60006020828403121561308157600080fd5b5051919050565b6000806040838503121561309b57600080fd5b82519150602083015161304281612b29565b7f4e487b7100000000000000000000000000000000000000000000000000000000600052601160045260246000fd5b6000817fffffffffffffffffffffffffffffffffffffffffffffffffffffffffffffffff0483118215151615613114576131146130ad565b500290565b60008261314f577f4e487b7100000000000000000000000000000000000000000000000000000000600052601260045260246000fd5b500490565b600082821015613166576131666130ad565b500390565b7f4e487b7100000000000000000000000000000000000000000000000000000000600052603260045260246000fd5b60007fffffffffffffffffffffffffffffffffffffffffffffffffffffffffffffffff8214156131cc576131cc6130ad565b5060010190565b600082198211156131e6576131e66130ad565b500190565b7f4e487b7100000000000000000000000000000000000000000000000000000000600052603160045260246000fd5b60006001600160a01b038087168352808616602084015250608060408301526132466080830185612d01565b905082606083015295945050505050565b60005b8381101561327257818101518382015260200161325a565b838111156116365750506000910152565b60008251613295818460208701613257565b9190910192915050565b60208152600082518060208401526132be816040850160208701613257565b601f017fffffffffffffffffffffffffffffffffffffffffffffffffffffffffffffffe016919091016040019291505056fe416464726573733a206c6f772d6c6576656c2064656c65676174652063616c6c206661696c6564a26469706673582212202926d2ddac8c3419cf41883c61cc658ab0407340fb454c38dba421cd88b607f764736f6c63430008090033",
  "linkReferences": {},
  "deployedLinkReferences": {}
}