{
  "_format": "hh-sol-artifact-1",
  "contractName": "ClusterRegistry",
  "sourceName": "contracts/staking/ClusterRegistry.sol",
  "abi": [
    {
      "anonymous": false,
      "inputs": [
        {
          "indexed": false,
          "internalType": "address",
          "name": "previousAdmin",
          "type": "address"
        },
        {
          "indexed": false,
          "internalType": "address",
          "name": "newAdmin",
          "type": "address"
        }
      ],
      "name": "AdminChanged",
      "type": "event"
    },
    {
      "anonymous": false,
      "inputs": [
        {
          "indexed": true,
          "internalType": "address",
          "name": "beacon",
          "type": "address"
        }
      ],
      "name": "BeaconUpgraded",
      "type": "event"
    },
    {
      "anonymous": false,
      "inputs": [
        {
          "indexed": false,
          "internalType": "address",
          "name": "cluster",
          "type": "address"
        },
        {
          "indexed": false,
          "internalType": "address",
          "name": "clientKey",
          "type": "address"
        }
      ],
      "name": "ClientKeyUpdated",
      "type": "event"
    },
    {
      "anonymous": false,
      "inputs": [
        {
          "indexed": false,
          "internalType": "address",
          "name": "cluster",
          "type": "address"
        },
        {
          "indexed": false,
          "internalType": "bytes32",
          "name": "networkId",
          "type": "bytes32"
        },
        {
          "indexed": false,
          "internalType": "uint256",
          "name": "commission",
          "type": "uint256"
        },
        {
          "indexed": false,
          "internalType": "address",
          "name": "rewardAddress",
          "type": "address"
        },
        {
          "indexed": false,
          "internalType": "address",
          "name": "clientKey",
          "type": "address"
        }
      ],
      "name": "ClusterRegistered",
      "type": "event"
    },
    {
      "anonymous": false,
      "inputs": [
        {
          "indexed": false,
          "internalType": "address",
          "name": "cluster",
          "type": "address"
        },
        {
          "indexed": false,
          "internalType": "uint256",
          "name": "effectiveBlock",
          "type": "uint256"
        }
      ],
      "name": "ClusterUnregisterRequested",
      "type": "event"
    },
    {
      "anonymous": false,
      "inputs": [
        {
          "indexed": false,
          "internalType": "address",
          "name": "cluster",
          "type": "address"
        },
        {
          "indexed": false,
          "internalType": "uint256",
          "name": "updatedAt",
          "type": "uint256"
        }
      ],
      "name": "ClusterUnregistered",
      "type": "event"
    },
    {
      "anonymous": false,
      "inputs": [
        {
          "indexed": false,
          "internalType": "address",
          "name": "cluster",
          "type": "address"
        },
        {
          "indexed": false,
          "internalType": "uint256",
          "name": "commissionAfterUpdate",
          "type": "uint256"
        },
        {
          "indexed": false,
          "internalType": "uint256",
          "name": "effectiveBlock",
          "type": "uint256"
        }
      ],
      "name": "CommissionUpdateRequested",
      "type": "event"
    },
    {
      "anonymous": false,
      "inputs": [
        {
          "indexed": false,
          "internalType": "address",
          "name": "cluster",
          "type": "address"
        },
        {
          "indexed": false,
          "internalType": "uint256",
          "name": "updatedCommission",
          "type": "uint256"
        },
        {
          "indexed": false,
          "internalType": "uint256",
          "name": "updatedAt",
          "type": "uint256"
        }
      ],
      "name": "CommissionUpdated",
      "type": "event"
    },
    {
      "anonymous": false,
      "inputs": [
        {
          "indexed": false,
          "internalType": "bytes32",
          "name": "selector",
          "type": "bytes32"
        },
        {
          "indexed": false,
          "internalType": "uint256",
          "name": "prevLockTime",
          "type": "uint256"
        },
        {
          "indexed": false,
          "internalType": "uint256",
          "name": "updatedLockTime",
          "type": "uint256"
        }
      ],
      "name": "LockTimeUpdated",
      "type": "event"
    },
    {
      "anonymous": false,
      "inputs": [
        {
          "indexed": false,
          "internalType": "address",
          "name": "cluster",
          "type": "address"
        },
        {
          "indexed": false,
          "internalType": "bytes32",
          "name": "networkId",
          "type": "bytes32"
        },
        {
          "indexed": false,
          "internalType": "uint256",
          "name": "effectiveBlock",
          "type": "uint256"
        }
      ],
      "name": "NetworkSwitchRequested",
      "type": "event"
    },
    {
      "anonymous": false,
      "inputs": [
        {
          "indexed": false,
          "internalType": "address",
          "name": "cluster",
          "type": "address"
        },
        {
          "indexed": false,
          "internalType": "bytes32",
          "name": "networkId",
          "type": "bytes32"
        },
        {
          "indexed": false,
          "internalType": "uint256",
          "name": "updatedAt",
          "type": "uint256"
        }
      ],
      "name": "NetworkSwitched",
      "type": "event"
    },
    {
      "anonymous": false,
      "inputs": [
        {
          "indexed": true,
          "internalType": "address",
          "name": "previousOwner",
          "type": "address"
        },
        {
          "indexed": true,
          "internalType": "address",
          "name": "newOwner",
          "type": "address"
        }
      ],
      "name": "OwnershipTransferred",
      "type": "event"
    },
    {
      "anonymous": false,
      "inputs": [
        {
          "indexed": false,
          "internalType": "address",
          "name": "cluster",
          "type": "address"
        },
        {
          "indexed": false,
          "internalType": "address",
          "name": "updatedRewardAddress",
          "type": "address"
        }
      ],
      "name": "RewardAddressUpdated",
      "type": "event"
    },
    {
      "anonymous": false,
      "inputs": [
        {
          "indexed": true,
          "internalType": "address",
          "name": "implementation",
          "type": "address"
        }
      ],
      "name": "Upgraded",
      "type": "event"
    },
    {
      "inputs": [
        {
          "internalType": "address[]",
          "name": "_clusters",
          "type": "address[]"
        }
      ],
      "name": "addClientKeys",
      "outputs": [],
      "stateMutability": "nonpayable",
      "type": "function"
    },
    {
      "inputs": [
        {
          "internalType": "address",
          "name": "",
          "type": "address"
        }
      ],
      "name": "clientKeys",
      "outputs": [
        {
          "internalType": "address",
          "name": "",
          "type": "address"
        }
      ],
      "stateMutability": "view",
      "type": "function"
    },
    {
      "inputs": [
        {
          "internalType": "address",
          "name": "_cluster",
          "type": "address"
        }
      ],
      "name": "getClientKey",
      "outputs": [
        {
          "internalType": "address",
          "name": "",
          "type": "address"
        }
      ],
      "stateMutability": "view",
      "type": "function"
    },
    {
      "inputs": [
        {
          "internalType": "address",
          "name": "_cluster",
          "type": "address"
        }
      ],
      "name": "getCluster",
      "outputs": [
        {
          "internalType": "uint256",
          "name": "commission",
          "type": "uint256"
        },
        {
          "internalType": "address",
          "name": "rewardAddress",
          "type": "address"
        },
        {
          "internalType": "address",
          "name": "clientKey",
          "type": "address"
        },
        {
          "internalType": "bytes32",
          "name": "networkId",
          "type": "bytes32"
        },
        {
          "internalType": "bool",
          "name": "isValidCluster",
          "type": "bool"
        }
      ],
      "stateMutability": "nonpayable",
      "type": "function"
    },
    {
      "inputs": [
        {
          "internalType": "address",
          "name": "_cluster",
          "type": "address"
        }
      ],
      "name": "getCommission",
      "outputs": [
        {
          "internalType": "uint256",
          "name": "",
          "type": "uint256"
        }
      ],
      "stateMutability": "nonpayable",
      "type": "function"
    },
    {
      "inputs": [
        {
          "internalType": "address",
          "name": "_cluster",
          "type": "address"
        }
      ],
      "name": "getNetwork",
      "outputs": [
        {
          "internalType": "bytes32",
          "name": "",
          "type": "bytes32"
        }
      ],
      "stateMutability": "nonpayable",
      "type": "function"
    },
    {
      "inputs": [
        {
          "internalType": "address",
          "name": "_cluster",
          "type": "address"
        }
      ],
      "name": "getRewardAddress",
      "outputs": [
        {
          "internalType": "address",
          "name": "",
          "type": "address"
        }
      ],
      "stateMutability": "view",
      "type": "function"
    },
    {
      "inputs": [
        {
          "internalType": "address",
          "name": "_cluster",
          "type": "address"
        }
      ],
      "name": "getRewardInfo",
      "outputs": [
        {
          "internalType": "uint256",
          "name": "",
          "type": "uint256"
        },
        {
          "internalType": "address",
          "name": "",
          "type": "address"
        }
      ],
      "stateMutability": "nonpayable",
      "type": "function"
    },
    {
      "inputs": [
        {
          "internalType": "bytes32[]",
          "name": "_selectors",
          "type": "bytes32[]"
        },
        {
          "internalType": "uint256[]",
          "name": "_lockWaitTimes",
          "type": "uint256[]"
        },
        {
          "internalType": "address",
          "name": "_owner",
          "type": "address"
        }
      ],
      "name": "initialize",
      "outputs": [],
      "stateMutability": "nonpayable",
      "type": "function"
    },
    {
      "inputs": [
        {
          "internalType": "address",
          "name": "_cluster",
          "type": "address"
        }
      ],
      "name": "isClusterValid",
      "outputs": [
        {
          "internalType": "bool",
          "name": "",
          "type": "bool"
        }
      ],
      "stateMutability": "nonpayable",
      "type": "function"
    },
    {
      "inputs": [
        {
          "internalType": "bytes32",
          "name": "",
          "type": "bytes32"
        }
      ],
      "name": "lockWaitTime",
      "outputs": [
        {
          "internalType": "uint256",
          "name": "",
          "type": "uint256"
        }
      ],
      "stateMutability": "view",
      "type": "function"
    },
    {
      "inputs": [
        {
          "internalType": "bytes32",
          "name": "",
          "type": "bytes32"
        }
      ],
      "name": "locks",
      "outputs": [
        {
          "internalType": "uint256",
          "name": "unlockBlock",
          "type": "uint256"
        },
        {
          "internalType": "uint256",
          "name": "iValue",
          "type": "uint256"
        }
      ],
      "stateMutability": "view",
      "type": "function"
    },
    {
      "inputs": [],
      "name": "owner",
      "outputs": [
        {
          "internalType": "address",
          "name": "",
          "type": "address"
        }
      ],
      "stateMutability": "view",
      "type": "function"
    },
    {
      "inputs": [
        {
          "internalType": "bytes32",
          "name": "_networkId",
          "type": "bytes32"
        },
        {
          "internalType": "uint256",
          "name": "_commission",
          "type": "uint256"
        },
        {
          "internalType": "address",
          "name": "_rewardAddress",
          "type": "address"
        },
        {
          "internalType": "address",
          "name": "_clientKey",
          "type": "address"
        }
      ],
      "name": "register",
      "outputs": [],
      "stateMutability": "nonpayable",
      "type": "function"
    },
    {
      "inputs": [],
      "name": "renounceOwnership",
      "outputs": [],
      "stateMutability": "nonpayable",
      "type": "function"
    },
    {
      "inputs": [
        {
          "internalType": "bytes32",
          "name": "_networkId",
          "type": "bytes32"
        }
      ],
      "name": "switchNetwork",
      "outputs": [],
      "stateMutability": "nonpayable",
      "type": "function"
    },
    {
      "inputs": [
        {
          "internalType": "address",
          "name": "newOwner",
          "type": "address"
        }
      ],
      "name": "transferOwnership",
      "outputs": [],
      "stateMutability": "nonpayable",
      "type": "function"
    },
    {
      "inputs": [],
      "name": "unregister",
      "outputs": [],
      "stateMutability": "nonpayable",
      "type": "function"
    },
    {
      "inputs": [
        {
          "internalType": "address",
          "name": "_clientKey",
          "type": "address"
        }
      ],
      "name": "updateClientKey",
      "outputs": [],
      "stateMutability": "nonpayable",
      "type": "function"
    },
    {
      "inputs": [
        {
          "internalType": "uint256",
          "name": "_commission",
          "type": "uint256"
        },
        {
          "internalType": "bytes32",
          "name": "_networkId",
          "type": "bytes32"
        },
        {
          "internalType": "address",
          "name": "_rewardAddress",
          "type": "address"
        },
        {
          "internalType": "address",
          "name": "_clientKey",
          "type": "address"
        }
      ],
      "name": "updateCluster",
      "outputs": [],
      "stateMutability": "nonpayable",
      "type": "function"
    },
    {
      "inputs": [
        {
          "internalType": "uint256",
          "name": "_commission",
          "type": "uint256"
        }
      ],
      "name": "updateCommission",
      "outputs": [],
      "stateMutability": "nonpayable",
      "type": "function"
    },
    {
      "inputs": [
        {
          "internalType": "bytes32",
          "name": "_selector",
          "type": "bytes32"
        },
        {
          "internalType": "uint256",
          "name": "_updatedWaitTime",
          "type": "uint256"
        }
      ],
      "name": "updateLockWaitTime",
      "outputs": [],
      "stateMutability": "nonpayable",
      "type": "function"
    },
    {
      "inputs": [
        {
          "internalType": "address",
          "name": "_rewardAddress",
          "type": "address"
        }
      ],
      "name": "updateRewardAddress",
      "outputs": [],
      "stateMutability": "nonpayable",
      "type": "function"
    },
    {
      "inputs": [
        {
          "internalType": "address",
          "name": "newImplementation",
          "type": "address"
        }
      ],
      "name": "upgradeTo",
      "outputs": [],
      "stateMutability": "nonpayable",
      "type": "function"
    },
    {
      "inputs": [
        {
          "internalType": "address",
          "name": "newImplementation",
          "type": "address"
        },
        {
          "internalType": "bytes",
          "name": "data",
          "type": "bytes"
        }
      ],
      "name": "upgradeToAndCall",
      "outputs": [],
      "stateMutability": "payable",
      "type": "function"
    }
  ],
  "bytecode": "0x60a06040523060805234801561001457600080fd5b5060805161310b61004560003960008181610b8701528181610c1d01528181610d590152610def015261310b6000f3fe6080604052600436106101965760003560e01c80637f8d1396116100e1578063c964d8731161008a578063f2fde38b11610064578063f2fde38b14610585578063f334dcb2146105a5578063fe7b5fa7146105c5578063fff0d190146105e557600080fd5b8063c964d87314610507578063e79a198f14610527578063ed5e84371461053c57600080fd5b80639d55fba7116100bb5780639d55fba714610484578063bb62b3e2146104a4578063c634c165146104c457600080fd5b80637f8d1396146104195780638da5cb5b14610439578063944dd5a21461046457600080fd5b80633659cfe61161014357806351ce9fae1161011d57806351ce9fae146103b4578063715018a6146103e45780637566d909146103f957600080fd5b80633659cfe61461034657806348ad8572146103665780634f1ef286146103a157600080fd5b80630f96ffc2116101745780630f96ffc21461027a57806317915e8d146102c35780631f4c06f71461032657600080fd5b806306032d741461019b57806308f996a3146101ea5780630e327ee81461020c575b600080fd5b3480156101a757600080fd5b506101bb6101b6366004612be6565b610605565b6040805192835273ffffffffffffffffffffffffffffffffffffffff9091166020830152015b60405180910390f35b3480156101f657600080fd5b5061020a610205366004612c01565b610645565b005b34801561021857600080fd5b50610255610227366004612be6565b73ffffffffffffffffffffffffffffffffffffffff908116600090815260c960205260409020600101541690565b60405173ffffffffffffffffffffffffffffffffffffffff90911681526020016101e1565b34801561028657600080fd5b50610255610295366004612be6565b73ffffffffffffffffffffffffffffffffffffffff908116600090815260c960205260409020600201541690565b3480156102cf57600080fd5b506102e36102de366004612be6565b6108a0565b6040805195865273ffffffffffffffffffffffffffffffffffffffff9485166020870152929093169184019190915260608301521515608082015260a0016101e1565b34801561033257600080fd5b5061020a610341366004612c1a565b61090b565b34801561035257600080fd5b5061020a610361366004612be6565b610b6f565b34801561037257600080fd5b50610393610381366004612c01565b60cb6020526000908152604090205481565b6040519081526020016101e1565b61020a6103af366004612cc0565b610d41565b3480156103c057600080fd5b506103d46103cf366004612be6565b610f04565b60405190151581526020016101e1565b3480156103f057600080fd5b5061020a6111be565b34801561040557600080fd5b5061020a610414366004612c1a565b611231565b34801561042557600080fd5b5061020a610434366004612d66565b6112c0565b34801561044557600080fd5b5060975473ffffffffffffffffffffffffffffffffffffffff16610255565b34801561047057600080fd5b5061020a61047f366004612be6565b611490565b34801561049057600080fd5b5061020a61049f366004612c01565b611574565b3480156104b057600080fd5b5061020a6104bf366004612be6565b611833565b3480156104d057600080fd5b506102556104df366004612be6565b60cc6020526000908152604090205473ffffffffffffffffffffffffffffffffffffffff1681565b34801561051357600080fd5b5061020a610522366004612e6a565b6119d5565b34801561053357600080fd5b5061020a611c35565b34801561054857600080fd5b50610570610557366004612c01565b60ca602052600090815260409020805460019091015482565b604080519283526020830191909152016101e1565b34801561059157600080fd5b5061020a6105a0366004612be6565b612048565b3480156105b157600080fd5b506103936105c0366004612be6565b612141565b3480156105d157600080fd5b506103936105e0366004612be6565b612290565b3480156105f157600080fd5b5061020a610600366004612f33565b6123ac565b60008061061183612141565b73ffffffffffffffffffffffffffffffffffffffff938416600090815260c960205260409020600101549094931692915050565b61064e33610f04565b61069f5760405162461bcd60e51b815260206004820152601c60248201527f43523a534e2d436c7573746572206e6f7420726567697374657265640000000060448201526064015b60405180910390fd5b60007f18981a75d138782f14f3fbd4153783a0dc1558f28dc5538bf045e7de84cb2ae2336040516020016106ef92919091825260601b6bffffffffffffffffffffffff1916602082015260340190565b60408051601f198184030181529181528151602092830120600081815260ca9093529120549091504381106107665760405162461bcd60e51b815260206004820181905260248201527f43523a534e2d4e6574776f726b2073776974636820696e2070726f67726573736044820152606401610696565b80156107d357600082815260ca60209081526040808320600101543380855260c984529382902060030181905581519384529183018290528201839052907f6baf22d499543edc2da95c5ede111d540373d2f84fe995079ecb45dbd7a47c519060600160405180910390a1505b7f18981a75d138782f14f3fbd4153783a0dc1558f28dc5538bf045e7de84cb2ae2600090815260cb6020527f2899c30d1ac4b6d59f2207d8982bc8c4796100c8cf1d12095ab29dcbaa84185f5461082a9043612f84565b6040805180820182528281526020808201888152600088815260ca8352849020925183555160019092019190915581513381529081018790529081018290529091507f547dff4e33e8a0f3b5bc5d85967802696ebdfb70c2fb6535b816055626cc842a906060015b60405180910390a150505050565b60008060008060006108b186612141565b73ffffffffffffffffffffffffffffffffffffffff808816600090815260c960205260409020600181015460029091015490821691166108f089612290565b6108f98a610f04565b939a9299509097509550909350915050565b61091433610f04565b156109875760405162461bcd60e51b815260206004820152602260248201527f43523a522d436c757374657220697320616c726561647920726567697374657260448201527f65640000000000000000000000000000000000000000000000000000000000006064820152608401610696565b60648311156109d85760405162461bcd60e51b815260206004820152601e60248201527f43523a522d436f6d6d697373696f6e206d6f7265207468616e203130302500006044820152606401610696565b73ffffffffffffffffffffffffffffffffffffffff818116600090815260cc60205260409020541615610a735760405162461bcd60e51b815260206004820152602160248201527f43523a52202d20436c69656e74206b657920697320616c72656164792075736560448201527f64000000000000000000000000000000000000000000000000000000000000006064820152608401610696565b33600081815260c960209081526040808320878155600180820180547fffffffffffffffffffffffff000000000000000000000000000000000000000090811673ffffffffffffffffffffffffffffffffffffffff8b81169182179093556002850180548316938b169384179055600385018d9055600490940180547fffffffffffffffffffffffffffffffffffffffffffffffffffffffffffffff001690931790925580865260cc85529483902080549091168617905581519485529184018890528301869052606083015260808201527f94d6ec8e8d159bff788a0f0fd13c3142344c8d63b22872ec56c8473e42fd6a269060a001610892565b3073ffffffffffffffffffffffffffffffffffffffff7f0000000000000000000000000000000000000000000000000000000000000000161415610c1b5760405162461bcd60e51b815260206004820152602c60248201527f46756e6374696f6e206d7573742062652063616c6c6564207468726f7567682060448201527f64656c656761746563616c6c00000000000000000000000000000000000000006064820152608401610696565b7f000000000000000000000000000000000000000000000000000000000000000073ffffffffffffffffffffffffffffffffffffffff16610c907f360894a13ba1a3210667c828492db98dca3e2076cc3735a920a3ca505d382bbc5473ffffffffffffffffffffffffffffffffffffffff1690565b73ffffffffffffffffffffffffffffffffffffffff1614610d195760405162461bcd60e51b815260206004820152602c60248201527f46756e6374696f6e206d7573742062652063616c6c6564207468726f7567682060448201527f6163746976652070726f787900000000000000000000000000000000000000006064820152608401610696565b610d2281612474565b60408051600080825260208201909252610d3e918391906124db565b50565b3073ffffffffffffffffffffffffffffffffffffffff7f0000000000000000000000000000000000000000000000000000000000000000161415610ded5760405162461bcd60e51b815260206004820152602c60248201527f46756e6374696f6e206d7573742062652063616c6c6564207468726f7567682060448201527f64656c656761746563616c6c00000000000000000000000000000000000000006064820152608401610696565b7f000000000000000000000000000000000000000000000000000000000000000073ffffffffffffffffffffffffffffffffffffffff16610e627f360894a13ba1a3210667c828492db98dca3e2076cc3735a920a3ca505d382bbc5473ffffffffffffffffffffffffffffffffffffffff1690565b73ffffffffffffffffffffffffffffffffffffffff1614610eeb5760405162461bcd60e51b815260206004820152602c60248201527f46756e6374696f6e206d7573742062652063616c6c6564207468726f7567682060448201527f6163746976652070726f787900000000000000000000000000000000000000006064820152608401610696565b610ef482612474565b610f00828260016124db565b5050565b6000807f027b176aae0bed270786878cbabc238973eac20b1957aae44b82a73cc8c7080c83604051602001610f5592919091825260601b6bffffffffffffffffffffffff1916602082015260340190565b60408051601f198184030181529181528151602092830120600081815260ca9093529120549091508015801590610f8b57504381105b156111775773ffffffffffffffffffffffffffffffffffffffff848116600081815260c9602090815260408083206004810180547fffffffffffffffffffffffffffffffffffffffffffffffffffffffffffffff0016905560020154909416825260cc81529083902080547fffffffffffffffffffffffff0000000000000000000000000000000000000000169055825191825281018390527ff57f6deb3dd36063034fdd928555a21800a842054e759d406c427909ee4b6d32910160405180910390a1600082815260ca60208181526040808420848155600101849055519192916110b6917f7877e81172e1242eb265a9ff5a14c913d44197a6e15e0bc1d984f40be90964039133910191825260601b6bffffffffffffffffffffffff1916602082015260340190565b6040516020818303038152906040528051906020012081526020019081526020016000206000808201600090556001820160009055505060ca60007f18981a75d138782f14f3fbd4153783a0dc1558f28dc5538bf045e7de84cb2ae23360405160200161113f92919091825260601b6bffffffffffffffffffffffff1916602082015260340190565b60408051601f198184030181529181528151602092830120835290820192909252016000908120818155600101819055949350505050565b73ffffffffffffffffffffffffffffffffffffffff8416600090815260c9602052604081206004015460ff1660018111156111b4576111b4612f9c565b1415949350505050565b60975473ffffffffffffffffffffffffffffffffffffffff1633146112255760405162461bcd60e51b815260206004820181905260248201527f4f776e61626c653a2063616c6c6572206973206e6f7420746865206f776e65726044820152606401610696565b61122f6000612702565b565b82156112405761124083610645565b73ffffffffffffffffffffffffffffffffffffffff8216156112655761126582611490565b73ffffffffffffffffffffffffffffffffffffffff81161561128a5761128a81611833565b7fffffffffffffffffffffffffffffffffffffffffffffffffffffffffffffffff84146112ba576112ba84611574565b50505050565b60975473ffffffffffffffffffffffffffffffffffffffff1633146113275760405162461bcd60e51b815260206004820181905260248201527f4f776e61626c653a2063616c6c6572206973206e6f7420746865206f776e65726044820152606401610696565b60005b8181101561148b57600060c9600085858581811061134a5761134a612fcb565b905060200201602081019061135f9190612be6565b73ffffffffffffffffffffffffffffffffffffffff9081168252602082019290925260400160002060020154169050806114015760405162461bcd60e51b815260206004820152602760248201527f43523a41434b202d20436c75737465722068617320696e76616c696420636c6960448201527f656e74206b6579000000000000000000000000000000000000000000000000006064820152608401610696565b83838381811061141357611413612fcb565b90506020020160208101906114289190612be6565b73ffffffffffffffffffffffffffffffffffffffff918216600090815260cc6020526040902080547fffffffffffffffffffffffff000000000000000000000000000000000000000016919092161790558061148381612ffa565b91505061132a565b505050565b61149933610f04565b6114e55760405162461bcd60e51b815260206004820152601d60248201527f43523a5552412d436c7573746572206e6f7420726567697374657265640000006044820152606401610696565b33600081815260c9602090815260409182902060010180547fffffffffffffffffffffffff00000000000000000000000000000000000000001673ffffffffffffffffffffffffffffffffffffffff86169081179091558251938452908301527f4c5b658b1805527ff7cb46c40a77c5aa5058aa9183f6b94c5d17a9de818cb4eb91015b60405180910390a150565b61157d33610f04565b6115c95760405162461bcd60e51b815260206004820152601d60248201527f43523a55434d2d436c7573746572206e6f7420726567697374657265640000006044820152606401610696565b606481111561161a5760405162461bcd60e51b815260206004820181905260248201527f43523a55434d2d436f6d6d697373696f6e206d6f7265207468616e20313030256044820152606401610696565b60007f7877e81172e1242eb265a9ff5a14c913d44197a6e15e0bc1d984f40be90964033360405160200161166a92919091825260601b6bffffffffffffffffffffffff1916602082015260340190565b60408051601f198184030181529181528151602092830120600081815260ca9093529120549091504381106117065760405162461bcd60e51b8152602060048201526024808201527f43523a55434d2d436f6d6d697373696f6e2075706461746520696e2070726f6760448201527f72657373000000000000000000000000000000000000000000000000000000006064820152608401610696565b801561177057600082815260ca60209081526040808320600101543380855260c984529382902081905581519384529183018290528201839052907f6e500db30ce535d38852e318f333e9be41a3fec6c65d234ebb06203c896db9a59060600160405180910390a1505b7f7877e81172e1242eb265a9ff5a14c913d44197a6e15e0bc1d984f40be9096403600090815260cb6020527f4d44e8856825c48bd728c3c0be0900bf241aef5aed7fcce95d62e71a3f7b58a5546117c79043612f84565b6040805180820182528281526020808201888152600088815260ca8352849020925183555160019092019190915581513381529081018790529081018290529091507f02ad6423bf8f7f88434f991300ee2389a81cf3a7603554f7671b8df602149b6290606001610892565b61183c33610f04565b6118885760405162461bcd60e51b815260206004820152601d60248201527f43523a55434b2d436c7573746572206e6f7420726567697374657265640000006044820152606401610696565b73ffffffffffffffffffffffffffffffffffffffff818116600090815260cc602052604090205416156119235760405162461bcd60e51b815260206004820152602360248201527f43523a55434b202d20436c69656e74206b657920697320616c7265616479207560448201527f73656400000000000000000000000000000000000000000000000000000000006064820152608401610696565b33600081815260c960209081526040808320600201805473ffffffffffffffffffffffffffffffffffffffff908116855260cc845282852080547fffffffffffffffffffffffff000000000000000000000000000000000000000090811690915582548116918816918217909255808552938290208054909116851790558051938452908301919091527fe3278ea3ad4d101e07a8ed576698b53aa126ad3061abedd3eb4bda0b8590a8429101611569565b600054610100900460ff16806119ee575060005460ff16155b611a605760405162461bcd60e51b815260206004820152602e60248201527f496e697469616c697a61626c653a20636f6e747261637420697320616c72656160448201527f647920696e697469616c697a65640000000000000000000000000000000000006064820152608401610696565b600054610100900460ff16158015611a9f57600080547fffffffffffffffffffffffffffffffffffffffffffffffffffffffffffff0000166101011790555b8251845114611af05760405162461bcd60e51b815260206004820152601360248201527f43523a492d496e76616c696420706172616d73000000000000000000000000006044820152606401610696565b60005b8451811015611bd757838181518110611b0e57611b0e612fcb565b602002602001015160cb6000878481518110611b2c57611b2c612fcb565b60200260200101518152602001908152602001600020819055507f5793ae75ad4ae6b7dc6492360b49ac802ad3f243d386419158aa87761383df5a858281518110611b7957611b79612fcb565b60200260200101516000868481518110611b9557611b95612fcb565b6020026020010151604051611bbd939291909283526020830191909152604082015260600190565b60405180910390a180611bcf81612ffa565b915050611af3565b50611be0612779565b611be8612779565b611bf0612779565b611bf8612874565b611c0182612048565b80156112ba57600080547fffffffffffffffffffffffffffffffffffffffffffffffffffffffffffff00ff16905550505050565b33600090815260c9602052604081206004015460ff166001811115611c5c57611c5c612f9c565b1415611caa5760405162461bcd60e51b815260206004820152601c60248201527f43523a55522d436c7573746572206e6f742072656769737465726564000000006044820152606401610696565b60007f027b176aae0bed270786878cbabc238973eac20b1957aae44b82a73cc8c7080c33604051602001611cfa92919091825260601b6bffffffffffffffffffffffff1916602082015260340190565b60408051601f198184030181529181528151602092830120600081815260ca909352912054909150438110611d975760405162461bcd60e51b815260206004820152602860248201527f43523a55522d556e726567697374726174696f6e20616c726561647920696e2060448201527f70726f67726573730000000000000000000000000000000000000000000000006064820152608401610696565b8015611f835733600081815260c9602090815260409182902060040180547fffffffffffffffffffffffffffffffffffffffffffffffffffffffffffffff00169055815192835282018390527ff57f6deb3dd36063034fdd928555a21800a842054e759d406c427909ee4b6d32910160405180910390a133600081815260c9602090815260408083206002015473ffffffffffffffffffffffffffffffffffffffff16835260cc825280832080547fffffffffffffffffffffffff000000000000000000000000000000000000000016905585835260ca80835281842084815560010184905590519093611ec8927f7877e81172e1242eb265a9ff5a14c913d44197a6e15e0bc1d984f40be9096403920191825260601b6bffffffffffffffffffffffff1916602082015260340190565b6040516020818303038152906040528051906020012081526020019081526020016000206000808201600090556001820160009055505060ca60007f18981a75d138782f14f3fbd4153783a0dc1558f28dc5538bf045e7de84cb2ae233604051602001611f5192919091825260601b6bffffffffffffffffffffffff1916602082015260340190565b60408051601f198184030181529181528151602092830120835290820192909252016000908120818155600101555050565b7f027b176aae0bed270786878cbabc238973eac20b1957aae44b82a73cc8c7080c600090815260cb6020527f7fb0322d1896736dd0f5430c6daa8056add7989401343ead400a06d050c94eb754611fda9043612f84565b6040805180820182528281526000602080830182815288835260ca82529184902092518355905160019092019190915581513381529081018390529192507fb27198c1c90d896e17e7fdcc7234d77a92839bf4629f6e514fa89efa95304773910160405180910390a1505050565b60975473ffffffffffffffffffffffffffffffffffffffff1633146120af5760405162461bcd60e51b815260206004820181905260248201527f4f776e61626c653a2063616c6c6572206973206e6f7420746865206f776e65726044820152606401610696565b73ffffffffffffffffffffffffffffffffffffffff81166121385760405162461bcd60e51b815260206004820152602660248201527f4f776e61626c653a206e6577206f776e657220697320746865207a65726f206160448201527f64647265737300000000000000000000000000000000000000000000000000006064820152608401610696565b610d3e81612702565b6000807f7877e81172e1242eb265a9ff5a14c913d44197a6e15e0bc1d984f40be90964038360405160200161219292919091825260601b6bffffffffffffffffffffffff1916602082015260340190565b60408051601f198184030181529181528151602092830120600081815260ca90935291205490915080158015906121c857504381105b1561226557600082815260ca602090815260408083206001015473ffffffffffffffffffffffffffffffffffffffff881680855260c984529382902081905581519384529183018290528201839052907f6e500db30ce535d38852e318f333e9be41a3fec6c65d234ebb06203c896db9a5906060015b60405180910390a1600092835260ca60205260408320838155600101929092555092915050565b50505073ffffffffffffffffffffffffffffffffffffffff16600090815260c9602052604090205490565b6000807f18981a75d138782f14f3fbd4153783a0dc1558f28dc5538bf045e7de84cb2ae2836040516020016122e192919091825260601b6bffffffffffffffffffffffff1916602082015260340190565b60408051601f198184030181529181528151602092830120600081815260ca909352912054909150801580159061231757504381105b1561237e57600082815260ca60209081526040808320600101543380855260c984529382902060030181905581519384529183018290528201839052907f6baf22d499543edc2da95c5ede111d540373d2f84fe995079ecb45dbd7a47c519060600161223e565b50505073ffffffffffffffffffffffffffffffffffffffff16600090815260c9602052604090206003015490565b60975473ffffffffffffffffffffffffffffffffffffffff1633146124135760405162461bcd60e51b815260206004820181905260248201527f4f776e61626c653a2063616c6c6572206973206e6f7420746865206f776e65726044820152606401610696565b600082815260cb6020908152604091829020548251858152918201529081018290527f5793ae75ad4ae6b7dc6492360b49ac802ad3f243d386419158aa87761383df5a9060600160405180910390a1600091825260cb602052604090912055565b60975473ffffffffffffffffffffffffffffffffffffffff163314610d3e5760405162461bcd60e51b815260206004820181905260248201527f4f776e61626c653a2063616c6c6572206973206e6f7420746865206f776e65726044820152606401610696565b600061251b7f360894a13ba1a3210667c828492db98dca3e2076cc3735a920a3ca505d382bbc5473ffffffffffffffffffffffffffffffffffffffff1690565b905061252684612947565b6000835111806125335750815b15612544576125428484612a21565b505b7f4910fdfa16fed3260ed0e7147f7cc6da11a60208b5b9406d12a635614ffd9143805460ff166126fb5780547fffffffffffffffffffffffffffffffffffffffffffffffffffffffffffffff0016600117815560405173ffffffffffffffffffffffffffffffffffffffff8316602482015261261c90869060440160408051601f198184030181529190526020810180517bffffffffffffffffffffffffffffffffffffffffffffffffffffffff167f3659cfe600000000000000000000000000000000000000000000000000000000179052612a21565b5080547fffffffffffffffffffffffffffffffffffffffffffffffffffffffffffffff001681557f360894a13ba1a3210667c828492db98dca3e2076cc3735a920a3ca505d382bbc5473ffffffffffffffffffffffffffffffffffffffff8381169116146126f25760405162461bcd60e51b815260206004820152602f60248201527f45524331393637557067726164653a207570677261646520627265616b73206660448201527f75727468657220757067726164657300000000000000000000000000000000006064820152608401610696565b6126fb85612b30565b5050505050565b6097805473ffffffffffffffffffffffffffffffffffffffff8381167fffffffffffffffffffffffff0000000000000000000000000000000000000000831681179093556040519116919082907f8be0079c531659141344cd1fd0a4f28419497f9722a3daafe3b4186f6b6457e090600090a35050565b600054610100900460ff1680612792575060005460ff16155b6128045760405162461bcd60e51b815260206004820152602e60248201527f496e697469616c697a61626c653a20636f6e747261637420697320616c72656160448201527f647920696e697469616c697a65640000000000000000000000000000000000006064820152608401610696565b600054610100900460ff1615801561284357600080547fffffffffffffffffffffffffffffffffffffffffffffffffffffffffffff0000166101011790555b8015610d3e57600080547fffffffffffffffffffffffffffffffffffffffffffffffffffffffffffff00ff16905550565b600054610100900460ff168061288d575060005460ff16155b6128ff5760405162461bcd60e51b815260206004820152602e60248201527f496e697469616c697a61626c653a20636f6e747261637420697320616c72656160448201527f647920696e697469616c697a65640000000000000000000000000000000000006064820152608401610696565b600054610100900460ff1615801561293e57600080547fffffffffffffffffffffffffffffffffffffffffffffffffffffffffffff0000166101011790555b61284333612702565b803b6129bb5760405162461bcd60e51b815260206004820152602d60248201527f455243313936373a206e657720696d706c656d656e746174696f6e206973206e60448201527f6f74206120636f6e7472616374000000000000000000000000000000000000006064820152608401610696565b7f360894a13ba1a3210667c828492db98dca3e2076cc3735a920a3ca505d382bbc80547fffffffffffffffffffffffff00000000000000000000000000000000000000001673ffffffffffffffffffffffffffffffffffffffff92909216919091179055565b6060823b612a975760405162461bcd60e51b815260206004820152602660248201527f416464726573733a2064656c65676174652063616c6c20746f206e6f6e2d636f60448201527f6e747261637400000000000000000000000000000000000000000000000000006064820152608401610696565b6000808473ffffffffffffffffffffffffffffffffffffffff1684604051612abf919061305f565b600060405180830381855af49150503d8060008114612afa576040519150601f19603f3d011682016040523d82523d6000602084013e612aff565b606091505b5091509150612b2782826040518060600160405280602781526020016130af60279139612b7d565b95945050505050565b612b3981612947565b60405173ffffffffffffffffffffffffffffffffffffffff8216907fbc7cd75a20ee27fd9adebab32041f755214dbc6bffa90cc0225b39da2e5c2d3b90600090a250565b60608315612b8c575081612bb6565b825115612b9c5782518084602001fd5b8160405162461bcd60e51b8152600401610696919061307b565b9392505050565b803573ffffffffffffffffffffffffffffffffffffffff81168114612be157600080fd5b919050565b600060208284031215612bf857600080fd5b612bb682612bbd565b600060208284031215612c1357600080fd5b5035919050565b60008060008060808587031215612c3057600080fd5b8435935060208501359250612c4760408601612bbd565b9150612c5560608601612bbd565b905092959194509250565b7f4e487b7100000000000000000000000000000000000000000000000000000000600052604160045260246000fd5b604051601f8201601f1916810167ffffffffffffffff81118282101715612cb857612cb8612c60565b604052919050565b60008060408385031215612cd357600080fd5b612cdc83612bbd565b915060208084013567ffffffffffffffff80821115612cfa57600080fd5b818601915086601f830112612d0e57600080fd5b813581811115612d2057612d20612c60565b612d3284601f19601f84011601612c8f565b91508082528784828501011115612d4857600080fd5b80848401858401376000848284010152508093505050509250929050565b60008060208385031215612d7957600080fd5b823567ffffffffffffffff80821115612d9157600080fd5b818501915085601f830112612da557600080fd5b813581811115612db457600080fd5b8660208260051b8501011115612dc957600080fd5b60209290920196919550909350505050565b600067ffffffffffffffff821115612df557612df5612c60565b5060051b60200190565b600082601f830112612e1057600080fd5b81356020612e25612e2083612ddb565b612c8f565b82815260059290921b84018101918181019086841115612e4457600080fd5b8286015b84811015612e5f5780358352918301918301612e48565b509695505050505050565b600080600060608486031215612e7f57600080fd5b833567ffffffffffffffff80821115612e9757600080fd5b818601915086601f830112612eab57600080fd5b81356020612ebb612e2083612ddb565b82815260059290921b8401810191818101908a841115612eda57600080fd5b948201945b83861015612ef857853582529482019490820190612edf565b97505087013592505080821115612f0e57600080fd5b50612f1b86828701612dff565b925050612f2a60408501612bbd565b90509250925092565b60008060408385031215612f4657600080fd5b50508035926020909101359150565b7f4e487b7100000000000000000000000000000000000000000000000000000000600052601160045260246000fd5b60008219821115612f9757612f97612f55565b500190565b7f4e487b7100000000000000000000000000000000000000000000000000000000600052602160045260246000fd5b7f4e487b7100000000000000000000000000000000000000000000000000000000600052603260045260246000fd5b60007fffffffffffffffffffffffffffffffffffffffffffffffffffffffffffffffff82141561302c5761302c612f55565b5060010190565b60005b8381101561304e578181015183820152602001613036565b838111156112ba5750506000910152565b60008251613071818460208701613033565b9190910192915050565b602081526000825180602084015261309a816040850160208701613033565b601f01601f1916919091016040019291505056fe416464726573733a206c6f772d6c6576656c2064656c65676174652063616c6c206661696c6564a2646970667358221220b6803ffafe5c616a623542cd5692640074c5fc41cc3096462e2e4dcce364548e64736f6c63430008090033",
  "linkReferences": {},
  "deployedLinkReferences": {}
}