{
  "_format": "hh-sol-artifact-1",
  "contractName": "Pond",
  "sourceName": "contracts/Pond.sol",
  "abi": [
    {
      "anonymous": false,
      "inputs": [
        {
          "indexed": false,
          "internalType": "address",
          "name": "previousAdmin",
          "type": "address"
        },
        {
          "indexed": false,
          "internalType": "address",
          "name": "newAdmin",
          "type": "address"
        }
      ],
      "name": "AdminChanged",
      "type": "event"
    },
    {
      "anonymous": false,
      "inputs": [
        {
          "indexed": true,
          "internalType": "address",
          "name": "owner",
          "type": "address"
        },
        {
          "indexed": true,
          "internalType": "address",
          "name": "spender",
          "type": "address"
        },
        {
          "indexed": false,
          "internalType": "uint256",
          "name": "value",
          "type": "uint256"
        }
      ],
      "name": "Approval",
      "type": "event"
    },
    {
      "anonymous": false,
      "inputs": [
        {
          "indexed": true,
          "internalType": "address",
          "name": "beacon",
          "type": "address"
        }
      ],
      "name": "BeaconUpgraded",
      "type": "event"
    },
    {
      "anonymous": false,
      "inputs": [
        {
          "indexed": true,
          "internalType": "address",
          "name": "previousOwner",
          "type": "address"
        },
        {
          "indexed": true,
          "internalType": "address",
          "name": "newOwner",
          "type": "address"
        }
      ],
      "name": "OwnershipTransferred",
      "type": "event"
    },
    {
      "anonymous": false,
      "inputs": [
        {
          "indexed": false,
          "internalType": "address",
          "name": "account",
          "type": "address"
        }
      ],
      "name": "Paused",
      "type": "event"
    },
    {
      "anonymous": false,
      "inputs": [
        {
          "indexed": true,
          "internalType": "bytes32",
          "name": "role",
          "type": "bytes32"
        },
        {
          "indexed": true,
          "internalType": "bytes32",
          "name": "previousAdminRole",
          "type": "bytes32"
        },
        {
          "indexed": true,
          "internalType": "bytes32",
          "name": "newAdminRole",
          "type": "bytes32"
        }
      ],
      "name": "RoleAdminChanged",
      "type": "event"
    },
    {
      "anonymous": false,
      "inputs": [
        {
          "indexed": true,
          "internalType": "bytes32",
          "name": "role",
          "type": "bytes32"
        },
        {
          "indexed": true,
          "internalType": "address",
          "name": "account",
          "type": "address"
        },
        {
          "indexed": true,
          "internalType": "address",
          "name": "sender",
          "type": "address"
        }
      ],
      "name": "RoleGranted",
      "type": "event"
    },
    {
      "anonymous": false,
      "inputs": [
        {
          "indexed": true,
          "internalType": "bytes32",
          "name": "role",
          "type": "bytes32"
        },
        {
          "indexed": true,
          "internalType": "address",
          "name": "account",
          "type": "address"
        },
        {
          "indexed": true,
          "internalType": "address",
          "name": "sender",
          "type": "address"
        }
      ],
      "name": "RoleRevoked",
      "type": "event"
    },
    {
      "anonymous": false,
      "inputs": [
        {
          "indexed": true,
          "internalType": "address",
          "name": "from",
          "type": "address"
        },
        {
          "indexed": true,
          "internalType": "address",
          "name": "to",
          "type": "address"
        },
        {
          "indexed": false,
          "internalType": "uint256",
          "name": "value",
          "type": "uint256"
        }
      ],
      "name": "Transfer",
      "type": "event"
    },
    {
      "anonymous": false,
      "inputs": [
        {
          "indexed": false,
          "internalType": "address",
          "name": "account",
          "type": "address"
        }
      ],
      "name": "Unpaused",
      "type": "event"
    },
    {
      "anonymous": false,
      "inputs": [
        {
          "indexed": true,
          "internalType": "address",
          "name": "implementation",
          "type": "address"
        }
      ],
      "name": "Upgraded",
      "type": "event"
    },
    {
      "inputs": [],
      "name": "DEFAULT_ADMIN_ROLE",
      "outputs": [
        {
          "internalType": "bytes32",
          "name": "",
          "type": "bytes32"
        }
      ],
      "stateMutability": "view",
      "type": "function"
    },
    {
      "inputs": [],
      "name": "MINTER_ROLE",
      "outputs": [
        {
          "internalType": "bytes32",
          "name": "",
          "type": "bytes32"
        }
      ],
      "stateMutability": "view",
      "type": "function"
    },
    {
      "inputs": [],
      "name": "PAUSER_ROLE",
      "outputs": [
        {
          "internalType": "bytes32",
          "name": "",
          "type": "bytes32"
        }
      ],
      "stateMutability": "view",
      "type": "function"
    },
    {
      "inputs": [
        {
          "internalType": "address",
          "name": "owner",
          "type": "address"
        },
        {
          "internalType": "address",
          "name": "spender",
          "type": "address"
        }
      ],
      "name": "allowance",
      "outputs": [
        {
          "internalType": "uint256",
          "name": "",
          "type": "uint256"
        }
      ],
      "stateMutability": "view",
      "type": "function"
    },
    {
      "inputs": [
        {
          "internalType": "address",
          "name": "spender",
          "type": "address"
        },
        {
          "internalType": "uint256",
          "name": "amount",
          "type": "uint256"
        }
      ],
      "name": "approve",
      "outputs": [
        {
          "internalType": "bool",
          "name": "",
          "type": "bool"
        }
      ],
      "stateMutability": "nonpayable",
      "type": "function"
    },
    {
      "inputs": [
        {
          "internalType": "address",
          "name": "account",
          "type": "address"
        }
      ],
      "name": "balanceOf",
      "outputs": [
        {
          "internalType": "uint256",
          "name": "",
          "type": "uint256"
        }
      ],
      "stateMutability": "view",
      "type": "function"
    },
    {
      "inputs": [
        {
          "internalType": "uint256",
          "name": "amount",
          "type": "uint256"
        }
      ],
      "name": "burn",
      "outputs": [],
      "stateMutability": "nonpayable",
      "type": "function"
    },
    {
      "inputs": [
        {
          "internalType": "address",
          "name": "account",
          "type": "address"
        },
        {
          "internalType": "uint256",
          "name": "amount",
          "type": "uint256"
        }
      ],
      "name": "burnFrom",
      "outputs": [],
      "stateMutability": "nonpayable",
      "type": "function"
    },
    {
      "inputs": [],
      "name": "cap",
      "outputs": [
        {
          "internalType": "uint256",
          "name": "",
          "type": "uint256"
        }
      ],
      "stateMutability": "view",
      "type": "function"
    },
    {
      "inputs": [],
      "name": "decimals",
      "outputs": [
        {
          "internalType": "uint8",
          "name": "",
          "type": "uint8"
        }
      ],
      "stateMutability": "view",
      "type": "function"
    },
    {
      "inputs": [
        {
          "internalType": "address",
          "name": "spender",
          "type": "address"
        },
        {
          "internalType": "uint256",
          "name": "subtractedValue",
          "type": "uint256"
        }
      ],
      "name": "decreaseAllowance",
      "outputs": [
        {
          "internalType": "bool",
          "name": "",
          "type": "bool"
        }
      ],
      "stateMutability": "nonpayable",
      "type": "function"
    },
    {
      "inputs": [
        {
          "internalType": "bytes32",
          "name": "role",
          "type": "bytes32"
        }
      ],
      "name": "getRoleAdmin",
      "outputs": [
        {
          "internalType": "bytes32",
          "name": "",
          "type": "bytes32"
        }
      ],
      "stateMutability": "view",
      "type": "function"
    },
    {
      "inputs": [
        {
          "internalType": "bytes32",
          "name": "role",
          "type": "bytes32"
        },
        {
          "internalType": "uint256",
          "name": "index",
          "type": "uint256"
        }
      ],
      "name": "getRoleMember",
      "outputs": [
        {
          "internalType": "address",
          "name": "",
          "type": "address"
        }
      ],
      "stateMutability": "view",
      "type": "function"
    },
    {
      "inputs": [
        {
          "internalType": "bytes32",
          "name": "role",
          "type": "bytes32"
        }
      ],
      "name": "getRoleMemberCount",
      "outputs": [
        {
          "internalType": "uint256",
          "name": "",
          "type": "uint256"
        }
      ],
      "stateMutability": "view",
      "type": "function"
    },
    {
      "inputs": [
        {
          "internalType": "bytes32",
          "name": "role",
          "type": "bytes32"
        },
        {
          "internalType": "address",
          "name": "account",
          "type": "address"
        }
      ],
      "name": "grantRole",
      "outputs": [],
      "stateMutability": "nonpayable",
      "type": "function"
    },
    {
      "inputs": [
        {
          "internalType": "bytes32",
          "name": "role",
          "type": "bytes32"
        },
        {
          "internalType": "address",
          "name": "account",
          "type": "address"
        }
      ],
      "name": "hasRole",
      "outputs": [
        {
          "internalType": "bool",
          "name": "",
          "type": "bool"
        }
      ],
      "stateMutability": "view",
      "type": "function"
    },
    {
      "inputs": [
        {
          "internalType": "address",
          "name": "spender",
          "type": "address"
        },
        {
          "internalType": "uint256",
          "name": "addedValue",
          "type": "uint256"
        }
      ],
      "name": "increaseAllowance",
      "outputs": [
        {
          "internalType": "bool",
          "name": "",
          "type": "bool"
        }
      ],
      "stateMutability": "nonpayable",
      "type": "function"
    },
    {
      "inputs": [
        {
          "internalType": "string",
          "name": "_name",
          "type": "string"
        },
        {
          "internalType": "string",
          "name": "_symbol",
          "type": "string"
        },
        {
          "internalType": "address",
          "name": "_bridge",
          "type": "address"
        }
      ],
      "name": "initialize",
      "outputs": [],
      "stateMutability": "nonpayable",
      "type": "function"
    },
    {
      "inputs": [
        {
          "internalType": "string",
          "name": "name",
          "type": "string"
        },
        {
          "internalType": "string",
          "name": "symbol",
          "type": "string"
        }
      ],
      "name": "initialize",
      "outputs": [],
      "stateMutability": "nonpayable",
      "type": "function"
    },
    {
      "inputs": [
        {
          "internalType": "address",
          "name": "to",
          "type": "address"
        },
        {
          "internalType": "uint256",
          "name": "amount",
          "type": "uint256"
        }
      ],
      "name": "mint",
      "outputs": [],
      "stateMutability": "nonpayable",
      "type": "function"
    },
    {
      "inputs": [],
      "name": "name",
      "outputs": [
        {
          "internalType": "string",
          "name": "",
          "type": "string"
        }
      ],
      "stateMutability": "view",
      "type": "function"
    },
    {
      "inputs": [],
      "name": "owner",
      "outputs": [
        {
          "internalType": "address",
          "name": "",
          "type": "address"
        }
      ],
      "stateMutability": "view",
      "type": "function"
    },
    {
      "inputs": [],
      "name": "pause",
      "outputs": [],
      "stateMutability": "nonpayable",
      "type": "function"
    },
    {
      "inputs": [],
      "name": "paused",
      "outputs": [
        {
          "internalType": "bool",
          "name": "",
          "type": "bool"
        }
      ],
      "stateMutability": "view",
      "type": "function"
    },
    {
      "inputs": [],
      "name": "renounceOwnership",
      "outputs": [],
      "stateMutability": "nonpayable",
      "type": "function"
    },
    {
      "inputs": [
        {
          "internalType": "bytes32",
          "name": "role",
          "type": "bytes32"
        },
        {
          "internalType": "address",
          "name": "account",
          "type": "address"
        }
      ],
      "name": "renounceRole",
      "outputs": [],
      "stateMutability": "nonpayable",
      "type": "function"
    },
    {
      "inputs": [
        {
          "internalType": "bytes32",
          "name": "role",
          "type": "bytes32"
        },
        {
          "internalType": "address",
          "name": "account",
          "type": "address"
        }
      ],
      "name": "revokeRole",
      "outputs": [],
      "stateMutability": "nonpayable",
      "type": "function"
    },
    {
      "inputs": [
        {
          "internalType": "bytes4",
          "name": "interfaceId",
          "type": "bytes4"
        }
      ],
      "name": "supportsInterface",
      "outputs": [
        {
          "internalType": "bool",
          "name": "",
          "type": "bool"
        }
      ],
      "stateMutability": "view",
      "type": "function"
    },
    {
      "inputs": [],
      "name": "symbol",
      "outputs": [
        {
          "internalType": "string",
          "name": "",
          "type": "string"
        }
      ],
      "stateMutability": "view",
      "type": "function"
    },
    {
      "inputs": [],
      "name": "totalSupply",
      "outputs": [
        {
          "internalType": "uint256",
          "name": "",
          "type": "uint256"
        }
      ],
      "stateMutability": "view",
      "type": "function"
    },
    {
      "inputs": [
        {
          "internalType": "address",
          "name": "recipient",
          "type": "address"
        },
        {
          "internalType": "uint256",
          "name": "amount",
          "type": "uint256"
        }
      ],
      "name": "transfer",
      "outputs": [
        {
          "internalType": "bool",
          "name": "",
          "type": "bool"
        }
      ],
      "stateMutability": "nonpayable",
      "type": "function"
    },
    {
      "inputs": [
        {
          "internalType": "address",
          "name": "sender",
          "type": "address"
        },
        {
          "internalType": "address",
          "name": "recipient",
          "type": "address"
        },
        {
          "internalType": "uint256",
          "name": "amount",
          "type": "uint256"
        }
      ],
      "name": "transferFrom",
      "outputs": [
        {
          "internalType": "bool",
          "name": "",
          "type": "bool"
        }
      ],
      "stateMutability": "nonpayable",
      "type": "function"
    },
    {
      "inputs": [
        {
          "internalType": "address",
          "name": "newOwner",
          "type": "address"
        }
      ],
      "name": "transferOwnership",
      "outputs": [],
      "stateMutability": "nonpayable",
      "type": "function"
    },
    {
      "inputs": [],
      "name": "unpause",
      "outputs": [],
      "stateMutability": "nonpayable",
      "type": "function"
    },
    {
      "inputs": [
        {
          "internalType": "address",
          "name": "newImplementation",
          "type": "address"
        }
      ],
      "name": "upgradeTo",
      "outputs": [],
      "stateMutability": "nonpayable",
      "type": "function"
    },
    {
      "inputs": [
        {
          "internalType": "address",
          "name": "newImplementation",
          "type": "address"
        },
        {
          "internalType": "bytes",
          "name": "data",
          "type": "bytes"
        }
      ],
      "name": "upgradeToAndCall",
      "outputs": [],
      "stateMutability": "payable",
      "type": "function"
    }
  ],
  "bytecode": "0x60a06040523060805234801561001457600080fd5b5060805161354861004560003960008181610ab101528181610b4701528181610eb20152610f4801526135486000f3fe60806040526004361061024f5760003560e01c80635c975abb11610138578063a217fddf116100b0578063d53913931161007f578063dd62ed3e11610064578063dd62ed3e146106a5578063e63ab1e9146106eb578063f2fde38b1461071f57600080fd5b8063d539139314610651578063d547741f1461068557600080fd5b8063a217fddf146105dc578063a457c2d7146105f1578063a9059cbb14610611578063ca15c8731461063157600080fd5b80638456cb59116101075780639010d07c116100ec5780639010d07c1461056157806391d148541461058157806395d89b41146105c757600080fd5b80638456cb59146105195780638da5cb5b1461052e57600080fd5b80635c975abb1461049557806370a08231146104ae578063715018a6146104e457806379cc6790146104f957600080fd5b8063355274ea116101cb5780633f4ba83a1161019a57806342966c681161017f57806342966c68146104425780634cd88b76146104625780634f1ef2861461048257600080fd5b80633f4ba83a1461040d57806340c10f191461042257600080fd5b8063355274ea1461039857806336568abe146103ad5780633659cfe6146103cd57806339509351146103ed57600080fd5b806318160ddd11610222578063248a9ca311610207578063248a9ca31461032c5780632f2ff15d1461035c578063313ce5671461037c57600080fd5b806318160ddd146102ed57806323b872dd1461030c57600080fd5b806301ffc9a71461025457806306fdde0314610289578063077f224a146102ab578063095ea7b3146102cd575b600080fd5b34801561026057600080fd5b5061027461026f366004612ecc565b61073f565b60405190151581526020015b60405180910390f35b34801561029557600080fd5b5061029e61079b565b6040516102809190612f3a565b3480156102b757600080fd5b506102cb6102c636600461308a565b61082d565b005b3480156102d957600080fd5b506102746102e83660046130fe565b610986565b3480156102f957600080fd5b5060cb545b604051908152602001610280565b34801561031857600080fd5b50610274610327366004613128565b61099c565b34801561033857600080fd5b506102fe610347366004613164565b60009081526065602052604090206001015490565b34801561036857600080fd5b506102cb61037736600461317d565b610a5d565b34801561038857600080fd5b5060405160128152602001610280565b3480156103a457600080fd5b5060fb546102fe565b3480156103b957600080fd5b506102cb6103c836600461317d565b610a84565b3480156103d957600080fd5b506102cb6103e83660046131a9565b610aa6565b3480156103f957600080fd5b506102746104083660046130fe565b610c44565b34801561041957600080fd5b506102cb610c80565b34801561042e57600080fd5b506102cb61043d3660046130fe565b610d26565b34801561044e57600080fd5b506102cb61045d366004613164565b610dd0565b34801561046e57600080fd5b506102cb61047d3660046131c4565b610dda565b6102cb610490366004613228565b610ea7565b3480156104a157600080fd5b506101605460ff16610274565b3480156104ba57600080fd5b506102fe6104c93660046131a9565b6001600160a01b0316600090815260c9602052604090205490565b3480156104f057600080fd5b506102cb611032565b34801561050557600080fd5b506102cb6105143660046130fe565b611097565b34801561052557600080fd5b506102cb611131565b34801561053a57600080fd5b5061025a546001600160a01b03165b6040516001600160a01b039091168152602001610280565b34801561056d57600080fd5b5061054961057c366004613280565b6111d5565b34801561058d57600080fd5b5061027461059c36600461317d565b60009182526065602090815260408084206001600160a01b0393909316845291905290205460ff1690565b3480156105d357600080fd5b5061029e6111ed565b3480156105e857600080fd5b506102fe600081565b3480156105fd57600080fd5b5061027461060c3660046130fe565b6111fc565b34801561061d57600080fd5b5061027461062c3660046130fe565b6112ad565b34801561063d57600080fd5b506102fe61064c366004613164565b6112ba565b34801561065d57600080fd5b506102fe7f9f2df0fed2c77648de5860a4cc508cd0818c85b8b8a1ab4ceeef8d981c8956a681565b34801561069157600080fd5b506102cb6106a036600461317d565b6112d1565b3480156106b157600080fd5b506102fe6106c03660046132a2565b6001600160a01b03918216600090815260ca6020908152604080832093909416825291909152205490565b3480156106f757600080fd5b506102fe7f65d7a28e3265b37a6474929f336521b332c1681b933f6cb9f3376673440d862a81565b34801561072b57600080fd5b506102cb61073a3660046131a9565b6112db565b60007fffffffff0000000000000000000000000000000000000000000000000000000082167f5a05180f0000000000000000000000000000000000000000000000000000000014806107955750610795826113bb565b92915050565b606060cc80546107aa906132cc565b80601f01602080910402602001604051908101604052809291908181526020018280546107d6906132cc565b80156108235780601f106107f857610100808354040283529160200191610823565b820191906000526020600020905b81548152906001019060200180831161080657829003601f168201915b5050505050905090565b600054610100900460ff1680610846575060005460ff16155b6108bd5760405162461bcd60e51b815260206004820152602e60248201527f496e697469616c697a61626c653a20636f6e747261637420697320616c72656160448201527f647920696e697469616c697a656400000000000000000000000000000000000060648201526084015b60405180910390fd5b600054610100900460ff161580156108df576000805461ffff19166101011790555b6108e7611452565b6108ef611452565b6108f7611452565b6108ff611452565b6109098484611513565b61091e6b204fce5e3e250261100000006115fe565b610926611452565b61092e611715565b610936611452565b61094084846117e1565b610948611452565b610950611452565b6109586118ed565b61096e826b033b2e3c9fd0803ce8000000610d26565b8015610980576000805461ff00191690555b50505050565b60006109933384846119a3565b50600192915050565b60006109a9848484611afb565b6001600160a01b038416600090815260ca6020908152604080832033845290915290205482811015610a435760405162461bcd60e51b815260206004820152602860248201527f45524332303a207472616e7366657220616d6f756e742065786365656473206160448201527f6c6c6f77616e636500000000000000000000000000000000000000000000000060648201526084016108b4565b610a5085338584036119a3565b60019150505b9392505050565b610a678282611d1d565b6000828152609760205260409020610a7f9082611d43565b505050565b610a8e8282611d58565b6000828152609760205260409020610a7f9082611de0565b306001600160a01b037f0000000000000000000000000000000000000000000000000000000000000000161415610b455760405162461bcd60e51b815260206004820152602c60248201527f46756e6374696f6e206d7573742062652063616c6c6564207468726f7567682060448201527f64656c656761746563616c6c000000000000000000000000000000000000000060648201526084016108b4565b7f00000000000000000000000000000000000000000000000000000000000000006001600160a01b0316610ba07f360894a13ba1a3210667c828492db98dca3e2076cc3735a920a3ca505d382bbc546001600160a01b031690565b6001600160a01b031614610c1c5760405162461bcd60e51b815260206004820152602c60248201527f46756e6374696f6e206d7573742062652063616c6c6564207468726f7567682060448201527f6163746976652070726f7879000000000000000000000000000000000000000060648201526084016108b4565b610c2581611df5565b60408051600080825260208201909252610c4191839190611e50565b50565b33600081815260ca602090815260408083206001600160a01b03871684529091528120549091610993918590610c7b90869061334f565b6119a3565b610caa7f65d7a28e3265b37a6474929f336521b332c1681b933f6cb9f3376673440d862a3361059c565b610d1c5760405162461bcd60e51b815260206004820152603960248201527f45524332305072657365744d696e7465725061757365723a206d75737420686160448201527f76652070617573657220726f6c6520746f20756e70617573650000000000000060648201526084016108b4565b610d24612032565b565b610d507f9f2df0fed2c77648de5860a4cc508cd0818c85b8b8a1ab4ceeef8d981c8956a63361059c565b610dc25760405162461bcd60e51b815260206004820152603660248201527f45524332305072657365744d696e7465725061757365723a206d75737420686160448201527f7665206d696e74657220726f6c6520746f206d696e740000000000000000000060648201526084016108b4565b610dcc82826120d0565b5050565b610c4133826120da565b600054610100900460ff1680610df3575060005460ff16155b610e655760405162461bcd60e51b815260206004820152602e60248201527f496e697469616c697a61626c653a20636f6e747261637420697320616c72656160448201527f647920696e697469616c697a656400000000000000000000000000000000000060648201526084016108b4565b600054610100900460ff16158015610e87576000805461ffff19166101011790555b610e91838361226b565b8015610a7f576000805461ff0019169055505050565b306001600160a01b037f0000000000000000000000000000000000000000000000000000000000000000161415610f465760405162461bcd60e51b815260206004820152602c60248201527f46756e6374696f6e206d7573742062652063616c6c6564207468726f7567682060448201527f64656c656761746563616c6c000000000000000000000000000000000000000060648201526084016108b4565b7f00000000000000000000000000000000000000000000000000000000000000006001600160a01b0316610fa17f360894a13ba1a3210667c828492db98dca3e2076cc3735a920a3ca505d382bbc546001600160a01b031690565b6001600160a01b03161461101d5760405162461bcd60e51b815260206004820152602c60248201527f46756e6374696f6e206d7573742062652063616c6c6564207468726f7567682060448201527f6163746976652070726f7879000000000000000000000000000000000000000060648201526084016108b4565b61102682611df5565b610dcc82826001611e50565b61025a546001600160a01b0316331461108d5760405162461bcd60e51b815260206004820181905260248201527f4f776e61626c653a2063616c6c6572206973206e6f7420746865206f776e657260448201526064016108b4565b610d246000612364565b60006110a383336106c0565b90508181101561111a5760405162461bcd60e51b8152602060048201526024808201527f45524332303a206275726e20616d6f756e74206578636565647320616c6c6f7760448201527f616e63650000000000000000000000000000000000000000000000000000000060648201526084016108b4565b61112783338484036119a3565b610a7f83836120da565b61115b7f65d7a28e3265b37a6474929f336521b332c1681b933f6cb9f3376673440d862a3361059c565b6111cd5760405162461bcd60e51b815260206004820152603760248201527f45524332305072657365744d696e7465725061757365723a206d75737420686160448201527f76652070617573657220726f6c6520746f20706175736500000000000000000060648201526084016108b4565b610d246123cf565b6000828152609760205260408120610a569083612459565b606060cd80546107aa906132cc565b33600090815260ca602090815260408083206001600160a01b0386168452909152812054828110156112965760405162461bcd60e51b815260206004820152602560248201527f45524332303a2064656372656173656420616c6c6f77616e63652062656c6f7760448201527f207a65726f00000000000000000000000000000000000000000000000000000060648201526084016108b4565b6112a333858584036119a3565b5060019392505050565b6000610993338484611afb565b600081815260976020526040812061079590612465565b610a8e828261246f565b61025a546001600160a01b031633146113365760405162461bcd60e51b815260206004820181905260248201527f4f776e61626c653a2063616c6c6572206973206e6f7420746865206f776e657260448201526064016108b4565b6001600160a01b0381166113b25760405162461bcd60e51b815260206004820152602660248201527f4f776e61626c653a206e6577206f776e657220697320746865207a65726f206160448201527f646472657373000000000000000000000000000000000000000000000000000060648201526084016108b4565b610c4181612364565b60007fffffffff0000000000000000000000000000000000000000000000000000000082167f7965db0b00000000000000000000000000000000000000000000000000000000148061079557507f01ffc9a7000000000000000000000000000000000000000000000000000000007fffffffff00000000000000000000000000000000000000000000000000000000831614610795565b600054610100900460ff168061146b575060005460ff16155b6114dd5760405162461bcd60e51b815260206004820152602e60248201527f496e697469616c697a61626c653a20636f6e747261637420697320616c72656160448201527f647920696e697469616c697a656400000000000000000000000000000000000060648201526084016108b4565b600054610100900460ff161580156114ff576000805461ffff19166101011790555b8015610c41576000805461ff001916905550565b600054610100900460ff168061152c575060005460ff16155b61159e5760405162461bcd60e51b815260206004820152602e60248201527f496e697469616c697a61626c653a20636f6e747261637420697320616c72656160448201527f647920696e697469616c697a656400000000000000000000000000000000000060648201526084016108b4565b600054610100900460ff161580156115c0576000805461ffff19166101011790555b82516115d39060cc906020860190612e33565b5081516115e79060cd906020850190612e33565b508015610a7f576000805461ff0019169055505050565b600054610100900460ff1680611617575060005460ff16155b6116895760405162461bcd60e51b815260206004820152602e60248201527f496e697469616c697a61626c653a20636f6e747261637420697320616c72656160448201527f647920696e697469616c697a656400000000000000000000000000000000000060648201526084016108b4565b600054610100900460ff161580156116ab576000805461ffff19166101011790555b600082116116fb5760405162461bcd60e51b815260206004820152601560248201527f45524332304361707065643a206361702069732030000000000000000000000060448201526064016108b4565b60fb8290558015610dcc576000805461ff00191690555050565b600054610100900460ff168061172e575060005460ff16155b6117a05760405162461bcd60e51b815260206004820152602e60248201527f496e697469616c697a61626c653a20636f6e747261637420697320616c72656160448201527f647920696e697469616c697a656400000000000000000000000000000000000060648201526084016108b4565b600054610100900460ff161580156117c2576000805461ffff19166101011790555b610160805460ff191690558015610c41576000805461ff001916905550565b600054610100900460ff16806117fa575060005460ff16155b61186c5760405162461bcd60e51b815260206004820152602e60248201527f496e697469616c697a61626c653a20636f6e747261637420697320616c72656160448201527f647920696e697469616c697a656400000000000000000000000000000000000060648201526084016108b4565b600054610100900460ff1615801561188e576000805461ffff19166101011790555b611899600033612495565b6118c37f9f2df0fed2c77648de5860a4cc508cd0818c85b8b8a1ab4ceeef8d981c8956a633612495565b610e917f65d7a28e3265b37a6474929f336521b332c1681b933f6cb9f3376673440d862a33612495565b600054610100900460ff1680611906575060005460ff16155b6119785760405162461bcd60e51b815260206004820152602e60248201527f496e697469616c697a61626c653a20636f6e747261637420697320616c72656160448201527f647920696e697469616c697a656400000000000000000000000000000000000060648201526084016108b4565b600054610100900460ff1615801561199a576000805461ffff19166101011790555b6114ff33612364565b6001600160a01b038316611a1e5760405162461bcd60e51b8152602060048201526024808201527f45524332303a20617070726f76652066726f6d20746865207a65726f2061646460448201527f726573730000000000000000000000000000000000000000000000000000000060648201526084016108b4565b6001600160a01b038216611a9a5760405162461bcd60e51b815260206004820152602260248201527f45524332303a20617070726f766520746f20746865207a65726f20616464726560448201527f737300000000000000000000000000000000000000000000000000000000000060648201526084016108b4565b6001600160a01b03838116600081815260ca602090815260408083209487168084529482529182902085905590518481527f8c5be1e5ebec7d5bd14f71427d1e84f3dd0314c0f7b2291e5b200ac8c7c3b925910160405180910390a3505050565b6001600160a01b038316611b775760405162461bcd60e51b815260206004820152602560248201527f45524332303a207472616e736665722066726f6d20746865207a65726f20616460448201527f647265737300000000000000000000000000000000000000000000000000000060648201526084016108b4565b6001600160a01b038216611bf35760405162461bcd60e51b815260206004820152602360248201527f45524332303a207472616e7366657220746f20746865207a65726f206164647260448201527f657373000000000000000000000000000000000000000000000000000000000060648201526084016108b4565b611bfe83838361249f565b6001600160a01b038316600090815260c9602052604090205481811015611c8d5760405162461bcd60e51b815260206004820152602660248201527f45524332303a207472616e7366657220616d6f756e742065786365656473206260448201527f616c616e6365000000000000000000000000000000000000000000000000000060648201526084016108b4565b6001600160a01b03808516600090815260c96020526040808220858503905591851681529081208054849290611cc490849061334f565b92505081905550826001600160a01b0316846001600160a01b03167fddf252ad1be2c89b69c2b068fc378daa952ba7f163c4a11628f55a4df523b3ef84604051611d1091815260200190565b60405180910390a3610980565b600082815260656020526040902060010154611d3981336124aa565b610a7f8383612548565b6000610a56836001600160a01b0384166125ea565b6001600160a01b0381163314611dd65760405162461bcd60e51b815260206004820152602f60248201527f416363657373436f6e74726f6c3a2063616e206f6e6c792072656e6f756e636560448201527f20726f6c657320666f722073656c66000000000000000000000000000000000060648201526084016108b4565b610dcc8282612639565b6000610a56836001600160a01b0384166126bc565b61025a546001600160a01b03163314610c415760405162461bcd60e51b815260206004820181905260248201527f4f776e61626c653a2063616c6c6572206973206e6f7420746865206f776e657260448201526064016108b4565b6000611e837f360894a13ba1a3210667c828492db98dca3e2076cc3735a920a3ca505d382bbc546001600160a01b031690565b9050611e8e846127af565b600083511180611e9b5750815b15611eac57611eaa848461287c565b505b7f4910fdfa16fed3260ed0e7147f7cc6da11a60208b5b9406d12a635614ffd9143805460ff1661202b57805460ff191660011781556040516001600160a01b0383166024820152611f77908690604401604080517fffffffffffffffffffffffffffffffffffffffffffffffffffffffffffffffe08184030181529190526020810180517bffffffffffffffffffffffffffffffffffffffffffffffffffffffff167f3659cfe60000000000000000000000000000000000000000000000000000000017905261287c565b50805460ff191681557f360894a13ba1a3210667c828492db98dca3e2076cc3735a920a3ca505d382bbc546001600160a01b038381169116146120225760405162461bcd60e51b815260206004820152602f60248201527f45524331393637557067726164653a207570677261646520627265616b73206660448201527f757274686572207570677261646573000000000000000000000000000000000060648201526084016108b4565b61202b8561297e565b5050505050565b6101605460ff166120855760405162461bcd60e51b815260206004820152601460248201527f5061757361626c653a206e6f742070617573656400000000000000000000000060448201526064016108b4565b610160805460ff191690557f5db9ee0a495bf2e6ff9c91a7834c1ba4fdd244a5e8aa4e537bd38aeae4b073aa335b6040516001600160a01b03909116815260200160405180910390a1565b610dcc82826129be565b6001600160a01b0382166121565760405162461bcd60e51b815260206004820152602160248201527f45524332303a206275726e2066726f6d20746865207a65726f2061646472657360448201527f730000000000000000000000000000000000000000000000000000000000000060648201526084016108b4565b6121628260008361249f565b6001600160a01b038216600090815260c96020526040902054818110156121f15760405162461bcd60e51b815260206004820152602260248201527f45524332303a206275726e20616d6f756e7420657863656564732062616c616e60448201527f636500000000000000000000000000000000000000000000000000000000000060648201526084016108b4565b6001600160a01b038316600090815260c960205260408120838303905560cb8054849290612220908490613367565b90915550506040518281526000906001600160a01b038516907fddf252ad1be2c89b69c2b068fc378daa952ba7f163c4a11628f55a4df523b3ef9060200160405180910390a3505050565b600054610100900460ff1680612284575060005460ff16155b6122f65760405162461bcd60e51b815260206004820152602e60248201527f496e697469616c697a61626c653a20636f6e747261637420697320616c72656160448201527f647920696e697469616c697a656400000000000000000000000000000000000060648201526084016108b4565b600054610100900460ff16158015612318576000805461ffff19166101011790555b612320611452565b612328611452565b612330611452565b612338611452565b6123428383611513565b61234a611452565b612352611715565b61235a611452565b610e9183836117e1565b61025a80546001600160a01b038381167fffffffffffffffffffffffff0000000000000000000000000000000000000000831681179093556040519116919082907f8be0079c531659141344cd1fd0a4f28419497f9722a3daafe3b4186f6b6457e090600090a35050565b6101605460ff16156124235760405162461bcd60e51b815260206004820152601060248201527f5061757361626c653a207061757365640000000000000000000000000000000060448201526064016108b4565b610160805460ff191660011790557f62e78cea01bee320cd4e420270b5ea74000d11b0c9f74754ebdbfc544b05a2586120b33390565b6000610a568383612a2d565b6000610795825490565b60008281526065602052604090206001015461248b81336124aa565b610a7f8383612639565b610a678282612a57565b610a7f838383612a61565b60008281526065602090815260408083206001600160a01b038516845290915290205460ff16610dcc576124e8816001600160a01b03166014612a6c565b6124f3836020612a6c565b60405160200161250492919061337e565b604080517fffffffffffffffffffffffffffffffffffffffffffffffffffffffffffffffe08184030181529082905262461bcd60e51b82526108b491600401612f3a565b60008281526065602090815260408083206001600160a01b038516845290915290205460ff16610dcc5760008281526065602090815260408083206001600160a01b03851684529091529020805460ff191660011790556125a63390565b6001600160a01b0316816001600160a01b0316837f2f8788117e7eff1d82e926ec794901d17c78024a50270940304540a733656f0d60405160405180910390a45050565b600081815260018301602052604081205461263157508154600181810184556000848152602080822090930184905584548482528286019093526040902091909155610795565b506000610795565b60008281526065602090815260408083206001600160a01b038516845290915290205460ff1615610dcc5760008281526065602090815260408083206001600160a01b0385168085529252808320805460ff1916905551339285917ff6391f5c32d9c69d2a47ea670b442974b53935d1edc7fd64eb21e047a839171b9190a45050565b600081815260018301602052604081205480156127a55760006126e0600183613367565b85549091506000906126f490600190613367565b9050818114612759576000866000018281548110612714576127146133ff565b9060005260206000200154905080876000018481548110612737576127376133ff565b6000918252602080832090910192909255918252600188019052604090208390555b855486908061276a5761276a61342e565b600190038181906000526020600020016000905590558560010160008681526020019081526020016000206000905560019350505050610795565b6000915050610795565b803b6128235760405162461bcd60e51b815260206004820152602d60248201527f455243313936373a206e657720696d706c656d656e746174696f6e206973206e60448201527f6f74206120636f6e74726163740000000000000000000000000000000000000060648201526084016108b4565b7f360894a13ba1a3210667c828492db98dca3e2076cc3735a920a3ca505d382bbc80547fffffffffffffffffffffffff0000000000000000000000000000000000000000166001600160a01b0392909216919091179055565b6060823b6128f25760405162461bcd60e51b815260206004820152602660248201527f416464726573733a2064656c65676174652063616c6c20746f206e6f6e2d636f60448201527f6e7472616374000000000000000000000000000000000000000000000000000060648201526084016108b4565b600080846001600160a01b03168460405161290d919061345d565b600060405180830381855af49150503d8060008114612948576040519150601f19603f3d011682016040523d82523d6000602084013e61294d565b606091505b509150915061297582826040518060600160405280602781526020016134ec60279139612c95565b95945050505050565b612987816127af565b6040516001600160a01b038216907fbc7cd75a20ee27fd9adebab32041f755214dbc6bffa90cc0225b39da2e5c2d3b90600090a250565b60fb54816129cb60cb5490565b6129d5919061334f565b1115612a235760405162461bcd60e51b815260206004820152601960248201527f45524332304361707065643a206361702065786365656465640000000000000060448201526064016108b4565b610dcc8282612cce565b6000826000018281548110612a4457612a446133ff565b9060005260206000200154905092915050565b610dcc8282612548565b610a7f838383612db9565b60606000612a7b836002613479565b612a8690600261334f565b67ffffffffffffffff811115612a9e57612a9e612f8b565b6040519080825280601f01601f191660200182016040528015612ac8576020820181803683370190505b5090507f300000000000000000000000000000000000000000000000000000000000000081600081518110612aff57612aff6133ff565b60200101907effffffffffffffffffffffffffffffffffffffffffffffffffffffffffffff1916908160001a9053507f780000000000000000000000000000000000000000000000000000000000000081600181518110612b6257612b626133ff565b60200101907effffffffffffffffffffffffffffffffffffffffffffffffffffffffffffff1916908160001a9053506000612b9e846002613479565b612ba990600161334f565b90505b6001811115612c46577f303132333435363738396162636465660000000000000000000000000000000085600f1660108110612bea57612bea6133ff565b1a60f81b828281518110612c0057612c006133ff565b60200101907effffffffffffffffffffffffffffffffffffffffffffffffffffffffffffff1916908160001a90535060049490941c93612c3f816134b6565b9050612bac565b508315610a565760405162461bcd60e51b815260206004820181905260248201527f537472696e67733a20686578206c656e67746820696e73756666696369656e7460448201526064016108b4565b60608315612ca4575081610a56565b825115612cb45782518084602001fd5b8160405162461bcd60e51b81526004016108b49190612f3a565b6001600160a01b038216612d245760405162461bcd60e51b815260206004820152601f60248201527f45524332303a206d696e7420746f20746865207a65726f20616464726573730060448201526064016108b4565b612d306000838361249f565b8060cb6000828254612d42919061334f565b90915550506001600160a01b038216600090815260c9602052604081208054839290612d6f90849061334f565b90915550506040518181526001600160a01b038316906000907fddf252ad1be2c89b69c2b068fc378daa952ba7f163c4a11628f55a4df523b3ef9060200160405180910390a35050565b6101605460ff1615610a7f5760405162461bcd60e51b815260206004820152602a60248201527f45524332305061757361626c653a20746f6b656e207472616e7366657220776860448201527f696c65207061757365640000000000000000000000000000000000000000000060648201526084016108b4565b828054612e3f906132cc565b90600052602060002090601f016020900481019282612e615760008555612ea7565b82601f10612e7a57805160ff1916838001178555612ea7565b82800160010185558215612ea7579182015b82811115612ea7578251825591602001919060010190612e8c565b50612eb3929150612eb7565b5090565b5b80821115612eb35760008155600101612eb8565b600060208284031215612ede57600080fd5b81357fffffffff0000000000000000000000000000000000000000000000000000000081168114610a5657600080fd5b60005b83811015612f29578181015183820152602001612f11565b838111156109805750506000910152565b6020815260008251806020840152612f59816040850160208701612f0e565b601f017fffffffffffffffffffffffffffffffffffffffffffffffffffffffffffffffe0169190910160400192915050565b7f4e487b7100000000000000000000000000000000000000000000000000000000600052604160045260246000fd5b600067ffffffffffffffff80841115612fd557612fd5612f8b565b604051601f85017fffffffffffffffffffffffffffffffffffffffffffffffffffffffffffffffe0908116603f0116810190828211818310171561301b5761301b612f8b565b8160405280935085815286868601111561303457600080fd5b858560208301376000602087830101525050509392505050565b600082601f83011261305f57600080fd5b610a5683833560208501612fba565b80356001600160a01b038116811461308557600080fd5b919050565b60008060006060848603121561309f57600080fd5b833567ffffffffffffffff808211156130b757600080fd5b6130c38783880161304e565b945060208601359150808211156130d957600080fd5b506130e68682870161304e565b9250506130f56040850161306e565b90509250925092565b6000806040838503121561311157600080fd5b61311a8361306e565b946020939093013593505050565b60008060006060848603121561313d57600080fd5b6131468461306e565b92506131546020850161306e565b9150604084013590509250925092565b60006020828403121561317657600080fd5b5035919050565b6000806040838503121561319057600080fd5b823591506131a06020840161306e565b90509250929050565b6000602082840312156131bb57600080fd5b610a568261306e565b600080604083850312156131d757600080fd5b823567ffffffffffffffff808211156131ef57600080fd5b6131fb8683870161304e565b9350602085013591508082111561321157600080fd5b5061321e8582860161304e565b9150509250929050565b6000806040838503121561323b57600080fd5b6132448361306e565b9150602083013567ffffffffffffffff81111561326057600080fd5b8301601f8101851361327157600080fd5b61321e85823560208401612fba565b6000806040838503121561329357600080fd5b50508035926020909101359150565b600080604083850312156132b557600080fd5b6132be8361306e565b91506131a06020840161306e565b600181811c908216806132e057607f821691505b6020821081141561331a577f4e487b7100000000000000000000000000000000000000000000000000000000600052602260045260246000fd5b50919050565b7f4e487b7100000000000000000000000000000000000000000000000000000000600052601160045260246000fd5b6000821982111561336257613362613320565b500190565b60008282101561337957613379613320565b500390565b7f416363657373436f6e74726f6c3a206163636f756e74200000000000000000008152600083516133b6816017850160208801612f0e565b7f206973206d697373696e6720726f6c652000000000000000000000000000000060179184019182015283516133f3816028840160208801612f0e565b01602801949350505050565b7f4e487b7100000000000000000000000000000000000000000000000000000000600052603260045260246000fd5b7f4e487b7100000000000000000000000000000000000000000000000000000000600052603160045260246000fd5b6000825161346f818460208701612f0e565b9190910192915050565b6000817fffffffffffffffffffffffffffffffffffffffffffffffffffffffffffffffff04831182151516156134b1576134b1613320565b500290565b6000816134c5576134c5613320565b507fffffffffffffffffffffffffffffffffffffffffffffffffffffffffffffffff019056fe416464726573733a206c6f772d6c6576656c2064656c65676174652063616c6c206661696c6564a2646970667358221220820a5c78c7966d003521334fb8d71c7735888bf612afcbc5e7bbded7a7d1f55a64736f6c63430008090033",
  "linkReferences": {},
  "deployedLinkReferences": {}
}