{
  "_format": "hh-sol-artifact-1",
  "contractName": "Pond",
  "sourceName": "contracts/Pond.sol",
  "abi": [
    {
      "anonymous": false,
      "inputs": [
        {
          "indexed": false,
          "internalType": "address",
          "name": "previousAdmin",
          "type": "address"
        },
        {
          "indexed": false,
          "internalType": "address",
          "name": "newAdmin",
          "type": "address"
        }
      ],
      "name": "AdminChanged",
      "type": "event"
    },
    {
      "anonymous": false,
      "inputs": [
        {
          "indexed": true,
          "internalType": "address",
          "name": "owner",
          "type": "address"
        },
        {
          "indexed": true,
          "internalType": "address",
          "name": "spender",
          "type": "address"
        },
        {
          "indexed": false,
          "internalType": "uint256",
          "name": "value",
          "type": "uint256"
        }
      ],
      "name": "Approval",
      "type": "event"
    },
    {
      "anonymous": false,
      "inputs": [
        {
          "indexed": true,
          "internalType": "address",
          "name": "beacon",
          "type": "address"
        }
      ],
      "name": "BeaconUpgraded",
      "type": "event"
    },
    {
      "anonymous": false,
      "inputs": [
        {
          "indexed": false,
          "internalType": "address",
          "name": "account",
          "type": "address"
        }
      ],
      "name": "Paused",
      "type": "event"
    },
    {
      "anonymous": false,
      "inputs": [
        {
          "indexed": true,
          "internalType": "bytes32",
          "name": "role",
          "type": "bytes32"
        },
        {
          "indexed": true,
          "internalType": "bytes32",
          "name": "previousAdminRole",
          "type": "bytes32"
        },
        {
          "indexed": true,
          "internalType": "bytes32",
          "name": "newAdminRole",
          "type": "bytes32"
        }
      ],
      "name": "RoleAdminChanged",
      "type": "event"
    },
    {
      "anonymous": false,
      "inputs": [
        {
          "indexed": true,
          "internalType": "bytes32",
          "name": "role",
          "type": "bytes32"
        },
        {
          "indexed": true,
          "internalType": "address",
          "name": "account",
          "type": "address"
        },
        {
          "indexed": true,
          "internalType": "address",
          "name": "sender",
          "type": "address"
        }
      ],
      "name": "RoleGranted",
      "type": "event"
    },
    {
      "anonymous": false,
      "inputs": [
        {
          "indexed": true,
          "internalType": "bytes32",
          "name": "role",
          "type": "bytes32"
        },
        {
          "indexed": true,
          "internalType": "address",
          "name": "account",
          "type": "address"
        },
        {
          "indexed": true,
          "internalType": "address",
          "name": "sender",
          "type": "address"
        }
      ],
      "name": "RoleRevoked",
      "type": "event"
    },
    {
      "anonymous": false,
      "inputs": [
        {
          "indexed": true,
          "internalType": "address",
          "name": "from",
          "type": "address"
        },
        {
          "indexed": true,
          "internalType": "address",
          "name": "to",
          "type": "address"
        },
        {
          "indexed": false,
          "internalType": "uint256",
          "name": "value",
          "type": "uint256"
        }
      ],
      "name": "Transfer",
      "type": "event"
    },
    {
      "anonymous": false,
      "inputs": [
        {
          "indexed": false,
          "internalType": "address",
          "name": "account",
          "type": "address"
        }
      ],
      "name": "Unpaused",
      "type": "event"
    },
    {
      "anonymous": false,
      "inputs": [
        {
          "indexed": true,
          "internalType": "address",
          "name": "implementation",
          "type": "address"
        }
      ],
      "name": "Upgraded",
      "type": "event"
    },
    {
      "inputs": [],
      "name": "DEFAULT_ADMIN_ROLE",
      "outputs": [
        {
          "internalType": "bytes32",
          "name": "",
          "type": "bytes32"
        }
      ],
      "stateMutability": "view",
      "type": "function"
    },
    {
      "inputs": [],
      "name": "MINTER_ROLE",
      "outputs": [
        {
          "internalType": "bytes32",
          "name": "",
          "type": "bytes32"
        }
      ],
      "stateMutability": "view",
      "type": "function"
    },
    {
      "inputs": [],
      "name": "PAUSER_ROLE",
      "outputs": [
        {
          "internalType": "bytes32",
          "name": "",
          "type": "bytes32"
        }
      ],
      "stateMutability": "view",
      "type": "function"
    },
    {
      "inputs": [
        {
          "internalType": "address",
          "name": "owner",
          "type": "address"
        },
        {
          "internalType": "address",
          "name": "spender",
          "type": "address"
        }
      ],
      "name": "allowance",
      "outputs": [
        {
          "internalType": "uint256",
          "name": "",
          "type": "uint256"
        }
      ],
      "stateMutability": "view",
      "type": "function"
    },
    {
      "inputs": [
        {
          "internalType": "address",
          "name": "spender",
          "type": "address"
        },
        {
          "internalType": "uint256",
          "name": "amount",
          "type": "uint256"
        }
      ],
      "name": "approve",
      "outputs": [
        {
          "internalType": "bool",
          "name": "",
          "type": "bool"
        }
      ],
      "stateMutability": "nonpayable",
      "type": "function"
    },
    {
      "inputs": [
        {
          "internalType": "address",
          "name": "account",
          "type": "address"
        }
      ],
      "name": "balanceOf",
      "outputs": [
        {
          "internalType": "uint256",
          "name": "",
          "type": "uint256"
        }
      ],
      "stateMutability": "view",
      "type": "function"
    },
    {
      "inputs": [
        {
          "internalType": "uint256",
          "name": "amount",
          "type": "uint256"
        }
      ],
      "name": "burn",
      "outputs": [],
      "stateMutability": "nonpayable",
      "type": "function"
    },
    {
      "inputs": [
        {
          "internalType": "address",
          "name": "account",
          "type": "address"
        },
        {
          "internalType": "uint256",
          "name": "amount",
          "type": "uint256"
        }
      ],
      "name": "burnFrom",
      "outputs": [],
      "stateMutability": "nonpayable",
      "type": "function"
    },
    {
      "inputs": [],
      "name": "cap",
      "outputs": [
        {
          "internalType": "uint256",
          "name": "",
          "type": "uint256"
        }
      ],
      "stateMutability": "view",
      "type": "function"
    },
    {
      "inputs": [],
      "name": "decimals",
      "outputs": [
        {
          "internalType": "uint8",
          "name": "",
          "type": "uint8"
        }
      ],
      "stateMutability": "view",
      "type": "function"
    },
    {
      "inputs": [
        {
          "internalType": "address",
          "name": "spender",
          "type": "address"
        },
        {
          "internalType": "uint256",
          "name": "subtractedValue",
          "type": "uint256"
        }
      ],
      "name": "decreaseAllowance",
      "outputs": [
        {
          "internalType": "bool",
          "name": "",
          "type": "bool"
        }
      ],
      "stateMutability": "nonpayable",
      "type": "function"
    },
    {
      "inputs": [
        {
          "internalType": "bytes32",
          "name": "role",
          "type": "bytes32"
        }
      ],
      "name": "getRoleAdmin",
      "outputs": [
        {
          "internalType": "bytes32",
          "name": "",
          "type": "bytes32"
        }
      ],
      "stateMutability": "view",
      "type": "function"
    },
    {
      "inputs": [
        {
          "internalType": "bytes32",
          "name": "role",
          "type": "bytes32"
        },
        {
          "internalType": "uint256",
          "name": "index",
          "type": "uint256"
        }
      ],
      "name": "getRoleMember",
      "outputs": [
        {
          "internalType": "address",
          "name": "",
          "type": "address"
        }
      ],
      "stateMutability": "view",
      "type": "function"
    },
    {
      "inputs": [
        {
          "internalType": "bytes32",
          "name": "role",
          "type": "bytes32"
        }
      ],
      "name": "getRoleMemberCount",
      "outputs": [
        {
          "internalType": "uint256",
          "name": "",
          "type": "uint256"
        }
      ],
      "stateMutability": "view",
      "type": "function"
    },
    {
      "inputs": [
        {
          "internalType": "bytes32",
          "name": "role",
          "type": "bytes32"
        },
        {
          "internalType": "address",
          "name": "account",
          "type": "address"
        }
      ],
      "name": "grantRole",
      "outputs": [],
      "stateMutability": "nonpayable",
      "type": "function"
    },
    {
      "inputs": [
        {
          "internalType": "bytes32",
          "name": "role",
          "type": "bytes32"
        },
        {
          "internalType": "address",
          "name": "account",
          "type": "address"
        }
      ],
      "name": "hasRole",
      "outputs": [
        {
          "internalType": "bool",
          "name": "",
          "type": "bool"
        }
      ],
      "stateMutability": "view",
      "type": "function"
    },
    {
      "inputs": [
        {
          "internalType": "address",
          "name": "spender",
          "type": "address"
        },
        {
          "internalType": "uint256",
          "name": "addedValue",
          "type": "uint256"
        }
      ],
      "name": "increaseAllowance",
      "outputs": [
        {
          "internalType": "bool",
          "name": "",
          "type": "bool"
        }
      ],
      "stateMutability": "nonpayable",
      "type": "function"
    },
    {
      "inputs": [
        {
          "internalType": "string",
          "name": "_name",
          "type": "string"
        },
        {
          "internalType": "string",
          "name": "_symbol",
          "type": "string"
        }
      ],
      "name": "initialize",
      "outputs": [],
      "stateMutability": "nonpayable",
      "type": "function"
    },
    {
      "inputs": [
        {
          "internalType": "address",
          "name": "to",
          "type": "address"
        },
        {
          "internalType": "uint256",
          "name": "amount",
          "type": "uint256"
        }
      ],
      "name": "mint",
      "outputs": [],
      "stateMutability": "nonpayable",
      "type": "function"
    },
    {
      "inputs": [],
      "name": "name",
      "outputs": [
        {
          "internalType": "string",
          "name": "",
          "type": "string"
        }
      ],
      "stateMutability": "view",
      "type": "function"
    },
    {
      "inputs": [],
      "name": "pause",
      "outputs": [],
      "stateMutability": "nonpayable",
      "type": "function"
    },
    {
      "inputs": [],
      "name": "paused",
      "outputs": [
        {
          "internalType": "bool",
          "name": "",
          "type": "bool"
        }
      ],
      "stateMutability": "view",
      "type": "function"
    },
    {
      "inputs": [
        {
          "internalType": "bytes32",
          "name": "role",
          "type": "bytes32"
        },
        {
          "internalType": "address",
          "name": "account",
          "type": "address"
        }
      ],
      "name": "renounceRole",
      "outputs": [],
      "stateMutability": "nonpayable",
      "type": "function"
    },
    {
      "inputs": [
        {
          "internalType": "bytes32",
          "name": "role",
          "type": "bytes32"
        },
        {
          "internalType": "address",
          "name": "account",
          "type": "address"
        }
      ],
      "name": "revokeRole",
      "outputs": [],
      "stateMutability": "nonpayable",
      "type": "function"
    },
    {
      "inputs": [
        {
          "internalType": "bytes4",
          "name": "interfaceId",
          "type": "bytes4"
        }
      ],
      "name": "supportsInterface",
      "outputs": [
        {
          "internalType": "bool",
          "name": "",
          "type": "bool"
        }
      ],
      "stateMutability": "view",
      "type": "function"
    },
    {
      "inputs": [],
      "name": "symbol",
      "outputs": [
        {
          "internalType": "string",
          "name": "",
          "type": "string"
        }
      ],
      "stateMutability": "view",
      "type": "function"
    },
    {
      "inputs": [],
      "name": "totalSupply",
      "outputs": [
        {
          "internalType": "uint256",
          "name": "",
          "type": "uint256"
        }
      ],
      "stateMutability": "view",
      "type": "function"
    },
    {
      "inputs": [
        {
          "internalType": "address",
          "name": "recipient",
          "type": "address"
        },
        {
          "internalType": "uint256",
          "name": "amount",
          "type": "uint256"
        }
      ],
      "name": "transfer",
      "outputs": [
        {
          "internalType": "bool",
          "name": "",
          "type": "bool"
        }
      ],
      "stateMutability": "nonpayable",
      "type": "function"
    },
    {
      "inputs": [
        {
          "internalType": "address",
          "name": "sender",
          "type": "address"
        },
        {
          "internalType": "address",
          "name": "recipient",
          "type": "address"
        },
        {
          "internalType": "uint256",
          "name": "amount",
          "type": "uint256"
        }
      ],
      "name": "transferFrom",
      "outputs": [
        {
          "internalType": "bool",
          "name": "",
          "type": "bool"
        }
      ],
      "stateMutability": "nonpayable",
      "type": "function"
    },
    {
      "inputs": [],
      "name": "unpause",
      "outputs": [],
      "stateMutability": "nonpayable",
      "type": "function"
    },
    {
      "inputs": [
        {
          "internalType": "address",
          "name": "newImplementation",
          "type": "address"
        }
      ],
      "name": "upgradeTo",
      "outputs": [],
      "stateMutability": "nonpayable",
      "type": "function"
    },
    {
      "inputs": [
        {
          "internalType": "address",
          "name": "newImplementation",
          "type": "address"
        },
        {
          "internalType": "bytes",
          "name": "data",
          "type": "bytes"
        }
      ],
      "name": "upgradeToAndCall",
      "outputs": [],
      "stateMutability": "payable",
      "type": "function"
    }
  ],
  "bytecode": "0x60a06040523060805234801561001457600080fd5b5060805161306a610045600039600081816108050152818161089b01528181610c870152610d1d015261306a6000f3fe6080604052600436106101e35760003560e01c80634f1ef28611610102578063a217fddf11610095578063d539139311610064578063d539139314610595578063d547741f146105c9578063dd62ed3e146105e9578063e63ab1e91461062f57600080fd5b8063a217fddf14610520578063a457c2d714610535578063a9059cbb14610555578063ca15c8731461057557600080fd5b80638456cb59116100d15780638456cb59146104785780639010d07c1461048d57806391d14854146104c557806395d89b411461050b57600080fd5b80634f1ef286146103f65780635c975abb1461040957806370a082311461042257806379cc67901461045857600080fd5b8063355274ea1161017a5780633f4ba83a116101495780633f4ba83a1461038157806340c10f191461039657806342966c68146103b65780634cd88b76146103d657600080fd5b8063355274ea1461030c57806336568abe146103215780633659cfe614610341578063395093511461036157600080fd5b806323b872dd116101b657806323b872dd1461027e578063248a9ca31461029e5780632f2ff15d146102ce578063313ce567146102f057600080fd5b806301ffc9a7146101e857806306fdde031461021d578063095ea7b31461023f57806318160ddd1461025f575b600080fd5b3480156101f457600080fd5b50610208610203366004612a62565b610663565b60405190151581526020015b60405180910390f35b34801561022957600080fd5b50610232610674565b6040516102149190612ad0565b34801561024b57600080fd5b5061020861025a366004612b3d565b610706565b34801561026b57600080fd5b5060cb545b604051908152602001610214565b34801561028a57600080fd5b50610208610299366004612b67565b61071c565b3480156102aa57600080fd5b506102706102b9366004612ba3565b60009081526065602052604090206001015490565b3480156102da57600080fd5b506102ee6102e9366004612bbc565b6107e2565b005b3480156102fc57600080fd5b5060405160128152602001610214565b34801561031857600080fd5b5060fb54610270565b34801561032d57600080fd5b506102ee61033c366004612bbc565b6107f0565b34801561034d57600080fd5b506102ee61035c366004612be8565b6107fa565b34801561036d57600080fd5b5061020861037c366004612b3d565b610998565b34801561038d57600080fd5b506102ee6109d4565b3480156103a257600080fd5b506102ee6103b1366004612b3d565b610a7a565b3480156103c257600080fd5b506102ee6103d1366004612ba3565b610b20565b3480156103e257600080fd5b506102ee6103f1366004612ce6565b610b2a565b6102ee610404366004612d4a565b610c7c565b34801561041557600080fd5b506101605460ff16610208565b34801561042e57600080fd5b5061027061043d366004612be8565b6001600160a01b0316600090815260c9602052604090205490565b34801561046457600080fd5b506102ee610473366004612b3d565b610e07565b34801561048457600080fd5b506102ee610ea1565b34801561049957600080fd5b506104ad6104a8366004612da2565b610f45565b6040516001600160a01b039091168152602001610214565b3480156104d157600080fd5b506102086104e0366004612bbc565b60009182526065602090815260408084206001600160a01b0393909316845291905290205460ff1690565b34801561051757600080fd5b50610232610f5d565b34801561052c57600080fd5b50610270600081565b34801561054157600080fd5b50610208610550366004612b3d565b610f6c565b34801561056157600080fd5b50610208610570366004612b3d565b61101d565b34801561058157600080fd5b50610270610590366004612ba3565b61102a565b3480156105a157600080fd5b506102707f9f2df0fed2c77648de5860a4cc508cd0818c85b8b8a1ab4ceeef8d981c8956a681565b3480156105d557600080fd5b506102ee6105e4366004612bbc565b611041565b3480156105f557600080fd5b50610270610604366004612dc4565b6001600160a01b03918216600090815260ca6020908152604080832093909416825291909152205490565b34801561063b57600080fd5b506102707f65d7a28e3265b37a6474929f336521b332c1681b933f6cb9f3376673440d862a81565b600061066e8261104b565b92915050565b606060cc805461068390612dee565b80601f01602080910402602001604051908101604052809291908181526020018280546106af90612dee565b80156106fc5780601f106106d1576101008083540402835291602001916106fc565b820191906000526020600020905b8154815290600101906020018083116106df57829003601f168201915b5050505050905090565b60006107133384846110a1565b50600192915050565b60006107298484846111f9565b6001600160a01b038416600090815260ca60209081526040808320338452909152902054828110156107c85760405162461bcd60e51b815260206004820152602860248201527f45524332303a207472616e7366657220616d6f756e742065786365656473206160448201527f6c6c6f77616e636500000000000000000000000000000000000000000000000060648201526084015b60405180910390fd5b6107d585338584036110a1565b60019150505b9392505050565b6107ec828261141d565b5050565b6107ec828261143f565b306001600160a01b037f00000000000000000000000000000000000000000000000000000000000000001614156108995760405162461bcd60e51b815260206004820152602c60248201527f46756e6374696f6e206d7573742062652063616c6c6564207468726f7567682060448201527f64656c656761746563616c6c000000000000000000000000000000000000000060648201526084016107bf565b7f00000000000000000000000000000000000000000000000000000000000000006001600160a01b03166108f47f360894a13ba1a3210667c828492db98dca3e2076cc3735a920a3ca505d382bbc546001600160a01b031690565b6001600160a01b0316146109705760405162461bcd60e51b815260206004820152602c60248201527f46756e6374696f6e206d7573742062652063616c6c6564207468726f7567682060448201527f6163746976652070726f7879000000000000000000000000000000000000000060648201526084016107bf565b61097981611461565b60408051600080825260208201909252610995918391906114b8565b50565b33600081815260ca602090815260408083206001600160a01b038716845290915281205490916107139185906109cf908690612e71565b6110a1565b6109fe7f65d7a28e3265b37a6474929f336521b332c1681b933f6cb9f3376673440d862a336104e0565b610a705760405162461bcd60e51b815260206004820152603960248201527f45524332305072657365744d696e7465725061757365723a206d75737420686160448201527f76652070617573657220726f6c6520746f20756e70617573650000000000000060648201526084016107bf565b610a7861169a565b565b610aa47f9f2df0fed2c77648de5860a4cc508cd0818c85b8b8a1ab4ceeef8d981c8956a6336104e0565b610b165760405162461bcd60e51b815260206004820152603660248201527f45524332305072657365744d696e7465725061757365723a206d75737420686160448201527f7665206d696e74657220726f6c6520746f206d696e740000000000000000000060648201526084016107bf565b6107ec8282611738565b6109953382611742565b600054610100900460ff1680610b43575060005460ff16155b610bb55760405162461bcd60e51b815260206004820152602e60248201527f496e697469616c697a61626c653a20636f6e747261637420697320616c72656160448201527f647920696e697469616c697a656400000000000000000000000000000000000060648201526084016107bf565b600054610100900460ff16158015610bd7576000805461ffff19166101011790555b610bdf6118d3565b610be76118d3565b610bef6118d3565b610bf76118d3565b610c0183836119b1565b610c166b204fce5e3e25026110000000611ab9565b610c1e6118d3565b610c26611bed565b610c2e6118d3565b610c388383611cd6565b610c406118d3565b610c486118d3565b8015610c7757600080547fffffffffffffffffffffffffffffffffffffffffffffffffffffffffffff00ff1690555b505050565b306001600160a01b037f0000000000000000000000000000000000000000000000000000000000000000161415610d1b5760405162461bcd60e51b815260206004820152602c60248201527f46756e6374696f6e206d7573742062652063616c6c6564207468726f7567682060448201527f64656c656761746563616c6c000000000000000000000000000000000000000060648201526084016107bf565b7f00000000000000000000000000000000000000000000000000000000000000006001600160a01b0316610d767f360894a13ba1a3210667c828492db98dca3e2076cc3735a920a3ca505d382bbc546001600160a01b031690565b6001600160a01b031614610df25760405162461bcd60e51b815260206004820152602c60248201527f46756e6374696f6e206d7573742062652063616c6c6564207468726f7567682060448201527f6163746976652070726f7879000000000000000000000000000000000000000060648201526084016107bf565b610dfb82611461565b6107ec828260016114b8565b6000610e138333610604565b905081811015610e8a5760405162461bcd60e51b8152602060048201526024808201527f45524332303a206275726e20616d6f756e74206578636565647320616c6c6f7760448201527f616e63650000000000000000000000000000000000000000000000000000000060648201526084016107bf565b610e9783338484036110a1565b610c778383611742565b610ecb7f65d7a28e3265b37a6474929f336521b332c1681b933f6cb9f3376673440d862a336104e0565b610f3d5760405162461bcd60e51b815260206004820152603760248201527f45524332305072657365744d696e7465725061757365723a206d75737420686160448201527f76652070617573657220726f6c6520746f20706175736500000000000000000060648201526084016107bf565b610a78611de2565b60008281526097602052604081206107db9083611e6c565b606060cd805461068390612dee565b33600090815260ca602090815260408083206001600160a01b0386168452909152812054828110156110065760405162461bcd60e51b815260206004820152602560248201527f45524332303a2064656372656173656420616c6c6f77616e63652062656c6f7760448201527f207a65726f00000000000000000000000000000000000000000000000000000060648201526084016107bf565b61101333858584036110a1565b5060019392505050565b60006107133384846111f9565b600081815260976020526040812061066e90611e78565b6107ec8282611e82565b60007fffffffff0000000000000000000000000000000000000000000000000000000082167f5a05180f00000000000000000000000000000000000000000000000000000000148061066e575061066e82611e8c565b6001600160a01b03831661111c5760405162461bcd60e51b8152602060048201526024808201527f45524332303a20617070726f76652066726f6d20746865207a65726f2061646460448201527f726573730000000000000000000000000000000000000000000000000000000060648201526084016107bf565b6001600160a01b0382166111985760405162461bcd60e51b815260206004820152602260248201527f45524332303a20617070726f766520746f20746865207a65726f20616464726560448201527f737300000000000000000000000000000000000000000000000000000000000060648201526084016107bf565b6001600160a01b03838116600081815260ca602090815260408083209487168084529482529182902085905590518481527f8c5be1e5ebec7d5bd14f71427d1e84f3dd0314c0f7b2291e5b200ac8c7c3b925910160405180910390a3505050565b6001600160a01b0383166112755760405162461bcd60e51b815260206004820152602560248201527f45524332303a207472616e736665722066726f6d20746865207a65726f20616460448201527f647265737300000000000000000000000000000000000000000000000000000060648201526084016107bf565b6001600160a01b0382166112f15760405162461bcd60e51b815260206004820152602360248201527f45524332303a207472616e7366657220746f20746865207a65726f206164647260448201527f657373000000000000000000000000000000000000000000000000000000000060648201526084016107bf565b6112fc838383611f23565b6001600160a01b038316600090815260c960205260409020548181101561138b5760405162461bcd60e51b815260206004820152602660248201527f45524332303a207472616e7366657220616d6f756e742065786365656473206260448201527f616c616e6365000000000000000000000000000000000000000000000000000060648201526084016107bf565b6001600160a01b03808516600090815260c960205260408082208585039055918516815290812080548492906113c2908490612e71565b92505081905550826001600160a01b0316846001600160a01b03167fddf252ad1be2c89b69c2b068fc378daa952ba7f163c4a11628f55a4df523b3ef8460405161140e91815260200190565b60405180910390a35b50505050565b6114278282611f2e565b6000828152609760205260409020610c779082611f54565b6114498282611f69565b6000828152609760205260409020610c779082611ff1565b61146c6000336104e0565b6109955760405162461bcd60e51b815260206004820152601e60248201527f506f6e643a206d7573742062652061646d696e20746f2075706772616465000060448201526064016107bf565b60006114eb7f360894a13ba1a3210667c828492db98dca3e2076cc3735a920a3ca505d382bbc546001600160a01b031690565b90506114f684612006565b6000835111806115035750815b156115145761151284846120d3565b505b7f4910fdfa16fed3260ed0e7147f7cc6da11a60208b5b9406d12a635614ffd9143805460ff1661169357805460ff191660011781556040516001600160a01b03831660248201526115df908690604401604080517fffffffffffffffffffffffffffffffffffffffffffffffffffffffffffffffe08184030181529190526020810180517bffffffffffffffffffffffffffffffffffffffffffffffffffffffff167f3659cfe6000000000000000000000000000000000000000000000000000000001790526120d3565b50805460ff191681557f360894a13ba1a3210667c828492db98dca3e2076cc3735a920a3ca505d382bbc546001600160a01b0383811691161461168a5760405162461bcd60e51b815260206004820152602f60248201527f45524331393637557067726164653a207570677261646520627265616b73206660448201527f757274686572207570677261646573000000000000000000000000000000000060648201526084016107bf565b611693856121d5565b5050505050565b6101605460ff166116ed5760405162461bcd60e51b815260206004820152601460248201527f5061757361626c653a206e6f742070617573656400000000000000000000000060448201526064016107bf565b610160805460ff191690557f5db9ee0a495bf2e6ff9c91a7834c1ba4fdd244a5e8aa4e537bd38aeae4b073aa335b6040516001600160a01b03909116815260200160405180910390a1565b6107ec8282612215565b6001600160a01b0382166117be5760405162461bcd60e51b815260206004820152602160248201527f45524332303a206275726e2066726f6d20746865207a65726f2061646472657360448201527f730000000000000000000000000000000000000000000000000000000000000060648201526084016107bf565b6117ca82600083611f23565b6001600160a01b038216600090815260c96020526040902054818110156118595760405162461bcd60e51b815260206004820152602260248201527f45524332303a206275726e20616d6f756e7420657863656564732062616c616e60448201527f636500000000000000000000000000000000000000000000000000000000000060648201526084016107bf565b6001600160a01b038316600090815260c960205260408120838303905560cb8054849290611888908490612e89565b90915550506040518281526000906001600160a01b038516907fddf252ad1be2c89b69c2b068fc378daa952ba7f163c4a11628f55a4df523b3ef9060200160405180910390a3505050565b600054610100900460ff16806118ec575060005460ff16155b61195e5760405162461bcd60e51b815260206004820152602e60248201527f496e697469616c697a61626c653a20636f6e747261637420697320616c72656160448201527f647920696e697469616c697a656400000000000000000000000000000000000060648201526084016107bf565b600054610100900460ff16158015611980576000805461ffff19166101011790555b801561099557600080547fffffffffffffffffffffffffffffffffffffffffffffffffffffffffffff00ff16905550565b600054610100900460ff16806119ca575060005460ff16155b611a3c5760405162461bcd60e51b815260206004820152602e60248201527f496e697469616c697a61626c653a20636f6e747261637420697320616c72656160448201527f647920696e697469616c697a656400000000000000000000000000000000000060648201526084016107bf565b600054610100900460ff16158015611a5e576000805461ffff19166101011790555b8251611a719060cc9060208601906129c9565b508151611a859060cd9060208501906129c9565b508015610c7757600080547fffffffffffffffffffffffffffffffffffffffffffffffffffffffffffff00ff169055505050565b600054610100900460ff1680611ad2575060005460ff16155b611b445760405162461bcd60e51b815260206004820152602e60248201527f496e697469616c697a61626c653a20636f6e747261637420697320616c72656160448201527f647920696e697469616c697a656400000000000000000000000000000000000060648201526084016107bf565b600054610100900460ff16158015611b66576000805461ffff19166101011790555b60008211611bb65760405162461bcd60e51b815260206004820152601560248201527f45524332304361707065643a206361702069732030000000000000000000000060448201526064016107bf565b60fb82905580156107ec57600080547fffffffffffffffffffffffffffffffffffffffffffffffffffffffffffff00ff1690555050565b600054610100900460ff1680611c06575060005460ff16155b611c785760405162461bcd60e51b815260206004820152602e60248201527f496e697469616c697a61626c653a20636f6e747261637420697320616c72656160448201527f647920696e697469616c697a656400000000000000000000000000000000000060648201526084016107bf565b600054610100900460ff16158015611c9a576000805461ffff19166101011790555b610160805460ff19169055801561099557600080547fffffffffffffffffffffffffffffffffffffffffffffffffffffffffffff00ff16905550565b600054610100900460ff1680611cef575060005460ff16155b611d615760405162461bcd60e51b815260206004820152602e60248201527f496e697469616c697a61626c653a20636f6e747261637420697320616c72656160448201527f647920696e697469616c697a656400000000000000000000000000000000000060648201526084016107bf565b600054610100900460ff16158015611d83576000805461ffff19166101011790555b611d8e600033612284565b611db87f9f2df0fed2c77648de5860a4cc508cd0818c85b8b8a1ab4ceeef8d981c8956a633612284565b610c487f65d7a28e3265b37a6474929f336521b332c1681b933f6cb9f3376673440d862a33612284565b6101605460ff1615611e365760405162461bcd60e51b815260206004820152601060248201527f5061757361626c653a207061757365640000000000000000000000000000000060448201526064016107bf565b610160805460ff191660011790557f62e78cea01bee320cd4e420270b5ea74000d11b0c9f74754ebdbfc544b05a25861171b3390565b60006107db838361228e565b600061066e825490565b61144982826122b8565b60007fffffffff0000000000000000000000000000000000000000000000000000000082167f7965db0b00000000000000000000000000000000000000000000000000000000148061066e57507f01ffc9a7000000000000000000000000000000000000000000000000000000007fffffffff0000000000000000000000000000000000000000000000000000000083161461066e565b610c778383836122de565b600082815260656020526040902060010154611f4a81336122e9565b610c778383612387565b60006107db836001600160a01b038416612429565b6001600160a01b0381163314611fe75760405162461bcd60e51b815260206004820152602f60248201527f416363657373436f6e74726f6c3a2063616e206f6e6c792072656e6f756e636560448201527f20726f6c657320666f722073656c66000000000000000000000000000000000060648201526084016107bf565b6107ec8282612478565b60006107db836001600160a01b0384166124fb565b803b61207a5760405162461bcd60e51b815260206004820152602d60248201527f455243313936373a206e657720696d706c656d656e746174696f6e206973206e60448201527f6f74206120636f6e74726163740000000000000000000000000000000000000060648201526084016107bf565b7f360894a13ba1a3210667c828492db98dca3e2076cc3735a920a3ca505d382bbc80547fffffffffffffffffffffffff0000000000000000000000000000000000000000166001600160a01b0392909216919091179055565b6060823b6121495760405162461bcd60e51b815260206004820152602660248201527f416464726573733a2064656c65676174652063616c6c20746f206e6f6e2d636f60448201527f6e7472616374000000000000000000000000000000000000000000000000000060648201526084016107bf565b600080846001600160a01b0316846040516121649190612ea0565b600060405180830381855af49150503d806000811461219f576040519150601f19603f3d011682016040523d82523d6000602084013e6121a4565b606091505b50915091506121cc828260405180606001604052806027815260200161300e602791396125ee565b95945050505050565b6121de81612006565b6040516001600160a01b038216907fbc7cd75a20ee27fd9adebab32041f755214dbc6bffa90cc0225b39da2e5c2d3b90600090a250565b60fb548161222260cb5490565b61222c9190612e71565b111561227a5760405162461bcd60e51b815260206004820152601960248201527f45524332304361707065643a206361702065786365656465640000000000000060448201526064016107bf565b6107ec8282612627565b6107ec8282612712565b60008260000182815481106122a5576122a5612ebc565b9060005260206000200154905092915050565b6000828152606560205260409020600101546122d481336122e9565b610c778383612478565b610c7783838361271c565b60008281526065602090815260408083206001600160a01b038516845290915290205460ff166107ec57612327816001600160a01b03166014612796565b612332836020612796565b604051602001612343929190612eeb565b604080517fffffffffffffffffffffffffffffffffffffffffffffffffffffffffffffffe08184030181529082905262461bcd60e51b82526107bf91600401612ad0565b60008281526065602090815260408083206001600160a01b038516845290915290205460ff166107ec5760008281526065602090815260408083206001600160a01b03851684529091529020805460ff191660011790556123e53390565b6001600160a01b0316816001600160a01b0316837f2f8788117e7eff1d82e926ec794901d17c78024a50270940304540a733656f0d60405160405180910390a45050565b60008181526001830160205260408120546124705750815460018181018455600084815260208082209093018490558454848252828601909352604090209190915561066e565b50600061066e565b60008281526065602090815260408083206001600160a01b038516845290915290205460ff16156107ec5760008281526065602090815260408083206001600160a01b0385168085529252808320805460ff1916905551339285917ff6391f5c32d9c69d2a47ea670b442974b53935d1edc7fd64eb21e047a839171b9190a45050565b600081815260018301602052604081205480156125e457600061251f600183612e89565b855490915060009061253390600190612e89565b905081811461259857600086600001828154811061255357612553612ebc565b906000526020600020015490508087600001848154811061257657612576612ebc565b6000918252602080832090910192909255918252600188019052604090208390555b85548690806125a9576125a9612f6c565b60019003818190600052602060002001600090559055856001016000868152602001908152602001600020600090556001935050505061066e565b600091505061066e565b606083156125fd5750816107db565b82511561260d5782518084602001fd5b8160405162461bcd60e51b81526004016107bf9190612ad0565b6001600160a01b03821661267d5760405162461bcd60e51b815260206004820152601f60248201527f45524332303a206d696e7420746f20746865207a65726f20616464726573730060448201526064016107bf565b61268960008383611f23565b8060cb600082825461269b9190612e71565b90915550506001600160a01b038216600090815260c96020526040812080548392906126c8908490612e71565b90915550506040518181526001600160a01b038316906000907fddf252ad1be2c89b69c2b068fc378daa952ba7f163c4a11628f55a4df523b3ef9060200160405180910390a35050565b61142782826129bf565b6101605460ff1615610c775760405162461bcd60e51b815260206004820152602a60248201527f45524332305061757361626c653a20746f6b656e207472616e7366657220776860448201527f696c65207061757365640000000000000000000000000000000000000000000060648201526084016107bf565b606060006127a5836002612f9b565b6127b0906002612e71565b67ffffffffffffffff8111156127c8576127c8612c03565b6040519080825280601f01601f1916602001820160405280156127f2576020820181803683370190505b5090507f30000000000000000000000000000000000000000000000000000000000000008160008151811061282957612829612ebc565b60200101907effffffffffffffffffffffffffffffffffffffffffffffffffffffffffffff1916908160001a9053507f78000000000000000000000000000000000000000000000000000000000000008160018151811061288c5761288c612ebc565b60200101907effffffffffffffffffffffffffffffffffffffffffffffffffffffffffffff1916908160001a90535060006128c8846002612f9b565b6128d3906001612e71565b90505b6001811115612970577f303132333435363738396162636465660000000000000000000000000000000085600f166010811061291457612914612ebc565b1a60f81b82828151811061292a5761292a612ebc565b60200101907effffffffffffffffffffffffffffffffffffffffffffffffffffffffffffff1916908160001a90535060049490941c9361296981612fd8565b90506128d6565b5083156107db5760405162461bcd60e51b815260206004820181905260248201527f537472696e67733a20686578206c656e67746820696e73756666696369656e7460448201526064016107bf565b6107ec8282612387565b8280546129d590612dee565b90600052602060002090601f0160209004810192826129f75760008555612a3d565b82601f10612a1057805160ff1916838001178555612a3d565b82800160010185558215612a3d579182015b82811115612a3d578251825591602001919060010190612a22565b50612a49929150612a4d565b5090565b5b80821115612a495760008155600101612a4e565b600060208284031215612a7457600080fd5b81357fffffffff00000000000000000000000000000000000000000000000000000000811681146107db57600080fd5b60005b83811015612abf578181015183820152602001612aa7565b838111156114175750506000910152565b6020815260008251806020840152612aef816040850160208701612aa4565b601f017fffffffffffffffffffffffffffffffffffffffffffffffffffffffffffffffe0169190910160400192915050565b80356001600160a01b0381168114612b3857600080fd5b919050565b60008060408385031215612b5057600080fd5b612b5983612b21565b946020939093013593505050565b600080600060608486031215612b7c57600080fd5b612b8584612b21565b9250612b9360208501612b21565b9150604084013590509250925092565b600060208284031215612bb557600080fd5b5035919050565b60008060408385031215612bcf57600080fd5b82359150612bdf60208401612b21565b90509250929050565b600060208284031215612bfa57600080fd5b6107db82612b21565b7f4e487b7100000000000000000000000000000000000000000000000000000000600052604160045260246000fd5b600067ffffffffffffffff80841115612c4d57612c4d612c03565b604051601f85017fffffffffffffffffffffffffffffffffffffffffffffffffffffffffffffffe0908116603f01168101908282118183101715612c9357612c93612c03565b81604052809350858152868686011115612cac57600080fd5b858560208301376000602087830101525050509392505050565b600082601f830112612cd757600080fd5b6107db83833560208501612c32565b60008060408385031215612cf957600080fd5b823567ffffffffffffffff80821115612d1157600080fd5b612d1d86838701612cc6565b93506020850135915080821115612d3357600080fd5b50612d4085828601612cc6565b9150509250929050565b60008060408385031215612d5d57600080fd5b612d6683612b21565b9150602083013567ffffffffffffffff811115612d8257600080fd5b8301601f81018513612d9357600080fd5b612d4085823560208401612c32565b60008060408385031215612db557600080fd5b50508035926020909101359150565b60008060408385031215612dd757600080fd5b612de083612b21565b9150612bdf60208401612b21565b600181811c90821680612e0257607f821691505b60208210811415612e3c577f4e487b7100000000000000000000000000000000000000000000000000000000600052602260045260246000fd5b50919050565b7f4e487b7100000000000000000000000000000000000000000000000000000000600052601160045260246000fd5b60008219821115612e8457612e84612e42565b500190565b600082821015612e9b57612e9b612e42565b500390565b60008251612eb2818460208701612aa4565b9190910192915050565b7f4e487b7100000000000000000000000000000000000000000000000000000000600052603260045260246000fd5b7f416363657373436f6e74726f6c3a206163636f756e7420000000000000000000815260008351612f23816017850160208801612aa4565b7f206973206d697373696e6720726f6c65200000000000000000000000000000006017918401918201528351612f60816028840160208801612aa4565b01602801949350505050565b7f4e487b7100000000000000000000000000000000000000000000000000000000600052603160045260246000fd5b6000817fffffffffffffffffffffffffffffffffffffffffffffffffffffffffffffffff0483118215151615612fd357612fd3612e42565b500290565b600081612fe757612fe7612e42565b507fffffffffffffffffffffffffffffffffffffffffffffffffffffffffffffffff019056fe416464726573733a206c6f772d6c6576656c2064656c65676174652063616c6c206661696c6564a2646970667358221220e21ed1b8bb2b83331da17e0e8f3cc282256d7d2682ba52ceb9d58863f738431164736f6c63430008090033",
  "linkReferences": {},
  "deployedLinkReferences": {}
}