{
  "contractName": "CapacityProxy",
  "abi": [
    {
      "inputs": [
        {
          "name": "contractLogic",
          "type": "address"
        }
      ],
      "payable": false,
      "stateMutability": "nonpayable",
      "type": "constructor"
    },
    {
      "payable": true,
      "stateMutability": "payable",
      "type": "fallback"
    },
    {
      "constant": false,
      "inputs": [
        {
          "name": "_newLogic",
          "type": "address"
        }
      ],
      "name": "updateLogic",
      "outputs": [],
      "payable": false,
      "stateMutability": "nonpayable",
      "type": "function"
    }
  ],
  "bytecode": "0x608060405234801561001057600080fd5b5060405160208061033c8339810180604052602081101561003057600080fd5b5051604080517f656970313936372e70726f78792e696d706c656d656e746174696f6e000000008152815190819003601c018120600019908101939093557f656970313936372e70726f78792e61646d696e00000000000000000000000000815290519081900360130190203391015561028d806100af6000396000f3fe6080604052600436106100405763ffffffff7c0100000000000000000000000000000000000000000000000000000000600035041663795e617e81146100bf575b604080517f656970313936372e70726f78792e696d706c656d656e746174696f6e000000008152905190819003601c0190207fffffffffffffffffffffffffffffffffffffffffffffffffffffffffffffffff0180543660008037600080366000846127105a03f43d806000803e8180156100ba57816000f35b816000fd5b3480156100cb57600080fd5b506100ff600480360360208110156100e257600080fd5b503573ffffffffffffffffffffffffffffffffffffffff16610101565b005b610109610209565b73ffffffffffffffffffffffffffffffffffffffff1633146101b257604080517f08c379a000000000000000000000000000000000000000000000000000000000815260206004820152603160248201527f4f6e6c792041646d696e2073686f756c642062652061626c6520746f2075706460448201527f6174652074686520636f6e747261637473000000000000000000000000000000606482015290519081900360840190fd5b604080517f656970313936372e70726f78792e696d706c656d656e746174696f6e000000008152905190819003601c0190207fffffffffffffffffffffffffffffffffffffffffffffffffffffffffffffffff0155565b604080517f656970313936372e70726f78792e61646d696e00000000000000000000000000815290519081900360130190207fffffffffffffffffffffffffffffffffffffffffffffffffffffffffffffffff01549056fea165627a7a7230582090d88a69588f18a243c383be2ba2c9db3d47bac118792ff6d93f8578e7c708f30029",
  "source": "pragma solidity >=0.4.21 <0.7.0;\n\n\n/// @title Contract to reward overlapping stakes\n/// @author Marlin\n/// @notice Use this contract only for testing\n/// @dev Contract may or may not change in future (depending upon the new slots in proxy-store)\ncontract CapacityProxy {\n    bytes32 internal constant IMPLEMENTATION_SLOT = bytes32(\n        uint256(keccak256(\"eip1967.proxy.implementation\")) - 1\n    );\n    bytes32 internal constant PROXY_ADMIN_SLOT = bytes32(\n        uint256(keccak256(\"eip1967.proxy.admin\")) - 1\n    );\n\n    constructor(address contractLogic) public {\n        // save the code address\n        bytes32 slot = IMPLEMENTATION_SLOT;\n        // solhint-disable-next-line\n        assembly {\n            sstore(slot, contractLogic)\n        }\n        // save the proxy admin\n        slot = PROXY_ADMIN_SLOT;\n        address sender = msg.sender;\n        // solhint-disable-next-line\n        assembly {\n            sstore(slot, sender)\n        }\n    }\n\n    /// @author Marlin\n    /// @dev Only admin can update the contract\n    /// @param _newLogic address is the address of the contract that has to updated to\n    function updateLogic(address _newLogic) public {\n        require(\n            msg.sender == getAdmin(),\n            \"Only Admin should be able to update the contracts\"\n        );\n        bytes32 slot = IMPLEMENTATION_SLOT;\n        assembly {\n            sstore(slot, _newLogic)\n        }\n    }\n\n    /// @author Marlin\n    /// @dev use assembly as contract store slot is manually decided\n    function getAdmin() internal view returns (address result) {\n        bytes32 slot = PROXY_ADMIN_SLOT;\n        assembly {\n            result := sload(slot)\n        }\n    }\n\n    /// @author Marlin\n    /// @dev add functionality to forward the balance as well.\n    function() external payable {\n        bytes32 slot = IMPLEMENTATION_SLOT;\n        // solhint-disable-next-line\n        assembly {\n            let contractLogic := sload(slot)\n            calldatacopy(0x0, 0x0, calldatasize())\n            let success := delegatecall(\n                sub(gas(), 10000),\n                contractLogic,\n                0x0,\n                calldatasize(),\n                0,\n                0\n            )\n            let retSz := returndatasize()\n            returndatacopy(0, 0, retSz)\n\n            switch success\n                case 0 {\n                    revert(0, retSz)\n                }\n                default {\n                    return(0, retSz)\n                }\n        }\n    }\n}\n",
  "sourcePath": "/home/app/contracts/Capacity/CapacityProxy.sol",
  "compiler": {
    "name": "solc",
    "version": "0.5.0+commit.1d4f565a.Emscripten.clang"
  },
  "schemaVersion": "3.2.0",
  "updatedAt": "2020-05-25T18:28:27.018Z",
  "networkType": "ethereum",
  "devdoc": {
    "author": "Marlin",
    "details": "Contract may or may not change in future (depending upon the new slots in proxy-store)",
    "methods": {
      "updateLogic(address)": {
        "author": "Marlin",
        "details": "Only admin can update the contract",
        "params": {
          "_newLogic": "address is the address of the contract that has to updated to"
        }
      }
    },
    "title": "Contract to reward overlapping stakes"
  },
  "userdoc": {
    "methods": {},
    "notice": "Use this contract only for testing"
  }
}