{
  "contractName": "CapacityLogic",
  "abi": [
    {
      "constant": true,
      "inputs": [
        {
          "name": "",
          "type": "address"
        }
      ],
      "name": "lockedBalances",
      "outputs": [
        {
          "name": "",
          "type": "uint256"
        }
      ],
      "payable": false,
      "stateMutability": "view",
      "type": "function"
    },
    {
      "constant": true,
      "inputs": [],
      "name": "STAKE_TRANSFER_PERCENT",
      "outputs": [
        {
          "name": "",
          "type": "uint256"
        }
      ],
      "payable": false,
      "stateMutability": "view",
      "type": "function"
    },
    {
      "constant": false,
      "inputs": [
        {
          "name": "_amount",
          "type": "uint256"
        }
      ],
      "name": "withdraw",
      "outputs": [
        {
          "name": "",
          "type": "uint256"
        }
      ],
      "payable": false,
      "stateMutability": "nonpayable",
      "type": "function"
    },
    {
      "constant": false,
      "inputs": [],
      "name": "withdrawAll",
      "outputs": [
        {
          "name": "",
          "type": "uint256"
        }
      ],
      "payable": false,
      "stateMutability": "nonpayable",
      "type": "function"
    },
    {
      "constant": true,
      "inputs": [
        {
          "name": "",
          "type": "address"
        }
      ],
      "name": "unlockedBalances",
      "outputs": [
        {
          "name": "",
          "type": "uint256"
        }
      ],
      "payable": false,
      "stateMutability": "view",
      "type": "function"
    },
    {
      "constant": true,
      "inputs": [],
      "name": "STAKE_PER_BYTE",
      "outputs": [
        {
          "name": "",
          "type": "uint256"
        }
      ],
      "payable": false,
      "stateMutability": "view",
      "type": "function"
    },
    {
      "constant": false,
      "inputs": [
        {
          "name": "_amount",
          "type": "uint256"
        }
      ],
      "name": "deposit",
      "outputs": [
        {
          "name": "",
          "type": "uint256"
        }
      ],
      "payable": false,
      "stateMutability": "nonpayable",
      "type": "function"
    },
    {
      "constant": true,
      "inputs": [],
      "name": "PRODUCER_STAKE_LOCKTIME",
      "outputs": [
        {
          "name": "",
          "type": "uint32"
        }
      ],
      "payable": false,
      "stateMutability": "view",
      "type": "function"
    },
    {
      "constant": true,
      "inputs": [],
      "name": "token",
      "outputs": [
        {
          "name": "",
          "type": "address"
        }
      ],
      "payable": false,
      "stateMutability": "view",
      "type": "function"
    },
    {
      "anonymous": false,
      "inputs": [
        {
          "indexed": false,
          "name": "sender",
          "type": "address"
        },
        {
          "indexed": false,
          "name": "amount",
          "type": "uint256"
        }
      ],
      "name": "Deposit",
      "type": "event"
    },
    {
      "anonymous": false,
      "inputs": [
        {
          "indexed": false,
          "name": "sender",
          "type": "address"
        },
        {
          "indexed": false,
          "name": "amount",
          "type": "uint256"
        },
        {
          "indexed": false,
          "name": "withdrawn",
          "type": "bool"
        }
      ],
      "name": "Withdraw",
      "type": "event"
    },
    {
      "anonymous": false,
      "inputs": [
        {
          "indexed": false,
          "name": "sender",
          "type": "address"
        },
        {
          "indexed": false,
          "name": "amount",
          "type": "uint256"
        }
      ],
      "name": "Lock",
      "type": "event"
    },
    {
      "anonymous": false,
      "inputs": [
        {
          "indexed": false,
          "name": "sender",
          "type": "address"
        },
        {
          "indexed": false,
          "name": "amount",
          "type": "uint256"
        }
      ],
      "name": "Unlock",
      "type": "event"
    },
    {
      "constant": false,
      "inputs": [
        {
          "name": "_token",
          "type": "address"
        }
      ],
      "name": "initialize",
      "outputs": [],
      "payable": false,
      "stateMutability": "nonpayable",
      "type": "function"
    },
    {
      "constant": false,
      "inputs": [
        {
          "name": "_attestation1",
          "type": "bytes"
        },
        {
          "name": "_attestation2",
          "type": "bytes"
        },
        {
          "name": "_submitterWithdrawAddress",
          "type": "address"
        }
      ],
      "name": "reportOverlappingProducerStakes",
      "outputs": [
        {
          "name": "",
          "type": "bool"
        }
      ],
      "payable": false,
      "stateMutability": "nonpayable",
      "type": "function"
    },
    {
      "constant": true,
      "inputs": [
        {
          "name": "message",
          "type": "bytes"
        },
        {
          "name": "v",
          "type": "uint8"
        },
        {
          "name": "r",
          "type": "bytes32"
        },
        {
          "name": "s",
          "type": "bytes32"
        }
      ],
      "name": "testEcrecover",
      "outputs": [
        {
          "name": "",
          "type": "address"
        }
      ],
      "payable": false,
      "stateMutability": "pure",
      "type": "function"
    }
  ],
  "bytecode": "0x608060405234801561001057600080fd5b506120b7806100206000396000f3fe6080604052600436106100b95763ffffffff7c01000000000000000000000000000000000000000000000000000000006000350416630483a7f681146100be57806311ee7d61146100f45780632e1a7d4d1461010957806333341f3314610129578063853828b6146101565780638c8ba66d1461016b5780638f1ffccb1461018b578063b6b55f25146101a0578063c4d66de8146101c0578063e57458ef146101e2578063e9199b1f1461020f578063fc0c546a14610231575b600080fd5b3480156100ca57600080fd5b506100de6100d9366004611962565b610253565b6040516100eb9190612014565b60405180910390f35b34801561010057600080fd5b506100de610265565b34801561011557600080fd5b506100de610124366004611a94565b61026b565b34801561013557600080fd5b50610149610144366004611a24565b6103da565b6040516100eb9190611e86565b34801561016257600080fd5b506100de61059e565b34801561017757600080fd5b506100de610186366004611962565b6106e6565b34801561019757600080fd5b506100de6106f8565b3480156101ac57600080fd5b506100de6101bb366004611a94565b6106fe565b3480156101cc57600080fd5b506101e06101db366004611962565b6109d1565b005b3480156101ee57600080fd5b506102026101fd36600461199e565b610b08565b6040516100eb9190611f28565b34801561021b57600080fd5b50610224610e7d565b6040516100eb9190612022565b34801561023d57600080fd5b50610246610e89565b6040516100eb9190611f36565b60346020526000908152604090205481565b606a5481565b336000908152603560205260408120548211156102bd576040517f08c379a00000000000000000000000000000000000000000000000000000000081526004016102b490611fa4565b60405180910390fd5b336000908152603560205260409020546102dd908363ffffffff610ea516565b33600081815260356020526040908190209290925560335491517fa9059cbb00000000000000000000000000000000000000000000000000000000815273ffffffffffffffffffffffffffffffffffffffff9092169163a9059cbb91610347918690600401611ee5565b602060405180830381600087803b15801561036157600080fd5b505af1158015610375573d6000803e3d6000fd5b505050506040513d601f19601f820116820180604052506103999190810190611980565b507f039d3e7ccc0d8edf3fb8206bf9f58888c4cced8c157c730a2407a54aad7c865c338360016040516103ce93929190611f00565b60405180910390a15090565b600060606040805190810160405280601c81526020017f19457468657265756d205369676e6564204d6573736167653a0a333200000000815250905060008787604051602001808383808284378083019250505092505050604051602081830303815290604052805190602001209050600082826040516020018083805190602001908083835b6020831061049e57805182527fffffffffffffffffffffffffffffffffffffffffffffffffffffffffffffffe09092019160209182019101610461565b51815160209384036101000a7fffffffffffffffffffffffffffffffffffffffffffffffffffffffffffffffff0180199092169116179052920193845250604080518085038152848301808352815191840191909120600090915281850180835281905260ff8d166060860152608085018c905260a085018b905290519095506001945060c0808501949293507fffffffffffffffffffffffffffffffffffffffffffffffffffffffffffffffe08201928290030190855afa158015610568573d6000803e3d6000fd5b50506040517fffffffffffffffffffffffffffffffffffffffffffffffffffffffffffffffe001519a9950505050505050505050565b3360009081526035602052604081205481106105e6576040517f08c379a00000000000000000000000000000000000000000000000000000000081526004016102b490611fa4565b33600081815260356020526040808220805492905560335490517fa9059cbb000000000000000000000000000000000000000000000000000000008152919273ffffffffffffffffffffffffffffffffffffffff9091169163a9059cbb91610652918590600401611ee5565b602060405180830381600087803b15801561066c57600080fd5b505af1158015610680573d6000803e3d6000fd5b505050506040513d601f19601f820116820180604052506106a49190810190611980565b507f039d3e7ccc0d8edf3fb8206bf9f58888c4cced8c157c730a2407a54aad7c865c338260016040516106d993929190611f00565b60405180910390a1905090565b60356020526000908152604090205481565b60695481565b6033546040517f70a08231000000000000000000000000000000000000000000000000000000008152600091839173ffffffffffffffffffffffffffffffffffffffff909116906370a0823190610759903390600401611e94565b60206040518083038186803b15801561077157600080fd5b505afa158015610785573d6000803e3d6000fd5b505050506040513d601f19601f820116820180604052506107a99190810190611ab2565b10156107e1576040517f08c379a00000000000000000000000000000000000000000000000000000000081526004016102b490611f64565b6033546040517fdd62ed3e000000000000000000000000000000000000000000000000000000008152839173ffffffffffffffffffffffffffffffffffffffff169063dd62ed3e906108399033903090600401611ea2565b60206040518083038186803b15801561085157600080fd5b505afa158015610865573d6000803e3d6000fd5b505050506040513d601f19601f820116820180604052506108899190810190611ab2565b10156108c1576040517f08c379a00000000000000000000000000000000000000000000000000000000081526004016102b490611ff4565b336000908152603460205260409020546108e1908363ffffffff610eec16565b33600081815260346020526040908190209290925560335491517f23b872dd00000000000000000000000000000000000000000000000000000000815273ffffffffffffffffffffffffffffffffffffffff909216916323b872dd9161094d9130908790600401611ebd565b602060405180830381600087803b15801561096757600080fd5b505af115801561097b573d6000803e3d6000fd5b505050506040513d601f19601f8201168201806040525061099f9190810190611980565b507fe1fffcc4923d04b559f4d29a8bfc6cda04eb5b0d3c460751c2402c5c5cc9109c33836040516103ce929190611ee5565b600054610100900460ff16806109ea57506109ea610f32565b806109f8575060005460ff16155b1515610a30576040517f08c379a00000000000000000000000000000000000000000000000000000000081526004016102b490611fd4565b600054610100900460ff16158015610a9657600080547fffffffffffffffffffffffffffffffffffffffffffffffffffffffffffffff007fffffffffffffffffffffffffffffffffffffffffffffffffffffffffffff00ff909116610100171660011790555b610a9f82610f38565b606880547fffffffffffffffffffffffffffffffffffffffffffffffffffffffff0000000016610258179055600a6069819055606a558015610b0457600080547fffffffffffffffffffffffffffffffffffffffffffffffffffffffffffff00ff1690555b5050565b6000610b8684848080601f01602080910402602001604051908101604052809392919081815260200183838082843760009201919091525050604080516020601f8c018190048102820181019092528a815292508a9150899081908401838280828437600092019190915250929392505063ffffffff61106f169050565b15610bbd576040517f08c379a00000000000000000000000000000000000000000000000000000000081526004016102b490611f84565b610bc5611864565b610c0487878080601f0160208091040260200160405190810160405280939291908181526020018383808284376000920191909152506110d392505050565b9050610c0e611864565b610c4d86868080601f0160208091040260200160405190810160405280939291908181526020018383808284376000920191909152506110d392505050565b606080840151805160208083015160408085015194860151815160008082528186018085529690965260ff9093168383015295820194909452608081019490945291519394509260019260a080820193927fffffffffffffffffffffffffffffffffffffffffffffffffffffffffffffffe081019281900390910190855afa158015610cdd573d6000803e3d6000fd5b5050604080517fffffffffffffffffffffffffffffffffffffffffffffffffffffffffffffffe080820151606080880151805160208281015183890151938501516000808a52898401808c529490945260ff909116888a01529387019290925260808601929092529451919650945060019360a0808501949193830192918290030190855afa158015610d74573d6000803e3d6000fd5b50506040517fffffffffffffffffffffffffffffffffffffffffffffffffffffffffffffffe0015191505073ffffffffffffffffffffffffffffffffffffffff821615801590610dd9575073ffffffffffffffffffffffffffffffffffffffff811615155b1515610e11576040517f08c379a00000000000000000000000000000000000000000000000000000000081526004016102b490611fe4565b73ffffffffffffffffffffffffffffffffffffffff82811690821614610e63576040517f08c379a00000000000000000000000000000000000000000000000000000000081526004016102b490611fb4565b610e6f8484848961116b565b9a9950505050505050505050565b60685463ffffffff1681565b60335473ffffffffffffffffffffffffffffffffffffffff1681565b600082821115610ee1576040517f08c379a00000000000000000000000000000000000000000000000000000000081526004016102b490611f74565b508082035b92915050565b600082820183811015610f2b576040517f08c379a00000000000000000000000000000000000000000000000000000000081526004016102b490611f54565b9392505050565b303b1590565b600054610100900460ff1680610f515750610f51610f32565b80610f5f575060005460ff16155b1515610f97576040517f08c379a00000000000000000000000000000000000000000000000000000000081526004016102b490611fd4565b600054610100900460ff16158015610ffd57600080547fffffffffffffffffffffffffffffffffffffffffffffffffffffffffffffff007fffffffffffffffffffffffffffffffffffffffffffffffffffffffffffff00ff909116610100171660011790555b603380547fffffffffffffffffffffffff00000000000000000000000000000000000000001673ffffffffffffffffffffffffffffffffffffffff84161790558015610b0457600080547fffffffffffffffffffffffffffffffffffffffffffffffffffffffffffff00ff1690555050565b81518151600091600191811480831461108b57600092506110c9565b600160208701838101602088015b6002848385100114156110c45780518351146110b85760009650600093505b60209283019201611099565b505050505b5090949350505050565b6110db611864565b60006110ff816110f38582600463ffffffff61128b16565b9063ffffffff61132b16565b905060006111268161111a866004600263ffffffff61128b16565b9063ffffffff61134916565b90506080604051908101604052808363ffffffff1681526020018261ffff16815260200161115386611367565b8152602001611161866113f4565b9052949350505050565b60008084604001516000015163ffffffff1686604001516000015163ffffffff1611156111ab57506040848101515190860151510363ffffffff166111c0565b506040858101515190850151510363ffffffff165b60685463ffffffff168110611201576040517f08c379a00000000000000000000000000000000000000000000000000000000081526004016102b490612004565b604086810151808201516069546020928301518985015194850151949093015163ffffffff92831694938316820280860194841693909116909102808301910161124b8483611614565b611255868561162c565b1161127857611268898983606a5461163d565b5060019650505050505050611283565b600096505050505050505b949350505050565b606081830184511015151561129f57600080fd5b6060821580156112ba57604051915060208201604052611322565b6040519150601f8416801560200281840101858101878315602002848b0101015b818310156112f35780518352602092830192016112db565b5050858452601f017fffffffffffffffffffffffffffffffffffffffffffffffffffffffffffffffe016604052505b50949350505050565b60008160040183511015151561134057600080fd5b50016004015190565b60008160020183511015151561135e57600080fd5b50016002015190565b61136f611896565b6000611388816110f3856006600463ffffffff61128b16565b905060006113a3816110f386600a600463ffffffff61128b16565b905060006113be816110f387600e600463ffffffff61128b16565b90506113c8611896565b506040805160608101825263ffffffff9485168152928416602084015292169181019190915292915050565b6113fc6118b6565b60408051808201909152601c81527f19457468657265756d205369676e6564204d6573736167653a0a333200000000602082015260006114448482603263ffffffff61128b16565b6040516020018082805190602001908083835b6020831061149457805182527fffffffffffffffffffffffffffffffffffffffffffffffffffffffffffffffe09092019160209182019101611457565b6001836020036101000a038019825116818451168082178552505050505050905001915050604051602081830303815290604052805190602001209050600082826040516020018083805190602001908083835b6020831061152557805182527fffffffffffffffffffffffffffffffffffffffffffffffffffffffffffffffe090920191602091820191016114e8565b51815160209384036101000a7fffffffffffffffffffffffffffffffffffffffffffffffffffffffffffffffff01801990921691161790529201938452506040805180850381529382019052825192019190912092506000915061159e905081611592886032600161128b565b9063ffffffff61177f16565b905060006115c5816115b9896033602063ffffffff61128b16565b9063ffffffff61179d16565b905060006115e0816115b98a6053602063ffffffff61128b16565b90506115ea6118b6565b506040805160808101825294855260ff909316602085015291830152606082015292505050919050565b600081831015611625575081610ee6565b5080610ee6565b600081831115611625575081610ee6565b73ffffffffffffffffffffffffffffffffffffffff841660009081526034602052604081205483111561169c576040517f08c379a00000000000000000000000000000000000000000000000000000000081526004016102b490611f44565b73ffffffffffffffffffffffffffffffffffffffff85166000908152603460205260409020546116d2908463ffffffff610ea516565b73ffffffffffffffffffffffffffffffffffffffff861660009081526034602052604090205561174e61171c6064611710868663ffffffff6117bb16565b9063ffffffff61181316565b73ffffffffffffffffffffffffffffffffffffffff86166000908152603560205260409020549063ffffffff610eec16565b73ffffffffffffffffffffffffffffffffffffffff8516600090815260356020526040902055506001949350505050565b60008160010183511015151561179457600080fd5b50016001015190565b6000816020018351101515156117b257600080fd5b50016020015190565b60008215156117cc57506000610ee6565b8282028284828115156117db57fe5b0414610f2b576040517f08c379a00000000000000000000000000000000000000000000000000000000081526004016102b490611fc4565b600080821161184e576040517f08c379a00000000000000000000000000000000000000000000000000000000081526004016102b490611f94565b6000828481151561185b57fe5b04949350505050565b604080516101208101825260008082526020820152908101611884611896565b81526020016118916118b6565b905290565b604080516060810182526000808252602082018190529181019190915290565b60408051608081018252600080825260208201819052918101829052606081019190915290565b6000610f2b8235612030565b6000610f2b825161203b565b6000610f2b8235612059565b600080601f8301841361191357600080fd5b50813567ffffffffffffffff81111561192b57600080fd5b60208301915083600182028301111561194357600080fd5b9250929050565b6000610f2b8251612059565b6000610f2b8235612065565b60006020828403121561197457600080fd5b600061128384846118dd565b60006020828403121561199257600080fd5b600061128384846118e9565b6000806000806000606086880312156119b657600080fd5b853567ffffffffffffffff8111156119cd57600080fd5b6119d988828901611901565b9550955050602086013567ffffffffffffffff8111156119f857600080fd5b611a0488828901611901565b93509350506040611a17888289016118dd565b9150509295509295909350565b600080600080600060808688031215611a3c57600080fd5b853567ffffffffffffffff811115611a5357600080fd5b611a5f88828901611901565b95509550506020611a7288828901611956565b9350506040611a83888289016118f5565b9250506060611a17888289016118f5565b600060208284031215611aa657600080fd5b600061128384846118f5565b600060208284031215611ac457600080fd5b6000611283848461194a565b611ad98161206b565b82525050565b611ad981612030565b611ad98161203b565b611ad981612072565b603881527f416d6f756e7420746f20626520736c6173686564206d757374206265206c657360208201527f73207468616e20617661696c61626c652062616c616e63650000000000000000604082015260600190565b601b81527f536166654d6174683a206164646974696f6e206f766572666c6f770000000000602082015260400190565b601481527f496e73756666696369656e742062616c616e6365000000000000000000000000602082015260400190565b601e81527f536166654d6174683a207375627472616374696f6e206f766572666c6f770000602082015260400190565b601d81527f73616d652062797465732073686f756c64206e6f742062652075736564000000602082015260400190565b601a81527f536166654d6174683a206469766973696f6e206279207a65726f000000000000602082015260400190565b602781527f416d6f756e742067726561746572207468616e2074686520756e6c6f636b656460208201527f20616d6f756e7400000000000000000000000000000000000000000000000000604082015260600190565b602b81527f5374616b65732066726f6d2073616d6520616464726573732073686f756c642060208201527f6265207265706f72746564000000000000000000000000000000000000000000604082015260600190565b602181527f536166654d6174683a206d756c7469706c69636174696f6e206f766572666c6f60208201527f7700000000000000000000000000000000000000000000000000000000000000604082015260600190565b602e81527f436f6e747261637420696e7374616e63652068617320616c726561647920626560208201527f656e20696e697469616c697a6564000000000000000000000000000000000000604082015260600190565b601a81527f5369676e6174757265732073686f756c642062652076616c6964000000000000602082015260400190565b603981527f54686520636f6e7472616374206973206e6f7420616c6c6f77656420746f207360208201527f70656e64206f6e207468652075736572277320626568616c6600000000000000604082015260600190565b603c81527f4475706c6963617465205374616b65206d757374206265207265706f7274656460208201527f2077697468696e2073657420696e2074696d6520696e74657276616c00000000604082015260600190565b611ad981612059565b611ad98161205c565b60208101610ee68284611adf565b60208101610ee68284611ad0565b60408101611eb08285611ad0565b610f2b6020830184611adf565b60608101611ecb8286611ad0565b611ed86020830185611adf565b6112836040830184611e74565b60408101611ef38285611ad0565b610f2b6020830184611e74565b60608101611f0e8286611ad0565b611f1b6020830185611e74565b6112836040830184611ae8565b60208101610ee68284611ae8565b60208101610ee68284611af1565b60208082528101610ee681611afa565b60208082528101610ee681611b50565b60208082528101610ee681611b80565b60208082528101610ee681611bb0565b60208082528101610ee681611be0565b60208082528101610ee681611c10565b60208082528101610ee681611c40565b60208082528101610ee681611c96565b60208082528101610ee681611cec565b60208082528101610ee681611d42565b60208082528101610ee681611d98565b60208082528101610ee681611dc8565b60208082528101610ee681611e1e565b60208101610ee68284611e74565b60208101610ee68284611e7d565b6000610ee682612040565b151590565b73ffffffffffffffffffffffffffffffffffffffff1690565b90565b63ffffffff1690565b60ff1690565b6000610ee6825b6000610ee68261203056fea265627a7a72305820d70b657ad0a9a56b42bbbf0d036b5c91102a9bc6cb4e632577cab46f02b124206c6578706572696d656e74616cf50037",
  "source": "pragma solidity >=0.4.21 <0.7.0;\npragma experimental ABIEncoderV2;\n\nimport \"../Stake/StakeLogic.sol\";\nimport \"solidity-bytes-utils/contracts/BytesLib.sol\";\n\n\n/// @title Contract to reward overlapping stakes\n/// @author Marlin\n/// @notice Use this contract only for testing\n/// @dev Contract under development\ncontract CapacityLogic is Initializable, StakeLogic {\n    using BytesLib for bytes;\n    // To be decided by the team\n    // solhint-disable-next-line\n    uint32 public PRODUCER_STAKE_LOCKTIME;\n    // To be decided by the team\n    // solhint-disable-next-line\n    uint256 public STAKE_PER_BYTE;\n    // To be decided by the team\n    // solhint-disable-next-line\n    uint256 public STAKE_TRANSFER_PERCENT;\n\n    struct Attestation {\n        uint32 messageId;\n        uint16 channelId;\n        Message message;\n        Signature sig;\n    }\n\n    struct Signature {\n        bytes32 hash;\n        uint8 v;\n        bytes32 r;\n        bytes32 s;\n    }\n\n    struct Message {\n        uint32 timestamp;\n        uint32 messageSize;\n        uint32 stakeOffset;\n    }\n\n    function initialize(address _token) public initializer {\n        StakeLogic.initialize(_token);\n        PRODUCER_STAKE_LOCKTIME = 10 minutes;\n        STAKE_PER_BYTE = 10;\n        STAKE_TRANSFER_PERCENT = 10;\n    }\n\n    /** @dev Reports a overlapping stake and rewards.\n     * @param _attestation1 Attestation bytes1.\n     * @param _attestation2 Attestation bytes2.\n     * @param _submitterWithdrawAddress Address to which the stake should be rewarded\n     * @return bool\n     */\n\n    function reportOverlappingProducerStakes(\n        bytes calldata _attestation1,\n        bytes calldata _attestation2,\n        address _submitterWithdrawAddress\n    ) external returns (bool) {\n        require(\n            !_attestation1.equal(_attestation2),\n            \"same bytes should not be used\"\n        );\n        Attestation memory a1 = getAttestation(_attestation1);\n        Attestation memory a2 = getAttestation(_attestation2);\n        address add1 = ecrecover(a1.sig.hash, a1.sig.v, a1.sig.r, a1.sig.s);\n        address add2 = ecrecover(a2.sig.hash, a2.sig.v, a2.sig.r, a2.sig.s);\n        require(\n            add1 != address(0) && add2 != address(0),\n            \"Signatures should be valid\"\n        );\n        require(add1 == add2, \"Stakes from same address should be reported\");\n        return\n            checkOverlappingProducerStakes(\n                a1,\n                a2,\n                add1,\n                _submitterWithdrawAddress\n            );\n    }\n\n    function checkOverlappingProducerStakes(\n        Attestation memory a1,\n        Attestation memory a2,\n        address add1,\n        address _submitterWithdrawAddress\n    ) internal returns (bool) {\n        uint256 producerTimedifference;\n\n        if (a1.message.timestamp > a2.message.timestamp) {\n            producerTimedifference =\n                a1.message.timestamp -\n                a2.message.timestamp;\n        } else {\n            producerTimedifference =\n                a2.message.timestamp -\n                a1.message.timestamp;\n        }\n        require(\n            producerTimedifference < PRODUCER_STAKE_LOCKTIME,\n            \"Duplicate Stake must be reported within set in time interval\"\n        );\n\n        uint256 attestation1StartStake = uint256(a1.message.stakeOffset);\n        uint256 attestation1EndStake = attestation1StartStake +\n            uint256(a1.message.messageSize) *\n            STAKE_PER_BYTE;\n        uint256 attestation2StartStake = uint256(a2.message.stakeOffset);\n        uint256 attestation2EndStake = attestation2StartStake +\n            uint256(a2.message.messageSize) *\n            STAKE_PER_BYTE;\n        uint256 amountToBeSlashed = (uint256(a1.message.messageSize) *\n            STAKE_PER_BYTE +\n            uint256(a2.message.messageSize) *\n            STAKE_PER_BYTE);\n\n        if (\n            max(attestation1StartStake, attestation2StartStake) <=\n            min(attestation1EndStake, attestation2EndStake)\n        ) {\n            slashStake(\n                add1,\n                _submitterWithdrawAddress,\n                amountToBeSlashed,\n                STAKE_TRANSFER_PERCENT\n            );\n            return true;\n        } else {\n            return false;\n        }\n    }\n\n    function max(uint256 a, uint256 b) internal pure returns (uint256) {\n        if (a > b) {\n            return a;\n        } else {\n            return b;\n        }\n    }\n\n    function min(uint256 a, uint256 b) internal pure returns (uint256) {\n        if (a < b) {\n            return a;\n        } else {\n            return b;\n        }\n    }\n\n    function getAttestation(bytes memory _attestation1)\n        internal\n        pure\n        returns (Attestation memory attestation)\n    {\n        uint32 _messageId1 = _attestation1.slice(0, 4).toUint32(0);\n        uint16 _channelId1 = _attestation1.slice(4, 2).toUint16(0);\n        attestation = Attestation(\n            _messageId1,\n            _channelId1,\n            getMessage(_attestation1),\n            getSignature(_attestation1)\n        );\n    }\n\n    function getMessage(bytes memory _attestation1)\n        internal\n        pure\n        returns (Message memory)\n    {\n        uint32 _timestamp1 = _attestation1.slice(6, 4).toUint32(0);\n        uint32 _messageSize1 = _attestation1.slice(10, 4).toUint32(0);\n        uint32 _stakeOffset1 = _attestation1.slice(14, 4).toUint32(0);\n        Message memory m = Message(_timestamp1, _messageSize1, _stakeOffset1);\n        return m;\n    }\n\n    function getSignature(bytes memory _attestation1)\n        internal\n        pure\n        returns (Signature memory)\n    {\n        //Image prefix to be decided by the team\n        bytes memory prefix = \"\\x19Ethereum Signed Message:\\n32\";\n        bytes32 messageHash = keccak256(\n            abi.encodePacked(_attestation1.slice(0, 50))\n        );\n        bytes32 _hash1 = keccak256(abi.encodePacked(prefix, messageHash));\n        uint8 _v1 = _attestation1.slice(50, 1).toUint8(0);\n        bytes32 _r1 = _attestation1.slice(51, 32).toBytes32(0);\n        bytes32 _s1 = _attestation1.slice(83, 32).toBytes32(0);\n        Signature memory sig = Signature(_hash1, _v1, _r1, _s1);\n        return sig;\n    }\n\n    function testEcrecover(\n        bytes calldata message,\n        uint8 v,\n        bytes32 r,\n        bytes32 s\n    ) external pure returns (address) {\n        bytes memory prefix = \"\\x19Ethereum Signed Message:\\n32\";\n        bytes32 messageHash = keccak256(abi.encodePacked(message));\n        bytes32 _hash = keccak256(abi.encodePacked(prefix, messageHash));\n        return (ecrecover(_hash, v, r, s));\n    }\n\n    uint256[50] private ______gap;\n}\n",
  "sourcePath": "/home/app/contracts/Capacity/CapacityLogic.sol",
  "compiler": {
    "name": "solc",
    "version": "0.5.0+commit.1d4f565a.Emscripten.clang"
  },
  "schemaVersion": "3.2.0",
  "updatedAt": "2020-05-25T18:28:26.994Z",
  "networkType": "ethereum",
  "devdoc": {
    "author": "Marlin",
    "details": "Contract under development",
    "methods": {
      "reportOverlappingProducerStakes(bytes,bytes,address)": {
        "details": "Reports a overlapping stake and rewards.",
        "params": {
          "_attestation1": "Attestation bytes1.",
          "_attestation2": "Attestation bytes2.",
          "_submitterWithdrawAddress": "Address to which the stake should be rewarded"
        },
        "return": "bool"
      }
    },
    "title": "Contract to reward overlapping stakes"
  },
  "userdoc": {
    "methods": {},
    "notice": "Use this contract only for testing"
  }
}