{
  "contractName": "CertificateVerifier",
  "abi": [
    {
      "constant": true,
      "inputs": [
        {
          "name": "_publisher",
          "type": "address"
        },
        {
          "name": "_client",
          "type": "address"
        },
        {
          "name": "_max",
          "type": "uint8"
        },
        {
          "name": "_auth_v",
          "type": "uint8"
        },
        {
          "name": "_auth_r",
          "type": "bytes32"
        },
        {
          "name": "_auth_s",
          "type": "bytes32"
        },
        {
          "name": "_nonce",
          "type": "uint8"
        },
        {
          "name": "_serv_v",
          "type": "uint8"
        },
        {
          "name": "_serv_r",
          "type": "bytes32"
        },
        {
          "name": "_serv_s",
          "type": "bytes32"
        }
      ],
      "name": "isValidServiceCertificate",
      "outputs": [
        {
          "name": "_valid",
          "type": "bool"
        }
      ],
      "payable": false,
      "stateMutability": "pure",
      "type": "function"
    }
  ],
  "bytecode": "0x610677610030600b82828239805160001a6073146000811461002057610022565bfe5b5030600052607381538281f3007300000000000000000000000000000000000000003014608060405260043610610058576000357c0100000000000000000000000000000000000000000000000000000000900463ffffffff168063a51755c41461005d575b600080fd5b61011d600480360381019080803573ffffffffffffffffffffffffffffffffffffffff169060200190929190803573ffffffffffffffffffffffffffffffffffffffff169060200190929190803560ff169060200190929190803560ff16906020019092919080356000191690602001909291908035600019169060200190929190803560ff169060200190929190803560ff16906020019092919080356000191690602001909291908035600019169060200190929190505050610137565b604051808215151515815260200191505060405180910390f35b6000806000868b60008260ff1611151561015057600080fd5b8060ff168260ff161115151561016557600080fd5b6101738f8f8f8f8f8f6103ca565b151561017e57600080fd5b6040805190810160405280601c81526020017f19457468657265756d205369676e6564204d6573736167653a0a3636000000008152508b8b8e8c6040516020018086805190602001908083835b6020831015156101f057805182526020820191506020810190506020830392506101cb565b6001836020036101000a038019825116818451168082178552505050505050905001856000191660001916815260200184600019166000191681526020018360ff1660ff167f01000000000000000000000000000000000000000000000000000000000000000281526001018260ff1660ff167f0100000000000000000000000000000000000000000000000000000000000000028152600101955050505050506040516020818303038152906040526040518082805190602001908083835b6020831015156102d557805182526020820191506020810190506020830392506102b0565b6001836020036101000a03801982511681845116808217855250505050505090500191505060405180910390209350600184898989604051600081526020016040526040518085600019166000191681526020018460ff1660ff1681526020018360001916600019168152602001826000191660001916815260200194505050505060206040516020810390808403906000865af115801561037b573d6000803e3d6000fd5b5050506020604051035192508d73ffffffffffffffffffffffffffffffffffffffff168373ffffffffffffffffffffffffffffffffffffffff16149450505050509a9950505050505050505050565b60008060006040805190810160405280601c81526020017f19457468657265756d205369676e6564204d6573736167653a0a3431000000008152508989896040516020018085805190602001908083835b602083101515610440578051825260208201915060208101905060208303925061041b565b6001836020036101000a0380198251168184511680821785525050505050509050018473ffffffffffffffffffffffffffffffffffffffff1673ffffffffffffffffffffffffffffffffffffffff166c010000000000000000000000000281526014018373ffffffffffffffffffffffffffffffffffffffff1673ffffffffffffffffffffffffffffffffffffffff166c010000000000000000000000000281526014018260ff1660ff167f01000000000000000000000000000000000000000000000000000000000000000281526001019450505050506040516020818303038152906040526040518082805190602001908083835b60208310151561055c5780518252602082019150602081019050602083039250610537565b6001836020036101000a03801982511681845116808217855250505050505090500191505060405180910390209150600182878787604051600081526020016040526040518085600019166000191681526020018460ff1660ff1681526020018360001916600019168152602001826000191660001916815260200194505050505060206040516020810390808403906000865af1158015610602573d6000803e3d6000fd5b5050506020604051035190508873ffffffffffffffffffffffffffffffffffffffff168173ffffffffffffffffffffffffffffffffffffffff16149250505096955050505050505600a165627a7a7230582014142c400f2ac8f6a60051606ef63de47a149a1a1924b154d93d71a74f3118ca0029",
  "source": "pragma solidity ^0.4.24;\r\n\r\n/**\r\n * @title Library for certificate verification\r\n * @author Marlin Labs\r\n * @notice This will be used by the Certificate contract\r\n */\r\nlibrary CertificateVerifier {\r\n\r\n    string constant SIGNED_MSG_AUTH_PREFIX = \"\\x19Ethereum Signed Message:\\n41\";\r\n    string constant SIGNED_MSG_SERV_PREFIX = \"\\x19Ethereum Signed Message:\\n66\";\r\n\r\n    struct ReplayProtectionStruct {\r\n        mapping(bytes32 => bool) used;\r\n    }\r\n\r\n    modifier is_valid_nonce(uint8 nonce, uint8 max) {\r\n        require(nonce > 0);\r\n        require(nonce <= max);\r\n        _;\r\n    }\r\n\r\n    function isValidServiceCertificate(\r\n        address _publisher,\r\n        address _client,\r\n        uint8 _max,\r\n        uint8 _auth_v,\r\n        bytes32 _auth_r,\r\n        bytes32 _auth_s,\r\n        uint8 _nonce,\r\n        uint8 _serv_v,\r\n        bytes32 _serv_r,\r\n        bytes32 _serv_s\r\n    )\r\n        public\r\n        pure\r\n        is_valid_nonce(_nonce, _max)\r\n        returns (bool _valid)\r\n    {\r\n        require(isValidAuthCertificate(\r\n            _publisher,\r\n            _client,\r\n            _max,\r\n            _auth_v,\r\n            _auth_r,\r\n            _auth_s\r\n        ));\r\n        bytes32 _hashedMsg = keccak256(abi.encodePacked(\r\n            SIGNED_MSG_SERV_PREFIX,\r\n            _auth_r,\r\n            _auth_s,\r\n            _auth_v,\r\n            _nonce\r\n        ));\r\n        address _signer = ecrecover(\r\n            _hashedMsg,\r\n            _serv_v,\r\n            _serv_r,\r\n            _serv_s\r\n        );\r\n        _valid = (_signer == _client);\r\n    }\r\n\r\n    function isServiceCertUsed(ReplayProtectionStruct storage _self, bytes32 _hash)\r\n        internal\r\n        constant\r\n        returns (bool _used)\r\n    {\r\n        _used = _self.used[_hash];\r\n    }\r\n\r\n    function isValidAuthCertificate(\r\n        address _publisher,\r\n        address _client,\r\n        uint8 _max,\r\n        uint8 _v,\r\n        bytes32 _r,\r\n        bytes32 _s\r\n    )\r\n        internal\r\n        pure\r\n        returns (bool _valid)\r\n    {\r\n        bytes32 _hashedMsg = keccak256(abi.encodePacked(\r\n            SIGNED_MSG_AUTH_PREFIX,\r\n            _publisher,\r\n            _client,\r\n            _max\r\n        ));\r\n        address _signer = ecrecover(_hashedMsg, _v, _r, _s);\r\n        _valid = (_signer == _publisher);\r\n    }\r\n}\r\n",
  "sourcePath": "C:\\Users\\sys\\Desktop\\Marlin\\marlin-contracts\\contracts\\library\\CertificateVerifier.sol",
  "compiler": {
    "name": "solc",
    "version": "0.4.24+commit.e67f0147.Emscripten.clang"
  },
  "schemaVersion": "2.0.1",
  "updatedAt": "2018-08-08T17:28:56.972Z"
}