{
  "contractName": "Certificate",
  "abi": [
    {
      "inputs": [
        {
          "name": "_tokenContractAddress",
          "type": "address"
        },
        {
          "name": "_uploadContractAddress",
          "type": "address"
        }
      ],
      "payable": false,
      "stateMutability": "nonpayable",
      "type": "constructor"
    },
    {
      "constant": false,
      "inputs": [
        {
          "name": "_offerId",
          "type": "bytes32"
        },
        {
          "name": "_publisher",
          "type": "address"
        },
        {
          "name": "_client",
          "type": "address"
        },
        {
          "name": "_max",
          "type": "uint8"
        },
        {
          "name": "_nonce",
          "type": "uint8"
        },
        {
          "name": "_vArray",
          "type": "uint8[3]"
        },
        {
          "name": "_rArray",
          "type": "bytes32[3]"
        },
        {
          "name": "_sArray",
          "type": "bytes32[3]"
        }
      ],
      "name": "settleWinningCertificate",
      "outputs": [
        {
          "name": "_success",
          "type": "bool"
        }
      ],
      "payable": false,
      "stateMutability": "nonpayable",
      "type": "function"
    }
  ],
  "bytecode": "0x608060405234801561001057600080fd5b50604051604080610bbd8339810180604052810190808051906020019092919080519060200190929190505050816000806101000a81548173ffffffffffffffffffffffffffffffffffffffff021916908373ffffffffffffffffffffffffffffffffffffffff16021790555080600160006101000a81548173ffffffffffffffffffffffffffffffffffffffff021916908373ffffffffffffffffffffffffffffffffffffffff1602179055505050610aee806100cf6000396000f300608060405260043610610041576000357c0100000000000000000000000000000000000000000000000000000000900463ffffffff168063ffa57d7d14610046575b600080fd5b34801561005257600080fd5b5061015c6004803603810190808035600019169060200190929190803573ffffffffffffffffffffffffffffffffffffffff169060200190929190803573ffffffffffffffffffffffffffffffffffffffff169060200190929190803560ff169060200190929190803560ff169060200190929190806060019060038060200260405190810160405280929190826003602002808284378201915050505050919291929080606001906003806020026040519081016040528092919082600360200280828437820191505050505091929192908060600190600380602002604051908101604052809291908260036020028082843782019150505050509192919290505050610176565b604051808215151515815260200191505060405180910390f35b600080600085600160038110151561018a57fe5b602002015185600160038110151561019e57fe5b60200201518560016003811015156101b257fe5b6020020151604051602001808460ff1660ff167f01000000000000000000000000000000000000000000000000000000000000000281526001018360001916600019168152602001826000191660001916815260200193505050506040516020818303038152906040526040518082805190602001908083835b602083101515610251578051825260208201915060208101905060208303925061022c565b6001836020036101000a038019825116818451168082178552505050505050905001915050604051809103902091506000151561029883600261060390919063ffffffff16565b15151415156102a657600080fd5b600160026000016000846000191660001916815260200190815260200160002060006101000a81548160ff0219169083151502179055506102ed8a8a8a8a8a8a8a33610638565b15156102f857600080fd5b600160009054906101000a900473ffffffffffffffffffffffffffffffffffffffff1673ffffffffffffffffffffffffffffffffffffffff16632b611c498c6040518263ffffffff167c0100000000000000000000000000000000000000000000000000000000028152600401808260001916600019168152602001915050600060405180830381600087803b15801561039157600080fd5b505af11580156103a5573d6000803e3d6000fd5b505050506040513d6000823e3d601f19601f820116820180604052506101208110156103d057600080fd5b810190808051906020019092919080516401000000008111156103f257600080fd5b8281019050602081018481111561040857600080fd5b815185600182028301116401000000008211171561042557600080fd5b5050929190602001805164010000000081111561044157600080fd5b8281019050602081018481111561045757600080fd5b815185600182028301116401000000008211171561047457600080fd5b505092919060200180519060200190929190805190602001909291908051906020019092919080519060200190929190805190602001909291908051906020019092919050505090919293949596975090919293949596509091929394955090919293945090919250909150905050809150506000809054906101000a900473ffffffffffffffffffffffffffffffffffffffff1673ffffffffffffffffffffffffffffffffffffffff1663a9059cbb33836040518363ffffffff167c0100000000000000000000000000000000000000000000000000000000028152600401808373ffffffffffffffffffffffffffffffffffffffff1673ffffffffffffffffffffffffffffffffffffffff16815260200182815260200192505050602060405180830381600087803b1580156105ab57600080fd5b505af11580156105bf573d6000803e3d6000fd5b505050506040513d60208110156105d557600080fd5b810190808051906020019092919050505015156105f157600080fd5b60019250505098975050505050505050565b6000826000016000836000191660001916815260200190815260200160002060009054906101000a900460ff16905092915050565b600080600073__CertificateVerifier___________________63a51755c48c8c8c8b600060038110151561066957fe5b60200201518b600060038110151561067d57fe5b60200201518b600060038110151561069157fe5b60200201518f8f60016003811015156106a657fe5b60200201518f60016003811015156106ba57fe5b60200201518f60016003811015156106ce57fe5b60200201516040518b63ffffffff167c0100000000000000000000000000000000000000000000000000000000028152600401808b73ffffffffffffffffffffffffffffffffffffffff1673ffffffffffffffffffffffffffffffffffffffff1681526020018a73ffffffffffffffffffffffffffffffffffffffff1673ffffffffffffffffffffffffffffffffffffffff1681526020018960ff1660ff1681526020018860ff1660ff168152602001876000191660001916815260200186600019166000191681526020018560ff1660ff1681526020018460ff1660ff168152602001836000191660001916815260200182600019166000191681526020019a505050505050505050505060206040518083038186803b1580156107f257600080fd5b505af4158015610806573d6000803e3d6000fd5b505050506040513d602081101561081c57600080fd5b8101908080519060200190929190505050151561083857600080fd5b6040805190810160405280601c81526020017f19457468657265756d205369676e6564204d6573736167653a0a36350000000081525086600160038110151561087d57fe5b602002015186600160038110151561089157fe5b60200201518960016003811015156108a557fe5b60200201516040516020018085805190602001908083835b6020831015156108e257805182526020820191506020810190506020830392506108bd565b6001836020036101000a038019825116818451168082178552505050505050905001846000191660001916815260200183600019166000191681526020018260ff1660ff167f01000000000000000000000000000000000000000000000000000000000000000281526001019450505050506040516020818303038152906040526040518082805190602001908083835b6020831015156109985780518252602082019150602081019050602083039250610973565b6001836020036101000a038019825116818451168082178552505050505050905001915050604051809103902091506001828860026003811015156109d957fe5b60200201518860026003811015156109ed57fe5b6020020151886002600381101515610a0157fe5b6020020151604051600081526020016040526040518085600019166000191681526020018460ff1660ff1681526020018360001916600019168152602001826000191660001916815260200194505050505060206040516020810390808403906000865af1158015610a77573d6000803e3d6000fd5b5050506020604051035190508373ffffffffffffffffffffffffffffffffffffffff168173ffffffffffffffffffffffffffffffffffffffff161492505050989750505050505050505600a165627a7a72305820c258e6f3d71aa6e61d397782b22ca7250a965a1d786d1b81eedcf0bb2661829c0029",
  "source": "pragma solidity ^0.4.24;\r\n\r\nimport \"./library/CertificateVerifier.sol\";\r\nimport \"openzeppelin-solidity/contracts/token/ERC20/ERC20.sol\";\r\n\r\ncontract UploadInterface {\r\n    function readStake(address _node) public constant returns (uint256);\r\n    function readPublisherOffer(bytes32 _id) public constant returns (address, string, string, uint256, uint256, uint256, uint256, uint256, uint256);\r\n}\r\n\r\n/**\r\n* @title Certificate-verification and payout-handling contract\r\n* @author Marlin Labs\r\n* @notice Master nodes/storage nodes can fetch rewards for their certificates\r\n */\r\ncontract Certificate {\r\n\r\n    using CertificateVerifier for CertificateVerifier;\r\n    using CertificateVerifier for CertificateVerifier.ReplayProtectionStruct;\r\n\r\n    string constant SIGNED_MSG_WIN_PREFIX = \"\\x19Ethereum Signed Message:\\n65\";\r\n    address MARLIN_TOKEN_ADDRESS;\r\n    address MARLIN_UPLOAD_CONTRACT_ADDRESS;\r\n\r\n    CertificateVerifier.ReplayProtectionStruct serviceCerts;\r\n\r\n    /**\r\n     * @notice Constructor that sets the Marlin token contract address and Publisher-side Upload contract address\r\n     * @param _tokenContractAddress Address of the Marlin token contract\r\n     * @param _uploadContractAddress Address of the publisher-side Upload contract\r\n     */\r\n    constructor(address _tokenContractAddress, address _uploadContractAddress) public {\r\n        MARLIN_TOKEN_ADDRESS = _tokenContractAddress;\r\n        MARLIN_UPLOAD_CONTRACT_ADDRESS = _uploadContractAddress;\r\n    }\r\n\r\n    /**\r\n     * @notice Function to be called to fetch reward for delivery certificate\r\n     * @param _offerId ID of the publisher offer from the Upload contract\r\n     * @param _publisher Address of the publisher who created the offer\r\n     * @param _client Address of the master node\r\n     * @param _max Max certificates\r\n     * @param _nonce Nonce of this txn\r\n     * @param _vArray Array of the recovery IDs of the signatures\r\n     * @param _rArray Array of the r-value of ECDSA signatures\r\n     * @param _sArray Array of the s-value of ECDSA signatures\r\n     * @return _success Boolean, true if the payout was successful\r\n     */\r\n    function settleWinningCertificate(\r\n        bytes32 _offerId,\r\n        address _publisher,\r\n        address _client,\r\n        uint8 _max,\r\n        uint8 _nonce,\r\n        uint8[3] _vArray,\r\n        bytes32[3] _rArray,\r\n        bytes32[3] _sArray\r\n    )\r\n        public\r\n        returns (bool _success)\r\n    {\r\n        // make sure service certificate is not re-used\r\n        bytes32 _servCertHashed = keccak256(abi.encodePacked(_vArray[1], _rArray[1], _sArray[1]));\r\n        require(serviceCerts.isServiceCertUsed(_servCertHashed) == false);\r\n        serviceCerts.used[_servCertHashed] = true;\r\n\r\n        require(isWinningCertificate(\r\n            _publisher,\r\n            _client,\r\n            _max,\r\n            _nonce,\r\n            _vArray,\r\n            _rArray,\r\n            _sArray,\r\n            msg.sender\r\n        ));\r\n\r\n        // fetch delivery reward from upload contract\r\n        uint256 _deliveryReward;\r\n        (,,,,_deliveryReward,,,,) = UploadInterface(MARLIN_UPLOAD_CONTRACT_ADDRESS).readPublisherOffer(_offerId);\r\n        require(ERC20(MARLIN_TOKEN_ADDRESS).transfer(msg.sender, _deliveryReward));\r\n\r\n        _success = true;\r\n    }\r\n\r\n    function isWinningCertificate(\r\n        address _publisher,\r\n        address _client,\r\n        uint8 _max,\r\n        uint8 _nonce,\r\n        uint8[3] _vArray,\r\n        bytes32[3] _rArray,\r\n        bytes32[3] _sArray,\r\n        address _winner\r\n    )\r\n        internal\r\n        pure\r\n        returns (bool _is)\r\n    {\r\n        require(CertificateVerifier.isValidServiceCertificate(\r\n            _publisher,\r\n            _client,\r\n            _max,\r\n            _vArray[0],\r\n            _rArray[0],\r\n            _sArray[0],\r\n            _nonce,\r\n            _vArray[1],\r\n            _rArray[1],\r\n            _sArray[1]\r\n        ));\r\n\r\n        bytes32 _hashedMsg = keccak256(abi.encodePacked(\r\n            SIGNED_MSG_WIN_PREFIX,\r\n            _rArray[1],\r\n            _sArray[1],\r\n            _vArray[1]\r\n        ));\r\n        address _signer = ecrecover(_hashedMsg, _vArray[2], _rArray[2], _sArray[2]);\r\n        _is = (_signer == _winner);\r\n    }\r\n}\r\n",
  "sourcePath": "C:\\Users\\sys\\Desktop\\Marlin\\marlin-contracts\\contracts\\Certificate.sol",
  "compiler": {
    "name": "solc",
    "version": "0.4.24+commit.e67f0147.Emscripten.clang"
  },
  "schemaVersion": "2.0.1",
  "updatedAt": "2018-08-08T17:28:56.986Z"
}