{
  "contractName": "Certificate",
  "abi": [
    {
      "inputs": [
        {
          "name": "_tokenContractAddress",
          "type": "address"
        }
      ],
      "payable": false,
      "stateMutability": "nonpayable",
      "type": "constructor"
    },
    {
      "constant": false,
      "inputs": [
        {
          "name": "publisher",
          "type": "address"
        },
        {
          "name": "client",
          "type": "address"
        },
        {
          "name": "max",
          "type": "uint8"
        },
        {
          "name": "nonce",
          "type": "uint8"
        },
        {
          "name": "vArray",
          "type": "uint8[3]"
        },
        {
          "name": "rArray",
          "type": "bytes32[3]"
        },
        {
          "name": "sArray",
          "type": "bytes32[3]"
        }
      ],
      "name": "settleWinningCertificate",
      "outputs": [
        {
          "name": "_success",
          "type": "bool"
        }
      ],
      "payable": false,
      "stateMutability": "nonpayable",
      "type": "function"
    }
  ],
  "bytecode": "0x608060405234801561001057600080fd5b506040516020806107d883398101806040528101908080519060200190929190505050806000806101000a81548173ffffffffffffffffffffffffffffffffffffffff021916908373ffffffffffffffffffffffffffffffffffffffff16021790555050610755806100836000396000f300608060405260043610610041576000357c0100000000000000000000000000000000000000000000000000000000900463ffffffff1680636e48561914610046575b600080fd5b34801561005257600080fd5b5061014e600480360381019080803573ffffffffffffffffffffffffffffffffffffffff169060200190929190803573ffffffffffffffffffffffffffffffffffffffff169060200190929190803560ff169060200190929190803560ff169060200190929190806060019060038060200260405190810160405280929190826003602002808284378201915050505050919291929080606001906003806020026040519081016040528092919082600360200280828437820191505050505091929192908060600190600380602002604051908101604052809291908260036020028082843782019150505050509192919290505050610168565b604051808215151515815260200191505060405180910390f35b600061017a888888888888883361029f565b151561018557600080fd5b6000809054906101000a900473ffffffffffffffffffffffffffffffffffffffff1673ffffffffffffffffffffffffffffffffffffffff1663a9059cbb33600a6040518363ffffffff167c0100000000000000000000000000000000000000000000000000000000028152600401808373ffffffffffffffffffffffffffffffffffffffff1673ffffffffffffffffffffffffffffffffffffffff16815260200182815260200192505050602060405180830381600087803b15801561024a57600080fd5b505af115801561025e573d6000803e3d6000fd5b505050506040513d602081101561027457600080fd5b8101908080519060200190929190505050151561029057600080fd5b60019050979650505050505050565b600080600073__CertificateVerifier___________________63a51755c48c8c8c8b60006003811015156102d057fe5b60200201518b60006003811015156102e457fe5b60200201518b60006003811015156102f857fe5b60200201518f8f600160038110151561030d57fe5b60200201518f600160038110151561032157fe5b60200201518f600160038110151561033557fe5b60200201516040518b63ffffffff167c0100000000000000000000000000000000000000000000000000000000028152600401808b73ffffffffffffffffffffffffffffffffffffffff1673ffffffffffffffffffffffffffffffffffffffff1681526020018a73ffffffffffffffffffffffffffffffffffffffff1673ffffffffffffffffffffffffffffffffffffffff1681526020018960ff1660ff1681526020018860ff1660ff168152602001876000191660001916815260200186600019166000191681526020018560ff1660ff1681526020018460ff1660ff168152602001836000191660001916815260200182600019166000191681526020019a505050505050505050505060206040518083038186803b15801561045957600080fd5b505af415801561046d573d6000803e3d6000fd5b505050506040513d602081101561048357600080fd5b8101908080519060200190929190505050151561049f57600080fd5b6040805190810160405280601c81526020017f19457468657265756d205369676e6564204d6573736167653a0a3635000000008152508660016003811015156104e457fe5b60200201518660016003811015156104f857fe5b602002015189600160038110151561050c57fe5b60200201516040516020018085805190602001908083835b6020831015156105495780518252602082019150602081019050602083039250610524565b6001836020036101000a038019825116818451168082178552505050505050905001846000191660001916815260200183600019166000191681526020018260ff1660ff167f01000000000000000000000000000000000000000000000000000000000000000281526001019450505050506040516020818303038152906040526040518082805190602001908083835b6020831015156105ff57805182526020820191506020810190506020830392506105da565b6001836020036101000a0380198251168184511680821785525050505050509050019150506040518091039020915060018288600260038110151561064057fe5b602002015188600260038110151561065457fe5b602002015188600260038110151561066857fe5b6020020151604051600081526020016040526040518085600019166000191681526020018460ff1660ff1681526020018360001916600019168152602001826000191660001916815260200194505050505060206040516020810390808403906000865af11580156106de573d6000803e3d6000fd5b5050506020604051035190508373ffffffffffffffffffffffffffffffffffffffff168173ffffffffffffffffffffffffffffffffffffffff161492505050989750505050505050505600a165627a7a72305820d4eb09df746d046a2e26b0c13ecffa18140823d9a7036f84ac011fd08b8d79570029",
  "source": "pragma solidity ^0.4.24;\n\nimport \"./library/CertificateVerifier.sol\";\nimport \"openzeppelin-solidity/contracts/token/ERC20/ERC20.sol\";\n\ncontract Certificate {\n\n    using CertificateVerifier for CertificateVerifier;\n\n    string constant SIGNED_MSG_WIN_PREFIX = \"\\x19Ethereum Signed Message:\\n65\";\n    uint256 constant TRANSFER_VALUE = 10;\n    address MARLIN_TOKEN_ADDRESS;\n\n    constructor(address _tokenContractAddress) public {\n        MARLIN_TOKEN_ADDRESS = _tokenContractAddress;\n    }\n\n    function settleWinningCertificate(\n        address publisher,\n        address client,\n        uint8 max,\n        uint8 nonce,\n        uint8[3] vArray,\n        bytes32[3] rArray,\n        bytes32[3] sArray\n    )\n        public\n        returns (bool _success)\n    {\n        require(isWinningCertificate(\n            publisher,\n            client,\n            max,\n            nonce,\n            vArray,\n            rArray,\n            sArray,\n            msg.sender\n        ));\n        require(ERC20(MARLIN_TOKEN_ADDRESS).transfer(msg.sender, TRANSFER_VALUE));\n        _success = true;\n    }\n\n    function isWinningCertificate(\n        address publisher,\n        address client,\n        uint8 max,\n        uint8 nonce,\n        uint8[3] vArray,\n        bytes32[3] rArray,\n        bytes32[3] sArray,\n        address winner\n    )\n        internal\n        pure\n        returns (bool _is)\n    {\n        require(CertificateVerifier.isValidServiceCertificate(\n            publisher,\n            client,\n            max,\n            vArray[0],\n            rArray[0],\n            sArray[0],\n            nonce,\n            vArray[1],\n            rArray[1],\n            sArray[1]\n        ));\n\n        bytes32 hashedMsg = keccak256(abi.encodePacked(\n            SIGNED_MSG_WIN_PREFIX,\n            rArray[1],\n            sArray[1],\n            vArray[1]\n        ));\n        address signer = ecrecover(hashedMsg, vArray[2], rArray[2], sArray[2]);\n        _is = (signer == winner);\n    }\n}\n",
  "sourcePath": "/Users/rohitnarurkar/Develop/marlin/marlin-contracts/contracts/Certificate.sol",
  "compiler": {
    "name": "solc",
    "version": "0.4.24+commit.e67f0147.Emscripten.clang"
  },
  "schemaVersion": "2.0.1",
  "updatedAt": "2018-07-28T03:51:15.588Z"
}