{
  "contractName": "CertificateVerifier",
  "abi": [
    {
      "constant": true,
      "inputs": [
        {
          "name": "publisher",
          "type": "address"
        },
        {
          "name": "client",
          "type": "address"
        },
        {
          "name": "max",
          "type": "uint8"
        },
        {
          "name": "auth_v",
          "type": "uint8"
        },
        {
          "name": "auth_r",
          "type": "bytes32"
        },
        {
          "name": "auth_s",
          "type": "bytes32"
        },
        {
          "name": "nonce",
          "type": "uint8"
        },
        {
          "name": "serv_v",
          "type": "uint8"
        },
        {
          "name": "serv_r",
          "type": "bytes32"
        },
        {
          "name": "serv_s",
          "type": "bytes32"
        }
      ],
      "name": "isValidServiceCertificate",
      "outputs": [
        {
          "name": "_valid",
          "type": "bool"
        }
      ],
      "payable": false,
      "stateMutability": "pure",
      "type": "function"
    }
  ],
  "bytecode": "0x610677610030600b82828239805160001a6073146000811461002057610022565bfe5b5030600052607381538281f3007300000000000000000000000000000000000000003014608060405260043610610058576000357c0100000000000000000000000000000000000000000000000000000000900463ffffffff168063a51755c41461005d575b600080fd5b61011d600480360381019080803573ffffffffffffffffffffffffffffffffffffffff169060200190929190803573ffffffffffffffffffffffffffffffffffffffff169060200190929190803560ff169060200190929190803560ff16906020019092919080356000191690602001909291908035600019169060200190929190803560ff169060200190929190803560ff16906020019092919080356000191690602001909291908035600019169060200190929190505050610137565b604051808215151515815260200191505060405180910390f35b6000806000868b60008260ff1611151561015057600080fd5b8060ff168260ff161115151561016557600080fd5b6101738f8f8f8f8f8f6103ca565b151561017e57600080fd5b6040805190810160405280601c81526020017f19457468657265756d205369676e6564204d6573736167653a0a3636000000008152508b8b8e8c6040516020018086805190602001908083835b6020831015156101f057805182526020820191506020810190506020830392506101cb565b6001836020036101000a038019825116818451168082178552505050505050905001856000191660001916815260200184600019166000191681526020018360ff1660ff167f01000000000000000000000000000000000000000000000000000000000000000281526001018260ff1660ff167f0100000000000000000000000000000000000000000000000000000000000000028152600101955050505050506040516020818303038152906040526040518082805190602001908083835b6020831015156102d557805182526020820191506020810190506020830392506102b0565b6001836020036101000a03801982511681845116808217855250505050505090500191505060405180910390209350600184898989604051600081526020016040526040518085600019166000191681526020018460ff1660ff1681526020018360001916600019168152602001826000191660001916815260200194505050505060206040516020810390808403906000865af115801561037b573d6000803e3d6000fd5b5050506020604051035192508d73ffffffffffffffffffffffffffffffffffffffff168373ffffffffffffffffffffffffffffffffffffffff16149450505050509a9950505050505050505050565b60008060006040805190810160405280601c81526020017f19457468657265756d205369676e6564204d6573736167653a0a3431000000008152508989896040516020018085805190602001908083835b602083101515610440578051825260208201915060208101905060208303925061041b565b6001836020036101000a0380198251168184511680821785525050505050509050018473ffffffffffffffffffffffffffffffffffffffff1673ffffffffffffffffffffffffffffffffffffffff166c010000000000000000000000000281526014018373ffffffffffffffffffffffffffffffffffffffff1673ffffffffffffffffffffffffffffffffffffffff166c010000000000000000000000000281526014018260ff1660ff167f01000000000000000000000000000000000000000000000000000000000000000281526001019450505050506040516020818303038152906040526040518082805190602001908083835b60208310151561055c5780518252602082019150602081019050602083039250610537565b6001836020036101000a03801982511681845116808217855250505050505090500191505060405180910390209150600182878787604051600081526020016040526040518085600019166000191681526020018460ff1660ff1681526020018360001916600019168152602001826000191660001916815260200194505050505060206040516020810390808403906000865af1158015610602573d6000803e3d6000fd5b5050506020604051035190508873ffffffffffffffffffffffffffffffffffffffff168173ffffffffffffffffffffffffffffffffffffffff16149250505096955050505050505600a165627a7a723058203bdc14741e3040c41fb8aa1986a61142de28557f41195f574054354c609666d50029",
  "source": "pragma solidity ^0.4.24;\n\nlibrary CertificateVerifier {\n\n    string constant SIGNED_MSG_AUTH_PREFIX = \"\\x19Ethereum Signed Message:\\n41\";\n    string constant SIGNED_MSG_SERV_PREFIX = \"\\x19Ethereum Signed Message:\\n66\";\n\n    modifier is_valid_nonce(uint8 nonce, uint8 max) {\n        require(nonce > 0);\n        require(nonce <= max);\n        _;\n    }\n\n    function isValidServiceCertificate(\n        address publisher,\n        address client,\n        uint8 max,\n        uint8 auth_v,\n        bytes32 auth_r,\n        bytes32 auth_s,\n        uint8 nonce,\n        uint8 serv_v,\n        bytes32 serv_r,\n        bytes32 serv_s\n    )\n        public\n        pure\n        is_valid_nonce(nonce, max)\n        returns (bool _valid)\n    {\n        require(isValidAuthCertificate(\n            publisher,\n            client,\n            max,\n            auth_v,\n            auth_r,\n            auth_s\n        ));\n        bytes32 hashedMsg = keccak256(abi.encodePacked(\n            SIGNED_MSG_SERV_PREFIX,\n            auth_r,\n            auth_s,\n            auth_v,\n            nonce\n        ));\n        address signer = ecrecover(\n            hashedMsg,\n            serv_v,\n            serv_r,\n            serv_s\n        );\n        _valid = (signer == client);\n    }\n\n    function isValidAuthCertificate(\n        address publisher,\n        address client,\n        uint8 max,\n        uint8 v,\n        bytes32 r,\n        bytes32 s\n    )\n        internal\n        pure\n        returns (bool _valid)\n    {\n        bytes32 hashedMsg = keccak256(abi.encodePacked(\n            SIGNED_MSG_AUTH_PREFIX,\n            publisher,\n            client,\n            max\n        ));\n        address signer = ecrecover(hashedMsg, v, r, s);\n        _valid = (signer == publisher);\n    }\n}\n",
  "sourcePath": "/Users/rohitnarurkar/Develop/marlin/marlin-contracts/contracts/library/CertificateVerifier.sol",
  "compiler": {
    "name": "solc",
    "version": "0.4.24+commit.e67f0147.Emscripten.clang"
  },
  "schemaVersion": "2.0.1",
  "updatedAt": "2018-07-28T03:51:15.402Z"
}