{
  "contractName": "CryptoLib",
  "abi": [
    {
      "constant": true,
      "inputs": [
        {
          "name": "message",
          "type": "bytes"
        }
      ],
      "name": "hash",
      "outputs": [
        {
          "name": "",
          "type": "bytes32"
        }
      ],
      "payable": false,
      "stateMutability": "pure",
      "type": "function"
    },
    {
      "constant": true,
      "inputs": [
        {
          "name": "hash",
          "type": "bytes32"
        },
        {
          "name": "signature",
          "type": "bytes"
        }
      ],
      "name": "recover",
      "outputs": [
        {
          "name": "",
          "type": "address"
        }
      ],
      "payable": false,
      "stateMutability": "pure",
      "type": "function"
    }
  ],
  "bytecode": "0x6104f0610026600b82828239805160001a60731461001957fe5b30600052607381538281f3fe73000000000000000000000000000000000000000030146080604052600436106100405760003560e01c806319045a2514610045578063aa1e84de1461014a575b600080fd5b6101086004803603604081101561005b57600080fd5b81019080803590602001909291908035906020019064010000000081111561008257600080fd5b82018360208201111561009457600080fd5b803590602001918460018302840111640100000000831117156100b657600080fd5b91908080601f016020809104026020016040519081016040528093929190818152602001838380828437600081840152601f19601f820116905080830192505050505050509192919290505050610219565b604051808273ffffffffffffffffffffffffffffffffffffffff1673ffffffffffffffffffffffffffffffffffffffff16815260200191505060405180910390f35b6102036004803603602081101561016057600080fd5b810190808035906020019064010000000081111561017d57600080fd5b82018360208201111561018f57600080fd5b803590602001918460018302840111640100000000831117156101b157600080fd5b91908080601f016020809104026020016040519081016040528093929190818152602001838380828437600081840152601f19601f8201169050808301925050505050505091929192905050506102fb565b6040518082815260200191505060405180910390f35b600080600080604185511461023457600093505050506102f5565b6020850151925060408501519150606085015160001a9050601b8160ff16101561025f57601b810190505b601b8160ff16141580156102775750601c8160ff1614155b1561028857600093505050506102f5565b60018682858560405160008152602001604052604051808581526020018460ff1660ff1681526020018381526020018281526020019450505050506020604051602081039080840390855afa1580156102e5573d6000803e3d6000fd5b5050506020604051035193505050505b92915050565b600060606040518060400160405280602081526020017f19457468657265756d205369676e6564204d6573736167653a0a303030303030815250905060008084519050603983019150620f423f81111561035457600080fd5b60008090506000620186a090505b600081146103d157600081848161037557fe5b049050600081141561039e57600083141561039d57600a828161039457fe5b04915050610362565b5b828060010193505081810284039350600a82816103b757fe5b049150603081019050848060010195505080855350610362565b60008214156103e357601b91506103ea565b601a820191505b818552600085886040516020018083805190602001908083835b602083106104275780518252602082019150602081019050602083039250610404565b6001836020036101000a03801982511681845116808217855250505050505090500182805190602001908083835b602083106104785780518252602082019150602081019050602083039250610455565b6001836020036101000a0380198251168184511680821785525050505050509050019250505060405160208183030381529060405280519060200120905080965050505050505091905056fea165627a7a72305820b8a4faeea8349437e331c8b1a93c0871e7af0416e3afd75f2be56ee42233da740029",
  "source": "pragma solidity ^0.5.0;\r\n\r\nlibrary CryptoLib{\r\n    \r\n    function hash(bytes memory message) public pure returns(bytes32){\r\n       string memory header = \"\\x19Ethereum Signed Message:\\n000000\";\r\n       uint256 lengthOffset;\r\n       uint256 length;\r\n       assembly {\r\n         length := mload(message)\r\n         lengthOffset := add(header, 57)\r\n       }\r\n       require(length <= 999999);\r\n       uint256 lengthLength = 0;\r\n       uint256 divisor = 100000;\r\n       while (divisor != 0) {\r\n         uint256 digit = length / divisor;\r\n         if (digit == 0) {\r\n           if (lengthLength == 0) {\r\n             divisor /= 10;\r\n             continue;\r\n           }\r\n         }\r\n         lengthLength++;\r\n         length -= digit * divisor;\r\n         divisor /= 10;\r\n         digit += 0x30;\r\n         lengthOffset++;\r\n         assembly {\r\n           mstore8(lengthOffset, digit)\r\n         }\r\n       }\r\n       if (lengthLength == 0) {\r\n         lengthLength = 1 + 0x19 + 1;\r\n       } else {\r\n         lengthLength += 1 + 0x19;\r\n       }\r\n       assembly {\r\n         mstore(header, lengthLength)\r\n       }\r\n       bytes32 check = keccak256(abi.encodePacked(header, message));\r\n       return check;\r\n   }\r\n    \r\n    function recover(bytes32 hash, bytes memory signature) public pure returns (address){\r\n        bytes32 r;\r\n        bytes32 s;\r\n        uint8 v;\r\n    \r\n        if (signature.length != 65) {\r\n          return (address(0));\r\n        }\r\n    \r\n        assembly {\r\n          r := mload(add(signature, 0x20))\r\n          s := mload(add(signature, 0x40))\r\n          v := byte(0, mload(add(signature, 0x60)))\r\n        }\r\n    \r\n        if (v < 27) {\r\n          v += 27;\r\n        }\r\n    \r\n        if (v != 27 && v != 28) {\r\n          return (address(0));\r\n        } else {\r\n          return ecrecover(hash, v, r, s);\r\n        }\r\n    }\r\n}",
  "sourcePath": "C:\\Users\\Sarang Parikh\\Desktop\\marlin-payment\\marlin-payments\\contracts\\CryptoLib.sol",
  "compiler": {
    "name": "solc",
    "version": "0.5.8+commit.23d335f2.Emscripten.clang"
  },
  "schemaVersion": "3.0.16",
  "updatedAt": "2019-10-26T17:47:46.445Z",
  "devdoc": {
    "methods": {}
  },
  "userdoc": {
    "methods": {}
  }
}