{
  "contractName": "Logic2",
  "abi": [
    {
      "constant": true,
      "inputs": [],
      "name": "x",
      "outputs": [
        {
          "name": "",
          "type": "uint256"
        }
      ],
      "payable": false,
      "stateMutability": "view",
      "type": "function"
    },
    {
      "constant": false,
      "inputs": [
        {
          "name": "_x",
          "type": "uint256"
        }
      ],
      "name": "initialize",
      "outputs": [],
      "payable": false,
      "stateMutability": "nonpayable",
      "type": "function"
    },
    {
      "constant": true,
      "inputs": [],
      "name": "get",
      "outputs": [
        {
          "name": "",
          "type": "uint256"
        }
      ],
      "payable": false,
      "stateMutability": "view",
      "type": "function"
    }
  ],
  "bytecode": "0x608060405234801561001057600080fd5b5061019f806100206000396000f3fe6080604052600436106100565763ffffffff7c01000000000000000000000000000000000000000000000000000000006000350416630c55699c811461005b5780636d4ce63c14610082578063fe4b84df14610097575b600080fd5b34801561006757600080fd5b506100706100c3565b60408051918252519081900360200190f35b34801561008e57600080fd5b506100706100c9565b3480156100a357600080fd5b506100c1600480360360208110156100ba57600080fd5b50356100d2565b005b60005481565b60005460020290565b60015460ff161561014457604080517f08c379a000000000000000000000000000000000000000000000000000000000815260206004820152601c60248201527f446f65732074686520776f726b206f6620636f6e7374727563746f7200000000604482015290519081900360640190fd5b600180547fffffffffffffffffffffffffffffffffffffffffffffffffffffffffffffff00168117905560005556fea165627a7a72305820bb2fb9eb084c264e1a3d9e152fadd1076f5d28485e95cec7d48e27a98b0d00460029",
  "source": "pragma solidity >=0.4.21 <0.7.0;\n\n\ncontract Logic2 {\n    uint256 public x;\n    bool private initialized;\n\n    function initialize(uint256 _x) public {\n        require(!initialized, \"Does the work of constructor\");\n        initialized = true;\n        x = _x;\n    }\n\n    function get() public view returns (uint256) {\n        return 2 * x;\n    }\n}\n",
  "sourcePath": "/home/app/contracts/TestContracts/Logic2.sol",
  "compiler": {
    "name": "solc",
    "version": "0.5.0+commit.1d4f565a.Emscripten.clang"
  },
  "schemaVersion": "3.2.0",
  "updatedAt": "2020-05-25T18:21:25.286Z",
  "networkType": "ethereum",
  "devdoc": {
    "methods": {}
  },
  "userdoc": {
    "methods": {}
  }
}