{
  "contractName": "Logic",
  "abi": [
    {
      "constant": true,
      "inputs": [],
      "name": "x",
      "outputs": [
        {
          "name": "",
          "type": "uint256"
        }
      ],
      "payable": false,
      "stateMutability": "view",
      "type": "function"
    },
    {
      "constant": false,
      "inputs": [
        {
          "name": "_x",
          "type": "uint256"
        }
      ],
      "name": "initialize",
      "outputs": [],
      "payable": false,
      "stateMutability": "nonpayable",
      "type": "function"
    },
    {
      "constant": true,
      "inputs": [],
      "name": "get",
      "outputs": [
        {
          "name": "",
          "type": "uint256"
        }
      ],
      "payable": false,
      "stateMutability": "view",
      "type": "function"
    },
    {
      "constant": true,
      "inputs": [],
      "name": "clash",
      "outputs": [
        {
          "name": "",
          "type": "string"
        }
      ],
      "payable": false,
      "stateMutability": "pure",
      "type": "function"
    }
  ],
  "bytecode": "0x608060405234801561001057600080fd5b50610268806100206000396000f3fe6080604052600436106100615763ffffffff7c01000000000000000000000000000000000000000000000000000000006000350416630c55699c81146100665780636d4ce63c1461008d57806393b3bbbe146100a2578063fe4b84df1461012c575b600080fd5b34801561007257600080fd5b5061007b610158565b60408051918252519081900360200190f35b34801561009957600080fd5b5061007b61015e565b3480156100ae57600080fd5b506100b7610164565b6040805160208082528351818301528351919283929083019185019080838360005b838110156100f15781810151838201526020016100d9565b50505050905090810190601f16801561011e5780820380516001836020036101000a031916815260200191505b509250505060405180910390f35b34801561013857600080fd5b506101566004803603602081101561014f57600080fd5b503561019b565b005b60005481565b60005490565b60408051808201909152600581527f4c6f676963000000000000000000000000000000000000000000000000000000602082015290565b60015460ff161561020d57604080517f08c379a000000000000000000000000000000000000000000000000000000000815260206004820152601c60248201527f446f65732074686520776f726b206f6620636f6e7374727563746f7200000000604482015290519081900360640190fd5b600180547fffffffffffffffffffffffffffffffffffffffffffffffffffffffffffffff00168117905560005556fea165627a7a72305820b94c6af70f4c398d7531c26457fd89170b7d1b217b77cff5748f69d7e65229110029",
  "source": "pragma solidity >=0.4.21 <0.7.0;\n\n\ncontract Logic {\n    uint256 public x;\n    bool private initialized;\n\n    function initialize(uint256 _x) public {\n        require(!initialized, \"Does the work of constructor\");\n        initialized = true;\n        x = _x;\n    }\n\n    function get() public view returns (uint256) {\n        return x;\n    }\n\n    function clash() public pure returns (string memory) {\n        return \"Logic\";\n    }\n}\n",
  "sourcePath": "/home/app/contracts/TestContracts/Logic.sol",
  "compiler": {
    "name": "solc",
    "version": "0.5.0+commit.1d4f565a.Emscripten.clang"
  },
  "schemaVersion": "3.2.0",
  "updatedAt": "2020-05-25T18:21:25.281Z",
  "networkType": "ethereum",
  "devdoc": {
    "methods": {}
  },
  "userdoc": {
    "methods": {}
  }
}