{
  "contractName": "MarlinPaymentChannel",
  "abi": [
    {
      "inputs": [],
      "payable": false,
      "stateMutability": "nonpayable",
      "type": "constructor"
    },
    {
      "constant": true,
      "inputs": [
        {
          "name": "_addr",
          "type": "address"
        }
      ],
      "name": "balanceOf",
      "outputs": [
        {
          "name": "",
          "type": "uint256"
        }
      ],
      "payable": false,
      "stateMutability": "view",
      "type": "function"
    },
    {
      "constant": false,
      "inputs": [
        {
          "name": "_addr",
          "type": "address"
        }
      ],
      "name": "addBalance",
      "outputs": [],
      "payable": false,
      "stateMutability": "nonpayable",
      "type": "function"
    },
    {
      "constant": true,
      "inputs": [
        {
          "name": "_addr",
          "type": "address"
        }
      ],
      "name": "getBalance",
      "outputs": [
        {
          "name": "",
          "type": "uint256"
        }
      ],
      "payable": false,
      "stateMutability": "view",
      "type": "function"
    },
    {
      "constant": false,
      "inputs": [
        {
          "name": "_witness",
          "type": "bytes"
        },
        {
          "name": "_sig",
          "type": "bytes"
        }
      ],
      "name": "defray",
      "outputs": [],
      "payable": false,
      "stateMutability": "nonpayable",
      "type": "function"
    }
  ],
  "bytecode": "0x608060405234801561001057600080fd5b506101f460008073d03ea8624c8c5987235048901fb614fdca89b11773ffffffffffffffffffffffffffffffffffffffff1673ffffffffffffffffffffffffffffffffffffffff168152602001908152602001600020819055506114c8806100796000396000f3fe608060405234801561001057600080fd5b506004361061004c5760003560e01c80632c8546da1461005157806370a08231146101a3578063b5cef24a146101fb578063f8b2cb4f1461023f575b600080fd5b6101a16004803603604081101561006757600080fd5b810190808035906020019064010000000081111561008457600080fd5b82018360208201111561009657600080fd5b803590602001918460018302840111640100000000831117156100b857600080fd5b91908080601f016020809104026020016040519081016040528093929190818152602001838380828437600081840152601f19601f8201169050808301925050505050505091929192908035906020019064010000000081111561011b57600080fd5b82018360208201111561012d57600080fd5b8035906020019184600183028401116401000000008311171561014f57600080fd5b91908080601f016020809104026020016040519081016040528093929190818152602001838380828437600081840152601f19601f820116905080830192505050505050509192919290505050610297565b005b6101e5600480360360208110156101b957600080fd5b81019080803573ffffffffffffffffffffffffffffffffffffffff1690602001909291905050506113bb565b6040518082815260200191505060405180910390f35b61023d6004803603602081101561021157600080fd5b81019080803573ffffffffffffffffffffffffffffffffffffffff169060200190929190505050611403565b005b6102816004803603602081101561025557600080fd5b81019080803573ffffffffffffffffffffffffffffffffffffffff169060200190929190505050611454565b6040518082815260200191505060405180910390f35b6000604b8351816102a457fe5b049050600073__CryptoLib_____________________________6319045a2573__CryptoLib_____________________________63aa1e84de876040518263ffffffff1660e01b81526004018080602001828103825283818151815260200191508051906020019080838360005b8381101561032d578082015181840152602081019050610312565b50505050905090810190601f16801561035a5780820380516001836020036101000a031916815260200191505b509250505060206040518083038186803b15801561037757600080fd5b505af415801561038b573d6000803e3d6000fd5b505050506040513d60208110156103a157600080fd5b8101908080519060200190929190505050856040518363ffffffff1660e01b81526004018083815260200180602001828103825283818151815260200191508051906020019080838360005b838110156104085780820151818401526020810190506103ed565b50505050905090810190601f1680156104355780820380516001836020036101000a031916815260200191505b50935050505060206040518083038186803b15801561045357600080fd5b505af4158015610467573d6000803e3d6000fd5b505050506040513d602081101561047d57600080fd5b810190808051906020019092919050505090506001820182026000808373ffffffffffffffffffffffffffffffffffffffff1673ffffffffffffffffffffffffffffffffffffffff1681526020019081526020016000205410156104e057600080fd5b6060600183016040519080825280602002602001820160405280156105145781602001602082028038833980820191505090505b509050606073__Ops___________________________________63e004139687600060146040518463ffffffff1660e01b81526004018080602001848152602001838152602001828103825285818151815260200191508051906020019080838360005b83811015610593578082015181840152602081019050610578565b50505050905090810190601f1680156105c05780820380516001836020036101000a031916815260200191505b5094505050505060006040518083038186803b1580156105df57600080fd5b505af41580156105f3573d6000803e3d6000fd5b505050506040513d6000823e3d601f19601f82011682018060405250602081101561061d57600080fd5b81019080805164010000000081111561063557600080fd5b8281019050602081018481111561064b57600080fd5b815185600182028301116401000000008211171561066857600080fd5b5050929190505050905073__Ops___________________________________6342526e4e826040518263ffffffff1660e01b81526004018080602001828103825283818151815260200191508051906020019080838360005b838110156106dc5780820151818401526020810190506106c1565b50505050905090810190601f1680156107095780820380516001836020036101000a031916815260200191505b509250505060206040518083038186803b15801561072657600080fd5b505af415801561073a573d6000803e3d6000fd5b505050506040513d602081101561075057600080fd5b81019080805190602001909291905050508260018151811061076e57fe5b602002602001019073ffffffffffffffffffffffffffffffffffffffff16908173ffffffffffffffffffffffffffffffffffffffff1681525050600073__CryptoLib_____________________________63aa1e84de836040518263ffffffff1660e01b81526004018080602001828103825283818151815260200191508051906020019080838360005b838110156108145780820151818401526020810190506107f9565b50505050905090810190601f1680156108415780820380516001836020036101000a031916815260200191505b509250505060206040518083038186803b15801561085e57600080fd5b505af4158015610872573d6000803e3d6000fd5b505050506040513d602081101561088857600080fd5b81019080805190602001909291905050509050606073__Ops___________________________________63e004139689601460556040518463ffffffff1660e01b81526004018080602001848152602001838152602001828103825285818151815260200191508051906020019080838360005b838110156109175780820151818401526020810190506108fc565b50505050905090810190601f1680156109445780820380516001836020036101000a031916815260200191505b5094505050505060006040518083038186803b15801561096357600080fd5b505af4158015610977573d6000803e3d6000fd5b505050506040513d6000823e3d601f19601f8201168201806040525060208110156109a157600080fd5b8101908080516401000000008111156109b957600080fd5b828101905060208101848111156109cf57600080fd5b81518560018202830111640100000000821117156109ec57600080fd5b5050929190505050905073__CryptoLib_____________________________6319045a2583836040518363ffffffff1660e01b81526004018083815260200180602001828103825283818151815260200191508051906020019080838360005b83811015610a67578082015181840152602081019050610a4c565b50505050905090810190601f168015610a945780820380516001836020036101000a031916815260200191505b50935050505060206040518083038186803b158015610ab257600080fd5b505af4158015610ac6573d6000803e3d6000fd5b505050506040513d6020811015610adc57600080fd5b810190808051906020019092919050505084600081518110610afa57fe5b602002602001019073ffffffffffffffffffffffffffffffffffffffff16908173ffffffffffffffffffffffffffffffffffffffff16815250506000605590506000600190505b878110156112d55773__Ops___________________________________63e00413968b84601486016040518463ffffffff1660e01b81526004018080602001848152602001838152602001828103825285818151815260200191508051906020019080838360005b83811015610bc4578082015181840152602081019050610ba9565b50505050905090810190601f168015610bf15780820380516001836020036101000a031916815260200191505b5094505050505060006040518083038186803b158015610c1057600080fd5b505af4158015610c24573d6000803e3d6000fd5b505050506040513d6000823e3d601f19601f820116820180604052506020811015610c4e57600080fd5b810190808051640100000000811115610c6657600080fd5b82810190506020810184811115610c7c57600080fd5b8151856001820283011164010000000082111715610c9957600080fd5b5050929190505050945073__Ops___________________________________6342526e4e866040518263ffffffff1660e01b81526004018080602001828103825283818151815260200191508051906020019080838360005b83811015610d0d578082015181840152602081019050610cf2565b50505050905090810190601f168015610d3a5780820380516001836020036101000a031916815260200191505b509250505060206040518083038186803b158015610d5757600080fd5b505af4158015610d6b573d6000803e3d6000fd5b505050506040513d6020811015610d8157600080fd5b8101908080519060200190929190505050866001830181518110610da157fe5b602002602001019073ffffffffffffffffffffffffffffffffffffffff16908173ffffffffffffffffffffffffffffffffffffffff168152505060148201915073__CryptoLib_____________________________63aa1e84de73__Ops___________________________________63e00413968d6000876040518463ffffffff1660e01b81526004018080602001848152602001838152602001828103825285818151815260200191508051906020019080838360005b83811015610e74578082015181840152602081019050610e59565b50505050905090810190601f168015610ea15780820380516001836020036101000a031916815260200191505b5094505050505060006040518083038186803b158015610ec057600080fd5b505af4158015610ed4573d6000803e3d6000fd5b505050506040513d6000823e3d601f19601f820116820180604052506020811015610efe57600080fd5b810190808051640100000000811115610f1657600080fd5b82810190506020810184811115610f2c57600080fd5b8151856001820283011164010000000082111715610f4957600080fd5b50509291905050506040518263ffffffff1660e01b81526004018080602001828103825283818151815260200191508051906020019080838360005b83811015610fa0578082015181840152602081019050610f85565b50505050905090810190601f168015610fcd5780820380516001836020036101000a031916815260200191505b509250505060206040518083038186803b158015610fea57600080fd5b505af4158015610ffe573d6000803e3d6000fd5b505050506040513d602081101561101457600080fd5b8101908080519060200190929190505050935073__Ops___________________________________63e00413968b84604186016040518463ffffffff1660e01b81526004018080602001848152602001838152602001828103825285818151815260200191508051906020019080838360005b838110156110a2578082015181840152602081019050611087565b50505050905090810190601f1680156110cf5780820380516001836020036101000a031916815260200191505b5094505050505060006040518083038186803b1580156110ee57600080fd5b505af4158015611102573d6000803e3d6000fd5b505050506040513d6000823e3d601f19601f82011682018060405250602081101561112c57600080fd5b81019080805164010000000081111561114457600080fd5b8281019050602081018481111561115a57600080fd5b815185600182028301116401000000008211171561117757600080fd5b5050929190505050925085818151811061118d57fe5b602002602001015173ffffffffffffffffffffffffffffffffffffffff1673__CryptoLib_____________________________6319045a2586866040518363ffffffff1660e01b81526004018083815260200180602001828103825283818151815260200191508051906020019080838360005b8381101561121c578082015181840152602081019050611201565b50505050905090810190601f1680156112495780820380516001836020036101000a031916815260200191505b50935050505060206040518083038186803b15801561126757600080fd5b505af415801561127b573d6000803e3d6000fd5b505050506040513d602081101561129157600080fd5b810190808051906020019092919050505073ffffffffffffffffffffffffffffffffffffffff16146112c257600080fd5b6041820191508080600101915050610b41565b5060008090505b85518110156113af57600181016002026000808973ffffffffffffffffffffffffffffffffffffffff1673ffffffffffffffffffffffffffffffffffffffff168152602001908152602001600020600082825403925050819055506001810160020260008088846001018a51038151811061135357fe5b602002602001015173ffffffffffffffffffffffffffffffffffffffff1673ffffffffffffffffffffffffffffffffffffffff1681526020019081526020016000206000828254019250508190555080806001019150506112dc565b50505050505050505050565b60008060008373ffffffffffffffffffffffffffffffffffffffff1673ffffffffffffffffffffffffffffffffffffffff168152602001908152602001600020549050919050565b6101f46000808373ffffffffffffffffffffffffffffffffffffffff1673ffffffffffffffffffffffffffffffffffffffff1681526020019081526020016000206000828254019250508190555050565b60008060008373ffffffffffffffffffffffffffffffffffffffff1673ffffffffffffffffffffffffffffffffffffffff16815260200190815260200160002054905091905056fea165627a7a7230582014bee87f609b6fcfe2c31098fd0f9207f26a3cbedb3ea3aea4d58d43b2c6bfc80029",
  "source": "pragma solidity ^0.5.0;\r\n\r\nimport \"../contracts/Ops.sol\";\r\nimport \"../contracts/CryptoLib.sol\";\r\n\r\ncontract MarlinPaymentChannel{\r\n    using Ops for Ops;\r\n    using CryptoLib for CryptoLib;\r\n    \r\n    mapping(address => uint) balances;\r\n    \r\n    constructor()public{\r\n        balances[0xd03ea8624C8C5987235048901fB614fDcA89b117] = 500;\r\n    }\r\n    \r\n    function balanceOf(address _addr) public view returns(uint){\r\n        return balances[_addr];\r\n    }\r\n    \r\n    function addBalance(address _addr) public {\r\n        balances[_addr] += 500;\r\n    }\r\n\r\n    function getBalance(address _addr) public view returns(uint) {\r\n        return balances[_addr];\r\n    }\r\n    \r\n    function defray(bytes memory _witness, bytes memory _sig) public {\r\n        \r\n        uint totalWitnesses = _witness.length / 75;\r\n        address receiver = CryptoLib.recover(CryptoLib.hash(_witness), _sig);\r\n        \r\n        require(balances[receiver] >= totalWitnesses*(totalWitnesses+1));\r\n        \r\n        address[] memory witnessBox = new address[](totalWitnesses + 1);\r\n        bytes memory tempAddress = Ops.slice(_witness,0,20);\r\n        witnessBox[1] = Ops.bytesToAddress(tempAddress);\r\n        \r\n        bytes32 hash = CryptoLib.hash(tempAddress);\r\n        \r\n        bytes memory sig = Ops.slice(_witness,20,85);\r\n        witnessBox[0] = CryptoLib.recover(hash, sig);\r\n        \r\n        uint bytesCovered = 85;\r\n        \r\n        for(uint i = 1;i<totalWitnesses;i++){\r\n            \r\n            tempAddress = Ops.slice(_witness,bytesCovered, bytesCovered + 20);\r\n            witnessBox[i+1] = Ops.bytesToAddress(tempAddress);\r\n            \r\n            bytesCovered += 20;\r\n            \r\n            hash = CryptoLib.hash(Ops.slice(_witness,0,bytesCovered));\r\n            \r\n            sig = Ops.slice(_witness,bytesCovered,bytesCovered+65);\r\n            \r\n            require(CryptoLib.recover(hash,sig) == witnessBox[i]);\r\n            \r\n            bytesCovered += 65;\r\n        }\r\n        for(uint i=0;i<witnessBox.length;i++){\r\n            balances[receiver] -=  (2*(i+1));\r\n            balances[witnessBox[witnessBox.length - (1+i)]] += (2*(i+1));\r\n        }\r\n    }\r\n}",
  "sourcePath": "C:/Users/Sarang Parikh/Desktop/marlin-payment/marlin-payments/contracts/MarlinPaymentChannel.sol",
  "compiler": {
    "name": "solc",
    "version": "0.5.8+commit.23d335f2.Emscripten.clang"
  },
  "schemaVersion": "3.0.16",
  "updatedAt": "2019-10-15T17:40:26.228Z",
  "devdoc": {
    "methods": {}
  },
  "userdoc": {
    "methods": {}
  }
}