{
  "contractName": "PaymentLogic",
  "abi": [
    {
      "constant": true,
      "inputs": [
        {
          "name": "",
          "type": "address"
        }
      ],
      "name": "lockedBalances",
      "outputs": [
        {
          "name": "",
          "type": "uint256"
        }
      ],
      "payable": false,
      "stateMutability": "view",
      "type": "function"
    },
    {
      "constant": false,
      "inputs": [
        {
          "name": "_amount",
          "type": "uint256"
        }
      ],
      "name": "withdraw",
      "outputs": [
        {
          "name": "",
          "type": "uint256"
        }
      ],
      "payable": false,
      "stateMutability": "nonpayable",
      "type": "function"
    },
    {
      "constant": false,
      "inputs": [],
      "name": "withdrawAll",
      "outputs": [
        {
          "name": "",
          "type": "uint256"
        }
      ],
      "payable": false,
      "stateMutability": "nonpayable",
      "type": "function"
    },
    {
      "constant": true,
      "inputs": [
        {
          "name": "",
          "type": "address"
        }
      ],
      "name": "unlockedBalances",
      "outputs": [
        {
          "name": "",
          "type": "uint256"
        }
      ],
      "payable": false,
      "stateMutability": "view",
      "type": "function"
    },
    {
      "constant": false,
      "inputs": [
        {
          "name": "_amount",
          "type": "uint256"
        }
      ],
      "name": "deposit",
      "outputs": [
        {
          "name": "",
          "type": "uint256"
        }
      ],
      "payable": false,
      "stateMutability": "nonpayable",
      "type": "function"
    },
    {
      "constant": true,
      "inputs": [
        {
          "name": "",
          "type": "bytes32"
        }
      ],
      "name": "unlockRequests",
      "outputs": [
        {
          "name": "sender",
          "type": "address"
        },
        {
          "name": "timestamp",
          "type": "uint256"
        },
        {
          "name": "amount",
          "type": "uint256"
        }
      ],
      "payable": false,
      "stateMutability": "view",
      "type": "function"
    },
    {
      "constant": true,
      "inputs": [],
      "name": "token",
      "outputs": [
        {
          "name": "",
          "type": "address"
        }
      ],
      "payable": false,
      "stateMutability": "view",
      "type": "function"
    },
    {
      "anonymous": false,
      "inputs": [
        {
          "indexed": false,
          "name": "id",
          "type": "bytes32"
        },
        {
          "indexed": false,
          "name": "sender",
          "type": "address"
        },
        {
          "indexed": false,
          "name": "time",
          "type": "uint256"
        },
        {
          "indexed": false,
          "name": "amount",
          "type": "uint256"
        }
      ],
      "name": "UnlockRequested",
      "type": "event"
    },
    {
      "anonymous": false,
      "inputs": [
        {
          "indexed": false,
          "name": "id",
          "type": "bytes32"
        },
        {
          "indexed": false,
          "name": "changed",
          "type": "bool"
        }
      ],
      "name": "UnlockRequestSealed",
      "type": "event"
    },
    {
      "anonymous": false,
      "inputs": [
        {
          "indexed": false,
          "name": "sender",
          "type": "address"
        },
        {
          "indexed": false,
          "name": "amount",
          "type": "uint256"
        },
        {
          "indexed": false,
          "name": "paid",
          "type": "bool"
        }
      ],
      "name": "PayWitness",
      "type": "event"
    },
    {
      "anonymous": false,
      "inputs": [
        {
          "indexed": false,
          "name": "sender",
          "type": "address"
        },
        {
          "indexed": false,
          "name": "amount",
          "type": "uint256"
        }
      ],
      "name": "Deposit",
      "type": "event"
    },
    {
      "anonymous": false,
      "inputs": [
        {
          "indexed": false,
          "name": "sender",
          "type": "address"
        },
        {
          "indexed": false,
          "name": "amount",
          "type": "uint256"
        },
        {
          "indexed": false,
          "name": "withdrawn",
          "type": "bool"
        }
      ],
      "name": "Withdraw",
      "type": "event"
    },
    {
      "anonymous": false,
      "inputs": [
        {
          "indexed": false,
          "name": "sender",
          "type": "address"
        },
        {
          "indexed": false,
          "name": "amount",
          "type": "uint256"
        }
      ],
      "name": "Lock",
      "type": "event"
    },
    {
      "anonymous": false,
      "inputs": [
        {
          "indexed": false,
          "name": "sender",
          "type": "address"
        },
        {
          "indexed": false,
          "name": "amount",
          "type": "uint256"
        }
      ],
      "name": "Unlock",
      "type": "event"
    },
    {
      "constant": false,
      "inputs": [
        {
          "name": "_token",
          "type": "address"
        }
      ],
      "name": "initialize",
      "outputs": [],
      "payable": false,
      "stateMutability": "nonpayable",
      "type": "function"
    },
    {
      "constant": false,
      "inputs": [
        {
          "name": "_amount",
          "type": "uint256"
        }
      ],
      "name": "unlock",
      "outputs": [
        {
          "name": "",
          "type": "bytes32"
        }
      ],
      "payable": false,
      "stateMutability": "nonpayable",
      "type": "function"
    },
    {
      "constant": false,
      "inputs": [
        {
          "name": "_id",
          "type": "bytes32"
        }
      ],
      "name": "sealUnlockRequest",
      "outputs": [
        {
          "name": "",
          "type": "bool"
        }
      ],
      "payable": false,
      "stateMutability": "nonpayable",
      "type": "function"
    },
    {
      "constant": true,
      "inputs": [
        {
          "name": "_witnessSignature",
          "type": "bytes"
        }
      ],
      "name": "isWinning",
      "outputs": [
        {
          "name": "",
          "type": "bool"
        }
      ],
      "payable": false,
      "stateMutability": "pure",
      "type": "function"
    },
    {
      "constant": false,
      "inputs": [
        {
          "components": [
            {
              "components": [
                {
                  "name": "relayer",
                  "type": "address"
                },
                {
                  "name": "relayerFraction",
                  "type": "uint256"
                },
                {
                  "name": "relayerSignature",
                  "type": "bytes"
                }
              ],
              "name": "witnessList",
              "type": "tuple[]"
            },
            {
              "name": "signature",
              "type": "bytes"
            }
          ],
          "name": "_signedWitness",
          "type": "tuple"
        },
        {
          "name": "_amount",
          "type": "uint256"
        }
      ],
      "name": "payForWitness",
      "outputs": [
        {
          "name": "",
          "type": "bool"
        }
      ],
      "payable": false,
      "stateMutability": "nonpayable",
      "type": "function"
    }
  ],
  "bytecode": "0x608060405234801561001057600080fd5b50611900806100206000396000f3fe6080604052600436106100b95763ffffffff7c01000000000000000000000000000000000000000000000000000000006000350416630483a7f681146100be5780632e1a7d4d146100f45780634467a920146101145780636198e339146101415780638227a96814610161578063853828b6146101815780638c8ba66d14610196578063b6b55f25146101b6578063c4d66de8146101d6578063d4f645e5146101f8578063e7017f7814610218578063fc0c546a14610247575b600080fd5b3480156100ca57600080fd5b506100de6100d93660046112ab565b610269565b6040516100eb91906116e9565b60405180910390f35b34801561010057600080fd5b506100de61010f3660046112ef565b61027b565b34801561012057600080fd5b5061013461012f366004611342565b6103ee565b6040516100eb91906116db565b34801561014d57600080fd5b506100de61015c3660046112ef565b6105f5565b34801561016d57600080fd5b5061013461017c3660046112ef565b610735565b34801561018d57600080fd5b506100de6108fa565b3480156101a257600080fd5b506100de6101b13660046112ab565b610a42565b3480156101c257600080fd5b506100de6101d13660046112ef565b610a54565b3480156101e257600080fd5b506101f66101f13660046112ab565b610d27565b005b34801561020457600080fd5b5061013461021336600461130d565b610e28565b34801561022457600080fd5b506102386102333660046112ef565b610ebe565b6040516100eb939291906116c0565b34801561025357600080fd5b5061025c610ef6565b6040516100eb9190611750565b60346020526000908152604090205481565b336000908152603560205260408120548211156102cd576040517f08c379a00000000000000000000000000000000000000000000000000000000081526004016102c4906117ae565b60405180910390fd5b336000908152603560205260409020546102ed908363ffffffff610f1216565b33600081815260356020526040908190209290925560335491517fa9059cbb00000000000000000000000000000000000000000000000000000000815273ffffffffffffffffffffffffffffffffffffffff9092169163a9059cbb9161035791869060040161167d565b602060405180830381600087803b15801561037157600080fd5b505af1158015610385573d6000803e3d6000fd5b505050506040513d601f19601f820116820180604052506103a991908101906112d1565b507f039d3e7ccc0d8edf3fb8206bf9f58888c4cced8c157c730a2407a54aad7c865c338360016040516103de93929190611698565b60405180910390a150805b919050565b33600090815260346020526040812054821115610437576040517f08c379a00000000000000000000000000000000000000000000000000000000081526004016102c4906117be565b6104448360200151610e28565b151561048e577fa9ee3d3b0837c85b72be39bee6cb5bbc127892448cdbb314af0cdef606d7545e3383600060405161047e93929190611698565b60405180910390a15060006105ef565b60005b8351518110156105ae57835180516104db918591849081106104af57fe5b60209081029091018101518101513360009081526034909252604090912054910263ffffffff610f1216565b3360009081526034602052604090205583518051610561918591849081106104ff57fe5b9060200190602002015160200151026035600087600001518581518110151561052457fe5b60209081029091018101515173ffffffffffffffffffffffffffffffffffffffff168252810191909152604001600020549063ffffffff610f5416565b845180516035916000918590811061057557fe5b60209081029091018101515173ffffffffffffffffffffffffffffffffffffffff16825281019190915260400160002055600101610491565b507fa9ee3d3b0837c85b72be39bee6cb5bbc127892448cdbb314af0cdef606d7545e338360016040516105e393929190611698565b60405180910390a15060015b92915050565b3360009081526034602052604081205482111561063e576040517f08c379a00000000000000000000000000000000000000000000000000000000081526004016102c49061175e565b6000334284604051602001610655939291906116c0565b604080517fffffffffffffffffffffffffffffffffffffffffffffffffffffffffffffffe0818403018152918152815160209283012060008181526068909352912080547fffffffffffffffffffffffff00000000000000000000000000000000000000001633178155426001820155600201549091506106dc908463ffffffff610f5416565b6000828152606860205260409081902060020191909155517fa56c6aa3817dd7a45b826e3604a8af19b0cf38c2fed8eae421e508ad4906ea05906107279083903390429088906116f7565b60405180910390a192915050565b60008181526068602052604081205473ffffffffffffffffffffffffffffffffffffffff163314610792576040517f08c379a00000000000000000000000000000000000000000000000000000000081526004016102c49061176e565b600082815260686020526040902060010154426201518090910111156107f4577fb676ed024e6c0465f6e523613ee0267d56bbf06535dc165889c77413fcb381668260006040516107e4929190611735565b60405180910390a15060006103e9565b6000828152606860209081526040808320600201543384526034909252909120546108249163ffffffff610f1216565b3360008181526034602090815260408083209490945585825260688152838220600201549282526035905291909120546108639163ffffffff610f5416565b336000908152603560209081526040808320939093558482526068905281812080547fffffffffffffffffffffffff0000000000000000000000000000000000000000168155600180820183905560029091019190915590517fb676ed024e6c0465f6e523613ee0267d56bbf06535dc165889c77413fcb38166916108ea91859190611735565b60405180910390a1506001919050565b336000908152603560205260408120548110610942576040517f08c379a00000000000000000000000000000000000000000000000000000000081526004016102c4906117ae565b33600081815260356020526040808220805492905560335490517fa9059cbb000000000000000000000000000000000000000000000000000000008152919273ffffffffffffffffffffffffffffffffffffffff9091169163a9059cbb916109ae91859060040161167d565b602060405180830381600087803b1580156109c857600080fd5b505af11580156109dc573d6000803e3d6000fd5b505050506040513d601f19601f82011682018060405250610a0091908101906112d1565b507f039d3e7ccc0d8edf3fb8206bf9f58888c4cced8c157c730a2407a54aad7c865c33826001604051610a3593929190611698565b60405180910390a1905090565b60356020526000908152604090205481565b6033546040517f70a08231000000000000000000000000000000000000000000000000000000008152600091839173ffffffffffffffffffffffffffffffffffffffff909116906370a0823190610aaf90339060040161162c565b60206040518083038186803b158015610ac757600080fd5b505afa158015610adb573d6000803e3d6000fd5b505050506040513d601f19601f82011682018060405250610aff9190810190611393565b1015610b37576040517f08c379a00000000000000000000000000000000000000000000000000000000081526004016102c49061178e565b6033546040517fdd62ed3e000000000000000000000000000000000000000000000000000000008152839173ffffffffffffffffffffffffffffffffffffffff169063dd62ed3e90610b8f903390309060040161163a565b60206040518083038186803b158015610ba757600080fd5b505afa158015610bbb573d6000803e3d6000fd5b505050506040513d601f19601f82011682018060405250610bdf9190810190611393565b1015610c17576040517f08c379a00000000000000000000000000000000000000000000000000000000081526004016102c4906117de565b33600090815260346020526040902054610c37908363ffffffff610f5416565b33600081815260346020526040908190209290925560335491517f23b872dd00000000000000000000000000000000000000000000000000000000815273ffffffffffffffffffffffffffffffffffffffff909216916323b872dd91610ca39130908790600401611655565b602060405180830381600087803b158015610cbd57600080fd5b505af1158015610cd1573d6000803e3d6000fd5b505050506040513d601f19601f82011682018060405250610cf591908101906112d1565b507fe1fffcc4923d04b559f4d29a8bfc6cda04eb5b0d3c460751c2402c5c5cc9109c33836040516103de92919061167d565b600054610100900460ff1680610d405750610d40610f9a565b80610d4e575060005460ff16155b1515610d86576040517f08c379a00000000000000000000000000000000000000000000000000000000081526004016102c4906117ce565b600054610100900460ff16158015610dec57600080547fffffffffffffffffffffffffffffffffffffffffffffffffffffffffffffff007fffffffffffffffffffffffffffffffffffffffffffffffffffffffffffff00ff909116610100171660011790555b610df582610fa0565b8015610e2457600080547fffffffffffffffffffffffffffffffffffffffffffffffffffffffffffff00ff1690555b5050565b80516000908190839082908110610e3b57fe5b9060200101517f010000000000000000000000000000000000000000000000000000000000000090047f0100000000000000000000000000000000000000000000000000000000000000027effffffffffffffffffffffffffffffffffffffffffffffffffffffffffffff19161415610eb6575060016103e9565b506000919050565b60686020526000908152604090208054600182015460029092015473ffffffffffffffffffffffffffffffffffffffff909116919083565b60335473ffffffffffffffffffffffffffffffffffffffff1681565b600082821115610f4e576040517f08c379a00000000000000000000000000000000000000000000000000000000081526004016102c49061179e565b50900390565b600082820183811015610f93576040517f08c379a00000000000000000000000000000000000000000000000000000000081526004016102c49061177e565b9392505050565b303b1590565b600054610100900460ff1680610fb95750610fb9610f9a565b80610fc7575060005460ff16155b1515610fff576040517f08c379a00000000000000000000000000000000000000000000000000000000081526004016102c4906117ce565b600054610100900460ff1615801561106557600080547fffffffffffffffffffffffffffffffffffffffffffffffffffffffffffffff007fffffffffffffffffffffffffffffffffffffffffffffffffffffffffffff00ff909116610100171660011790555b603380547fffffffffffffffffffffffff00000000000000000000000000000000000000001673ffffffffffffffffffffffffffffffffffffffff84161790558015610e2457600080547fffffffffffffffffffffffffffffffffffffffffffffffffffffffffffff00ff1690555050565b6000610f93823561187c565b6000601f820183136110f457600080fd5b813561110761110282611815565b6117ee565b81815260209384019390925082018360005b83811015611145578135860161112f888261122c565b8452506020928301929190910190600101611119565b5050505092915050565b6000610f938251611887565b6000610f93823561188c565b6000601f8201831361117857600080fd5b813561118661110282611836565b915080825260208301602083018583830111156111a257600080fd5b6111ad8382846118ba565b50505092915050565b6000604082840312156111c857600080fd5b6111d260406117ee565b9050813567ffffffffffffffff8111156111eb57600080fd5b6111f7848285016110e3565b825250602082013567ffffffffffffffff81111561121457600080fd5b61122084828501611167565b60208301525092915050565b60006060828403121561123e57600080fd5b61124860606117ee565b9050600061125684846110d7565b82525060206112678484830161115b565b602083015250604082013567ffffffffffffffff81111561128757600080fd5b61129384828501611167565b60408301525092915050565b6000610f93825161188c565b6000602082840312156112bd57600080fd5b60006112c984846110d7565b949350505050565b6000602082840312156112e357600080fd5b60006112c9848461114f565b60006020828403121561130157600080fd5b60006112c9848461115b565b60006020828403121561131f57600080fd5b813567ffffffffffffffff81111561133657600080fd5b6112c984828501611167565b6000806040838503121561135557600080fd5b823567ffffffffffffffff81111561136c57600080fd5b611378858286016111b6565b92505060206113898582860161115b565b9150509250929050565b6000602082840312156113a557600080fd5b60006112c9848461129f565b6113ba816118a8565b82525050565b6113ba8161187c565b6113ba81611887565b6113ba8161188c565b6113ba816118af565b601c81527f416d6f756e742065786365656473206c6f636b656442616c616e636500000000602082015260400190565b601c81527f596f752063616e6e6f74207365616c2074686973207265717565737400000000602082015260400190565b601b81527f536166654d6174683a206164646974696f6e206f766572666c6f770000000000602082015260400190565b601481527f496e73756666696369656e742062616c616e6365000000000000000000000000602082015260400190565b601e81527f536166654d6174683a207375627472616374696f6e206f766572666c6f770000602082015260400190565b602781527f416d6f756e742067726561746572207468616e2074686520756e6c6f636b656460208201527f20616d6f756e7400000000000000000000000000000000000000000000000000604082015260600190565b602781527f5573657220646f65736e2774206861766520656e6f756768206c6f636b65642060208201527f62616c616e636500000000000000000000000000000000000000000000000000604082015260600190565b602e81527f436f6e747261637420696e7374616e63652068617320616c726561647920626560208201527f656e20696e697469616c697a6564000000000000000000000000000000000000604082015260600190565b603981527f54686520636f6e7472616374206973206e6f7420616c6c6f77656420746f207360208201527f70656e64206f6e207468652075736572277320626568616c6600000000000000604082015260600190565b602081016105ef82846113b1565b6040810161164882856113b1565b610f9360208301846113c0565b6060810161166382866113b1565b61167060208301856113c0565b6112c960408301846113d2565b6040810161168b82856113b1565b610f9360208301846113d2565b606081016116a682866113b1565b6116b360208301856113d2565b6112c960408301846113c9565b606081016116ce82866113c0565b61167060208301856113d2565b602081016105ef82846113c9565b602081016105ef82846113d2565b6080810161170582876113d2565b61171260208301866113b1565b61171f60408301856113d2565b61172c60608301846113d2565b95945050505050565b6040810161174382856113d2565b610f9360208301846113c9565b602081016105ef82846113db565b602080825281016105ef816113e4565b602080825281016105ef81611414565b602080825281016105ef81611444565b602080825281016105ef81611474565b602080825281016105ef816114a4565b602080825281016105ef816114d4565b602080825281016105ef8161152a565b602080825281016105ef81611580565b602080825281016105ef816115d6565b60405181810167ffffffffffffffff8111828210171561180d57600080fd5b604052919050565b600067ffffffffffffffff82111561182c57600080fd5b5060209081020190565b600067ffffffffffffffff82111561184d57600080fd5b506020601f919091017fffffffffffffffffffffffffffffffffffffffffffffffffffffffffffffffe0160190565b60006105ef8261188f565b151590565b90565b73ffffffffffffffffffffffffffffffffffffffff1690565b60006105ef825b60006105ef8261187c565b8281833750600091015256fea265627a7a7230582078a96b71eb4d245dba97dcb1c613cea04b1ae1791b98cbbe657d35df6d4337086c6578706572696d656e74616cf50037",
  "source": "pragma solidity >=0.4.21 <0.7.0;\npragma experimental ABIEncoderV2;\n\nimport \"../Stake/StakeLogic.sol\";\n\n\ncontract PaymentLogic is Initializable, StakeLogic {\n    struct Witness {\n        address relayer; // peer.publicKey (in DATA.md)\n        uint256 relayerFraction; // relayerFraction (in DATA.md)\n        bytes relayerSignature; // self.privKey (in DATA.md)\n    }\n\n    struct SignedWitness {\n        Witness[] witnessList;\n        bytes signature;\n    }\n\n    struct Details {\n        address sender;\n        uint256 timestamp;\n        uint256 amount;\n    }\n\n    mapping(bytes32 => Details) public unlockRequests; // bytes32 => (sender, timestamp, amount)\n\n    event UnlockRequested(\n        bytes32 id,\n        address sender,\n        uint256 time,\n        uint256 amount\n    );\n\n    event UnlockRequestSealed(bytes32 id, bool changed);\n\n    function initialize(address _token) public initializer {\n        StakeLogic.initialize(_token);\n    }\n\n    function unlock(uint256 _amount) public returns (bytes32) {\n        require(\n            lockedBalances[msg.sender] >= _amount,\n            \"Amount exceeds lockedBalance\"\n        );\n        bytes32 hash = keccak256(\n            // solhint-disable-next-line\n            abi.encode(msg.sender, block.timestamp, _amount)\n        );\n        unlockRequests[hash].sender = msg.sender;\n        // solhint-disable-next-line\n        unlockRequests[hash].timestamp = block.timestamp;\n        unlockRequests[hash].amount = unlockRequests[hash].amount.add(_amount);\n        // solhint-disable-next-line\n        emit UnlockRequested(hash, msg.sender, block.timestamp, _amount);\n        return hash;\n    }\n\n    function sealUnlockRequest(bytes32 _id) public returns (bool) {\n        require(\n            unlockRequests[_id].sender == msg.sender,\n            \"You cannot seal this request\"\n        );\n        // solhint-disable-next-line\n        if (unlockRequests[_id].timestamp + 86400 > block.timestamp) {\n            emit UnlockRequestSealed(_id, false);\n            return false;\n        }\n\n        lockedBalances[msg.sender] = lockedBalances[msg.sender].sub(\n            unlockRequests[_id].amount\n        );\n        unlockedBalances[msg.sender] = unlockedBalances[msg.sender].add(\n            unlockRequests[_id].amount\n        );\n        delete (unlockRequests[_id]);\n        emit UnlockRequestSealed(_id, true);\n        return true;\n    }\n\n    event PayWitness(address sender, uint256 amount, bool paid);\n\n    function isWinning(bytes memory _witnessSignature)\n        public\n        pure\n        returns (bool)\n    {\n        if (bytes1(_witnessSignature[0]) == bytes1(0)) {\n            return (true);\n        }\n        return (false);\n    }\n\n    function payForWitness(SignedWitness memory _signedWitness, uint256 _amount)\n        public\n        returns (bool)\n    {\n        require(\n            lockedBalances[msg.sender] >= _amount,\n            \"User doesn't have enough locked balance\"\n        );\n\n        if (isWinning(_signedWitness.signature) == false) {\n            emit PayWitness(msg.sender, _amount, false);\n            return false;\n        }\n\n        for (uint256 i = 0; i < _signedWitness.witnessList.length; i++) {\n            lockedBalances[msg.sender] = lockedBalances[msg.sender].sub(\n                _signedWitness.witnessList[i].relayerFraction * _amount\n            );\n\n            unlockedBalances[_signedWitness.witnessList[i]\n                .relayer] = unlockedBalances[_signedWitness.witnessList[i]\n                .relayer]\n                .add(_signedWitness.witnessList[i].relayerFraction * _amount);\n        }\n\n        emit PayWitness(msg.sender, _amount, true);\n        return true;\n    }\n\n    uint256[50] private ______gap;\n}\n",
  "sourcePath": "/home/app/contracts/Payments/PaymentLogic.sol",
  "compiler": {
    "name": "solc",
    "version": "0.5.0+commit.1d4f565a.Emscripten.clang"
  },
  "schemaVersion": "3.2.0",
  "updatedAt": "2020-05-25T18:26:16.184Z",
  "networkType": "ethereum",
  "devdoc": {
    "methods": {}
  },
  "userdoc": {
    "methods": {}
  }
}