{
  "contractName": "Proxy",
  "abi": [
    {
      "inputs": [
        {
          "name": "contractLogic",
          "type": "address"
        }
      ],
      "payable": false,
      "stateMutability": "nonpayable",
      "type": "constructor"
    },
    {
      "payable": true,
      "stateMutability": "payable",
      "type": "fallback"
    },
    {
      "constant": false,
      "inputs": [
        {
          "name": "_newLogic",
          "type": "address"
        }
      ],
      "name": "updateLogic",
      "outputs": [],
      "payable": false,
      "stateMutability": "nonpayable",
      "type": "function"
    },
    {
      "constant": true,
      "inputs": [],
      "name": "clash",
      "outputs": [
        {
          "name": "",
          "type": "string"
        }
      ],
      "payable": false,
      "stateMutability": "view",
      "type": "function"
    }
  ],
  "bytecode": "0x608060405234801561001057600080fd5b506040516020806104968339810180604052602081101561003057600080fd5b5051604080517f656970313936372e70726f78792e696d706c656d656e746174696f6e000000008152815190819003601c018120600019908101939093557f656970313936372e70726f78792e61646d696e0000000000000000000000000081529051908190036013019020339101556103e7806100af6000396000f3fe60806040526004361061004b5763ffffffff7c0100000000000000000000000000000000000000000000000000000000600035041663795e617e81146100ca57806393b3bbbe1461010c575b604080517f656970313936372e70726f78792e696d706c656d656e746174696f6e000000008152905190819003601c0190207fffffffffffffffffffffffffffffffffffffffffffffffffffffffffffffffff0180543660008037600080366000846127105a03f43d806000803e8180156100c557816000f35b816000fd5b3480156100d657600080fd5b5061010a600480360360208110156100ed57600080fd5b503573ffffffffffffffffffffffffffffffffffffffff16610196565b005b34801561011857600080fd5b5061012161029e565b6040805160208082528351818301528351919283929083019185019080838360005b8381101561015b578181015183820152602001610143565b50505050905090810190601f1680156101885780820380516001836020036101000a031916815260200191505b509250505060405180910390f35b61019e610363565b73ffffffffffffffffffffffffffffffffffffffff16331461024757604080517f08c379a000000000000000000000000000000000000000000000000000000000815260206004820152603160248201527f4f6e6c792041646d696e2073686f756c642062652061626c6520746f2075706460448201527f6174652074686520636f6e747261637473000000000000000000000000000000606482015290519081900360840190fd5b604080517f656970313936372e70726f78792e696d706c656d656e746174696f6e000000008152905190819003601c0190207fffffffffffffffffffffffffffffffffffffffffffffffffffffffffffffffff0155565b60606102a8610363565b73ffffffffffffffffffffffffffffffffffffffff16331461032b57604080517f08c379a000000000000000000000000000000000000000000000000000000000815260206004820152601f60248201527f4f6e6c792041646d696e2c2074657374696e672070726f787920636c61736800604482015290519081900360640190fd5b5060408051808201909152600581527f50726f7879000000000000000000000000000000000000000000000000000000602082015290565b604080517f656970313936372e70726f78792e61646d696e00000000000000000000000000815290519081900360130190207fffffffffffffffffffffffffffffffffffffffffffffffffffffffffffffffff01549056fea165627a7a72305820a6a71a2ef51b2be7c916d6e96d02db1e7973f2aea2aa05ec9ec833f9a07a486c0029",
  "source": "pragma solidity >=0.4.21 <0.7.0;\n\n\ncontract Proxy {\n    /* Code position in storage is\n        keccak256(\"PROXIABLE\") = \"0xc5f16f0fcc639fa48a6947836d9850f504798523bf8c9a3a87d5876cf622bcf7\"\n    */\n    // constructor(bytes memory constructData, address contractLogic) public {\n    //     // save the code address\n    //     assembly {\n    //         sstore(0xc5f16f0fcc639fa48a6947836d9850f504798523bf8c9a3a87d5876cf622bcf7, contractLogic)\n    //     }\n    //     (bool success, bytes memory _ ) = contractLogic.delegatecall(constructData); // solium-disable-line\n    //     require(success, \"Construction failed\");\n    // }\n    bytes32 internal constant IMPLEMENTATION_SLOT = bytes32(\n        uint256(keccak256(\"eip1967.proxy.implementation\")) - 1\n    );\n    bytes32 internal constant PROXY_ADMIN_SLOT = bytes32(\n        uint256(keccak256(\"eip1967.proxy.admin\")) - 1\n    );\n\n    function updateLogic(address _newLogic) public {\n        require(\n            msg.sender == getAdmin(),\n            \"Only Admin should be able to update the contracts\"\n        );\n        bytes32 slot = IMPLEMENTATION_SLOT;\n        assembly {\n            sstore(slot, _newLogic)\n        }\n    }\n\n    function getImplementation() internal view returns (address result) {\n        bytes32 slot = IMPLEMENTATION_SLOT;\n        assembly {\n            result := sload(slot)\n        }\n    }\n\n    function getAdmin() internal view returns (address result) {\n        bytes32 slot = PROXY_ADMIN_SLOT;\n        assembly {\n            result := sload(slot)\n        }\n    }\n\n    function clash() public view returns (string memory) {\n        require(msg.sender == getAdmin(), \"Only Admin, testing proxy clash\");\n        return \"Proxy\";\n    }\n\n    constructor(address contractLogic) public {\n        // save the code address\n        bytes32 slot = IMPLEMENTATION_SLOT;\n        assembly {\n            sstore(slot, contractLogic)\n        }\n        // save the proxy admin\n        slot = PROXY_ADMIN_SLOT;\n        address sender = msg.sender;\n        assembly {\n            sstore(slot, sender)\n        }\n    }\n\n    function() external payable {\n        bytes32 slot = IMPLEMENTATION_SLOT;\n        assembly {\n            let contractLogic := sload(slot)\n            calldatacopy(0x0, 0x0, calldatasize())\n            let success := delegatecall(\n                sub(gas(), 10000),\n                contractLogic,\n                0x0,\n                calldatasize(),\n                0,\n                0\n            )\n            let retSz := returndatasize()\n            returndatacopy(0, 0, retSz)\n            switch success\n                case 0 {\n                    revert(0, retSz)\n                }\n                default {\n                    return(0, retSz)\n                }\n        }\n    }\n}\n",
  "sourcePath": "/home/app/contracts/TestContracts/Proxy.sol",
  "compiler": {
    "name": "solc",
    "version": "0.5.0+commit.1d4f565a.Emscripten.clang"
  },
  "schemaVersion": "3.2.0",
  "updatedAt": "2020-05-25T18:21:25.283Z",
  "networkType": "ethereum",
  "devdoc": {
    "methods": {}
  },
  "userdoc": {
    "methods": {}
  }
}