{
  "contractName": "StakeLogic",
  "abi": [
    {
      "constant": true,
      "inputs": [
        {
          "name": "",
          "type": "address"
        }
      ],
      "name": "lockedBalances",
      "outputs": [
        {
          "name": "",
          "type": "uint256"
        }
      ],
      "payable": false,
      "stateMutability": "view",
      "type": "function"
    },
    {
      "constant": true,
      "inputs": [
        {
          "name": "",
          "type": "address"
        }
      ],
      "name": "unlockedBalances",
      "outputs": [
        {
          "name": "",
          "type": "uint256"
        }
      ],
      "payable": false,
      "stateMutability": "view",
      "type": "function"
    },
    {
      "constant": true,
      "inputs": [],
      "name": "token",
      "outputs": [
        {
          "name": "",
          "type": "address"
        }
      ],
      "payable": false,
      "stateMutability": "view",
      "type": "function"
    },
    {
      "anonymous": false,
      "inputs": [
        {
          "indexed": false,
          "name": "sender",
          "type": "address"
        },
        {
          "indexed": false,
          "name": "amount",
          "type": "uint256"
        }
      ],
      "name": "Deposit",
      "type": "event"
    },
    {
      "anonymous": false,
      "inputs": [
        {
          "indexed": false,
          "name": "sender",
          "type": "address"
        },
        {
          "indexed": false,
          "name": "amount",
          "type": "uint256"
        },
        {
          "indexed": false,
          "name": "withdrawn",
          "type": "bool"
        }
      ],
      "name": "Withdraw",
      "type": "event"
    },
    {
      "anonymous": false,
      "inputs": [
        {
          "indexed": false,
          "name": "sender",
          "type": "address"
        },
        {
          "indexed": false,
          "name": "amount",
          "type": "uint256"
        }
      ],
      "name": "Lock",
      "type": "event"
    },
    {
      "anonymous": false,
      "inputs": [
        {
          "indexed": false,
          "name": "sender",
          "type": "address"
        },
        {
          "indexed": false,
          "name": "amount",
          "type": "uint256"
        }
      ],
      "name": "Unlock",
      "type": "event"
    },
    {
      "constant": false,
      "inputs": [
        {
          "name": "_token",
          "type": "address"
        }
      ],
      "name": "initialize",
      "outputs": [],
      "payable": false,
      "stateMutability": "nonpayable",
      "type": "function"
    },
    {
      "constant": false,
      "inputs": [
        {
          "name": "_amount",
          "type": "uint256"
        }
      ],
      "name": "deposit",
      "outputs": [
        {
          "name": "",
          "type": "uint256"
        }
      ],
      "payable": false,
      "stateMutability": "nonpayable",
      "type": "function"
    },
    {
      "constant": false,
      "inputs": [
        {
          "name": "_amount",
          "type": "uint256"
        }
      ],
      "name": "withdraw",
      "outputs": [
        {
          "name": "",
          "type": "uint256"
        }
      ],
      "payable": false,
      "stateMutability": "nonpayable",
      "type": "function"
    },
    {
      "constant": false,
      "inputs": [],
      "name": "withdrawAll",
      "outputs": [
        {
          "name": "",
          "type": "uint256"
        }
      ],
      "payable": false,
      "stateMutability": "nonpayable",
      "type": "function"
    }
  ],
  "bytecode": "0x608060405234801561001057600080fd5b50610bbe806100206000396000f3fe6080604052600436106100825763ffffffff7c01000000000000000000000000000000000000000000000000000000006000350416630483a7f681146100875780632e1a7d4d146100d9578063853828b6146101035780638c8ba66d14610118578063b6b55f2514610158578063c4d66de814610182578063fc0c546a146101c4575b600080fd5b34801561009357600080fd5b506100c7600480360360208110156100aa57600080fd5b503573ffffffffffffffffffffffffffffffffffffffff16610202565b60408051918252519081900360200190f35b3480156100e557600080fd5b506100c7600480360360208110156100fc57600080fd5b5035610214565b34801561010f57600080fd5b506100c76103d3565b34801561012457600080fd5b506100c76004803603602081101561013b57600080fd5b503573ffffffffffffffffffffffffffffffffffffffff16610579565b34801561016457600080fd5b506100c76004803603602081101561017b57600080fd5b503561058b565b34801561018e57600080fd5b506101c2600480360360208110156101a557600080fd5b503573ffffffffffffffffffffffffffffffffffffffff166108eb565b005b3480156101d057600080fd5b506101d9610a7e565b6040805173ffffffffffffffffffffffffffffffffffffffff9092168252519081900360200190f35b60346020526000908152604090205481565b336000908152603560205260408120548211156102b857604080517f08c379a000000000000000000000000000000000000000000000000000000000815260206004820152602760248201527f416d6f756e742067726561746572207468616e2074686520756e6c6f636b656460448201527f20616d6f756e7400000000000000000000000000000000000000000000000000606482015290519081900360840190fd5b336000908152603560205260409020546102d8908363ffffffff610a9a16565b3360008181526035602090815260408083209490945560335484517fa9059cbb000000000000000000000000000000000000000000000000000000008152600481019490945260248401879052935173ffffffffffffffffffffffffffffffffffffffff9094169363a9059cbb93604480820194918390030190829087803b15801561036357600080fd5b505af1158015610377573d6000803e3d6000fd5b505050506040513d602081101561038d57600080fd5b5050604080513381526020810184905260018183015290517f039d3e7ccc0d8edf3fb8206bf9f58888c4cced8c157c730a2407a54aad7c865c9181900360600190a15090565b33600090815260356020526040812054811061047657604080517f08c379a000000000000000000000000000000000000000000000000000000000815260206004820152602760248201527f416d6f756e742067726561746572207468616e2074686520756e6c6f636b656460448201527f20616d6f756e7400000000000000000000000000000000000000000000000000606482015290519081900360840190fd5b33600081815260356020908152604080832080549084905560335482517fa9059cbb0000000000000000000000000000000000000000000000000000000081526004810196909652602486018290529151909473ffffffffffffffffffffffffffffffffffffffff9092169363a9059cbb93604480850194919392918390030190829087803b15801561050857600080fd5b505af115801561051c573d6000803e3d6000fd5b505050506040513d602081101561053257600080fd5b5050604080513381526020810183905260018183015290517f039d3e7ccc0d8edf3fb8206bf9f58888c4cced8c157c730a2407a54aad7c865c9181900360600190a1905090565b60356020526000908152604090205481565b603354604080517f70a082310000000000000000000000000000000000000000000000000000000081523360048201529051600092849273ffffffffffffffffffffffffffffffffffffffff909116916370a0823191602480820192602092909190829003018186803b15801561060157600080fd5b505afa158015610615573d6000803e3d6000fd5b505050506040513d602081101561062b57600080fd5b5051101561069a57604080517f08c379a000000000000000000000000000000000000000000000000000000000815260206004820152601460248201527f496e73756666696369656e742062616c616e6365000000000000000000000000604482015290519081900360640190fd5b603354604080517fdd62ed3e0000000000000000000000000000000000000000000000000000000081523360048201523060248201529051849273ffffffffffffffffffffffffffffffffffffffff169163dd62ed3e916044808301926020929190829003018186803b15801561071057600080fd5b505afa158015610724573d6000803e3d6000fd5b505050506040513d602081101561073a57600080fd5b505110156107cf57604080517f08c379a000000000000000000000000000000000000000000000000000000000815260206004820152603960248201527f54686520636f6e7472616374206973206e6f7420616c6c6f77656420746f207360448201527f70656e64206f6e207468652075736572277320626568616c6600000000000000606482015290519081900360840190fd5b336000908152603460205260409020546107ef908363ffffffff610b1116565b3360008181526034602090815260408083209490945560335484517f23b872dd000000000000000000000000000000000000000000000000000000008152600481019490945230602485015260448401879052935173ffffffffffffffffffffffffffffffffffffffff909416936323b872dd93606480820194918390030190829087803b15801561088057600080fd5b505af1158015610894573d6000803e3d6000fd5b505050506040513d60208110156108aa57600080fd5b5050604080513381526020810184905281517fe1fffcc4923d04b559f4d29a8bfc6cda04eb5b0d3c460751c2402c5c5cc9109c929181900390910190a15090565b600054610100900460ff16806109045750610904610b8c565b80610912575060005460ff16155b15156109a557604080517f08c379a000000000000000000000000000000000000000000000000000000000815260206004820152602e60248201527f436f6e747261637420696e7374616e63652068617320616c726561647920626560448201527f656e20696e697469616c697a6564000000000000000000000000000000000000606482015290519081900360840190fd5b600054610100900460ff16158015610a0b57600080547fffffffffffffffffffffffffffffffffffffffffffffffffffffffffffffff007fffffffffffffffffffffffffffffffffffffffffffffffffffffffffffff00ff909116610100171660011790555b603380547fffffffffffffffffffffffff00000000000000000000000000000000000000001673ffffffffffffffffffffffffffffffffffffffff84161790558015610a7a57600080547fffffffffffffffffffffffffffffffffffffffffffffffffffffffffffff00ff1690555b5050565b60335473ffffffffffffffffffffffffffffffffffffffff1681565b600082821115610b0b57604080517f08c379a000000000000000000000000000000000000000000000000000000000815260206004820152601e60248201527f536166654d6174683a207375627472616374696f6e206f766572666c6f770000604482015290519081900360640190fd5b50900390565b600082820183811015610b8557604080517f08c379a000000000000000000000000000000000000000000000000000000000815260206004820152601b60248201527f536166654d6174683a206164646974696f6e206f766572666c6f770000000000604482015290519081900360640190fd5b9392505050565b303b159056fea165627a7a72305820a5b9cc0d45ac867fdd222f1fea53abe1c09336be1c4255bf1d2c30d3252b65d50029",
  "source": "// this contract will hold all tokens\n\npragma solidity >=0.4.21 <0.7.0;\n\nimport \"../Token/TokenLogic.sol\";\nimport \"./SafeMath.sol\";\n\n\ncontract StakeLogic is Initializable {\n    using Safemath for uint256;\n    TokenLogic public token;\n\n    mapping(address => uint256) public lockedBalances;\n    mapping(address => uint256) public unlockedBalances;\n\n    event Deposit(address sender, uint256 amount);\n    // We don't need bool withdrawn\n    event Withdraw(address sender, uint256 amount, bool withdrawn);\n    event Lock(address sender, uint256 amount);\n    event Unlock(address sender, uint256 amount);\n\n    function initialize(address _token) public initializer {\n        token = TokenLogic(_token);\n    }\n\n    function deposit(uint256 _amount) public returns (uint256) {\n        require(token.balanceOf(msg.sender) >= _amount, \"Insufficient balance\");\n        require(\n            token.allowance(msg.sender, address(this)) >= _amount,\n            \"The contract is not allowed to spend on the user's behalf\"\n        );\n        lockedBalances[msg.sender] = lockedBalances[msg.sender].add(_amount);\n        token.transferFrom(msg.sender, address(this), _amount);\n        emit Deposit(msg.sender, _amount);\n        return _amount;\n    }\n\n    function withdraw(uint256 _amount) public returns (uint256) {\n        require(\n            _amount <= unlockedBalances[msg.sender],\n            \"Amount greater than the unlocked amount\"\n        );\n        unlockedBalances[msg.sender] = unlockedBalances[msg.sender].sub(\n            _amount\n        );\n        token.transfer(msg.sender, _amount);\n        emit Withdraw(msg.sender, _amount, true);\n        return _amount;\n    }\n\n    function withdrawAll() public returns (uint256) {\n        require(\n            unlockedBalances[msg.sender] > 0,\n            \"Amount greater than the unlocked amount\"\n        );\n        uint256 amount = unlockedBalances[msg.sender];\n        unlockedBalances[msg.sender] = 0;\n        token.transfer(msg.sender, amount);\n        emit Withdraw(msg.sender, amount, true);\n        return amount;\n    }\n\n    function lockBalance(uint256 _amount) private returns (bool) {\n        require(\n            _amount <= unlockedBalances[msg.sender],\n            \"Amount greater than the unlocked amount\"\n        );\n        unlockedBalances[msg.sender] = unlockedBalances[msg.sender].sub(\n            _amount\n        );\n        lockedBalances[msg.sender] = lockedBalances[msg.sender].add(_amount);\n        emit Lock(msg.sender, _amount);\n        return true;\n    }\n\n    function unlockBalance(uint256 _amount) private returns (bool) {\n        require(\n            _amount <= unlockedBalances[msg.sender],\n            \"Amount greater than the unlocked amount\"\n        );\n        lockedBalances[msg.sender] = lockedBalances[msg.sender].sub(_amount);\n        unlockedBalances[msg.sender] = unlockedBalances[msg.sender].add(\n            _amount\n        );\n        emit Unlock(msg.sender, _amount);\n        return true;\n    }\n\n    function slashStake(\n        address _duplicateStakeAddress,\n        address _submitterWithdrawAddress,\n        uint256 _amountToBeSlashed,\n        uint256 _percentTransfer\n    ) internal returns (bool) {\n        require(\n            lockedBalances[_duplicateStakeAddress] >= _amountToBeSlashed,\n            \"Amount to be slashed must be less than available balance\"\n        );\n        // lockedBalances[_duplicateStakeAddress] = lockedBalances[_duplicateStakeAddress].add(_amountToBeSlashed);\n        lockedBalances[_duplicateStakeAddress] = lockedBalances[_duplicateStakeAddress]\n            .sub(_amountToBeSlashed);\n        unlockedBalances[_submitterWithdrawAddress] = (\n            unlockedBalances[_submitterWithdrawAddress].add(\n                _amountToBeSlashed.mul(_percentTransfer).div(100)\n            )\n        );\n        return true;\n    }\n\n    uint256[50] private ______gap;\n}\n",
  "sourcePath": "/home/app/contracts/Stake/StakeLogic.sol",
  "compiler": {
    "name": "solc",
    "version": "0.5.0+commit.1d4f565a.Emscripten.clang"
  },
  "schemaVersion": "3.2.0",
  "updatedAt": "2020-05-25T18:24:09.892Z",
  "networkType": "ethereum",
  "devdoc": {
    "methods": {}
  },
  "userdoc": {
    "methods": {}
  }
}