{
  "contractName": "Upload",
  "abi": [
    {
      "inputs": [
        {
          "name": "_tokenContractAddress",
          "type": "address"
        }
      ],
      "payable": false,
      "stateMutability": "nonpayable",
      "type": "constructor"
    },
    {
      "anonymous": false,
      "inputs": [
        {
          "indexed": false,
          "name": "id",
          "type": "bytes32"
        }
      ],
      "name": "NewPublisherOffer",
      "type": "event"
    },
    {
      "constant": false,
      "inputs": [
        {
          "name": "_namespace",
          "type": "string"
        },
        {
          "name": "_archiveUrl",
          "type": "string"
        },
        {
          "name": "_storageReward",
          "type": "uint256"
        },
        {
          "name": "_deliveryReward",
          "type": "uint256"
        },
        {
          "name": "_duration",
          "type": "uint256"
        },
        {
          "name": "_expiry",
          "type": "uint256"
        },
        {
          "name": "_replication",
          "type": "uint256"
        },
        {
          "name": "_requiredStake",
          "type": "uint256"
        },
        {
          "name": "_geoHash",
          "type": "bytes32"
        },
        {
          "name": "_archiveSize",
          "type": "uint256"
        },
        {
          "name": "_archiveHash",
          "type": "bytes32"
        }
      ],
      "name": "addPublisherOffer",
      "outputs": [],
      "payable": false,
      "stateMutability": "nonpayable",
      "type": "function"
    },
    {
      "constant": false,
      "inputs": [
        {
          "name": "_id",
          "type": "bytes32"
        },
        {
          "name": "_replication",
          "type": "uint256"
        }
      ],
      "name": "scalePublisherOffer",
      "outputs": [
        {
          "name": "_success",
          "type": "bool"
        }
      ],
      "payable": false,
      "stateMutability": "nonpayable",
      "type": "function"
    },
    {
      "constant": false,
      "inputs": [
        {
          "name": "_id",
          "type": "bytes32"
        }
      ],
      "name": "servePublisherOffer",
      "outputs": [
        {
          "name": "_success",
          "type": "bool"
        }
      ],
      "payable": false,
      "stateMutability": "nonpayable",
      "type": "function"
    },
    {
      "constant": false,
      "inputs": [
        {
          "name": "_id",
          "type": "bytes32"
        }
      ],
      "name": "withdrawStake",
      "outputs": [
        {
          "name": "_success",
          "type": "bool"
        }
      ],
      "payable": false,
      "stateMutability": "nonpayable",
      "type": "function"
    },
    {
      "constant": false,
      "inputs": [],
      "name": "withdrawRefund",
      "outputs": [],
      "payable": false,
      "stateMutability": "nonpayable",
      "type": "function"
    },
    {
      "constant": true,
      "inputs": [
        {
          "name": "_id",
          "type": "bytes32"
        }
      ],
      "name": "readPublisherOffer",
      "outputs": [
        {
          "name": "_publisher",
          "type": "address"
        },
        {
          "name": "_namespace",
          "type": "string"
        },
        {
          "name": "_archiveUrl",
          "type": "string"
        },
        {
          "name": "_storageReward",
          "type": "uint256"
        },
        {
          "name": "_deliveryReward",
          "type": "uint256"
        },
        {
          "name": "_validTill",
          "type": "uint256"
        },
        {
          "name": "_expiry",
          "type": "uint256"
        },
        {
          "name": "_replication",
          "type": "uint256"
        },
        {
          "name": "_requiredStake",
          "type": "uint256"
        },
        {
          "name": "_geoHash",
          "type": "bytes32"
        },
        {
          "name": "_archiveSize",
          "type": "uint256"
        },
        {
          "name": "_archiveHash",
          "type": "bytes32"
        }
      ],
      "payable": false,
      "stateMutability": "view",
      "type": "function"
    },
    {
      "constant": true,
      "inputs": [
        {
          "name": "_publisher",
          "type": "address"
        }
      ],
      "name": "readOffersByPublisher",
      "outputs": [
        {
          "name": "_ids",
          "type": "bytes32[]"
        }
      ],
      "payable": false,
      "stateMutability": "view",
      "type": "function"
    },
    {
      "constant": true,
      "inputs": [
        {
          "name": "_node",
          "type": "address"
        }
      ],
      "name": "readRefund",
      "outputs": [
        {
          "name": "_value",
          "type": "uint256"
        }
      ],
      "payable": false,
      "stateMutability": "view",
      "type": "function"
    },
    {
      "constant": true,
      "inputs": [
        {
          "name": "_id",
          "type": "bytes32"
        },
        {
          "name": "_node",
          "type": "address"
        }
      ],
      "name": "readStake",
      "outputs": [
        {
          "name": "_value",
          "type": "uint256"
        }
      ],
      "payable": false,
      "stateMutability": "view",
      "type": "function"
    }
  ],
  "bytecode": "0x608060405234801561001057600080fd5b50604051602080611daa8339810180604052810190808051906020019092919050505080600360006101000a81548173ffffffffffffffffffffffffffffffffffffffff021916908373ffffffffffffffffffffffffffffffffffffffff16021790555050611d26806100846000396000f300608060405260043610610099576000357c0100000000000000000000000000000000000000000000000000000000900463ffffffff168063110f88741461009e578063134358b7146100b557806323bb2dea1461011a5780632b611c49146101715780639e0cd01614610309578063ace6432514610352578063b95ff689146103ea578063d735fd9d14610433578063dfa9034314610486575b600080fd5b3480156100aa57600080fd5b506100b3610597565b005b3480156100c157600080fd5b506101046004803603810190808035600019169060200190929190803573ffffffffffffffffffffffffffffffffffffffff16906020019092919050505061073d565b6040518082815260200191505060405180910390f35b34801561012657600080fd5b5061015b600480360381019080803573ffffffffffffffffffffffffffffffffffffffff1690602001909291905050506107da565b6040518082815260200191505060405180910390f35b34801561017d57600080fd5b506101a06004803603810190808035600019169060200190929190505050610823565b604051808d73ffffffffffffffffffffffffffffffffffffffff1673ffffffffffffffffffffffffffffffffffffffff16815260200180602001806020018c81526020018b81526020018a81526020018981526020018881526020018781526020018660001916600019168152602001858152602001846000191660001916815260200183810383528e818151815260200191508051906020019080838360005b8381101561025c578082015181840152602081019050610241565b50505050905090810190601f1680156102895780820380516001836020036101000a031916815260200191505b5083810382528d818151815260200191508051906020019080838360005b838110156102c25780820151818401526020810190506102a7565b50505050905090810190601f1680156102ef5780820380516001836020036101000a031916815260200191505b509e50505050505050505050505050505060405180910390f35b34801561031557600080fd5b506103386004803603810190808035600019169060200190929190505050610b15565b604051808215151515815260200191505060405180910390f35b34801561035e57600080fd5b50610393600480360381019080803573ffffffffffffffffffffffffffffffffffffffff169060200190929190505050610e8b565b6040518080602001828103825283818151815260200191508051906020019060200280838360005b838110156103d65780820151818401526020810190506103bb565b505050509050019250505060405180910390f35b3480156103f657600080fd5b506104196004803603810190808035600019169060200190929190505050610f26565b604051808215151515815260200191505060405180910390f35b34801561043f57600080fd5b5061046c60048036038101908080356000191690602001909291908035906020019092919050505061117b565b604051808215151515815260200191505060405180910390f35b34801561049257600080fd5b50610595600480360381019080803590602001908201803590602001908080601f0160208091040260200160405190810160405280939291908181526020018383808284378201915050505050509192919290803590602001908201803590602001908080601f0160208091040260200160405190810160405280939291908181526020018383808284378201915050505050509192919290803590602001909291908035906020019092919080359060200190929190803590602001909291908035906020019092919080359060200190929190803560001916906020019092919080359060200190929190803560001916906020019092919050505061124f565b005b6000600260003373ffffffffffffffffffffffffffffffffffffffff1673ffffffffffffffffffffffffffffffffffffffff1681526020019081526020016000205490506000811115156105ea57600080fd5b6000600260003373ffffffffffffffffffffffffffffffffffffffff1673ffffffffffffffffffffffffffffffffffffffff16815260200190815260200160002081905550600360009054906101000a900473ffffffffffffffffffffffffffffffffffffffff1673ffffffffffffffffffffffffffffffffffffffff1663a9059cbb33836040518363ffffffff167c0100000000000000000000000000000000000000000000000000000000028152600401808373ffffffffffffffffffffffffffffffffffffffff1673ffffffffffffffffffffffffffffffffffffffff16815260200182815260200192505050602060405180830381600087803b1580156106f457600080fd5b505af1158015610708573d6000803e3d6000fd5b505050506040513d602081101561071e57600080fd5b8101908080519060200190929190505050151561073a57600080fd5b50565b6000600115156000808560001916600019168152602001908152602001600020600a0160008473ffffffffffffffffffffffffffffffffffffffff1673ffffffffffffffffffffffffffffffffffffffff16815260200190815260200160002060009054906101000a900460ff16151514156107d45760008084600019166000191681526020019081526020016000206008015490505b92915050565b6000600260008373ffffffffffffffffffffffffffffffffffffffff1673ffffffffffffffffffffffffffffffffffffffff168152602001908152602001600020549050919050565b600060608060008060008060008060008060008060008e6000191660001916815260200190815260200160002060000160009054906101000a900473ffffffffffffffffffffffffffffffffffffffff169b506000808e600019166000191681526020019081526020016000206001018054600181600116156101000203166002900480601f0160208091040260200160405190810160405280929190818152602001828054600181600116156101000203166002900480156109275780601f106108fc57610100808354040283529160200191610927565b820191906000526020600020905b81548152906001019060200180831161090a57829003601f168201915b50505050509a506000808e600019166000191681526020019081526020016000206002018054600181600116156101000203166002900480601f0160208091040260200160405190810160405280929190818152602001828054600181600116156101000203166002900480156109df5780601f106109b4576101008083540402835291602001916109df565b820191906000526020600020905b8154815290600101906020018083116109c257829003601f168201915b505050505099506000808e600019166000191681526020019081526020016000206003015498506000808e600019166000191681526020019081526020016000206004015497506000808e600019166000191681526020019081526020016000206005015496506000808e600019166000191681526020019081526020016000206006015495506000808e600019166000191681526020019081526020016000206007015494506000808e600019166000191681526020019081526020016000206008015493506000808e60001916600019168152602001908152602001600020600b015492506000808e60001916600019168152602001908152602001600020600c015491506000808e60001916600019168152602001908152602001600020600d0154905091939597999b5091939597999b565b600042600080846000191660001916815260200190815260200160002060050154111515610b4257600080fd5b42600080846000191660001916815260200190815260200160002060060154111515610b6d57600080fd5b600015156000808460001916600019168152602001908152602001600020600a0160003373ffffffffffffffffffffffffffffffffffffffff1673ffffffffffffffffffffffffffffffffffffffff16815260200190815260200160002060009054906101000a900460ff161515141515610be757600080fd5b600080836000191660001916815260200190815260200160002060070154600080846000191660001916815260200190815260200160002060090180549050101515610c3257600080fd5b60016000808460001916600019168152602001908152602001600020600a0160003373ffffffffffffffffffffffffffffffffffffffff1673ffffffffffffffffffffffffffffffffffffffff16815260200190815260200160002060006101000a81548160ff02191690831515021790555060008083600019166000191681526020019081526020016000206009013390806001815401808255809150509060018203906000526020600020016000909192909190916101000a81548173ffffffffffffffffffffffffffffffffffffffff021916908373ffffffffffffffffffffffffffffffffffffffff16021790555050600360009054906101000a900473ffffffffffffffffffffffffffffffffffffffff1673ffffffffffffffffffffffffffffffffffffffff166323b872dd33306000808760001916600019168152602001908152602001600020600801546040518463ffffffff167c0100000000000000000000000000000000000000000000000000000000028152600401808473ffffffffffffffffffffffffffffffffffffffff1673ffffffffffffffffffffffffffffffffffffffff1681526020018373ffffffffffffffffffffffffffffffffffffffff1673ffffffffffffffffffffffffffffffffffffffff1681526020018281526020019350505050602060405180830381600087803b158015610e3c57600080fd5b505af1158015610e50573d6000803e3d6000fd5b505050506040513d6020811015610e6657600080fd5b81019080805190602001909291905050501515610e8257600080fd5b60019050919050565b6060600160008373ffffffffffffffffffffffffffffffffffffffff1673ffffffffffffffffffffffffffffffffffffffff168152602001908152602001600020805480602002602001604051908101604052809291908181526020018280548015610f1a57602002820191906000526020600020905b81546000191681526020019060010190808311610f02575b50505050509050919050565b600080600083600019166000191681526020019081526020016000206005015442111515610f5357600080fd5b600115156000808460001916600019168152602001908152602001600020600a0160003373ffffffffffffffffffffffffffffffffffffffff1673ffffffffffffffffffffffffffffffffffffffff16815260200190815260200160002060009054906101000a900460ff161515141515610fcd57600080fd5b610fd782336116b5565b60008060008460001916600019168152602001908152602001600020600a0160003373ffffffffffffffffffffffffffffffffffffffff1673ffffffffffffffffffffffffffffffffffffffff16815260200190815260200160002060006101000a81548160ff021916908315150217905550600360009054906101000a900473ffffffffffffffffffffffffffffffffffffffff1673ffffffffffffffffffffffffffffffffffffffff1663a9059cbb336000808660001916600019168152602001908152602001600020600801546040518363ffffffff167c0100000000000000000000000000000000000000000000000000000000028152600401808373ffffffffffffffffffffffffffffffffffffffff1673ffffffffffffffffffffffffffffffffffffffff16815260200182815260200192505050602060405180830381600087803b15801561112c57600080fd5b505af1158015611140573d6000803e3d6000fd5b505050506040513d602081101561115657600080fd5b8101908080519060200190929190505050151561117257600080fd5b60019050919050565b6000806000846000191660001916815260200190815260200160002060000160009054906101000a900473ffffffffffffffffffffffffffffffffffffffff1673ffffffffffffffffffffffffffffffffffffffff163373ffffffffffffffffffffffffffffffffffffffff161415156111f457600080fd5b816000808560001916600019168152602001908152602001600020600901805490501115151561122357600080fd5b816000808560001916600019168152602001908152602001600020600701819055506001905092915050565b60008b8b6040516020018083805190602001908083835b60208310151561128b5780518252602082019150602081019050602083039250611266565b6001836020036101000a03801982511681845116808217855250505050505090500182805190602001908083835b6020831015156112de57805182526020820191506020810190506020830392506112b9565b6001836020036101000a038019825116818451168082178552505050505050905001925050506040516020818303038152906040526040518082805190602001908083835b6020831015156113485780518252602082019150602081019050602083039250611323565b6001836020036101000a0380198251168184511680821785525050505050509050019150506040518091039020905061138081611801565b151561138b57600080fd5b864210151561139957600080fd5b6000851115156113a857600080fd5b6000806000836000191660001916815260200190815260200160002060090180549050111561145257600080826000191660001916815260200190815260200160002060000160009054906101000a900473ffffffffffffffffffffffffffffffffffffffff1673ffffffffffffffffffffffffffffffffffffffff163373ffffffffffffffffffffffffffffffffffffffff1614151561144857600080fd5b6114518161188a565b5b61145c3382611ac9565b33600080836000191660001916815260200190815260200160002060000160006101000a81548173ffffffffffffffffffffffffffffffffffffffff021916908373ffffffffffffffffffffffffffffffffffffffff1602179055508b600080836000191660001916815260200190815260200160002060010190805190602001906114e9929190611c55565b508a6000808360001916600019168152602001908152602001600020600201908051906020019061151b929190611c55565b5089600080836000191660001916815260200190815260200160002060030181905550886000808360001916600019168152602001908152602001600020600401819055506115738842611bde90919063ffffffff16565b600080836000191660001916815260200190815260200160002060050181905550866000808360001916600019168152602001908152602001600020600601819055508560008083600019166000191681526020019081526020016000206007018190555084600080836000191660001916815260200190815260200160002060080181905550836000808360001916600019168152602001908152602001600020600b018160001916905550826000808360001916600019168152602001908152602001600020600c0181905550816000808360001916600019168152602001908152602001600020600d0181600019169055507f91e5f0025cd0da002142435b64c05a08a1c08d559dbac5d25139ea827f32b0908160405180826000191660001916815260200191505060405180910390a1505050505050505050505050565b60606000806000856000191660001916815260200190815260200160002060090180548060200260200160405190810160405280929190818152602001828054801561175657602002820191906000526020600020905b8160009054906101000a900473ffffffffffffffffffffffffffffffffffffffff1673ffffffffffffffffffffffffffffffffffffffff168152602001906001019080831161170c575b50505050509150815190505b60008111156117fb578273ffffffffffffffffffffffffffffffffffffffff16828281518110151561179057fe5b9060200190602002015173ffffffffffffffffffffffffffffffffffffffff1614156117ed5781818151811015156117c457fe5b906020019060200201600073ffffffffffffffffffffffffffffffffffffffff168152506117fb565b808060019003915050611762565b50505050565b600080600083600019166000191681526020019081526020016000206006015442118061184b57506000806000846000191660001916815260200190815260200160002060060154145b80611872575060008083600019166000191681526020019081526020016000206005015442115b156118805760019050611885565b600090505b919050565b6060600080600080856000191660001916815260200190815260200160002060050154421115156118ba57600080fd5b600080856000191660001916815260200190815260200160002060090180548060200260200160405190810160405280929190818152602001828054801561195757602002820191906000526020600020905b8160009054906101000a900473ffffffffffffffffffffffffffffffffffffffff1673ffffffffffffffffffffffffffffffffffffffff168152602001906001019080831161190d575b50505050509250825191505b6000821115611ac357828281518110151561197a57fe5b9060200190602002015190506119f5600080866000191660001916815260200190815260200160002060080154600260008473ffffffffffffffffffffffffffffffffffffffff1673ffffffffffffffffffffffffffffffffffffffff16815260200190815260200160002054611bde90919063ffffffff16565b600260008373ffffffffffffffffffffffffffffffffffffffff1673ffffffffffffffffffffffffffffffffffffffff16815260200190815260200160002081905550611a4284826116b5565b60008060008660001916600019168152602001908152602001600020600a0160008373ffffffffffffffffffffffffffffffffffffffff1673ffffffffffffffffffffffffffffffffffffffff16815260200190815260200160002060006101000a81548160ff021916908315150217905550818060019003925050611963565b50505050565b611b64600160008473ffffffffffffffffffffffffffffffffffffffff1673ffffffffffffffffffffffffffffffffffffffff168152602001908152602001600020805480602002602001604051908101604052809291908181526020018280548015611b5957602002820191906000526020600020905b81546000191681526020019060010190808311611b41575b505050505082611bfa565b1515611bda57600160008373ffffffffffffffffffffffffffffffffffffffff1673ffffffffffffffffffffffffffffffffffffffff1681526020019081526020016000208190806001815401808255809150509060018203906000526020600020016000909192909190915090600019169055505b5050565b60008183019050828110151515611bf157fe5b80905092915050565b600080600084519150600090505b81811015611c4d578481815181101515611c1e57fe5b906020019060200201516000191684600019161415611c405760019250611c4d565b8080600101915050611c08565b505092915050565b828054600181600116156101000203166002900490600052602060002090601f016020900481019282601f10611c9657805160ff1916838001178555611cc4565b82800160010185558215611cc4579182015b82811115611cc3578251825591602001919060010190611ca8565b5b509050611cd19190611cd5565b5090565b611cf791905b80821115611cf3576000816000905550600101611cdb565b5090565b905600a165627a7a7230582059e502f23a1df5dcd5534c7f8cedca363e656e88b2359f9d245a484b5e878d190029",
  "source": "pragma solidity ^0.4.24;\n\nimport \"openzeppelin-solidity/contracts/token/ERC20/ERC20.sol\";\nimport \"openzeppelin-solidity/contracts/math/SafeMath.sol\";\n\n/**\n@title Publisher-side upload offers\n@author Marlin Labs\n@notice Publishers can create new offers for storing and delivering content\n*/\ncontract Upload {\n\n    using SafeMath for uint256;\n\n    event NewPublisherOffer(bytes32 id);\n\n    /**\n    @notice Struct for Publisher Offer\n    @param publisher Address of the publisher\n    @param namespace Namespace of the website/project\n    @param archiveUrl URL of the file archive\n    @param storageReward Reward (LIN) for storing this content\n    @param deliveryReward Reward (LIN) for delivering/serving this content\n    @param validTill UTC timestamp till which this offer is valid\n    @param expiry UTC timestamp at which offer auto-expires if no master nodes join\n    @param replication Replication factor of the content\n    @param requiredStake Stake (LIN) required to store/deliver this content\n    @param nodes Addresses of the master nodes that have joined this offer\n    @param activeNodes Mapping of whether an address has joined this offer or not\n    @param geoHash Geohash specifies region from which nodes can accept offer\n    @param archiveSize size of archive\n    @param archiveHash hash of archive, will be used for validation\n    */\n    struct PublisherOffer {\n        address publisher;\n        string namespace;\n        string archiveUrl;\n        uint256 storageReward;\n        uint256 deliveryReward;\n        uint256 validTill;\n        uint256 expiry;\n        uint256 replication;\n        uint256 requiredStake;\n        address[] nodes;\n        mapping(address => bool) activeNodes;\n        bytes32 geoHash;\n        uint256 archiveSize;\n        bytes32 archiveHash;\n    }\n\n    mapping(bytes32 => PublisherOffer) offers;\n    mapping(address => bytes32[]) offersByPublisher;\n    mapping(address => uint256) refunds;\n    address MARLIN_TOKEN_ADDRESS;\n\n    /**\n    @notice Constructor that saves the address of the Marlin token contract\n    @param _tokenContractAddress Address of Marlin token contract\n    */\n    constructor(address _tokenContractAddress) public {\n        MARLIN_TOKEN_ADDRESS = _tokenContractAddress;\n    }\n\n    /**\n    @notice Function to create a new publisher-side offer\n    @dev This may also be called to renew a offer whose validity was over\n    @param _namespace Namespace of the website/project\n    @param _archiveUrl URL of the file archive\n    @param _storageReward Reward (LIN) for storing this content\n    @param _deliveryReward Reward (LIN) for delivering/serving this content\n    @param _duration Duration of the offer after which its validity ends (seconds)\n    @param _expiry UTC timestamp at which offer auto-expires if no master nodes join\n    @param _replication Replication factor of the content\n    @param _requiredStake Stake (LIN) required to store/deliver this content\n    @param _geoHash geographic region from which nodes can accept this offer\n    @param _archiveSize size of archive\n    @param _archiveHash hash of archive\n    */\n    function addPublisherOffer(\n        string _namespace,\n        string _archiveUrl,\n        uint256 _storageReward,\n        uint256 _deliveryReward,\n        uint256 _duration,\n        uint256 _expiry,\n        uint256 _replication,\n        uint256 _requiredStake,\n        bytes32 _geoHash,\n        uint256 _archiveSize,\n        bytes32 _archiveHash\n    )\n        public\n    {\n        bytes32 _id = keccak256(abi.encodePacked(_namespace, _archiveUrl));\n        require(isUnique(_id));\n        require(now < _expiry);\n        require(_requiredStake > 0);\n        if (offers[_id].nodes.length > 0) {\n            require(msg.sender == offers[_id].publisher);\n            refundPublisherOffer(_id);\n        }\n        addToList(msg.sender, _id);\n        offers[_id].publisher = msg.sender;\n        offers[_id].namespace = _namespace;\n        offers[_id].archiveUrl = _archiveUrl;\n        offers[_id].storageReward = _storageReward;\n        offers[_id].deliveryReward = _deliveryReward;\n        offers[_id].validTill = now.add(_duration);\n        offers[_id].expiry = _expiry;\n        offers[_id].replication = _replication;\n        offers[_id].requiredStake = _requiredStake;\n        offers[_id].geoHash = _geoHash;\n        offers[_id].archiveSize = _archiveSize;\n        offers[_id].archiveHash = _archiveHash;\n        emit NewPublisherOffer(_id);\n    }\n\n    /**\n    @notice Function to be called by publisher to scale out/in replication factor\n    @dev Can scale in only upto the already joined number of master nodes\n    @param _id keccak256(_namespace, _archiveUrl) is the ID of the offer\n    @param _replication Replication factor of the content\n    @return {\n      \"_success\": \"Boolean, true if updated successfully\"\n    }\n    */\n    function scalePublisherOffer(\n        bytes32 _id,\n        uint256 _replication\n    )\n        public\n        returns (bool _success)\n    {\n        require(msg.sender == offers[_id].publisher);\n\n        require(offers[_id].nodes.length <= _replication);\n        offers[_id].replication = _replication;\n\n        _success = true;\n    }\n\n    /**\n    @notice Function to join a offer and deliver/serve content\n    @dev Offer can only be joined till the replication is not satisfied\n         msg.sender must approve this contract to transferFrom LIN tokens on their behalf\n    @param _id keccak256(_namespace, _archiveUrl) is the ID of the offer\n    @return {\n      \"_success\": \"Boolean, true if joined the offer successfully\"\n    }\n    */\n    function servePublisherOffer(bytes32 _id)\n        public\n        returns (bool _success)\n    {\n        // make sure upload contract is valid\n        require(offers[_id].validTill > now);\n        require(offers[_id].expiry > now);\n\n        // make sure it is a new node\n        require(offers[_id].activeNodes[msg.sender] == false);\n\n        // make sure upload contract has slots remaining, if yes, add new node\n        require(offers[_id].nodes.length < offers[_id].replication);\n        offers[_id].activeNodes[msg.sender] = true;\n        offers[_id].nodes.push(msg.sender);\n\n        // make sure transfer of tokens is possible\n        require(ERC20(MARLIN_TOKEN_ADDRESS).transferFrom(\n            msg.sender,\n            address(this),\n            offers[_id].requiredStake\n        ));\n\n        _success = true;\n    }\n\n    /**\n    @notice Leave the offer after its validity is over\n    @dev This also means the staked LIN tokens will be transferred back\n    @param _id keccak256(_namespace, _archiveUrl) is the ID of the offer\n    @return {\n      \"_success\": \"Boolean, true if withdrawn successfully\"\n    }\n    */\n    function withdrawStake(bytes32 _id)\n        public\n        returns (bool _success)\n    {\n        // make sure upload contract is not valid anymore\n        require(now > offers[_id].validTill);\n\n        // make sure this node was serving\n        require(offers[_id].activeNodes[msg.sender] == true);\n        removeNode(_id, msg.sender);\n        offers[_id].activeNodes[msg.sender] = false;\n\n        // withdraw tokens\n        require(ERC20(MARLIN_TOKEN_ADDRESS).transfer(msg.sender, offers[_id].requiredStake));\n\n        _success = true;\n    }\n\n    /**\n    @notice Function to withdraw refundable LIN tokens from this contract\n    @dev Tokens are refunded if the publisher renews their offer beyond the initial offer validity\n    */\n    function withdrawRefund()\n        public\n    {\n        uint256 _refund = refunds[msg.sender];\n        require(_refund > 0);\n        refunds[msg.sender] = 0;\n        require(ERC20(MARLIN_TOKEN_ADDRESS).transfer(msg.sender, _refund));\n    }\n\n    /**\n    @notice Function to read publisher-side offer details\n    @param _id keccak256(_namespace, _archiveUrl) is the ID of the offer\n    @return {\n      \"_publisher\": \"Address of the publisher, who created this offer\",\n      \"_namespace\": \"Namespace of the website/project\",\n      \"_archiveUrl\": \"URL of the file archive\",\n      \"_storageReward\": \"Reward (LIN) for storing this content\",\n      \"_deliveryReward\": \"Reward (LIN) for delivering/serving this content\",\n      \"_validTill\": \"UTC timestamp at which offer's validity is over\",\n      \"_expiry\": \"UTC timestamp at which offer auto-expires if no master nodes join\",\n      \"_replication\": \"Replication factor of the content\",\n      \"_requiredStake\": \"Stake (LIN) required to store/deliver this content\",\n      \"_geoHash\": \"geographic region from which nodes can accpe this offer\",\n      \"_archiveSize\": \"size of archive\",\n      \"_archiveHash\": \"hash of archive\"\n    }\n    */\n    function readPublisherOffer(bytes32 _id)\n        public\n        constant\n        returns (\n            address _publisher,\n            string _namespace,\n            string _archiveUrl,\n            uint256 _storageReward,\n            uint256 _deliveryReward,\n            uint256 _validTill,\n            uint256 _expiry,\n            uint256 _replication,\n            uint256 _requiredStake,\n            bytes32 _geoHash,\n            uint256 _archiveSize,\n            bytes32 _archiveHash\n        )\n    {\n        _publisher = offers[_id].publisher;\n        _namespace = offers[_id].namespace;\n        _archiveUrl = offers[_id].archiveUrl;\n        _storageReward = offers[_id].storageReward;\n        _deliveryReward = offers[_id].deliveryReward;\n        _validTill = offers[_id].validTill;\n        _expiry = offers[_id].expiry;\n        _replication = offers[_id].replication;\n        _requiredStake = offers[_id].requiredStake;\n        _geoHash = offers[_id].geoHash;\n        _archiveSize = offers[_id].archiveSize;\n        _archiveHash = offers[_id].archiveHash;\n    }\n\n    /**\n    @notice Function to read the offers owned by a publisher\n    @param _publisher Address of the publisher\n    @return {\n      \"_ids\": \"Array of bytes (IDs) of offers\"\n    }\n    */\n    function readOffersByPublisher(address _publisher)\n        public\n        constant\n        returns (bytes32[] _ids)\n    {\n        _ids = offersByPublisher[_publisher];\n    }\n\n    /**\n    @notice Function to read the refund value of a master node\n    @param _node Address of the master node\n    @return {\n      \"_value\": \"Refund value of the master node\"\n    }\n    */\n    function readRefund(address _node)\n        public\n        constant\n        returns (uint256 _value)\n    {\n        _value = refunds[_node];\n    }\n\n    /**\n    @notice Function to read the stake of a master node for specific offer\n    @param _id keccak256(_namespace, _archiveUrl) is the ID of the offer\n    @param _node Address of the master node\n    @return {\n      \"_value\": \"LIN tokens staked by the master node for this offer\"\n    }\n    */\n    function readStake(bytes32 _id, address _node)\n        public\n        constant\n        returns (uint256 _value)\n    {\n        if (offers[_id].activeNodes[_node] == true) {\n            _value = offers[_id].requiredStake;\n        }\n    }\n\n    function addToList(address _publisher, bytes32 _id)\n        internal\n    {\n        if (!isInList(offersByPublisher[_publisher], _id)) {\n            offersByPublisher[_publisher].push(_id);\n        }\n    }\n\n    function isInList(bytes32[] _list, bytes32 _item)\n        internal\n        pure\n        returns (bool _success)\n    {\n        uint256 _length = _list.length;\n        for (uint256 _i = 0; _i < _length; _i++) {\n            if (_item == _list[_i]) {\n                _success = true;\n                break;\n            }\n        }\n    }\n\n    function refundPublisherOffer(bytes32 _id)\n        internal\n    {\n        // make sure upload contract is not valid anymore\n        require(now > offers[_id].validTill);\n\n        address[] memory _nodes = offers[_id].nodes;\n        for (uint256 i = _nodes.length; i > 0; i--) {\n            address _node = _nodes[i];\n            refunds[_node] = refunds[_node].add(offers[_id].requiredStake);\n            removeNode(_id, _node);\n            offers[_id].activeNodes[_node] = false;\n        }\n    }\n\n    function removeNode(bytes32 _id, address _node)\n        internal\n        constant\n    {\n        address[] memory _nodes = offers[_id].nodes;\n        for (uint256 i = _nodes.length; i > 0; i--) {\n            if (_nodes[i] == _node) {\n                delete _nodes[i];\n                break;\n            }\n        }\n    }\n\n    function isUnique(bytes32 _id)\n        internal\n        constant\n        returns (bool _is)\n    {\n        if (\n            (now > offers[_id].expiry) ||\n            (offers[_id].expiry == 0) ||\n            (now > offers[_id].validTill)\n        ) {\n            return true;\n        }\n        return false;\n    }\n}\n",
  "sourcePath": "/Users/rohitnarurkar/Develop/marlin/marlin-contracts/contracts/Upload.sol",
  "compiler": {
    "name": "solc",
    "version": "0.4.24+commit.e67f0147.Emscripten.clang"
  },
  "schemaVersion": "2.0.1",
  "updatedAt": "2018-08-28T15:14:40.281Z"
}