{
  "contractName": "Upload",
  "abi": [
    {
      "inputs": [
        {
          "name": "_tokenContractAddress",
          "type": "address"
        }
      ],
      "payable": false,
      "stateMutability": "nonpayable",
      "type": "constructor"
    },
    {
      "anonymous": false,
      "inputs": [
        {
          "indexed": false,
          "name": "namespace",
          "type": "string"
        },
        {
          "indexed": false,
          "name": "fileArchiveUrl",
          "type": "string"
        }
      ],
      "name": "PublisherContract",
      "type": "event"
    },
    {
      "constant": false,
      "inputs": [
        {
          "name": "_namespace",
          "type": "string"
        },
        {
          "name": "_archiveUrl",
          "type": "string"
        },
        {
          "name": "_storageReward",
          "type": "uint256"
        },
        {
          "name": "_deliveryReward",
          "type": "uint256"
        },
        {
          "name": "_duration",
          "type": "uint256"
        },
        {
          "name": "_expiry",
          "type": "uint256"
        },
        {
          "name": "_replication",
          "type": "uint256"
        },
        {
          "name": "_requiredStake",
          "type": "uint256"
        }
      ],
      "name": "addPublisherClause",
      "outputs": [],
      "payable": false,
      "stateMutability": "nonpayable",
      "type": "function"
    },
    {
      "constant": false,
      "inputs": [
        {
          "name": "_id",
          "type": "bytes32"
        },
        {
          "name": "_replication",
          "type": "uint256"
        }
      ],
      "name": "scalePublisherClause",
      "outputs": [
        {
          "name": "_success",
          "type": "bool"
        }
      ],
      "payable": false,
      "stateMutability": "nonpayable",
      "type": "function"
    },
    {
      "constant": false,
      "inputs": [
        {
          "name": "_id",
          "type": "bytes32"
        }
      ],
      "name": "servePublisherClause",
      "outputs": [
        {
          "name": "_success",
          "type": "bool"
        }
      ],
      "payable": false,
      "stateMutability": "nonpayable",
      "type": "function"
    },
    {
      "constant": false,
      "inputs": [
        {
          "name": "_id",
          "type": "bytes32"
        }
      ],
      "name": "withdrawStake",
      "outputs": [
        {
          "name": "_success",
          "type": "bool"
        }
      ],
      "payable": false,
      "stateMutability": "nonpayable",
      "type": "function"
    },
    {
      "constant": false,
      "inputs": [],
      "name": "withdrawRefund",
      "outputs": [],
      "payable": false,
      "stateMutability": "nonpayable",
      "type": "function"
    },
    {
      "constant": true,
      "inputs": [
        {
          "name": "_id",
          "type": "bytes32"
        }
      ],
      "name": "readPublisherClause",
      "outputs": [
        {
          "name": "_publisher",
          "type": "address"
        },
        {
          "name": "_namespace",
          "type": "string"
        },
        {
          "name": "_archiveUrl",
          "type": "string"
        },
        {
          "name": "_storageReward",
          "type": "uint256"
        },
        {
          "name": "_deliveryReward",
          "type": "uint256"
        },
        {
          "name": "_validTill",
          "type": "uint256"
        },
        {
          "name": "_expiry",
          "type": "uint256"
        },
        {
          "name": "_replication",
          "type": "uint256"
        },
        {
          "name": "_requiredStake",
          "type": "uint256"
        }
      ],
      "payable": false,
      "stateMutability": "view",
      "type": "function"
    },
    {
      "constant": true,
      "inputs": [
        {
          "name": "_node",
          "type": "address"
        }
      ],
      "name": "readRefund",
      "outputs": [
        {
          "name": "_value",
          "type": "uint256"
        }
      ],
      "payable": false,
      "stateMutability": "view",
      "type": "function"
    },
    {
      "constant": true,
      "inputs": [
        {
          "name": "_id",
          "type": "bytes32"
        },
        {
          "name": "_node",
          "type": "address"
        }
      ],
      "name": "readStake",
      "outputs": [
        {
          "name": "_value",
          "type": "uint256"
        }
      ],
      "payable": false,
      "stateMutability": "view",
      "type": "function"
    }
  ],
  "bytecode": "0x608060405234801561001057600080fd5b50604051602080611a998339810180604052810190808051906020019092919050505080600260006101000a81548173ffffffffffffffffffffffffffffffffffffffff021916908373ffffffffffffffffffffffffffffffffffffffff16021790555050611a15806100846000396000f30060806040526004361061008e576000357c0100000000000000000000000000000000000000000000000000000000900463ffffffff1680630e28eec5146100935780630f3fc157146100dc578063110f88741461024f578063134358b7146102665780631cee6542146102cb57806323bb2dea1461031e5780636030d73b14610375578063b95ff68914610460575b600080fd5b34801561009f57600080fd5b506100c260048036038101908080356000191690602001909291905050506104a9565b604051808215151515815260200191505060405180910390f35b3480156100e857600080fd5b5061010b600480360381019080803560001916906020019092919050505061081f565b604051808a73ffffffffffffffffffffffffffffffffffffffff1673ffffffffffffffffffffffffffffffffffffffff168152602001806020018060200189815260200188815260200187815260200186815260200185815260200184815260200183810383528b818151815260200191508051906020019080838360005b838110156101a557808201518184015260208101905061018a565b50505050905090810190601f1680156101d25780820380516001836020036101000a031916815260200191505b5083810382528a818151815260200191508051906020019080838360005b8381101561020b5780820151818401526020810190506101f0565b50505050905090810190601f1680156102385780820380516001836020036101000a031916815260200191505b509b50505050505050505050505060405180910390f35b34801561025b57600080fd5b50610264610aaa565b005b34801561027257600080fd5b506102b56004803603810190808035600019169060200190929190803573ffffffffffffffffffffffffffffffffffffffff169060200190929190505050610c50565b6040518082815260200191505060405180910390f35b3480156102d757600080fd5b50610304600480360381019080803560001916906020019092919080359060200190929190505050610ced565b604051808215151515815260200191505060405180910390f35b34801561032a57600080fd5b5061035f600480360381019080803573ffffffffffffffffffffffffffffffffffffffff169060200190929190505050610dc1565b6040518082815260200191505060405180910390f35b34801561038157600080fd5b5061045e600480360381019080803590602001908201803590602001908080601f0160208091040260200160405190810160405280939291908181526020018383808284378201915050505050509192919290803590602001908201803590602001908080601f0160208091040260200160405190810160405280939291908181526020018383808284378201915050505050509192919290803590602001909291908035906020019092919080359060200190929190803590602001909291908035906020019092919080359060200190929190505050610e0a565b005b34801561046c57600080fd5b5061048f60048036038101908080356000191690602001909291905050506112bf565b604051808215151515815260200191505060405180910390f35b6000426000808460001916600019168152602001908152602001600020600501541115156104d657600080fd5b4260008084600019166000191681526020019081526020016000206006015411151561050157600080fd5b600015156000808460001916600019168152602001908152602001600020600a0160003373ffffffffffffffffffffffffffffffffffffffff1673ffffffffffffffffffffffffffffffffffffffff16815260200190815260200160002060009054906101000a900460ff16151514151561057b57600080fd5b6000808360001916600019168152602001908152602001600020600701546000808460001916600019168152602001908152602001600020600901805490501015156105c657600080fd5b60016000808460001916600019168152602001908152602001600020600a0160003373ffffffffffffffffffffffffffffffffffffffff1673ffffffffffffffffffffffffffffffffffffffff16815260200190815260200160002060006101000a81548160ff02191690831515021790555060008083600019166000191681526020019081526020016000206009013390806001815401808255809150509060018203906000526020600020016000909192909190916101000a81548173ffffffffffffffffffffffffffffffffffffffff021916908373ffffffffffffffffffffffffffffffffffffffff16021790555050600260009054906101000a900473ffffffffffffffffffffffffffffffffffffffff1673ffffffffffffffffffffffffffffffffffffffff166323b872dd33306000808760001916600019168152602001908152602001600020600801546040518463ffffffff167c0100000000000000000000000000000000000000000000000000000000028152600401808473ffffffffffffffffffffffffffffffffffffffff1673ffffffffffffffffffffffffffffffffffffffff1681526020018373ffffffffffffffffffffffffffffffffffffffff1673ffffffffffffffffffffffffffffffffffffffff1681526020018281526020019350505050602060405180830381600087803b1580156107d057600080fd5b505af11580156107e4573d6000803e3d6000fd5b505050506040513d60208110156107fa57600080fd5b8101908080519060200190929190505050151561081657600080fd5b60019050919050565b60006060806000806000806000806000808b6000191660001916815260200190815260200160002060000160009054906101000a900473ffffffffffffffffffffffffffffffffffffffff1698506000808b600019166000191681526020019081526020016000206001018054600181600116156101000203166002900480601f01602080910402602001604051908101604052809291908181526020018280546001816001161561010002031660029004801561091e5780601f106108f35761010080835404028352916020019161091e565b820191906000526020600020905b81548152906001019060200180831161090157829003601f168201915b505050505097506000808b600019166000191681526020019081526020016000206002018054600181600116156101000203166002900480601f0160208091040260200160405190810160405280929190818152602001828054600181600116156101000203166002900480156109d65780601f106109ab576101008083540402835291602001916109d6565b820191906000526020600020905b8154815290600101906020018083116109b957829003601f168201915b505050505096506000808b600019166000191681526020019081526020016000206003015495506000808b600019166000191681526020019081526020016000206004015494506000808b600019166000191681526020019081526020016000206005015493506000808b600019166000191681526020019081526020016000206006015492506000808b600019166000191681526020019081526020016000206007015491506000808b600019166000191681526020019081526020016000206008015490509193959799909294969850565b6000600160003373ffffffffffffffffffffffffffffffffffffffff1673ffffffffffffffffffffffffffffffffffffffff168152602001908152602001600020549050600081111515610afd57600080fd5b6000600160003373ffffffffffffffffffffffffffffffffffffffff1673ffffffffffffffffffffffffffffffffffffffff16815260200190815260200160002081905550600260009054906101000a900473ffffffffffffffffffffffffffffffffffffffff1673ffffffffffffffffffffffffffffffffffffffff1663a9059cbb33836040518363ffffffff167c0100000000000000000000000000000000000000000000000000000000028152600401808373ffffffffffffffffffffffffffffffffffffffff1673ffffffffffffffffffffffffffffffffffffffff16815260200182815260200192505050602060405180830381600087803b158015610c0757600080fd5b505af1158015610c1b573d6000803e3d6000fd5b505050506040513d6020811015610c3157600080fd5b81019080805190602001909291905050501515610c4d57600080fd5b50565b6000600115156000808560001916600019168152602001908152602001600020600a0160008473ffffffffffffffffffffffffffffffffffffffff1673ffffffffffffffffffffffffffffffffffffffff16815260200190815260200160002060009054906101000a900460ff1615151415610ce75760008084600019166000191681526020019081526020016000206008015490505b92915050565b6000806000846000191660001916815260200190815260200160002060000160009054906101000a900473ffffffffffffffffffffffffffffffffffffffff1673ffffffffffffffffffffffffffffffffffffffff163373ffffffffffffffffffffffffffffffffffffffff16141515610d6657600080fd5b8160008085600019166000191681526020019081526020016000206009018054905011151515610d9557600080fd5b816000808560001916600019168152602001908152602001600020600701819055506001905092915050565b6000600160008373ffffffffffffffffffffffffffffffffffffffff1673ffffffffffffffffffffffffffffffffffffffff168152602001908152602001600020549050919050565b600088886040516020018083805190602001908083835b602083101515610e465780518252602082019150602081019050602083039250610e21565b6001836020036101000a03801982511681845116808217855250505050505090500182805190602001908083835b602083101515610e995780518252602082019150602081019050602083039250610e74565b6001836020036101000a038019825116818451168082178552505050505050905001925050506040516020818303038152906040526040518082805190602001908083835b602083101515610f035780518252602082019150602081019050602083039250610ede565b6001836020036101000a03801982511681845116808217855250505050505090500191505060405180910390209050610f3b81611514565b1515610f4657600080fd5b8342101515610f5457600080fd5b600082111515610f6357600080fd5b6000806000836000191660001916815260200190815260200160002060090180549050111561100d57600080826000191660001916815260200190815260200160002060000160009054906101000a900473ffffffffffffffffffffffffffffffffffffffff1673ffffffffffffffffffffffffffffffffffffffff163373ffffffffffffffffffffffffffffffffffffffff1614151561100357600080fd5b61100c8161159d565b5b33600080836000191660001916815260200190815260200160002060000160006101000a81548173ffffffffffffffffffffffffffffffffffffffff021916908373ffffffffffffffffffffffffffffffffffffffff160217905550886000808360001916600019168152602001908152602001600020600101908051906020019061109a929190611944565b5087600080836000191660001916815260200190815260200160002060020190805190602001906110cc929190611944565b50866000808360001916600019168152602001908152602001600020600301819055508560008083600019166000191681526020019081526020016000206004018190555061112485426117dc90919063ffffffff16565b6000808360001916600019168152602001908152602001600020600501819055508360008083600019166000191681526020019081526020016000206006018190555082600080836000191660001916815260200190815260200160002060070181905550816000808360001916600019168152602001908152602001600020600801819055507f4a31b267ccee3cc6f125dfc091b9b292e017b85408553670265aca43270cb4f98989604051808060200180602001838103835285818151815260200191508051906020019080838360005b838110156112125780820151818401526020810190506111f7565b50505050905090810190601f16801561123f5780820380516001836020036101000a031916815260200191505b50838103825284818151815260200191508051906020019080838360005b8381101561127857808201518184015260208101905061125d565b50505050905090810190601f1680156112a55780820380516001836020036101000a031916815260200191505b5094505050505060405180910390a1505050505050505050565b6000806000836000191660001916815260200190815260200160002060050154421115156112ec57600080fd5b600115156000808460001916600019168152602001908152602001600020600a0160003373ffffffffffffffffffffffffffffffffffffffff1673ffffffffffffffffffffffffffffffffffffffff16815260200190815260200160002060009054906101000a900460ff16151514151561136657600080fd5b61137082336117f8565b60008060008460001916600019168152602001908152602001600020600a0160003373ffffffffffffffffffffffffffffffffffffffff1673ffffffffffffffffffffffffffffffffffffffff16815260200190815260200160002060006101000a81548160ff021916908315150217905550600260009054906101000a900473ffffffffffffffffffffffffffffffffffffffff1673ffffffffffffffffffffffffffffffffffffffff1663a9059cbb336000808660001916600019168152602001908152602001600020600801546040518363ffffffff167c0100000000000000000000000000000000000000000000000000000000028152600401808373ffffffffffffffffffffffffffffffffffffffff1673ffffffffffffffffffffffffffffffffffffffff16815260200182815260200192505050602060405180830381600087803b1580156114c557600080fd5b505af11580156114d9573d6000803e3d6000fd5b505050506040513d60208110156114ef57600080fd5b8101908080519060200190929190505050151561150b57600080fd5b60019050919050565b600080600083600019166000191681526020019081526020016000206006015442118061155e57506000806000846000191660001916815260200190815260200160002060060154145b80611585575060008083600019166000191681526020019081526020016000206005015442115b156115935760019050611598565b600090505b919050565b6060600080600080856000191660001916815260200190815260200160002060050154421115156115cd57600080fd5b600080856000191660001916815260200190815260200160002060090180548060200260200160405190810160405280929190818152602001828054801561166a57602002820191906000526020600020905b8160009054906101000a900473ffffffffffffffffffffffffffffffffffffffff1673ffffffffffffffffffffffffffffffffffffffff1681526020019060010190808311611620575b50505050509250825191505b60008211156117d657828281518110151561168d57fe5b906020019060200201519050611708600080866000191660001916815260200190815260200160002060080154600160008473ffffffffffffffffffffffffffffffffffffffff1673ffffffffffffffffffffffffffffffffffffffff168152602001908152602001600020546117dc90919063ffffffff16565b600160008373ffffffffffffffffffffffffffffffffffffffff1673ffffffffffffffffffffffffffffffffffffffff1681526020019081526020016000208190555061175584826117f8565b60008060008660001916600019168152602001908152602001600020600a0160008373ffffffffffffffffffffffffffffffffffffffff1673ffffffffffffffffffffffffffffffffffffffff16815260200190815260200160002060006101000a81548160ff021916908315150217905550818060019003925050611676565b50505050565b600081830190508281101515156117ef57fe5b80905092915050565b60606000806000856000191660001916815260200190815260200160002060090180548060200260200160405190810160405280929190818152602001828054801561189957602002820191906000526020600020905b8160009054906101000a900473ffffffffffffffffffffffffffffffffffffffff1673ffffffffffffffffffffffffffffffffffffffff168152602001906001019080831161184f575b50505050509150815190505b600081111561193e578273ffffffffffffffffffffffffffffffffffffffff1682828151811015156118d357fe5b9060200190602002015173ffffffffffffffffffffffffffffffffffffffff16141561193057818181518110151561190757fe5b906020019060200201600073ffffffffffffffffffffffffffffffffffffffff1681525061193e565b8080600190039150506118a5565b50505050565b828054600181600116156101000203166002900490600052602060002090601f016020900481019282601f1061198557805160ff19168380011785556119b3565b828001600101855582156119b3579182015b828111156119b2578251825591602001919060010190611997565b5b5090506119c091906119c4565b5090565b6119e691905b808211156119e25760008160009055506001016119ca565b5090565b905600a165627a7a7230582029d628acece0e698c7907d1550b5e8d1daf1cc4a0991125a41383d514d000dbc0029",
  "source": "pragma solidity ^0.4.24;\n\nimport \"openzeppelin-solidity/contracts/token/ERC20/ERC20.sol\";\nimport \"openzeppelin-solidity/contracts/math/SafeMath.sol\";\n\n/**\n * @title Publisher-side upload clauses\n * @author Marlin Labs\n * @notice Publishers can create new clauses for storing and delivering content\n */\ncontract Upload {\n\n    using SafeMath for uint256;\n\n    event PublisherContract(string namespace, string fileArchiveUrl);\n\n    /**\n     * @notice Struct for Publisher Clause\n     * @param publisher Address of the publisher\n     * @param namespace Namespace of the website/project\n     * @param archiveUrl URL of the file archive\n     * @param storageReward Reward (LIN) for storing this content\n     * @param deliveryReward Reward (LIN) for delivering/serving this content\n     * @param validTill UTC timestamp till which this clause is valid\n     * @param expiry UTC timestamp at which clause auto-expires if no master nodes join\n     * @param replication Replication factor of the content\n     * @param requiredStake Stake (LIN) required to store/deliver this content\n     * @param nodes Addresses of the master nodes that have joined this clause\n     * @param activeNodes Mapping of whether an address has joined this clause or not\n     */\n    struct PublisherClause {\n        address publisher;\n        string namespace;\n        string archiveUrl;\n        uint256 storageReward;\n        uint256 deliveryReward;\n        uint256 validTill;\n        uint256 expiry;\n        uint256 replication;\n        uint256 requiredStake;\n        address[] nodes;\n        mapping(address => bool) activeNodes;\n    }\n\n    mapping(bytes32 => PublisherClause) clauses;\n    mapping(address => uint256) refunds;\n    address MARLIN_TOKEN_ADDRESS;\n\n    /**\n     * @notice Constructor that saves the address of the Marlin token contract\n     * @param _tokenContractAddress Address of Marlin token contract\n     */\n    constructor(address _tokenContractAddress) public {\n        MARLIN_TOKEN_ADDRESS = _tokenContractAddress;\n    }\n\n    /**\n     * @notice Function to create a new publisher-side clause\n     * @dev This may also be called to renew a clause whose validity was over\n     * @param _namespace Namespace of the website/project\n     * @param _archiveUrl URL of the file archive\n     * @param _storageReward Reward (LIN) for storing this content\n     * @param _deliveryReward Reward (LIN) for delivering/serving this content\n     * @param _duration Duration of the clause after which its validity ends (seconds)\n     * @param _expiry UTC timestamp at which clause auto-expires if no master nodes join\n     * @param _replication Replication factor of the content\n     * @param _requiredStake Stake (LIN) required to store/deliver this content\n     */\n    function addPublisherClause(\n        string _namespace,\n        string _archiveUrl,\n        uint256 _storageReward,\n        uint256 _deliveryReward,\n        uint256 _duration,\n        uint256 _expiry,\n        uint256 _replication,\n        uint256 _requiredStake\n    )\n        public\n    {\n        bytes32 _id = keccak256(abi.encodePacked(_namespace, _archiveUrl));\n        require(isUnique(_id));\n        require(now < _expiry);\n        require(_requiredStake > 0);\n        if (clauses[_id].nodes.length > 0) {\n            require(msg.sender == clauses[_id].publisher);\n            refundPublisherClause(_id);\n        }\n        clauses[_id].publisher = msg.sender;\n        clauses[_id].namespace = _namespace;\n        clauses[_id].archiveUrl = _archiveUrl;\n        clauses[_id].storageReward = _storageReward;\n        clauses[_id].deliveryReward = _deliveryReward;\n        clauses[_id].validTill = now.add(_duration);\n        clauses[_id].expiry = _expiry;\n        clauses[_id].replication = _replication;\n        clauses[_id].requiredStake = _requiredStake;\n        emit PublisherContract(_namespace, _archiveUrl);\n    }\n\n    /**\n     * @notice Function to be called by publisher to scale out/in replication factor\n     * @dev Can scale in only upto the already joined number of master nodes\n     * @param _id keccak256(_namespace, _archiveUrl) is the ID of the clause\n     * @param _replication Replication factor of the content\n     * @return _success Boolean, true if updated successfully\n     */\n    function scalePublisherClause(\n        bytes32 _id,\n        uint256 _replication\n    )\n        public\n        returns (bool _success)\n    {\n        require(msg.sender == clauses[_id].publisher);\n\n        require(clauses[_id].nodes.length <= _replication);\n        clauses[_id].replication = _replication;\n\n        _success = true;\n    }\n\n    /**\n     * @notice Function to join a clause and deliver/serve content\n     * @dev Clause can only be joined till the replication is not satisfied\n     *      msg.sender must approve this contract to transferFrom LIN tokens on their behalf\n     * @param _id keccak256(_namespace, _archiveUrl) is the ID of the clause\n     * @return _success Boolean, true if joined the clause successfully\n     */\n    function servePublisherClause(bytes32 _id)\n        public\n        returns (bool _success)\n    {\n        // make sure upload contract is valid\n        require(clauses[_id].validTill > now);\n        require(clauses[_id].expiry > now);\n\n        // make sure it is a new node\n        require(clauses[_id].activeNodes[msg.sender] == false);\n\n        // make sure upload contract has slots remaining, if yes, add new node\n        require(clauses[_id].nodes.length < clauses[_id].replication);\n        clauses[_id].activeNodes[msg.sender] = true;\n        clauses[_id].nodes.push(msg.sender);\n\n        // make sure transfer of tokens is possible\n        require(ERC20(MARLIN_TOKEN_ADDRESS).transferFrom(\n            msg.sender,\n            address(this),\n            clauses[_id].requiredStake\n        ));\n\n        _success = true;\n    }\n\n    /**\n     * @notice Leave the clause after its validity is over\n     * @dev This also means the staked LIN tokens will be transferred back\n     * @param _id keccak256(_namespace, _archiveUrl) is the ID of the clause\n     * @return _success Boolean, true if withdrawn successfully\n     */\n    function withdrawStake(bytes32 _id)\n        public\n        returns (bool _success)\n    {\n        // make sure upload contract is not valid anymore\n        require(now > clauses[_id].validTill);\n\n        // make sure this node was serving\n        require(clauses[_id].activeNodes[msg.sender] == true);\n        removeNode(_id, msg.sender);\n        clauses[_id].activeNodes[msg.sender] = false;\n\n        // withdraw tokens\n        require(ERC20(MARLIN_TOKEN_ADDRESS).transfer(msg.sender, clauses[_id].requiredStake));\n\n        _success = true;\n    }\n\n    /**\n     * @notice Function to withdraw refundable LIN tokens from this contract\n     * @dev Tokens are refunded if the publisher renews their clause beyond the initial clause validity\n     */\n    function withdrawRefund()\n        public\n    {\n        uint256 _refund = refunds[msg.sender];\n        require(_refund > 0);\n        refunds[msg.sender] = 0;\n        require(ERC20(MARLIN_TOKEN_ADDRESS).transfer(msg.sender, _refund));\n    }\n\n    /**\n     * @notice Function to read publisher-side clause details\n     * @param _id keccak256(_namespace, _archiveUrl) is the ID of the clause\n     * @return _publisher Address of the publisher, who created this clause\n     * @return _namespace Namespace of the website/project\n     * @return _archiveUrl URL of the file archive\n     * @return _storageReward Reward (LIN) for storing this content\n     * @return _deliveryReward Reward (LIN) for delivering/serving this content\n     * @return _validTill UTC timestamp at which clause's validity is over\n     * @return _expiry UTC timestamp at which clause auto-expires if no master nodes join\n     * @return _replication Replication factor of the content\n     * @return _requiredStake Stake (LIN) required to store/deliver this content\n     */\n    function readPublisherClause(bytes32 _id)\n        public\n        constant\n        returns (\n            address _publisher,\n            string _namespace,\n            string _archiveUrl,\n            uint256 _storageReward,\n            uint256 _deliveryReward,\n            uint256 _validTill,\n            uint256 _expiry,\n            uint256 _replication,\n            uint256 _requiredStake\n        )\n    {\n        _publisher = clauses[_id].publisher;\n        _namespace = clauses[_id].namespace;\n        _archiveUrl = clauses[_id].archiveUrl;\n        _storageReward = clauses[_id].storageReward;\n        _deliveryReward = clauses[_id].deliveryReward;\n        _validTill = clauses[_id].validTill;\n        _expiry = clauses[_id].expiry;\n        _replication = clauses[_id].replication;\n        _requiredStake = clauses[_id].requiredStake;\n    }\n\n    /**\n     * @notice Function to read the refund value of a master node\n     * @param _node Address of the master node\n     * @return _value Refund value of the master node\n     */\n    function readRefund(address _node)\n        public\n        constant\n        returns (uint256 _value)\n    {\n        _value = refunds[_node];\n    }\n\n    /**\n     * @notice Function to read the stake of a master node for specific clause\n     * @param _id keccak256(_namespace, _archiveUrl) is the ID of the clause\n     * @param _node Address of the master node\n     * @return _value LIN tokens staked by the master node for this clause\n     */\n    function readStake(bytes32 _id, address _node)\n        public\n        constant\n        returns (uint256 _value)\n    {\n        if (clauses[_id].activeNodes[_node] == true) {\n            _value = clauses[_id].requiredStake;\n        }\n    }\n\n    function refundPublisherClause(bytes32 _id)\n        internal\n    {\n        // make sure upload contract is not valid anymore\n        require(now > clauses[_id].validTill);\n\n        address[] memory _nodes = clauses[_id].nodes;\n        for (uint256 i = _nodes.length; i > 0; i--) {\n            address _node = _nodes[i];\n            refunds[_node] = refunds[_node].add(clauses[_id].requiredStake);\n            removeNode(_id, _node);\n            clauses[_id].activeNodes[_node] = false;\n        }\n    }\n\n    function removeNode(bytes32 _id, address _node)\n        internal\n        constant\n    {\n        address[] memory _nodes = clauses[_id].nodes;\n        for (uint256 i = _nodes.length; i > 0; i--) {\n            if (_nodes[i] == _node) {\n                delete _nodes[i];\n                break;\n            }\n        }\n    }\n\n    function isUnique(bytes32 _id)\n        internal\n        constant\n        returns (bool _is)\n    {\n        if (\n            (now > clauses[_id].expiry) ||\n            (clauses[_id].expiry == 0) ||\n            (now > clauses[_id].validTill)\n        ) {\n            return true;\n        }\n        return false;\n    }\n}\n",
  "sourcePath": "/Users/rohitnarurkar/Develop/marlin/marlin-contracts/contracts/Upload.sol",
  "compiler": {
    "name": "solc",
    "version": "0.4.24+commit.e67f0147.Emscripten.clang"
  },
  "schemaVersion": "2.0.1",
  "updatedAt": "2018-07-29T03:01:17.708Z"
}