{
  "contractName": "Upload",
  "abi": [
    {
      "inputs": [
        {
          "name": "_tokenContractAddress",
          "type": "address"
        }
      ],
      "payable": false,
      "stateMutability": "nonpayable",
      "type": "constructor"
    },
    {
      "anonymous": false,
      "inputs": [
        {
          "indexed": false,
          "name": "namespace",
          "type": "string"
        },
        {
          "indexed": false,
          "name": "fileArchiveUrl",
          "type": "string"
        }
      ],
      "name": "PublisherContract",
      "type": "event"
    },
    {
      "constant": false,
      "inputs": [
        {
          "name": "_namespace",
          "type": "string"
        },
        {
          "name": "_archiveUrl",
          "type": "string"
        },
        {
          "name": "_storageReward",
          "type": "uint256"
        },
        {
          "name": "_deliveryReward",
          "type": "uint256"
        },
        {
          "name": "_duration",
          "type": "uint256"
        },
        {
          "name": "_expiry",
          "type": "uint256"
        },
        {
          "name": "_replication",
          "type": "uint256"
        },
        {
          "name": "_requiredStake",
          "type": "uint256"
        }
      ],
      "name": "addPublisherOffer",
      "outputs": [],
      "payable": false,
      "stateMutability": "nonpayable",
      "type": "function"
    },
    {
      "constant": false,
      "inputs": [
        {
          "name": "_id",
          "type": "bytes32"
        },
        {
          "name": "_replication",
          "type": "uint256"
        }
      ],
      "name": "scalePublisherOffer",
      "outputs": [
        {
          "name": "_success",
          "type": "bool"
        }
      ],
      "payable": false,
      "stateMutability": "nonpayable",
      "type": "function"
    },
    {
      "constant": false,
      "inputs": [
        {
          "name": "_id",
          "type": "bytes32"
        }
      ],
      "name": "servePublisherOffer",
      "outputs": [
        {
          "name": "_success",
          "type": "bool"
        }
      ],
      "payable": false,
      "stateMutability": "nonpayable",
      "type": "function"
    },
    {
      "constant": false,
      "inputs": [
        {
          "name": "_id",
          "type": "bytes32"
        }
      ],
      "name": "withdrawStake",
      "outputs": [
        {
          "name": "_success",
          "type": "bool"
        }
      ],
      "payable": false,
      "stateMutability": "nonpayable",
      "type": "function"
    },
    {
      "constant": false,
      "inputs": [],
      "name": "withdrawRefund",
      "outputs": [],
      "payable": false,
      "stateMutability": "nonpayable",
      "type": "function"
    },
    {
      "constant": true,
      "inputs": [
        {
          "name": "_id",
          "type": "bytes32"
        }
      ],
      "name": "readPublisherOffer",
      "outputs": [
        {
          "name": "_publisher",
          "type": "address"
        },
        {
          "name": "_namespace",
          "type": "string"
        },
        {
          "name": "_archiveUrl",
          "type": "string"
        },
        {
          "name": "_storageReward",
          "type": "uint256"
        },
        {
          "name": "_deliveryReward",
          "type": "uint256"
        },
        {
          "name": "_validTill",
          "type": "uint256"
        },
        {
          "name": "_expiry",
          "type": "uint256"
        },
        {
          "name": "_replication",
          "type": "uint256"
        },
        {
          "name": "_requiredStake",
          "type": "uint256"
        }
      ],
      "payable": false,
      "stateMutability": "view",
      "type": "function"
    },
    {
      "constant": true,
      "inputs": [
        {
          "name": "_node",
          "type": "address"
        }
      ],
      "name": "readRefund",
      "outputs": [
        {
          "name": "_value",
          "type": "uint256"
        }
      ],
      "payable": false,
      "stateMutability": "view",
      "type": "function"
    },
    {
      "constant": true,
      "inputs": [
        {
          "name": "_id",
          "type": "bytes32"
        },
        {
          "name": "_node",
          "type": "address"
        }
      ],
      "name": "readStake",
      "outputs": [
        {
          "name": "_value",
          "type": "uint256"
        }
      ],
      "payable": false,
      "stateMutability": "view",
      "type": "function"
    }
  ],
  "bytecode": "0x608060405234801561001057600080fd5b50604051602080611a998339810180604052810190808051906020019092919050505080600260006101000a81548173ffffffffffffffffffffffffffffffffffffffff021916908373ffffffffffffffffffffffffffffffffffffffff16021790555050611a15806100846000396000f30060806040526004361061008e576000357c0100000000000000000000000000000000000000000000000000000000900463ffffffff168063110f887414610093578063134358b7146100aa57806323bb2dea1461010f5780632b611c49146101665780639e0cd016146102d9578063ab4be3b614610322578063b95ff6891461040d578063d735fd9d14610456575b600080fd5b34801561009f57600080fd5b506100a86104a9565b005b3480156100b657600080fd5b506100f96004803603810190808035600019169060200190929190803573ffffffffffffffffffffffffffffffffffffffff16906020019092919050505061064f565b6040518082815260200191505060405180910390f35b34801561011b57600080fd5b50610150600480360381019080803573ffffffffffffffffffffffffffffffffffffffff1690602001909291905050506106ec565b6040518082815260200191505060405180910390f35b34801561017257600080fd5b506101956004803603810190808035600019169060200190929190505050610735565b604051808a73ffffffffffffffffffffffffffffffffffffffff1673ffffffffffffffffffffffffffffffffffffffff168152602001806020018060200189815260200188815260200187815260200186815260200185815260200184815260200183810383528b818151815260200191508051906020019080838360005b8381101561022f578082015181840152602081019050610214565b50505050905090810190601f16801561025c5780820380516001836020036101000a031916815260200191505b5083810382528a818151815260200191508051906020019080838360005b8381101561029557808201518184015260208101905061027a565b50505050905090810190601f1680156102c25780820380516001836020036101000a031916815260200191505b509b50505050505050505050505060405180910390f35b3480156102e557600080fd5b5061030860048036038101908080356000191690602001909291905050506109c0565b604051808215151515815260200191505060405180910390f35b34801561032e57600080fd5b5061040b600480360381019080803590602001908201803590602001908080601f0160208091040260200160405190810160405280939291908181526020018383808284378201915050505050509192919290803590602001908201803590602001908080601f0160208091040260200160405190810160405280939291908181526020018383808284378201915050505050509192919290803590602001909291908035906020019092919080359060200190929190803590602001909291908035906020019092919080359060200190929190505050610d36565b005b34801561041957600080fd5b5061043c60048036038101908080356000191690602001909291905050506111eb565b604051808215151515815260200191505060405180910390f35b34801561046257600080fd5b5061048f600480360381019080803560001916906020019092919080359060200190929190505050611440565b604051808215151515815260200191505060405180910390f35b6000600160003373ffffffffffffffffffffffffffffffffffffffff1673ffffffffffffffffffffffffffffffffffffffff1681526020019081526020016000205490506000811115156104fc57600080fd5b6000600160003373ffffffffffffffffffffffffffffffffffffffff1673ffffffffffffffffffffffffffffffffffffffff16815260200190815260200160002081905550600260009054906101000a900473ffffffffffffffffffffffffffffffffffffffff1673ffffffffffffffffffffffffffffffffffffffff1663a9059cbb33836040518363ffffffff167c0100000000000000000000000000000000000000000000000000000000028152600401808373ffffffffffffffffffffffffffffffffffffffff1673ffffffffffffffffffffffffffffffffffffffff16815260200182815260200192505050602060405180830381600087803b15801561060657600080fd5b505af115801561061a573d6000803e3d6000fd5b505050506040513d602081101561063057600080fd5b8101908080519060200190929190505050151561064c57600080fd5b50565b6000600115156000808560001916600019168152602001908152602001600020600a0160008473ffffffffffffffffffffffffffffffffffffffff1673ffffffffffffffffffffffffffffffffffffffff16815260200190815260200160002060009054906101000a900460ff16151514156106e65760008084600019166000191681526020019081526020016000206008015490505b92915050565b6000600160008373ffffffffffffffffffffffffffffffffffffffff1673ffffffffffffffffffffffffffffffffffffffff168152602001908152602001600020549050919050565b60006060806000806000806000806000808b6000191660001916815260200190815260200160002060000160009054906101000a900473ffffffffffffffffffffffffffffffffffffffff1698506000808b600019166000191681526020019081526020016000206001018054600181600116156101000203166002900480601f0160208091040260200160405190810160405280929190818152602001828054600181600116156101000203166002900480156108345780601f1061080957610100808354040283529160200191610834565b820191906000526020600020905b81548152906001019060200180831161081757829003601f168201915b505050505097506000808b600019166000191681526020019081526020016000206002018054600181600116156101000203166002900480601f0160208091040260200160405190810160405280929190818152602001828054600181600116156101000203166002900480156108ec5780601f106108c1576101008083540402835291602001916108ec565b820191906000526020600020905b8154815290600101906020018083116108cf57829003601f168201915b505050505096506000808b600019166000191681526020019081526020016000206003015495506000808b600019166000191681526020019081526020016000206004015494506000808b600019166000191681526020019081526020016000206005015493506000808b600019166000191681526020019081526020016000206006015492506000808b600019166000191681526020019081526020016000206007015491506000808b600019166000191681526020019081526020016000206008015490509193959799909294969850565b6000426000808460001916600019168152602001908152602001600020600501541115156109ed57600080fd5b42600080846000191660001916815260200190815260200160002060060154111515610a1857600080fd5b600015156000808460001916600019168152602001908152602001600020600a0160003373ffffffffffffffffffffffffffffffffffffffff1673ffffffffffffffffffffffffffffffffffffffff16815260200190815260200160002060009054906101000a900460ff161515141515610a9257600080fd5b600080836000191660001916815260200190815260200160002060070154600080846000191660001916815260200190815260200160002060090180549050101515610add57600080fd5b60016000808460001916600019168152602001908152602001600020600a0160003373ffffffffffffffffffffffffffffffffffffffff1673ffffffffffffffffffffffffffffffffffffffff16815260200190815260200160002060006101000a81548160ff02191690831515021790555060008083600019166000191681526020019081526020016000206009013390806001815401808255809150509060018203906000526020600020016000909192909190916101000a81548173ffffffffffffffffffffffffffffffffffffffff021916908373ffffffffffffffffffffffffffffffffffffffff16021790555050600260009054906101000a900473ffffffffffffffffffffffffffffffffffffffff1673ffffffffffffffffffffffffffffffffffffffff166323b872dd33306000808760001916600019168152602001908152602001600020600801546040518463ffffffff167c0100000000000000000000000000000000000000000000000000000000028152600401808473ffffffffffffffffffffffffffffffffffffffff1673ffffffffffffffffffffffffffffffffffffffff1681526020018373ffffffffffffffffffffffffffffffffffffffff1673ffffffffffffffffffffffffffffffffffffffff1681526020018281526020019350505050602060405180830381600087803b158015610ce757600080fd5b505af1158015610cfb573d6000803e3d6000fd5b505050506040513d6020811015610d1157600080fd5b81019080805190602001909291905050501515610d2d57600080fd5b60019050919050565b600088886040516020018083805190602001908083835b602083101515610d725780518252602082019150602081019050602083039250610d4d565b6001836020036101000a03801982511681845116808217855250505050505090500182805190602001908083835b602083101515610dc55780518252602082019150602081019050602083039250610da0565b6001836020036101000a038019825116818451168082178552505050505050905001925050506040516020818303038152906040526040518082805190602001908083835b602083101515610e2f5780518252602082019150602081019050602083039250610e0a565b6001836020036101000a03801982511681845116808217855250505050505090500191505060405180910390209050610e6781611514565b1515610e7257600080fd5b8342101515610e8057600080fd5b600082111515610e8f57600080fd5b60008060008360001916600019168152602001908152602001600020600901805490501115610f3957600080826000191660001916815260200190815260200160002060000160009054906101000a900473ffffffffffffffffffffffffffffffffffffffff1673ffffffffffffffffffffffffffffffffffffffff163373ffffffffffffffffffffffffffffffffffffffff16141515610f2f57600080fd5b610f388161159d565b5b33600080836000191660001916815260200190815260200160002060000160006101000a81548173ffffffffffffffffffffffffffffffffffffffff021916908373ffffffffffffffffffffffffffffffffffffffff1602179055508860008083600019166000191681526020019081526020016000206001019080519060200190610fc6929190611944565b508760008083600019166000191681526020019081526020016000206002019080519060200190610ff8929190611944565b50866000808360001916600019168152602001908152602001600020600301819055508560008083600019166000191681526020019081526020016000206004018190555061105085426117dc90919063ffffffff16565b6000808360001916600019168152602001908152602001600020600501819055508360008083600019166000191681526020019081526020016000206006018190555082600080836000191660001916815260200190815260200160002060070181905550816000808360001916600019168152602001908152602001600020600801819055507f4a31b267ccee3cc6f125dfc091b9b292e017b85408553670265aca43270cb4f98989604051808060200180602001838103835285818151815260200191508051906020019080838360005b8381101561113e578082015181840152602081019050611123565b50505050905090810190601f16801561116b5780820380516001836020036101000a031916815260200191505b50838103825284818151815260200191508051906020019080838360005b838110156111a4578082015181840152602081019050611189565b50505050905090810190601f1680156111d15780820380516001836020036101000a031916815260200191505b5094505050505060405180910390a1505050505050505050565b60008060008360001916600019168152602001908152602001600020600501544211151561121857600080fd5b600115156000808460001916600019168152602001908152602001600020600a0160003373ffffffffffffffffffffffffffffffffffffffff1673ffffffffffffffffffffffffffffffffffffffff16815260200190815260200160002060009054906101000a900460ff16151514151561129257600080fd5b61129c82336117f8565b60008060008460001916600019168152602001908152602001600020600a0160003373ffffffffffffffffffffffffffffffffffffffff1673ffffffffffffffffffffffffffffffffffffffff16815260200190815260200160002060006101000a81548160ff021916908315150217905550600260009054906101000a900473ffffffffffffffffffffffffffffffffffffffff1673ffffffffffffffffffffffffffffffffffffffff1663a9059cbb336000808660001916600019168152602001908152602001600020600801546040518363ffffffff167c0100000000000000000000000000000000000000000000000000000000028152600401808373ffffffffffffffffffffffffffffffffffffffff1673ffffffffffffffffffffffffffffffffffffffff16815260200182815260200192505050602060405180830381600087803b1580156113f157600080fd5b505af1158015611405573d6000803e3d6000fd5b505050506040513d602081101561141b57600080fd5b8101908080519060200190929190505050151561143757600080fd5b60019050919050565b6000806000846000191660001916815260200190815260200160002060000160009054906101000a900473ffffffffffffffffffffffffffffffffffffffff1673ffffffffffffffffffffffffffffffffffffffff163373ffffffffffffffffffffffffffffffffffffffff161415156114b957600080fd5b81600080856000191660001916815260200190815260200160002060090180549050111515156114e857600080fd5b816000808560001916600019168152602001908152602001600020600701819055506001905092915050565b600080600083600019166000191681526020019081526020016000206006015442118061155e57506000806000846000191660001916815260200190815260200160002060060154145b80611585575060008083600019166000191681526020019081526020016000206005015442115b156115935760019050611598565b600090505b919050565b6060600080600080856000191660001916815260200190815260200160002060050154421115156115cd57600080fd5b600080856000191660001916815260200190815260200160002060090180548060200260200160405190810160405280929190818152602001828054801561166a57602002820191906000526020600020905b8160009054906101000a900473ffffffffffffffffffffffffffffffffffffffff1673ffffffffffffffffffffffffffffffffffffffff1681526020019060010190808311611620575b50505050509250825191505b60008211156117d657828281518110151561168d57fe5b906020019060200201519050611708600080866000191660001916815260200190815260200160002060080154600160008473ffffffffffffffffffffffffffffffffffffffff1673ffffffffffffffffffffffffffffffffffffffff168152602001908152602001600020546117dc90919063ffffffff16565b600160008373ffffffffffffffffffffffffffffffffffffffff1673ffffffffffffffffffffffffffffffffffffffff1681526020019081526020016000208190555061175584826117f8565b60008060008660001916600019168152602001908152602001600020600a0160008373ffffffffffffffffffffffffffffffffffffffff1673ffffffffffffffffffffffffffffffffffffffff16815260200190815260200160002060006101000a81548160ff021916908315150217905550818060019003925050611676565b50505050565b600081830190508281101515156117ef57fe5b80905092915050565b60606000806000856000191660001916815260200190815260200160002060090180548060200260200160405190810160405280929190818152602001828054801561189957602002820191906000526020600020905b8160009054906101000a900473ffffffffffffffffffffffffffffffffffffffff1673ffffffffffffffffffffffffffffffffffffffff168152602001906001019080831161184f575b50505050509150815190505b600081111561193e578273ffffffffffffffffffffffffffffffffffffffff1682828151811015156118d357fe5b9060200190602002015173ffffffffffffffffffffffffffffffffffffffff16141561193057818181518110151561190757fe5b906020019060200201600073ffffffffffffffffffffffffffffffffffffffff1681525061193e565b8080600190039150506118a5565b50505050565b828054600181600116156101000203166002900490600052602060002090601f016020900481019282601f1061198557805160ff19168380011785556119b3565b828001600101855582156119b3579182015b828111156119b2578251825591602001919060010190611997565b5b5090506119c091906119c4565b5090565b6119e691905b808211156119e25760008160009055506001016119ca565b5090565b905600a165627a7a723058201139e470265a3bbb2068c2984209e31ebc366028859670823bd4495b65efd1f20029",
  "source": "pragma solidity ^0.4.24;\n\nimport \"openzeppelin-solidity/contracts/token/ERC20/ERC20.sol\";\nimport \"openzeppelin-solidity/contracts/math/SafeMath.sol\";\n\n/**\n * @title Publisher-side upload offers\n * @author Marlin Labs\n * @notice Publishers can create new offers for storing and delivering content\n */\ncontract Upload {\n\n    using SafeMath for uint256;\n\n    event PublisherContract(string namespace, string fileArchiveUrl);\n\n    /**\n     * @notice Struct for Publisher Offer\n     * @param publisher Address of the publisher\n     * @param namespace Namespace of the website/project\n     * @param archiveUrl URL of the file archive\n     * @param storageReward Reward (LIN) for storing this content\n     * @param deliveryReward Reward (LIN) for delivering/serving this content\n     * @param validTill UTC timestamp till which this offer is valid\n     * @param expiry UTC timestamp at which offer auto-expires if no master nodes join\n     * @param replication Replication factor of the content\n     * @param requiredStake Stake (LIN) required to store/deliver this content\n     * @param nodes Addresses of the master nodes that have joined this offer\n     * @param activeNodes Mapping of whether an address has joined this offer or not\n     */\n    struct PublisherOffer {\n        address publisher;\n        string namespace;\n        string archiveUrl;\n        uint256 storageReward;\n        uint256 deliveryReward;\n        uint256 validTill;\n        uint256 expiry;\n        uint256 replication;\n        uint256 requiredStake;\n        address[] nodes;\n        mapping(address => bool) activeNodes;\n    }\n\n    mapping(bytes32 => PublisherOffer) offers;\n    mapping(address => uint256) refunds;\n    address MARLIN_TOKEN_ADDRESS;\n\n    /**\n     * @notice Constructor that saves the address of the Marlin token contract\n     * @param _tokenContractAddress Address of Marlin token contract\n     */\n    constructor(address _tokenContractAddress) public {\n        MARLIN_TOKEN_ADDRESS = _tokenContractAddress;\n    }\n\n    /**\n     * @notice Function to create a new publisher-side offer\n     * @dev This may also be called to renew a offer whose validity was over\n     * @param _namespace Namespace of the website/project\n     * @param _archiveUrl URL of the file archive\n     * @param _storageReward Reward (LIN) for storing this content\n     * @param _deliveryReward Reward (LIN) for delivering/serving this content\n     * @param _duration Duration of the offer after which its validity ends (seconds)\n     * @param _expiry UTC timestamp at which offer auto-expires if no master nodes join\n     * @param _replication Replication factor of the content\n     * @param _requiredStake Stake (LIN) required to store/deliver this content\n     */\n    function addPublisherOffer(\n        string _namespace,\n        string _archiveUrl,\n        uint256 _storageReward,\n        uint256 _deliveryReward,\n        uint256 _duration,\n        uint256 _expiry,\n        uint256 _replication,\n        uint256 _requiredStake\n    )\n        public\n    {\n        bytes32 _id = keccak256(abi.encodePacked(_namespace, _archiveUrl));\n        require(isUnique(_id));\n        require(now < _expiry);\n        require(_requiredStake > 0);\n        if (offers[_id].nodes.length > 0) {\n            require(msg.sender == offers[_id].publisher);\n            refundPublisherOffer(_id);\n        }\n        offers[_id].publisher = msg.sender;\n        offers[_id].namespace = _namespace;\n        offers[_id].archiveUrl = _archiveUrl;\n        offers[_id].storageReward = _storageReward;\n        offers[_id].deliveryReward = _deliveryReward;\n        offers[_id].validTill = now.add(_duration);\n        offers[_id].expiry = _expiry;\n        offers[_id].replication = _replication;\n        offers[_id].requiredStake = _requiredStake;\n        emit PublisherContract(_namespace, _archiveUrl);\n    }\n\n    /**\n     * @notice Function to be called by publisher to scale out/in replication factor\n     * @dev Can scale in only upto the already joined number of master nodes\n     * @param _id keccak256(_namespace, _archiveUrl) is the ID of the offer\n     * @param _replication Replication factor of the content\n     * @return _success Boolean, true if updated successfully\n     */\n    function scalePublisherOffer(\n        bytes32 _id,\n        uint256 _replication\n    )\n        public\n        returns (bool _success)\n    {\n        require(msg.sender == offers[_id].publisher);\n\n        require(offers[_id].nodes.length <= _replication);\n        offers[_id].replication = _replication;\n\n        _success = true;\n    }\n\n    /**\n     * @notice Function to join a offer and deliver/serve content\n     * @dev Offer can only be joined till the replication is not satisfied\n     *      msg.sender must approve this contract to transferFrom LIN tokens on their behalf\n     * @param _id keccak256(_namespace, _archiveUrl) is the ID of the offer\n     * @return _success Boolean, true if joined the offer successfully\n     */\n    function servePublisherOffer(bytes32 _id)\n        public\n        returns (bool _success)\n    {\n        // make sure upload contract is valid\n        require(offers[_id].validTill > now);\n        require(offers[_id].expiry > now);\n\n        // make sure it is a new node\n        require(offers[_id].activeNodes[msg.sender] == false);\n\n        // make sure upload contract has slots remaining, if yes, add new node\n        require(offers[_id].nodes.length < offers[_id].replication);\n        offers[_id].activeNodes[msg.sender] = true;\n        offers[_id].nodes.push(msg.sender);\n\n        // make sure transfer of tokens is possible\n        require(ERC20(MARLIN_TOKEN_ADDRESS).transferFrom(\n            msg.sender,\n            address(this),\n            offers[_id].requiredStake\n        ));\n\n        _success = true;\n    }\n\n    /**\n     * @notice Leave the offer after its validity is over\n     * @dev This also means the staked LIN tokens will be transferred back\n     * @param _id keccak256(_namespace, _archiveUrl) is the ID of the offer\n     * @return _success Boolean, true if withdrawn successfully\n     */\n    function withdrawStake(bytes32 _id)\n        public\n        returns (bool _success)\n    {\n        // make sure upload contract is not valid anymore\n        require(now > offers[_id].validTill);\n\n        // make sure this node was serving\n        require(offers[_id].activeNodes[msg.sender] == true);\n        removeNode(_id, msg.sender);\n        offers[_id].activeNodes[msg.sender] = false;\n\n        // withdraw tokens\n        require(ERC20(MARLIN_TOKEN_ADDRESS).transfer(msg.sender, offers[_id].requiredStake));\n\n        _success = true;\n    }\n\n    /**\n     * @notice Function to withdraw refundable LIN tokens from this contract\n     * @dev Tokens are refunded if the publisher renews their offer beyond the initial offer validity\n     */\n    function withdrawRefund()\n        public\n    {\n        uint256 _refund = refunds[msg.sender];\n        require(_refund > 0);\n        refunds[msg.sender] = 0;\n        require(ERC20(MARLIN_TOKEN_ADDRESS).transfer(msg.sender, _refund));\n    }\n\n    /**\n     * @notice Function to read publisher-side offer details\n     * @param _id keccak256(_namespace, _archiveUrl) is the ID of the offer\n     * @return _publisher Address of the publisher, who created this offer\n     * @return _namespace Namespace of the website/project\n     * @return _archiveUrl URL of the file archive\n     * @return _storageReward Reward (LIN) for storing this content\n     * @return _deliveryReward Reward (LIN) for delivering/serving this content\n     * @return _validTill UTC timestamp at which offer's validity is over\n     * @return _expiry UTC timestamp at which offer auto-expires if no master nodes join\n     * @return _replication Replication factor of the content\n     * @return _requiredStake Stake (LIN) required to store/deliver this content\n     */\n    function readPublisherOffer(bytes32 _id)\n        public\n        constant\n        returns (\n            address _publisher,\n            string _namespace,\n            string _archiveUrl,\n            uint256 _storageReward,\n            uint256 _deliveryReward,\n            uint256 _validTill,\n            uint256 _expiry,\n            uint256 _replication,\n            uint256 _requiredStake\n        )\n    {\n        _publisher = offers[_id].publisher;\n        _namespace = offers[_id].namespace;\n        _archiveUrl = offers[_id].archiveUrl;\n        _storageReward = offers[_id].storageReward;\n        _deliveryReward = offers[_id].deliveryReward;\n        _validTill = offers[_id].validTill;\n        _expiry = offers[_id].expiry;\n        _replication = offers[_id].replication;\n        _requiredStake = offers[_id].requiredStake;\n    }\n\n    /**\n     * @notice Function to read the refund value of a master node\n     * @param _node Address of the master node\n     * @return _value Refund value of the master node\n     */\n    function readRefund(address _node)\n        public\n        constant\n        returns (uint256 _value)\n    {\n        _value = refunds[_node];\n    }\n\n    /**\n     * @notice Function to read the stake of a master node for specific offer\n     * @param _id keccak256(_namespace, _archiveUrl) is the ID of the offer\n     * @param _node Address of the master node\n     * @return _value LIN tokens staked by the master node for this offer\n     */\n    function readStake(bytes32 _id, address _node)\n        public\n        constant\n        returns (uint256 _value)\n    {\n        if (offers[_id].activeNodes[_node] == true) {\n            _value = offers[_id].requiredStake;\n        }\n    }\n\n    function refundPublisherOffer(bytes32 _id)\n        internal\n    {\n        // make sure upload contract is not valid anymore\n        require(now > offers[_id].validTill);\n\n        address[] memory _nodes = offers[_id].nodes;\n        for (uint256 i = _nodes.length; i > 0; i--) {\n            address _node = _nodes[i];\n            refunds[_node] = refunds[_node].add(offers[_id].requiredStake);\n            removeNode(_id, _node);\n            offers[_id].activeNodes[_node] = false;\n        }\n    }\n\n    function removeNode(bytes32 _id, address _node)\n        internal\n        constant\n    {\n        address[] memory _nodes = offers[_id].nodes;\n        for (uint256 i = _nodes.length; i > 0; i--) {\n            if (_nodes[i] == _node) {\n                delete _nodes[i];\n                break;\n            }\n        }\n    }\n\n    function isUnique(bytes32 _id)\n        internal\n        constant\n        returns (bool _is)\n    {\n        if (\n            (now > offers[_id].expiry) ||\n            (offers[_id].expiry == 0) ||\n            (now > offers[_id].validTill)\n        ) {\n            return true;\n        }\n        return false;\n    }\n}\n",
  "sourcePath": "/Users/rohitnarurkar/Develop/marlin/marlin-contracts/contracts/Upload.sol",
  "compiler": {
    "name": "solc",
    "version": "0.4.24+commit.e67f0147.Emscripten.clang"
  },
  "schemaVersion": "2.0.1",
  "updatedAt": "2018-07-29T06:21:56.394Z"
}