{
  "contractName": "Upload",
  "abi": [
    {
      "inputs": [
        {
          "name": "_tokenContractAddress",
          "type": "address"
        }
      ],
      "payable": false,
      "stateMutability": "nonpayable",
      "type": "constructor"
    },
    {
      "anonymous": false,
      "inputs": [
        {
          "indexed": false,
          "name": "namespace",
          "type": "string"
        },
        {
          "indexed": false,
          "name": "fileArchiveUrl",
          "type": "string"
        }
      ],
      "name": "PublisherContract",
      "type": "event"
    },
    {
      "constant": false,
      "inputs": [
        {
          "name": "_namespace",
          "type": "string"
        },
        {
          "name": "_archiveUrl",
          "type": "string"
        },
        {
          "name": "_storageReward",
          "type": "uint256"
        },
        {
          "name": "_deliveryReward",
          "type": "uint256"
        },
        {
          "name": "_duration",
          "type": "uint256"
        },
        {
          "name": "_expiry",
          "type": "uint256"
        },
        {
          "name": "_replication",
          "type": "uint256"
        },
        {
          "name": "_requiredStake",
          "type": "uint256"
        }
      ],
      "name": "addUploadContract",
      "outputs": [],
      "payable": false,
      "stateMutability": "nonpayable",
      "type": "function"
    },
    {
      "constant": false,
      "inputs": [
        {
          "name": "_namespace",
          "type": "string"
        },
        {
          "name": "_archiveUrl",
          "type": "string"
        },
        {
          "name": "_replication",
          "type": "uint256"
        }
      ],
      "name": "scaleUploadContract",
      "outputs": [
        {
          "name": "_success",
          "type": "bool"
        }
      ],
      "payable": false,
      "stateMutability": "nonpayable",
      "type": "function"
    },
    {
      "constant": false,
      "inputs": [
        {
          "name": "_namespace",
          "type": "string"
        },
        {
          "name": "_archiveUrl",
          "type": "string"
        }
      ],
      "name": "serveUploadContract",
      "outputs": [
        {
          "name": "_success",
          "type": "bool"
        }
      ],
      "payable": false,
      "stateMutability": "nonpayable",
      "type": "function"
    },
    {
      "constant": false,
      "inputs": [
        {
          "name": "_namespace",
          "type": "string"
        },
        {
          "name": "_archiveUrl",
          "type": "string"
        }
      ],
      "name": "withdrawStake",
      "outputs": [
        {
          "name": "_success",
          "type": "bool"
        }
      ],
      "payable": false,
      "stateMutability": "nonpayable",
      "type": "function"
    },
    {
      "constant": false,
      "inputs": [],
      "name": "withdrawRefund",
      "outputs": [],
      "payable": false,
      "stateMutability": "nonpayable",
      "type": "function"
    },
    {
      "constant": true,
      "inputs": [
        {
          "name": "_id",
          "type": "bytes32"
        }
      ],
      "name": "readUploadContract",
      "outputs": [
        {
          "name": "_publisher",
          "type": "address"
        },
        {
          "name": "_namespace",
          "type": "string"
        },
        {
          "name": "_archiveUrl",
          "type": "string"
        },
        {
          "name": "_storageReward",
          "type": "uint256"
        },
        {
          "name": "_deliveryReward",
          "type": "uint256"
        },
        {
          "name": "_validTill",
          "type": "uint256"
        },
        {
          "name": "_expiry",
          "type": "uint256"
        },
        {
          "name": "_replication",
          "type": "uint256"
        },
        {
          "name": "_requiredStake",
          "type": "uint256"
        }
      ],
      "payable": false,
      "stateMutability": "view",
      "type": "function"
    },
    {
      "constant": true,
      "inputs": [
        {
          "name": "_node",
          "type": "address"
        }
      ],
      "name": "readRefund",
      "outputs": [
        {
          "name": "_value",
          "type": "uint256"
        }
      ],
      "payable": false,
      "stateMutability": "view",
      "type": "function"
    },
    {
      "constant": true,
      "inputs": [
        {
          "name": "_namespace",
          "type": "string"
        },
        {
          "name": "_archiveUrl",
          "type": "string"
        },
        {
          "name": "_node",
          "type": "address"
        }
      ],
      "name": "readStake",
      "outputs": [
        {
          "name": "_value",
          "type": "uint256"
        }
      ],
      "payable": false,
      "stateMutability": "view",
      "type": "function"
    }
  ],
  "bytecode": "0x608060405234801561001057600080fd5b506040516020806121358339810180604052810190808051906020019092919050505080600260006101000a81548173ffffffffffffffffffffffffffffffffffffffff021916908373ffffffffffffffffffffffffffffffffffffffff160217905550506120b1806100846000396000f30060806040526004361061008e576000357c0100000000000000000000000000000000000000000000000000000000900463ffffffff168063110f88741461009357806323bb2dea146100aa5780632425869d14610101578063725b1214146101c857806373cc2c7c1461028f57806399c4db5c14610360578063b09ad04c146104d3578063fc845835146105b6575b600080fd5b34801561009f57600080fd5b506100a86106a1565b005b3480156100b657600080fd5b506100eb600480360381019080803573ffffffffffffffffffffffffffffffffffffffff169060200190929190505050610847565b6040518082815260200191505060405180910390f35b34801561010d57600080fd5b506101ae600480360381019080803590602001908201803590602001908080601f0160208091040260200160405190810160405280939291908181526020018383808284378201915050505050509192919290803590602001908201803590602001908080601f0160208091040260200160405190810160405280939291908181526020018383808284378201915050505050509192919290505050610890565b604051808215151515815260200191505060405180910390f35b3480156101d457600080fd5b50610275600480360381019080803590602001908201803590602001908080601f0160208091040260200160405190810160405280939291908181526020018383808284378201915050505050509192919290803590602001908201803590602001908080601f0160208091040260200160405190810160405280939291908181526020018383808284378201915050505050509192919290505050610d2f565b604051808215151515815260200191505060405180910390f35b34801561029b57600080fd5b50610346600480360381019080803590602001908201803590602001908080601f0160208091040260200160405190810160405280939291908181526020018383808284378201915050505050509192919290803590602001908201803590602001908080601f0160208091040260200160405190810160405280939291908181526020018383808284378201915050505050509192919290803590602001909291905050506110ad565b604051808215151515815260200191505060405180910390f35b34801561036c57600080fd5b5061038f60048036038101908080356000191690602001909291905050506112aa565b604051808a73ffffffffffffffffffffffffffffffffffffffff1673ffffffffffffffffffffffffffffffffffffffff168152602001806020018060200189815260200188815260200187815260200186815260200185815260200184815260200183810383528b818151815260200191508051906020019080838360005b8381101561042957808201518184015260208101905061040e565b50505050905090810190601f1680156104565780820380516001836020036101000a031916815260200191505b5083810382528a818151815260200191508051906020019080838360005b8381101561048f578082015181840152602081019050610474565b50505050905090810190601f1680156104bc5780820380516001836020036101000a031916815260200191505b509b50505050505050505050505060405180910390f35b3480156104df57600080fd5b506105a0600480360381019080803590602001908201803590602001908080601f0160208091040260200160405190810160405280939291908181526020018383808284378201915050505050509192919290803590602001908201803590602001908080601f0160208091040260200160405190810160405280939291908181526020018383808284378201915050505050509192919290803573ffffffffffffffffffffffffffffffffffffffff169060200190929190505050611535565b6040518082815260200191505060405180910390f35b3480156105c257600080fd5b5061069f600480360381019080803590602001908201803590602001908080601f0160208091040260200160405190810160405280939291908181526020018383808284378201915050505050509192919290803590602001908201803590602001908080601f01602080910402602001604051908101604052809392919081815260200183838082843782019150505050505091929192908035906020019092919080359060200190929190803590602001909291908035906020019092919080359060200190929190803590602001909291905050506116fb565b005b6000600160003373ffffffffffffffffffffffffffffffffffffffff1673ffffffffffffffffffffffffffffffffffffffff1681526020019081526020016000205490506000811115156106f457600080fd5b6000600160003373ffffffffffffffffffffffffffffffffffffffff1673ffffffffffffffffffffffffffffffffffffffff16815260200190815260200160002081905550600260009054906101000a900473ffffffffffffffffffffffffffffffffffffffff1673ffffffffffffffffffffffffffffffffffffffff1663a9059cbb33836040518363ffffffff167c0100000000000000000000000000000000000000000000000000000000028152600401808373ffffffffffffffffffffffffffffffffffffffff1673ffffffffffffffffffffffffffffffffffffffff16815260200182815260200192505050602060405180830381600087803b1580156107fe57600080fd5b505af1158015610812573d6000803e3d6000fd5b505050506040513d602081101561082857600080fd5b8101908080519060200190929190505050151561084457600080fd5b50565b6000600160008373ffffffffffffffffffffffffffffffffffffffff1673ffffffffffffffffffffffffffffffffffffffff168152602001908152602001600020549050919050565b60008083836040516020018083805190602001908083835b6020831015156108cd57805182526020820191506020810190506020830392506108a8565b6001836020036101000a03801982511681845116808217855250505050505090500182805190602001908083835b60208310151561092057805182526020820191506020810190506020830392506108fb565b6001836020036101000a038019825116818451168082178552505050505050905001925050506040516020818303038152906040526040518082805190602001908083835b60208310151561098a5780518252602082019150602081019050602083039250610965565b6001836020036101000a03801982511681845116808217855250505050505090500191505060405180910390209050426000808360001916600019168152602001908152602001600020600501541115156109e457600080fd5b42600080836000191660001916815260200190815260200160002060060154111515610a0f57600080fd5b600015156000808360001916600019168152602001908152602001600020600a0160003373ffffffffffffffffffffffffffffffffffffffff1673ffffffffffffffffffffffffffffffffffffffff16815260200190815260200160002060009054906101000a900460ff161515141515610a8957600080fd5b600080826000191660001916815260200190815260200160002060070154600080836000191660001916815260200190815260200160002060090180549050101515610ad457600080fd5b60016000808360001916600019168152602001908152602001600020600a0160003373ffffffffffffffffffffffffffffffffffffffff1673ffffffffffffffffffffffffffffffffffffffff16815260200190815260200160002060006101000a81548160ff02191690831515021790555060008082600019166000191681526020019081526020016000206009013390806001815401808255809150509060018203906000526020600020016000909192909190916101000a81548173ffffffffffffffffffffffffffffffffffffffff021916908373ffffffffffffffffffffffffffffffffffffffff16021790555050600260009054906101000a900473ffffffffffffffffffffffffffffffffffffffff1673ffffffffffffffffffffffffffffffffffffffff166323b872dd33306000808660001916600019168152602001908152602001600020600801546040518463ffffffff167c0100000000000000000000000000000000000000000000000000000000028152600401808473ffffffffffffffffffffffffffffffffffffffff1673ffffffffffffffffffffffffffffffffffffffff1681526020018373ffffffffffffffffffffffffffffffffffffffff1673ffffffffffffffffffffffffffffffffffffffff1681526020018281526020019350505050602060405180830381600087803b158015610cde57600080fd5b505af1158015610cf2573d6000803e3d6000fd5b505050506040513d6020811015610d0857600080fd5b81019080805190602001909291905050501515610d2457600080fd5b600191505092915050565b60008083836040516020018083805190602001908083835b602083101515610d6c5780518252602082019150602081019050602083039250610d47565b6001836020036101000a03801982511681845116808217855250505050505090500182805190602001908083835b602083101515610dbf5780518252602082019150602081019050602083039250610d9a565b6001836020036101000a038019825116818451168082178552505050505050905001925050506040516020818303038152906040526040518082805190602001908083835b602083101515610e295780518252602082019150602081019050602083039250610e04565b6001836020036101000a0380198251168184511680821785525050505050509050019150506040518091039020905060008082600019166000191681526020019081526020016000206005015442111515610e8357600080fd5b600115156000808360001916600019168152602001908152602001600020600a0160003373ffffffffffffffffffffffffffffffffffffffff1673ffffffffffffffffffffffffffffffffffffffff16815260200190815260200160002060009054906101000a900460ff161515141515610efd57600080fd5b610f078133611bb0565b60008060008360001916600019168152602001908152602001600020600a0160003373ffffffffffffffffffffffffffffffffffffffff1673ffffffffffffffffffffffffffffffffffffffff16815260200190815260200160002060006101000a81548160ff021916908315150217905550600260009054906101000a900473ffffffffffffffffffffffffffffffffffffffff1673ffffffffffffffffffffffffffffffffffffffff1663a9059cbb336000808560001916600019168152602001908152602001600020600801546040518363ffffffff167c0100000000000000000000000000000000000000000000000000000000028152600401808373ffffffffffffffffffffffffffffffffffffffff1673ffffffffffffffffffffffffffffffffffffffff16815260200182815260200192505050602060405180830381600087803b15801561105c57600080fd5b505af1158015611070573d6000803e3d6000fd5b505050506040513d602081101561108657600080fd5b810190808051906020019092919050505015156110a257600080fd5b600191505092915050565b60008084846040516020018083805190602001908083835b6020831015156110ea57805182526020820191506020810190506020830392506110c5565b6001836020036101000a03801982511681845116808217855250505050505090500182805190602001908083835b60208310151561113d5780518252602082019150602081019050602083039250611118565b6001836020036101000a038019825116818451168082178552505050505050905001925050506040516020818303038152906040526040518082805190602001908083835b6020831015156111a75780518252602082019150602081019050602083039250611182565b6001836020036101000a03801982511681845116808217855250505050505090500191505060405180910390209050600080826000191660001916815260200190815260200160002060000160009054906101000a900473ffffffffffffffffffffffffffffffffffffffff1673ffffffffffffffffffffffffffffffffffffffff163373ffffffffffffffffffffffffffffffffffffffff1614151561124d57600080fd5b826000808360001916600019168152602001908152602001600020600901805490501115151561127c57600080fd5b8260008083600019166000191681526020019081526020016000206007018190555060019150509392505050565b60006060806000806000806000806000808b6000191660001916815260200190815260200160002060000160009054906101000a900473ffffffffffffffffffffffffffffffffffffffff1698506000808b600019166000191681526020019081526020016000206001018054600181600116156101000203166002900480601f0160208091040260200160405190810160405280929190818152602001828054600181600116156101000203166002900480156113a95780601f1061137e576101008083540402835291602001916113a9565b820191906000526020600020905b81548152906001019060200180831161138c57829003601f168201915b505050505097506000808b600019166000191681526020019081526020016000206002018054600181600116156101000203166002900480601f0160208091040260200160405190810160405280929190818152602001828054600181600116156101000203166002900480156114615780601f1061143657610100808354040283529160200191611461565b820191906000526020600020905b81548152906001019060200180831161144457829003601f168201915b505050505096506000808b600019166000191681526020019081526020016000206003015495506000808b600019166000191681526020019081526020016000206004015494506000808b600019166000191681526020019081526020016000206005015493506000808b600019166000191681526020019081526020016000206006015492506000808b600019166000191681526020019081526020016000206007015491506000808b600019166000191681526020019081526020016000206008015490509193959799909294969850565b60008084846040516020018083805190602001908083835b602083101515611572578051825260208201915060208101905060208303925061154d565b6001836020036101000a03801982511681845116808217855250505050505090500182805190602001908083835b6020831015156115c557805182526020820191506020810190506020830392506115a0565b6001836020036101000a038019825116818451168082178552505050505050905001925050506040516020818303038152906040526040518082805190602001908083835b60208310151561162f578051825260208201915060208101905060208303925061160a565b6001836020036101000a03801982511681845116808217855250505050505090500191505060405180910390209050600115156000808360001916600019168152602001908152602001600020600a0160008573ffffffffffffffffffffffffffffffffffffffff1673ffffffffffffffffffffffffffffffffffffffff16815260200190815260200160002060009054906101000a900460ff16151514156116f35760008082600019166000191681526020019081526020016000206008015491505b509392505050565b600088886040516020018083805190602001908083835b6020831015156117375780518252602082019150602081019050602083039250611712565b6001836020036101000a03801982511681845116808217855250505050505090500182805190602001908083835b60208310151561178a5780518252602082019150602081019050602083039250611765565b6001836020036101000a038019825116818451168082178552505050505050905001925050506040516020818303038152906040526040518082805190602001908083835b6020831015156117f457805182526020820191506020810190506020830392506117cf565b6001836020036101000a0380198251168184511680821785525050505050509050019150506040518091039020905061182c81611cfc565b151561183757600080fd5b834210151561184557600080fd5b60008211151561185457600080fd5b600080600083600019166000191681526020019081526020016000206009018054905011156118fe57600080826000191660001916815260200190815260200160002060000160009054906101000a900473ffffffffffffffffffffffffffffffffffffffff1673ffffffffffffffffffffffffffffffffffffffff163373ffffffffffffffffffffffffffffffffffffffff161415156118f457600080fd5b6118fd81611d85565b5b33600080836000191660001916815260200190815260200160002060000160006101000a81548173ffffffffffffffffffffffffffffffffffffffff021916908373ffffffffffffffffffffffffffffffffffffffff160217905550886000808360001916600019168152602001908152602001600020600101908051906020019061198b929190611fe0565b5087600080836000191660001916815260200190815260200160002060020190805190602001906119bd929190611fe0565b508660008083600019166000191681526020019081526020016000206003018190555085600080836000191660001916815260200190815260200160002060040181905550611a158542611fc490919063ffffffff16565b6000808360001916600019168152602001908152602001600020600501819055508360008083600019166000191681526020019081526020016000206006018190555082600080836000191660001916815260200190815260200160002060070181905550816000808360001916600019168152602001908152602001600020600801819055507f4a31b267ccee3cc6f125dfc091b9b292e017b85408553670265aca43270cb4f98989604051808060200180602001838103835285818151815260200191508051906020019080838360005b83811015611b03578082015181840152602081019050611ae8565b50505050905090810190601f168015611b305780820380516001836020036101000a031916815260200191505b50838103825284818151815260200191508051906020019080838360005b83811015611b69578082015181840152602081019050611b4e565b50505050905090810190601f168015611b965780820380516001836020036101000a031916815260200191505b5094505050505060405180910390a1505050505050505050565b606060008060008560001916600019168152602001908152602001600020600901805480602002602001604051908101604052809291908181526020018280548015611c5157602002820191906000526020600020905b8160009054906101000a900473ffffffffffffffffffffffffffffffffffffffff1673ffffffffffffffffffffffffffffffffffffffff1681526020019060010190808311611c07575b50505050509150815190505b6000811115611cf6578273ffffffffffffffffffffffffffffffffffffffff168282815181101515611c8b57fe5b9060200190602002015173ffffffffffffffffffffffffffffffffffffffff161415611ce8578181815181101515611cbf57fe5b906020019060200201600073ffffffffffffffffffffffffffffffffffffffff16815250611cf6565b808060019003915050611c5d565b50505050565b6000806000836000191660001916815260200190815260200160002060060154421180611d4657506000806000846000191660001916815260200190815260200160002060060154145b80611d6d575060008083600019166000191681526020019081526020016000206005015442115b15611d7b5760019050611d80565b600090505b919050565b606060008060008085600019166000191681526020019081526020016000206005015442111515611db557600080fd5b6000808560001916600019168152602001908152602001600020600901805480602002602001604051908101604052809291908181526020018280548015611e5257602002820191906000526020600020905b8160009054906101000a900473ffffffffffffffffffffffffffffffffffffffff1673ffffffffffffffffffffffffffffffffffffffff1681526020019060010190808311611e08575b50505050509250825191505b6000821115611fbe578282815181101515611e7557fe5b906020019060200201519050611ef0600080866000191660001916815260200190815260200160002060080154600160008473ffffffffffffffffffffffffffffffffffffffff1673ffffffffffffffffffffffffffffffffffffffff16815260200190815260200160002054611fc490919063ffffffff16565b600160008373ffffffffffffffffffffffffffffffffffffffff1673ffffffffffffffffffffffffffffffffffffffff16815260200190815260200160002081905550611f3d8482611bb0565b60008060008660001916600019168152602001908152602001600020600a0160008373ffffffffffffffffffffffffffffffffffffffff1673ffffffffffffffffffffffffffffffffffffffff16815260200190815260200160002060006101000a81548160ff021916908315150217905550818060019003925050611e5e565b50505050565b60008183019050828110151515611fd757fe5b80905092915050565b828054600181600116156101000203166002900490600052602060002090601f016020900481019282601f1061202157805160ff191683800117855561204f565b8280016001018555821561204f579182015b8281111561204e578251825591602001919060010190612033565b5b50905061205c9190612060565b5090565b61208291905b8082111561207e576000816000905550600101612066565b5090565b905600a165627a7a7230582069c46f684d8381ed2ae08284978bf7a54f218e251716edc59f34f5f6c6e0c2580029",
  "source": "pragma solidity ^0.4.24;\n\nimport \"openzeppelin-solidity/contracts/token/ERC20/ERC20.sol\";\nimport \"openzeppelin-solidity/contracts/math/SafeMath.sol\";\n\ncontract Upload {\n\n    using SafeMath for uint256;\n\n    event PublisherContract(string namespace, string fileArchiveUrl);\n\n    struct UploadContract {\n        address publisher;\n        string namespace;\n        string archiveUrl;\n        uint256 storageReward;\n        uint256 deliveryReward;\n        uint256 validTill;\n        uint256 expiry;\n        uint256 replication;\n        uint256 requiredStake;\n        address[] nodes;\n        mapping(address => bool) activeNodes;\n    }\n\n    mapping(bytes32 => UploadContract) uploadContracts;\n    mapping(address => uint256) refunds;\n    address MARLIN_TOKEN_ADDRESS;\n\n    constructor(address _tokenContractAddress) public {\n        MARLIN_TOKEN_ADDRESS = _tokenContractAddress;\n    }\n\n    function addUploadContract(\n        string _namespace,\n        string _archiveUrl,\n        uint256 _storageReward,\n        uint256 _deliveryReward,\n        uint256 _duration,\n        uint256 _expiry,\n        uint256 _replication,\n        uint256 _requiredStake\n    )\n        public\n    {\n        bytes32 _id = keccak256(abi.encodePacked(_namespace, _archiveUrl));\n        require(isUnique(_id));\n        require(now < _expiry);\n        require(_requiredStake > 0);\n        if (uploadContracts[_id].nodes.length > 0) {\n            require(msg.sender == uploadContracts[_id].publisher);\n            refundUploadContract(_id);\n        }\n        uploadContracts[_id].publisher = msg.sender;\n        uploadContracts[_id].namespace = _namespace;\n        uploadContracts[_id].archiveUrl = _archiveUrl;\n        uploadContracts[_id].storageReward = _storageReward;\n        uploadContracts[_id].deliveryReward = _deliveryReward;\n        uploadContracts[_id].validTill = now.add(_duration);\n        uploadContracts[_id].expiry = _expiry;\n        uploadContracts[_id].replication = _replication;\n        uploadContracts[_id].requiredStake = _requiredStake;\n        emit PublisherContract(_namespace, _archiveUrl);\n    }\n\n    function scaleUploadContract(\n        string _namespace,\n        string _archiveUrl,\n        uint256 _replication\n    )\n        public\n        returns (bool _success)\n    {\n        bytes32 _id = keccak256(abi.encodePacked(_namespace, _archiveUrl));\n        require(msg.sender == uploadContracts[_id].publisher);\n\n        require(uploadContracts[_id].nodes.length <= _replication);\n        uploadContracts[_id].replication = _replication;\n\n        _success = true;\n    }\n\n    function serveUploadContract(\n        string _namespace,\n        string _archiveUrl\n    )\n        public\n        returns (bool _success)\n    {\n        bytes32 _id = keccak256(abi.encodePacked(_namespace, _archiveUrl));\n\n        // make sure upload contract is valid\n        require(uploadContracts[_id].validTill > now);\n        require(uploadContracts[_id].expiry > now);\n\n        // make sure it is a new node\n        require(uploadContracts[_id].activeNodes[msg.sender] == false);\n\n        // make sure upload contract has slots remaining, if yes, add new node\n        require(uploadContracts[_id].nodes.length < uploadContracts[_id].replication);\n        uploadContracts[_id].activeNodes[msg.sender] = true;\n        uploadContracts[_id].nodes.push(msg.sender);\n\n        // make sure transfer of tokens is possible\n        require(ERC20(MARLIN_TOKEN_ADDRESS).transferFrom(\n            msg.sender,\n            address(this),\n            uploadContracts[_id].requiredStake\n        ));\n\n        _success = true;\n    }\n\n    function withdrawStake(\n        string _namespace,\n        string _archiveUrl\n    )\n        public\n        returns (bool _success)\n    {\n        bytes32 _id = keccak256(abi.encodePacked(_namespace, _archiveUrl));\n\n        // make sure upload contract is not valid anymore\n        require(now > uploadContracts[_id].validTill);\n\n        // make sure this node was serving\n        require(uploadContracts[_id].activeNodes[msg.sender] == true);\n        removeNode(_id, msg.sender);\n        uploadContracts[_id].activeNodes[msg.sender] = false;\n\n        // withdraw tokens\n        require(ERC20(MARLIN_TOKEN_ADDRESS).transfer(msg.sender, uploadContracts[_id].requiredStake));\n\n        _success = true;\n    }\n\n    function withdrawRefund()\n        public\n    {\n        uint256 _refund = refunds[msg.sender];\n        require(_refund > 0);\n        refunds[msg.sender] = 0;\n        require(ERC20(MARLIN_TOKEN_ADDRESS).transfer(msg.sender, _refund));\n    }\n\n    function readUploadContract(bytes32 _id)\n        public\n        constant\n        returns (\n            address _publisher,\n            string _namespace,\n            string _archiveUrl,\n            uint256 _storageReward,\n            uint256 _deliveryReward,\n            uint256 _validTill,\n            uint256 _expiry,\n            uint256 _replication,\n            uint256 _requiredStake\n        )\n    {\n        _publisher = uploadContracts[_id].publisher;\n        _namespace = uploadContracts[_id].namespace;\n        _archiveUrl = uploadContracts[_id].archiveUrl;\n        _storageReward = uploadContracts[_id].storageReward;\n        _deliveryReward = uploadContracts[_id].deliveryReward;\n        _validTill = uploadContracts[_id].validTill;\n        _expiry = uploadContracts[_id].expiry;\n        _replication = uploadContracts[_id].replication;\n        _requiredStake = uploadContracts[_id].requiredStake;\n    }\n\n    function readRefund(address _node)\n        public\n        constant\n        returns (uint256 _value)\n    {\n        _value = refunds[_node];\n    }\n\n    function readStake(string _namespace, string _archiveUrl, address _node)\n        public\n        constant\n        returns (uint256 _value)\n    {\n        bytes32 _id = keccak256(abi.encodePacked(_namespace, _archiveUrl));\n        if (uploadContracts[_id].activeNodes[_node] == true) {\n            _value = uploadContracts[_id].requiredStake;\n        }\n    }\n\n    function refundUploadContract(bytes32 _id)\n        internal\n    {\n        // make sure upload contract is not valid anymore\n        require(now > uploadContracts[_id].validTill);\n\n        address[] memory _nodes = uploadContracts[_id].nodes;\n        for (uint256 i = _nodes.length; i > 0; i--) {\n            address _node = _nodes[i];\n            refunds[_node] = refunds[_node].add(uploadContracts[_id].requiredStake);\n            removeNode(_id, _node);\n            uploadContracts[_id].activeNodes[_node] = false;\n        }\n    }\n\n    function removeNode(bytes32 _id, address _node)\n        internal\n        constant\n    {\n        address[] memory _nodes = uploadContracts[_id].nodes;\n        for (uint256 i = _nodes.length; i > 0; i--) {\n            if (_nodes[i] == _node) {\n                delete _nodes[i];\n                break;\n            }\n        }\n    }\n\n    function isUnique(bytes32 _id)\n        internal\n        constant\n        returns (bool _is)\n    {\n        if (\n            (now > uploadContracts[_id].expiry) ||\n            (uploadContracts[_id].expiry == 0) ||\n            (now > uploadContracts[_id].validTill)\n        ) {\n            return true;\n        }\n        return false;\n    }\n}\n",
  "sourcePath": "/Users/rohitnarurkar/Develop/marlin/marlin-contracts/contracts/Upload.sol",
  "compiler": {
    "name": "solc",
    "version": "0.4.24+commit.e67f0147.Emscripten.clang"
  },
  "schemaVersion": "2.0.1",
  "updatedAt": "2018-07-28T08:14:18.351Z"
}