{
  "contractName": "Upload",
  "abi": [
    {
      "inputs": [
        {
          "name": "_tokenContractAddress",
          "type": "address"
        }
      ],
      "payable": false,
      "stateMutability": "nonpayable",
      "type": "constructor"
    },
    {
      "anonymous": false,
      "inputs": [
        {
          "indexed": false,
          "name": "id",
          "type": "bytes32"
        }
      ],
      "name": "NewPublisherOffer",
      "type": "event"
    },
    {
      "constant": false,
      "inputs": [
        {
          "name": "_namespace",
          "type": "string"
        },
        {
          "name": "_archiveUrl",
          "type": "string"
        },
        {
          "name": "_storageReward",
          "type": "uint256"
        },
        {
          "name": "_deliveryReward",
          "type": "uint256"
        },
        {
          "name": "_duration",
          "type": "uint256"
        },
        {
          "name": "_expiry",
          "type": "uint256"
        },
        {
          "name": "_replication",
          "type": "uint256"
        },
        {
          "name": "_requiredStake",
          "type": "uint256"
        }
      ],
      "name": "addPublisherOffer",
      "outputs": [],
      "payable": false,
      "stateMutability": "nonpayable",
      "type": "function"
    },
    {
      "constant": false,
      "inputs": [
        {
          "name": "_id",
          "type": "bytes32"
        },
        {
          "name": "_replication",
          "type": "uint256"
        }
      ],
      "name": "scalePublisherOffer",
      "outputs": [
        {
          "name": "_success",
          "type": "bool"
        }
      ],
      "payable": false,
      "stateMutability": "nonpayable",
      "type": "function"
    },
    {
      "constant": false,
      "inputs": [
        {
          "name": "_id",
          "type": "bytes32"
        }
      ],
      "name": "servePublisherOffer",
      "outputs": [
        {
          "name": "_success",
          "type": "bool"
        }
      ],
      "payable": false,
      "stateMutability": "nonpayable",
      "type": "function"
    },
    {
      "constant": false,
      "inputs": [
        {
          "name": "_id",
          "type": "bytes32"
        }
      ],
      "name": "withdrawStake",
      "outputs": [
        {
          "name": "_success",
          "type": "bool"
        }
      ],
      "payable": false,
      "stateMutability": "nonpayable",
      "type": "function"
    },
    {
      "constant": false,
      "inputs": [],
      "name": "withdrawRefund",
      "outputs": [],
      "payable": false,
      "stateMutability": "nonpayable",
      "type": "function"
    },
    {
      "constant": true,
      "inputs": [
        {
          "name": "_id",
          "type": "bytes32"
        }
      ],
      "name": "readPublisherOffer",
      "outputs": [
        {
          "name": "_publisher",
          "type": "address"
        },
        {
          "name": "_namespace",
          "type": "string"
        },
        {
          "name": "_archiveUrl",
          "type": "string"
        },
        {
          "name": "_storageReward",
          "type": "uint256"
        },
        {
          "name": "_deliveryReward",
          "type": "uint256"
        },
        {
          "name": "_validTill",
          "type": "uint256"
        },
        {
          "name": "_expiry",
          "type": "uint256"
        },
        {
          "name": "_replication",
          "type": "uint256"
        },
        {
          "name": "_requiredStake",
          "type": "uint256"
        }
      ],
      "payable": false,
      "stateMutability": "view",
      "type": "function"
    },
    {
      "constant": true,
      "inputs": [
        {
          "name": "_publisher",
          "type": "address"
        }
      ],
      "name": "readOffersByPublisher",
      "outputs": [
        {
          "name": "_ids",
          "type": "bytes32[]"
        }
      ],
      "payable": false,
      "stateMutability": "view",
      "type": "function"
    },
    {
      "constant": true,
      "inputs": [
        {
          "name": "_node",
          "type": "address"
        }
      ],
      "name": "readRefund",
      "outputs": [
        {
          "name": "_value",
          "type": "uint256"
        }
      ],
      "payable": false,
      "stateMutability": "view",
      "type": "function"
    },
    {
      "constant": true,
      "inputs": [
        {
          "name": "_id",
          "type": "bytes32"
        },
        {
          "name": "_node",
          "type": "address"
        }
      ],
      "name": "readStake",
      "outputs": [
        {
          "name": "_value",
          "type": "uint256"
        }
      ],
      "payable": false,
      "stateMutability": "view",
      "type": "function"
    }
  ],
  "bytecode": "0x608060405234801561001057600080fd5b50604051602080611c878339810180604052810190808051906020019092919050505080600360006101000a81548173ffffffffffffffffffffffffffffffffffffffff021916908373ffffffffffffffffffffffffffffffffffffffff16021790555050611c03806100846000396000f300608060405260043610610099576000357c0100000000000000000000000000000000000000000000000000000000900463ffffffff168063110f88741461009e578063134358b7146100b557806323bb2dea1461011a5780632b611c49146101715780639e0cd016146102e4578063ab4be3b61461032d578063ace6432514610418578063b95ff689146104b0578063d735fd9d146104f9575b600080fd5b3480156100aa57600080fd5b506100b361054c565b005b3480156100c157600080fd5b506101046004803603810190808035600019169060200190929190803573ffffffffffffffffffffffffffffffffffffffff1690602001909291905050506106f2565b6040518082815260200191505060405180910390f35b34801561012657600080fd5b5061015b600480360381019080803573ffffffffffffffffffffffffffffffffffffffff16906020019092919050505061078f565b6040518082815260200191505060405180910390f35b34801561017d57600080fd5b506101a060048036038101908080356000191690602001909291905050506107d8565b604051808a73ffffffffffffffffffffffffffffffffffffffff1673ffffffffffffffffffffffffffffffffffffffff168152602001806020018060200189815260200188815260200187815260200186815260200185815260200184815260200183810383528b818151815260200191508051906020019080838360005b8381101561023a57808201518184015260208101905061021f565b50505050905090810190601f1680156102675780820380516001836020036101000a031916815260200191505b5083810382528a818151815260200191508051906020019080838360005b838110156102a0578082015181840152602081019050610285565b50505050905090810190601f1680156102cd5780820380516001836020036101000a031916815260200191505b509b50505050505050505050505060405180910390f35b3480156102f057600080fd5b506103136004803603810190808035600019169060200190929190505050610a63565b604051808215151515815260200191505060405180910390f35b34801561033957600080fd5b50610416600480360381019080803590602001908201803590602001908080601f0160208091040260200160405190810160405280939291908181526020018383808284378201915050505050509192919290803590602001908201803590602001908080601f0160208091040260200160405190810160405280939291908181526020018383808284378201915050505050509192919290803590602001909291908035906020019092919080359060200190929190803590602001909291908035906020019092919080359060200190929190505050610dd9565b005b34801561042457600080fd5b50610459600480360381019080803573ffffffffffffffffffffffffffffffffffffffff1690602001909291905050506111ce565b6040518080602001828103825283818151815260200191508051906020019060200280838360005b8381101561049c578082015181840152602081019050610481565b505050509050019250505060405180910390f35b3480156104bc57600080fd5b506104df6004803603810190808035600019169060200190929190505050611269565b604051808215151515815260200191505060405180910390f35b34801561050557600080fd5b506105326004803603810190808035600019169060200190929190803590602001909291905050506114be565b604051808215151515815260200191505060405180910390f35b6000600260003373ffffffffffffffffffffffffffffffffffffffff1673ffffffffffffffffffffffffffffffffffffffff16815260200190815260200160002054905060008111151561059f57600080fd5b6000600260003373ffffffffffffffffffffffffffffffffffffffff1673ffffffffffffffffffffffffffffffffffffffff16815260200190815260200160002081905550600360009054906101000a900473ffffffffffffffffffffffffffffffffffffffff1673ffffffffffffffffffffffffffffffffffffffff1663a9059cbb33836040518363ffffffff167c0100000000000000000000000000000000000000000000000000000000028152600401808373ffffffffffffffffffffffffffffffffffffffff1673ffffffffffffffffffffffffffffffffffffffff16815260200182815260200192505050602060405180830381600087803b1580156106a957600080fd5b505af11580156106bd573d6000803e3d6000fd5b505050506040513d60208110156106d357600080fd5b810190808051906020019092919050505015156106ef57600080fd5b50565b6000600115156000808560001916600019168152602001908152602001600020600a0160008473ffffffffffffffffffffffffffffffffffffffff1673ffffffffffffffffffffffffffffffffffffffff16815260200190815260200160002060009054906101000a900460ff16151514156107895760008084600019166000191681526020019081526020016000206008015490505b92915050565b6000600260008373ffffffffffffffffffffffffffffffffffffffff1673ffffffffffffffffffffffffffffffffffffffff168152602001908152602001600020549050919050565b60006060806000806000806000806000808b6000191660001916815260200190815260200160002060000160009054906101000a900473ffffffffffffffffffffffffffffffffffffffff1698506000808b600019166000191681526020019081526020016000206001018054600181600116156101000203166002900480601f0160208091040260200160405190810160405280929190818152602001828054600181600116156101000203166002900480156108d75780601f106108ac576101008083540402835291602001916108d7565b820191906000526020600020905b8154815290600101906020018083116108ba57829003601f168201915b505050505097506000808b600019166000191681526020019081526020016000206002018054600181600116156101000203166002900480601f01602080910402602001604051908101604052809291908181526020018280546001816001161561010002031660029004801561098f5780601f106109645761010080835404028352916020019161098f565b820191906000526020600020905b81548152906001019060200180831161097257829003601f168201915b505050505096506000808b600019166000191681526020019081526020016000206003015495506000808b600019166000191681526020019081526020016000206004015494506000808b600019166000191681526020019081526020016000206005015493506000808b600019166000191681526020019081526020016000206006015492506000808b600019166000191681526020019081526020016000206007015491506000808b600019166000191681526020019081526020016000206008015490509193959799909294969850565b600042600080846000191660001916815260200190815260200160002060050154111515610a9057600080fd5b42600080846000191660001916815260200190815260200160002060060154111515610abb57600080fd5b600015156000808460001916600019168152602001908152602001600020600a0160003373ffffffffffffffffffffffffffffffffffffffff1673ffffffffffffffffffffffffffffffffffffffff16815260200190815260200160002060009054906101000a900460ff161515141515610b3557600080fd5b600080836000191660001916815260200190815260200160002060070154600080846000191660001916815260200190815260200160002060090180549050101515610b8057600080fd5b60016000808460001916600019168152602001908152602001600020600a0160003373ffffffffffffffffffffffffffffffffffffffff1673ffffffffffffffffffffffffffffffffffffffff16815260200190815260200160002060006101000a81548160ff02191690831515021790555060008083600019166000191681526020019081526020016000206009013390806001815401808255809150509060018203906000526020600020016000909192909190916101000a81548173ffffffffffffffffffffffffffffffffffffffff021916908373ffffffffffffffffffffffffffffffffffffffff16021790555050600360009054906101000a900473ffffffffffffffffffffffffffffffffffffffff1673ffffffffffffffffffffffffffffffffffffffff166323b872dd33306000808760001916600019168152602001908152602001600020600801546040518463ffffffff167c0100000000000000000000000000000000000000000000000000000000028152600401808473ffffffffffffffffffffffffffffffffffffffff1673ffffffffffffffffffffffffffffffffffffffff1681526020018373ffffffffffffffffffffffffffffffffffffffff1673ffffffffffffffffffffffffffffffffffffffff1681526020018281526020019350505050602060405180830381600087803b158015610d8a57600080fd5b505af1158015610d9e573d6000803e3d6000fd5b505050506040513d6020811015610db457600080fd5b81019080805190602001909291905050501515610dd057600080fd5b60019050919050565b600088886040516020018083805190602001908083835b602083101515610e155780518252602082019150602081019050602083039250610df0565b6001836020036101000a03801982511681845116808217855250505050505090500182805190602001908083835b602083101515610e685780518252602082019150602081019050602083039250610e43565b6001836020036101000a038019825116818451168082178552505050505050905001925050506040516020818303038152906040526040518082805190602001908083835b602083101515610ed25780518252602082019150602081019050602083039250610ead565b6001836020036101000a03801982511681845116808217855250505050505090500191505060405180910390209050610f0a81611592565b1515610f1557600080fd5b8342101515610f2357600080fd5b600082111515610f3257600080fd5b60008060008360001916600019168152602001908152602001600020600901805490501115610fdc57600080826000191660001916815260200190815260200160002060000160009054906101000a900473ffffffffffffffffffffffffffffffffffffffff1673ffffffffffffffffffffffffffffffffffffffff163373ffffffffffffffffffffffffffffffffffffffff16141515610fd257600080fd5b610fdb8161161b565b5b610fe6338261185a565b33600080836000191660001916815260200190815260200160002060000160006101000a81548173ffffffffffffffffffffffffffffffffffffffff021916908373ffffffffffffffffffffffffffffffffffffffff1602179055508860008083600019166000191681526020019081526020016000206001019080519060200190611073929190611b32565b5087600080836000191660001916815260200190815260200160002060020190805190602001906110a5929190611b32565b5086600080836000191660001916815260200190815260200160002060030181905550856000808360001916600019168152602001908152602001600020600401819055506110fd854261196f90919063ffffffff16565b6000808360001916600019168152602001908152602001600020600501819055508360008083600019166000191681526020019081526020016000206006018190555082600080836000191660001916815260200190815260200160002060070181905550816000808360001916600019168152602001908152602001600020600801819055507f91e5f0025cd0da002142435b64c05a08a1c08d559dbac5d25139ea827f32b0908160405180826000191660001916815260200191505060405180910390a1505050505050505050565b6060600160008373ffffffffffffffffffffffffffffffffffffffff1673ffffffffffffffffffffffffffffffffffffffff16815260200190815260200160002080548060200260200160405190810160405280929190818152602001828054801561125d57602002820191906000526020600020905b81546000191681526020019060010190808311611245575b50505050509050919050565b60008060008360001916600019168152602001908152602001600020600501544211151561129657600080fd5b600115156000808460001916600019168152602001908152602001600020600a0160003373ffffffffffffffffffffffffffffffffffffffff1673ffffffffffffffffffffffffffffffffffffffff16815260200190815260200160002060009054906101000a900460ff16151514151561131057600080fd5b61131a823361198b565b60008060008460001916600019168152602001908152602001600020600a0160003373ffffffffffffffffffffffffffffffffffffffff1673ffffffffffffffffffffffffffffffffffffffff16815260200190815260200160002060006101000a81548160ff021916908315150217905550600360009054906101000a900473ffffffffffffffffffffffffffffffffffffffff1673ffffffffffffffffffffffffffffffffffffffff1663a9059cbb336000808660001916600019168152602001908152602001600020600801546040518363ffffffff167c0100000000000000000000000000000000000000000000000000000000028152600401808373ffffffffffffffffffffffffffffffffffffffff1673ffffffffffffffffffffffffffffffffffffffff16815260200182815260200192505050602060405180830381600087803b15801561146f57600080fd5b505af1158015611483573d6000803e3d6000fd5b505050506040513d602081101561149957600080fd5b810190808051906020019092919050505015156114b557600080fd5b60019050919050565b6000806000846000191660001916815260200190815260200160002060000160009054906101000a900473ffffffffffffffffffffffffffffffffffffffff1673ffffffffffffffffffffffffffffffffffffffff163373ffffffffffffffffffffffffffffffffffffffff1614151561153757600080fd5b816000808560001916600019168152602001908152602001600020600901805490501115151561156657600080fd5b816000808560001916600019168152602001908152602001600020600701819055506001905092915050565b60008060008360001916600019168152602001908152602001600020600601544211806115dc57506000806000846000191660001916815260200190815260200160002060060154145b80611603575060008083600019166000191681526020019081526020016000206005015442115b156116115760019050611616565b600090505b919050565b60606000806000808560001916600019168152602001908152602001600020600501544211151561164b57600080fd5b60008085600019166000191681526020019081526020016000206009018054806020026020016040519081016040528092919081815260200182805480156116e857602002820191906000526020600020905b8160009054906101000a900473ffffffffffffffffffffffffffffffffffffffff1673ffffffffffffffffffffffffffffffffffffffff168152602001906001019080831161169e575b50505050509250825191505b600082111561185457828281518110151561170b57fe5b906020019060200201519050611786600080866000191660001916815260200190815260200160002060080154600260008473ffffffffffffffffffffffffffffffffffffffff1673ffffffffffffffffffffffffffffffffffffffff1681526020019081526020016000205461196f90919063ffffffff16565b600260008373ffffffffffffffffffffffffffffffffffffffff1673ffffffffffffffffffffffffffffffffffffffff168152602001908152602001600020819055506117d3848261198b565b60008060008660001916600019168152602001908152602001600020600a0160008373ffffffffffffffffffffffffffffffffffffffff1673ffffffffffffffffffffffffffffffffffffffff16815260200190815260200160002060006101000a81548160ff0219169083151502179055508180600190039250506116f4565b50505050565b6118f5600160008473ffffffffffffffffffffffffffffffffffffffff1673ffffffffffffffffffffffffffffffffffffffff1681526020019081526020016000208054806020026020016040519081016040528092919081815260200182805480156118ea57602002820191906000526020600020905b815460001916815260200190600101908083116118d2575b505050505082611ad7565b151561196b57600160008373ffffffffffffffffffffffffffffffffffffffff1673ffffffffffffffffffffffffffffffffffffffff1681526020019081526020016000208190806001815401808255809150509060018203906000526020600020016000909192909190915090600019169055505b5050565b6000818301905082811015151561198257fe5b80905092915050565b606060008060008560001916600019168152602001908152602001600020600901805480602002602001604051908101604052809291908181526020018280548015611a2c57602002820191906000526020600020905b8160009054906101000a900473ffffffffffffffffffffffffffffffffffffffff1673ffffffffffffffffffffffffffffffffffffffff16815260200190600101908083116119e2575b50505050509150815190505b6000811115611ad1578273ffffffffffffffffffffffffffffffffffffffff168282815181101515611a6657fe5b9060200190602002015173ffffffffffffffffffffffffffffffffffffffff161415611ac3578181815181101515611a9a57fe5b906020019060200201600073ffffffffffffffffffffffffffffffffffffffff16815250611ad1565b808060019003915050611a38565b50505050565b600080600084519150600090505b81811015611b2a578481815181101515611afb57fe5b906020019060200201516000191684600019161415611b1d5760019250611b2a565b8080600101915050611ae5565b505092915050565b828054600181600116156101000203166002900490600052602060002090601f016020900481019282601f10611b7357805160ff1916838001178555611ba1565b82800160010185558215611ba1579182015b82811115611ba0578251825591602001919060010190611b85565b5b509050611bae9190611bb2565b5090565b611bd491905b80821115611bd0576000816000905550600101611bb8565b5090565b905600a165627a7a72305820b3a9f191c194147337a6596a4458d58699cb3c004f54bcd175208688775071500029",
  "source": "pragma solidity ^0.4.24;\r\n\r\nimport \"openzeppelin-solidity/contracts/token/ERC20/ERC20.sol\";\r\nimport \"openzeppelin-solidity/contracts/math/SafeMath.sol\";\r\n\r\n/**\r\n * @title Publisher-side upload offers\r\n * @author Marlin Labs\r\n * @notice Publishers can create new offers for storing and delivering content\r\n */\r\ncontract Upload {\r\n\r\n    using SafeMath for uint256;\r\n\r\n    event NewPublisherOffer(bytes32 id);\r\n\r\n    /**\r\n     * @notice Struct for Publisher Offer\r\n     * @param publisher Address of the publisher\r\n     * @param namespace Namespace of the website/project\r\n     * @param archiveUrl URL of the file archive\r\n     * @param storageReward Reward (LIN) for storing this content\r\n     * @param deliveryReward Reward (LIN) for delivering/serving this content\r\n     * @param validTill UTC timestamp till which this offer is valid\r\n     * @param expiry UTC timestamp at which offer auto-expires if no master nodes join\r\n     * @param replication Replication factor of the content\r\n     * @param requiredStake Stake (LIN) required to store/deliver this content\r\n     * @param nodes Addresses of the master nodes that have joined this offer\r\n     * @param activeNodes Mapping of whether an address has joined this offer or not\r\n     */\r\n    struct PublisherOffer {\r\n        address publisher;\r\n        string namespace;\r\n        string archiveUrl;\r\n        uint256 storageReward;\r\n        uint256 deliveryReward;\r\n        uint256 validTill;\r\n        uint256 expiry;\r\n        uint256 replication;\r\n        uint256 requiredStake;\r\n        address[] nodes;\r\n        mapping(address => bool) activeNodes;\r\n    }\r\n\r\n    mapping(bytes32 => PublisherOffer) offers;\r\n    mapping(address => bytes32[]) offersByPublisher;\r\n    mapping(address => uint256) refunds;\r\n    address MARLIN_TOKEN_ADDRESS;\r\n\r\n    /**\r\n     * @notice Constructor that saves the address of the Marlin token contract\r\n     * @param _tokenContractAddress Address of Marlin token contract\r\n     */\r\n    constructor(address _tokenContractAddress) public {\r\n        MARLIN_TOKEN_ADDRESS = _tokenContractAddress;\r\n    }\r\n\r\n    /**\r\n     * @notice Function to create a new publisher-side offer\r\n     * @dev This may also be called to renew a offer whose validity was over\r\n     * @param _namespace Namespace of the website/project\r\n     * @param _archiveUrl URL of the file archive\r\n     * @param _storageReward Reward (LIN) for storing this content\r\n     * @param _deliveryReward Reward (LIN) for delivering/serving this content\r\n     * @param _duration Duration of the offer after which its validity ends (seconds)\r\n     * @param _expiry UTC timestamp at which offer auto-expires if no master nodes join\r\n     * @param _replication Replication factor of the content\r\n     * @param _requiredStake Stake (LIN) required to store/deliver this content\r\n     */\r\n    function addPublisherOffer(\r\n        string _namespace,\r\n        string _archiveUrl,\r\n        uint256 _storageReward,\r\n        uint256 _deliveryReward,\r\n        uint256 _duration,\r\n        uint256 _expiry,\r\n        uint256 _replication,\r\n        uint256 _requiredStake\r\n    )\r\n        public\r\n    {\r\n        bytes32 _id = keccak256(abi.encodePacked(_namespace, _archiveUrl));\r\n        require(isUnique(_id));\r\n        require(now < _expiry);\r\n        require(_requiredStake > 0);\r\n        if (offers[_id].nodes.length > 0) {\r\n            require(msg.sender == offers[_id].publisher);\r\n            refundPublisherOffer(_id);\r\n        }\r\n        addToList(msg.sender, _id);\r\n        offers[_id].publisher = msg.sender;\r\n        offers[_id].namespace = _namespace;\r\n        offers[_id].archiveUrl = _archiveUrl;\r\n        offers[_id].storageReward = _storageReward;\r\n        offers[_id].deliveryReward = _deliveryReward;\r\n        offers[_id].validTill = now.add(_duration);\r\n        offers[_id].expiry = _expiry;\r\n        offers[_id].replication = _replication;\r\n        offers[_id].requiredStake = _requiredStake;\r\n        emit NewPublisherOffer(_id);\r\n    }\r\n\r\n    /**\r\n     * @notice Function to be called by publisher to scale out/in replication factor\r\n     * @dev Can scale in only upto the already joined number of master nodes\r\n     * @param _id keccak256(_namespace, _archiveUrl) is the ID of the offer\r\n     * @param _replication Replication factor of the content\r\n     * @return _success Boolean, true if updated successfully\r\n     */\r\n    function scalePublisherOffer(\r\n        bytes32 _id,\r\n        uint256 _replication\r\n    )\r\n        public\r\n        returns (bool _success)\r\n    {\r\n        require(msg.sender == offers[_id].publisher);\r\n\r\n        require(offers[_id].nodes.length <= _replication);\r\n        offers[_id].replication = _replication;\r\n\r\n        _success = true;\r\n    }\r\n\r\n    /**\r\n     * @notice Function to join a offer and deliver/serve content\r\n     * @dev Offer can only be joined till the replication is not satisfied\r\n     *      msg.sender must approve this contract to transferFrom LIN tokens on their behalf\r\n     * @param _id keccak256(_namespace, _archiveUrl) is the ID of the offer\r\n     * @return _success Boolean, true if joined the offer successfully\r\n     */\r\n    function servePublisherOffer(bytes32 _id)\r\n        public\r\n        returns (bool _success)\r\n    {\r\n        // make sure upload contract is valid\r\n        require(offers[_id].validTill > now);\r\n        require(offers[_id].expiry > now);\r\n\r\n        // make sure it is a new node\r\n        require(offers[_id].activeNodes[msg.sender] == false);\r\n\r\n        // make sure upload contract has slots remaining, if yes, add new node\r\n        require(offers[_id].nodes.length < offers[_id].replication);\r\n        offers[_id].activeNodes[msg.sender] = true;\r\n        offers[_id].nodes.push(msg.sender);\r\n\r\n        // make sure transfer of tokens is possible\r\n        require(ERC20(MARLIN_TOKEN_ADDRESS).transferFrom(\r\n            msg.sender,\r\n            address(this),\r\n            offers[_id].requiredStake\r\n        ));\r\n\r\n        _success = true;\r\n    }\r\n\r\n    /**\r\n     * @notice Leave the offer after its validity is over\r\n     * @dev This also means the staked LIN tokens will be transferred back\r\n     * @param _id keccak256(_namespace, _archiveUrl) is the ID of the offer\r\n     * @return _success Boolean, true if withdrawn successfully\r\n     */\r\n    function withdrawStake(bytes32 _id)\r\n        public\r\n        returns (bool _success)\r\n    {\r\n        // make sure upload contract is not valid anymore\r\n        require(now > offers[_id].validTill);\r\n\r\n        // make sure this node was serving\r\n        require(offers[_id].activeNodes[msg.sender] == true);\r\n        removeNode(_id, msg.sender);\r\n        offers[_id].activeNodes[msg.sender] = false;\r\n\r\n        // withdraw tokens\r\n        require(ERC20(MARLIN_TOKEN_ADDRESS).transfer(msg.sender, offers[_id].requiredStake));\r\n\r\n        _success = true;\r\n    }\r\n\r\n    /**\r\n     * @notice Function to withdraw refundable LIN tokens from this contract\r\n     * @dev Tokens are refunded if the publisher renews their offer beyond the initial offer validity\r\n     */\r\n    function withdrawRefund()\r\n        public\r\n    {\r\n        uint256 _refund = refunds[msg.sender];\r\n        require(_refund > 0);\r\n        refunds[msg.sender] = 0;\r\n        require(ERC20(MARLIN_TOKEN_ADDRESS).transfer(msg.sender, _refund));\r\n    }\r\n\r\n    /**\r\n     * @notice Function to read publisher-side offer details\r\n     * @param _id keccak256(_namespace, _archiveUrl) is the ID of the offer\r\n     * @return _publisher Address of the publisher, who created this offer\r\n     * @return _namespace Namespace of the website/project\r\n     * @return _archiveUrl URL of the file archive\r\n     * @return _storageReward Reward (LIN) for storing this content\r\n     * @return _deliveryReward Reward (LIN) for delivering/serving this content\r\n     * @return _validTill UTC timestamp at which offer's validity is over\r\n     * @return _expiry UTC timestamp at which offer auto-expires if no master nodes join\r\n     * @return _replication Replication factor of the content\r\n     * @return _requiredStake Stake (LIN) required to store/deliver this content\r\n     */\r\n    function readPublisherOffer(bytes32 _id)\r\n        public\r\n        constant\r\n        returns (\r\n            address _publisher,\r\n            string _namespace,\r\n            string _archiveUrl,\r\n            uint256 _storageReward,\r\n            uint256 _deliveryReward,\r\n            uint256 _validTill,\r\n            uint256 _expiry,\r\n            uint256 _replication,\r\n            uint256 _requiredStake\r\n        )\r\n    {\r\n        _publisher = offers[_id].publisher;\r\n        _namespace = offers[_id].namespace;\r\n        _archiveUrl = offers[_id].archiveUrl;\r\n        _storageReward = offers[_id].storageReward;\r\n        _deliveryReward = offers[_id].deliveryReward;\r\n        _validTill = offers[_id].validTill;\r\n        _expiry = offers[_id].expiry;\r\n        _replication = offers[_id].replication;\r\n        _requiredStake = offers[_id].requiredStake;\r\n    }\r\n\r\n    /**\r\n     * @notice Function to read the offers owned by a publisher\r\n     * @param _publisher Address of the publisher\r\n     * @return _ids Array of bytes (IDs) of offers\r\n     */\r\n    function readOffersByPublisher(address _publisher)\r\n        public\r\n        constant\r\n        returns (bytes32[] _ids)\r\n    {\r\n        _ids = offersByPublisher[_publisher];\r\n    }\r\n\r\n    /**\r\n     * @notice Function to read the refund value of a master node\r\n     * @param _node Address of the master node\r\n     * @return _value Refund value of the master node\r\n     */\r\n    function readRefund(address _node)\r\n        public\r\n        constant\r\n        returns (uint256 _value)\r\n    {\r\n        _value = refunds[_node];\r\n    }\r\n\r\n    /**\r\n     * @notice Function to read the stake of a master node for specific offer\r\n     * @param _id keccak256(_namespace, _archiveUrl) is the ID of the offer\r\n     * @param _node Address of the master node\r\n     * @return _value LIN tokens staked by the master node for this offer\r\n     */\r\n    function readStake(bytes32 _id, address _node)\r\n        public\r\n        constant\r\n        returns (uint256 _value)\r\n    {\r\n        if (offers[_id].activeNodes[_node] == true) {\r\n            _value = offers[_id].requiredStake;\r\n        }\r\n    }\r\n\r\n    function addToList(address _publisher, bytes32 _id)\r\n        internal\r\n    {\r\n        if (!isInList(offersByPublisher[_publisher], _id)) {\r\n            offersByPublisher[_publisher].push(_id);\r\n        }\r\n    }\r\n\r\n    function isInList(bytes32[] _list, bytes32 _item)\r\n        internal\r\n        pure\r\n        returns (bool _success)\r\n    {\r\n        uint256 _length = _list.length;\r\n        for (uint256 _i = 0; _i < _length; _i++) {\r\n            if (_item == _list[_i]) {\r\n                _success = true;\r\n                break;\r\n            }\r\n        }\r\n    }\r\n\r\n    function refundPublisherOffer(bytes32 _id)\r\n        internal\r\n    {\r\n        // make sure upload contract is not valid anymore\r\n        require(now > offers[_id].validTill);\r\n\r\n        address[] memory _nodes = offers[_id].nodes;\r\n        for (uint256 i = _nodes.length; i > 0; i--) {\r\n            address _node = _nodes[i];\r\n            refunds[_node] = refunds[_node].add(offers[_id].requiredStake);\r\n            removeNode(_id, _node);\r\n            offers[_id].activeNodes[_node] = false;\r\n        }\r\n    }\r\n\r\n    function removeNode(bytes32 _id, address _node)\r\n        internal\r\n        constant\r\n    {\r\n        address[] memory _nodes = offers[_id].nodes;\r\n        for (uint256 i = _nodes.length; i > 0; i--) {\r\n            if (_nodes[i] == _node) {\r\n                delete _nodes[i];\r\n                break;\r\n            }\r\n        }\r\n    }\r\n\r\n    function isUnique(bytes32 _id)\r\n        internal\r\n        constant\r\n        returns (bool _is)\r\n    {\r\n        if (\r\n            (now > offers[_id].expiry) ||\r\n            (offers[_id].expiry == 0) ||\r\n            (now > offers[_id].validTill)\r\n        ) {\r\n            return true;\r\n        }\r\n        return false;\r\n    }\r\n}\r\n",
  "sourcePath": "C:\\Users\\sys\\Desktop\\Marlin\\marlin-contracts\\contracts\\Upload.sol",
  "compiler": {
    "name": "solc",
    "version": "0.4.24+commit.e67f0147.Emscripten.clang"
  },
  "schemaVersion": "2.0.1",
  "updatedAt": "2018-08-08T17:28:56.999Z"
}