{
  "_format": "hh-sol-artifact-1",
  "contractName": "ClusterRewards",
  "sourceName": "contracts/staking/ClusterRewards.sol",
  "abi": [
    {
      "anonymous": false,
      "inputs": [
        {
          "indexed": false,
          "internalType": "address",
          "name": "previousAdmin",
          "type": "address"
        },
        {
          "indexed": false,
          "internalType": "address",
          "name": "newAdmin",
          "type": "address"
        }
      ],
      "name": "AdminChanged",
      "type": "event"
    },
    {
      "anonymous": false,
      "inputs": [
        {
          "indexed": true,
          "internalType": "address",
          "name": "beacon",
          "type": "address"
        }
      ],
      "name": "BeaconUpgraded",
      "type": "event"
    },
    {
      "anonymous": false,
      "inputs": [
        {
          "indexed": false,
          "internalType": "bytes32",
          "name": "networkId",
          "type": "bytes32"
        }
      ],
      "name": "ClusterRewarded",
      "type": "event"
    },
    {
      "anonymous": false,
      "inputs": [
        {
          "indexed": false,
          "internalType": "address",
          "name": "_newFeeder",
          "type": "address"
        }
      ],
      "name": "FeederChanged",
      "type": "event"
    },
    {
      "anonymous": false,
      "inputs": [
        {
          "indexed": false,
          "internalType": "bytes32",
          "name": "networkId",
          "type": "bytes32"
        },
        {
          "indexed": false,
          "internalType": "uint256",
          "name": "rewardPerEpoch",
          "type": "uint256"
        }
      ],
      "name": "NetworkAdded",
      "type": "event"
    },
    {
      "anonymous": false,
      "inputs": [
        {
          "indexed": false,
          "internalType": "bytes32",
          "name": "networkId",
          "type": "bytes32"
        }
      ],
      "name": "NetworkRemoved",
      "type": "event"
    },
    {
      "anonymous": false,
      "inputs": [
        {
          "indexed": false,
          "internalType": "bytes32",
          "name": "networkId",
          "type": "bytes32"
        },
        {
          "indexed": false,
          "internalType": "uint256",
          "name": "updatedRewardPerEpoch",
          "type": "uint256"
        }
      ],
      "name": "NetworkRewardUpdated",
      "type": "event"
    },
    {
      "anonymous": false,
      "inputs": [
        {
          "indexed": true,
          "internalType": "address",
          "name": "previousOwner",
          "type": "address"
        },
        {
          "indexed": true,
          "internalType": "address",
          "name": "newOwner",
          "type": "address"
        }
      ],
      "name": "OwnershipTransferred",
      "type": "event"
    },
    {
      "anonymous": false,
      "inputs": [
        {
          "indexed": false,
          "internalType": "address",
          "name": "_updatedPOND",
          "type": "address"
        }
      ],
      "name": "PONDAddressUpdated",
      "type": "event"
    },
    {
      "anonymous": false,
      "inputs": [
        {
          "indexed": false,
          "internalType": "uint256",
          "name": "_updatedPayoutDenomination",
          "type": "uint256"
        }
      ],
      "name": "PayoutDenominationChanged",
      "type": "event"
    },
    {
      "anonymous": false,
      "inputs": [
        {
          "indexed": false,
          "internalType": "address",
          "name": "_updatedRewardDelegator",
          "type": "address"
        }
      ],
      "name": "RewardDelegatorAddressUpdated",
      "type": "event"
    },
    {
      "anonymous": false,
      "inputs": [
        {
          "indexed": false,
          "internalType": "uint256",
          "name": "_updatedRewardDistributionWaitTime",
          "type": "uint256"
        }
      ],
      "name": "RewardDistributionWaitTimeUpdated",
      "type": "event"
    },
    {
      "anonymous": false,
      "inputs": [
        {
          "indexed": false,
          "internalType": "uint256",
          "name": "_updatedRewardPerEpoch",
          "type": "uint256"
        }
      ],
      "name": "RewardPerEpochChanged",
      "type": "event"
    },
    {
      "anonymous": false,
      "inputs": [
        {
          "indexed": true,
          "internalType": "address",
          "name": "implementation",
          "type": "address"
        }
      ],
      "name": "Upgraded",
      "type": "event"
    },
    {
      "inputs": [
        {
          "internalType": "bytes32",
          "name": "_networkId",
          "type": "bytes32"
        },
        {
          "internalType": "uint256",
          "name": "_rewardWeight",
          "type": "uint256"
        }
      ],
      "name": "addNetwork",
      "outputs": [],
      "stateMutability": "nonpayable",
      "type": "function"
    },
    {
      "inputs": [
        {
          "internalType": "address",
          "name": "_newFeeder",
          "type": "address"
        }
      ],
      "name": "changeFeeder",
      "outputs": [],
      "stateMutability": "nonpayable",
      "type": "function"
    },
    {
      "inputs": [
        {
          "internalType": "bytes32",
          "name": "_networkId",
          "type": "bytes32"
        },
        {
          "internalType": "uint256",
          "name": "_updatedRewardWeight",
          "type": "uint256"
        }
      ],
      "name": "changeNetworkReward",
      "outputs": [],
      "stateMutability": "nonpayable",
      "type": "function"
    },
    {
      "inputs": [
        {
          "internalType": "uint256",
          "name": "_updatedPayoutDenomination",
          "type": "uint256"
        }
      ],
      "name": "changePayoutDenomination",
      "outputs": [],
      "stateMutability": "nonpayable",
      "type": "function"
    },
    {
      "inputs": [
        {
          "internalType": "uint256",
          "name": "_updatedRewardPerEpoch",
          "type": "uint256"
        }
      ],
      "name": "changeRewardPerEpoch",
      "outputs": [],
      "stateMutability": "nonpayable",
      "type": "function"
    },
    {
      "inputs": [
        {
          "internalType": "address",
          "name": "_cluster",
          "type": "address"
        }
      ],
      "name": "claimReward",
      "outputs": [
        {
          "internalType": "uint256",
          "name": "",
          "type": "uint256"
        }
      ],
      "stateMutability": "nonpayable",
      "type": "function"
    },
    {
      "inputs": [
        {
          "internalType": "address",
          "name": "",
          "type": "address"
        }
      ],
      "name": "clusterRewards",
      "outputs": [
        {
          "internalType": "uint256",
          "name": "",
          "type": "uint256"
        }
      ],
      "stateMutability": "view",
      "type": "function"
    },
    {
      "inputs": [
        {
          "internalType": "bytes32",
          "name": "_networkId",
          "type": "bytes32"
        },
        {
          "internalType": "address[]",
          "name": "_clusters",
          "type": "address[]"
        },
        {
          "internalType": "uint256[]",
          "name": "_payouts",
          "type": "uint256[]"
        },
        {
          "internalType": "uint256",
          "name": "_epoch",
          "type": "uint256"
        }
      ],
      "name": "feed",
      "outputs": [],
      "stateMutability": "nonpayable",
      "type": "function"
    },
    {
      "inputs": [],
      "name": "feeder",
      "outputs": [
        {
          "internalType": "address",
          "name": "",
          "type": "address"
        }
      ],
      "stateMutability": "view",
      "type": "function"
    },
    {
      "inputs": [
        {
          "internalType": "bytes32",
          "name": "_networkId",
          "type": "bytes32"
        }
      ],
      "name": "getRewardPerEpoch",
      "outputs": [
        {
          "internalType": "uint256",
          "name": "",
          "type": "uint256"
        }
      ],
      "stateMutability": "view",
      "type": "function"
    },
    {
      "inputs": [
        {
          "internalType": "address",
          "name": "_owner",
          "type": "address"
        },
        {
          "internalType": "address",
          "name": "_rewardDelegatorsAddress",
          "type": "address"
        },
        {
          "internalType": "bytes32[]",
          "name": "_networkIds",
          "type": "bytes32[]"
        },
        {
          "internalType": "uint256[]",
          "name": "_rewardWeight",
          "type": "uint256[]"
        },
        {
          "internalType": "uint256",
          "name": "_totalRewardsPerEpoch",
          "type": "uint256"
        },
        {
          "internalType": "address",
          "name": "_PONDAddress",
          "type": "address"
        },
        {
          "internalType": "uint256",
          "name": "_payoutDenomination",
          "type": "uint256"
        },
        {
          "internalType": "address",
          "name": "_feeder",
          "type": "address"
        },
        {
          "internalType": "uint256",
          "name": "_rewardDistributionWaitTime",
          "type": "uint256"
        }
      ],
      "name": "initialize",
      "outputs": [],
      "stateMutability": "nonpayable",
      "type": "function"
    },
    {
      "inputs": [],
      "name": "owner",
      "outputs": [
        {
          "internalType": "address",
          "name": "",
          "type": "address"
        }
      ],
      "stateMutability": "view",
      "type": "function"
    },
    {
      "inputs": [
        {
          "internalType": "bytes32",
          "name": "_networkId",
          "type": "bytes32"
        }
      ],
      "name": "removeNetwork",
      "outputs": [],
      "stateMutability": "nonpayable",
      "type": "function"
    },
    {
      "inputs": [],
      "name": "renounceOwnership",
      "outputs": [],
      "stateMutability": "nonpayable",
      "type": "function"
    },
    {
      "inputs": [],
      "name": "rewardDistributionWaitTime",
      "outputs": [
        {
          "internalType": "uint256",
          "name": "",
          "type": "uint256"
        }
      ],
      "stateMutability": "view",
      "type": "function"
    },
    {
      "inputs": [
        {
          "internalType": "bytes32",
          "name": "",
          "type": "bytes32"
        }
      ],
      "name": "rewardWeight",
      "outputs": [
        {
          "internalType": "uint256",
          "name": "",
          "type": "uint256"
        }
      ],
      "stateMutability": "view",
      "type": "function"
    },
    {
      "inputs": [],
      "name": "totalRewardsPerEpoch",
      "outputs": [
        {
          "internalType": "uint256",
          "name": "",
          "type": "uint256"
        }
      ],
      "stateMutability": "view",
      "type": "function"
    },
    {
      "inputs": [
        {
          "internalType": "address",
          "name": "newOwner",
          "type": "address"
        }
      ],
      "name": "transferOwnership",
      "outputs": [],
      "stateMutability": "nonpayable",
      "type": "function"
    },
    {
      "inputs": [],
      "name": "transferRewardsToRewardDelegators",
      "outputs": [
        {
          "internalType": "bool",
          "name": "",
          "type": "bool"
        }
      ],
      "stateMutability": "nonpayable",
      "type": "function"
    },
    {
      "inputs": [
        {
          "internalType": "address",
          "name": "_updatedPOND",
          "type": "address"
        }
      ],
      "name": "updatePONDAddress",
      "outputs": [],
      "stateMutability": "nonpayable",
      "type": "function"
    },
    {
      "inputs": [
        {
          "internalType": "address",
          "name": "_updatedRewardDelegator",
          "type": "address"
        }
      ],
      "name": "updateRewardDelegatorAddress",
      "outputs": [],
      "stateMutability": "nonpayable",
      "type": "function"
    },
    {
      "inputs": [
        {
          "internalType": "uint256",
          "name": "_updatedRewardDistributionWaitTime",
          "type": "uint256"
        }
      ],
      "name": "updateRewardDistributionWaitTime",
      "outputs": [],
      "stateMutability": "nonpayable",
      "type": "function"
    },
    {
      "inputs": [
        {
          "internalType": "address",
          "name": "newImplementation",
          "type": "address"
        }
      ],
      "name": "upgradeTo",
      "outputs": [],
      "stateMutability": "nonpayable",
      "type": "function"
    },
    {
      "inputs": [
        {
          "internalType": "address",
          "name": "newImplementation",
          "type": "address"
        },
        {
          "internalType": "bytes",
          "name": "data",
          "type": "bytes"
        }
      ],
      "name": "upgradeToAndCall",
      "outputs": [],
      "stateMutability": "payable",
      "type": "function"
    }
  ],
  "bytecode": "0x60a06040523060805234801561001457600080fd5b5060805161287c61004560003960008181610dff01528181610e9501528181610f9d0152611033015261287c6000f3fe60806040526004361061018b5760003560e01c8063745074cd116100d6578063d279c1911161007f578063f31a5f3e11610059578063f31a5f3e14610454578063fdc4c41f14610474578063fe259f8a1461048a57600080fd5b8063d279c191146103f4578063ecbd9bd414610414578063f2fde38b1461043457600080fd5b8063a7f82b68116100b0578063a7f82b6814610387578063ac93d819146103a7578063b47ec8d5146103c757600080fd5b8063745074cd146103155780638da5cb5b14610335578063a788a7161461036757600080fd5b806334638031116101385780634f1ef286116101125780634f1ef286146102cd5780636b2eeff1146102e0578063715018a61461030057600080fd5b806334638031146102775780633659cfe61461029757806348ba5b77146102b757600080fd5b8063233637991161016957806323363799146102175780633018456a1461023757806330d6be2c1461025757600080fd5b80630c004a4f146101905780630e87eeed146101ba578063151553be146101f5575b600080fd5b34801561019c57600080fd5b506101a56104aa565b60405190151581526020015b60405180910390f35b3480156101c657600080fd5b506101e76101d53660046121dd565b60ca6020526000908152604090205481565b6040519081526020016101b1565b34801561020157600080fd5b5061021561021036600461231a565b610648565b005b34801561022357600080fd5b5061021561023236600461243a565b6109a8565b34801561024357600080fd5b5061021561025236600461243a565b610aeb565b34801561026357600080fd5b506102156102723660046121dd565b610bab565b34801561028357600080fd5b5061021561029236600461243a565b610cb9565b3480156102a357600080fd5b506102156102b236600461243a565b610df4565b3480156102c357600080fd5b506101e760cc5481565b6102156102db366004612455565b610f92565b3480156102ec57600080fd5b506102156102fb3660046121dd565b611121565b34801561030c57600080fd5b506102156111b0565b34801561032157600080fd5b50610215610330366004612519565b611216565b34801561034157600080fd5b506097546001600160a01b03165b6040516001600160a01b0390911681526020016101b1565b34801561037357600080fd5b5060d05461034f906001600160a01b031681565b34801561039357600080fd5b506102156103a23660046121dd565b611338565b3480156103b357600080fd5b506102156103c2366004612519565b6113c6565b3480156103d357600080fd5b506101e76103e236600461243a565b60c96020526000908152604090205481565b34801561040057600080fd5b506101e761040f36600461243a565b611521565b34801561042057600080fd5b5061021561042f366004612587565b611604565b34801561044057600080fd5b5061021561044f36600461243a565b61193e565b34801561046057600080fd5b506101e761046f3660046121dd565b611a1d565b34801561048057600080fd5b506101e760d35481565b34801561049657600080fd5b506102156104a53660046121dd565b611a4f565b6097546000906001600160a01b0316331461050c5760405162461bcd60e51b815260206004820181905260248201527f4f776e61626c653a2063616c6c6572206973206e6f7420746865206f776e657260448201526064015b60405180910390fd5b60cf5460ce546040517f70a082310000000000000000000000000000000000000000000000000000000081523060048201526001600160a01b039283169263a9059cbb92169083906370a082319060240160206040518083038186803b15801561057557600080fd5b505afa158015610589573d6000803e3d6000fd5b505050506040513d601f19601f820116820180604052508101906105ad9190612609565b6040517fffffffff0000000000000000000000000000000000000000000000000000000060e085901b1681526001600160a01b0390921660048301526024820152604401602060405180830381600087803b15801561060b57600080fd5b505af115801561061f573d6000803e3d6000fd5b505050506040513d601f19601f820116820180604052508101906106439190612622565b905090565b600054610100900460ff1680610661575060005460ff16155b6106d35760405162461bcd60e51b815260206004820152602e60248201527f496e697469616c697a61626c653a20636f6e747261637420697320616c72656160448201527f647920696e697469616c697a65640000000000000000000000000000000000006064820152608401610503565b600054610100900460ff1615801561071257600080547fffffffffffffffffffffffffffffffffffffffffffffffffffffffffffff0000166101011790555b86518851146107af5760405162461bcd60e51b815260206004820152604760248201527f4352573a492d45616368204e6574776f726b4964206e656564206120636f727260448201527f6573706f6e64696e672052657761726450657245706f636820616e642076696360648201527f6520766572736100000000000000000000000000000000000000000000000000608482015260a401610503565b60ce80547fffffffffffffffffffffffff0000000000000000000000000000000000000000166001600160a01b038b161790556000805b89518110156108e65788818151811061080157610801612644565b602002602001015160ca60008c848151811061081f5761081f612644565b602002602001015181526020019081526020016000208190555088818151811061084b5761084b612644565b60200260200101518261085e91906126a2565b91507f6775a77d64e5cf0a9076d463ca614f2cfd52ce76c1498a835c35fddad2dd253e8a828151811061089357610893612644565b60200260200101518a83815181106108ad576108ad612644565b60200260200101516040516108cc929190918252602082015260400190565b60405180910390a1806108de816126ba565b9150506107e6565b5060cb81905560cc87905560cf80546001600160a01b038089167fffffffffffffffffffffffff00000000000000000000000000000000000000009283161790925560cd87905560d080549287169290911691909117905560d383905561094b611ade565b610953611ade565b61095b611ade565b610963611bd9565b61096c8b61193e565b50801561099c57600080547fffffffffffffffffffffffffffffffffffffffffffffffffffffffffffff00ff1690555b50505050505050505050565b6097546001600160a01b03163314610a025760405162461bcd60e51b815260206004820181905260248201527f4f776e61626c653a2063616c6c6572206973206e6f7420746865206f776e65726044820152606401610503565b6001600160a01b038116610a7e5760405162461bcd60e51b815260206004820152603360248201527f4352573a555244412d55706461746564205265776172642064656c656761746f60448201527f7220616464726573732063616e742062652030000000000000000000000000006064820152608401610503565b60ce80547fffffffffffffffffffffffff0000000000000000000000000000000000000000166001600160a01b0383169081179091556040519081527f18a657005f80a69ade5ff4f157cea6aaff76657d99396ab7a4d9f9c057eaed20906020015b60405180910390a150565b6097546001600160a01b03163314610b455760405162461bcd60e51b815260206004820181905260248201527f4f776e61626c653a2063616c6c6572206973206e6f7420746865206f776e65726044820152606401610503565b60d080547fffffffffffffffffffffffff0000000000000000000000000000000000000000166001600160a01b0383169081179091556040519081527f263269726a0e5980aa68daca2a1e98b9cafa2c49f12b2a5fe97493963a31c78e90602001610ae0565b6097546001600160a01b03163314610c055760405162461bcd60e51b815260206004820181905260248201527f4f776e61626c653a2063616c6c6572206973206e6f7420746865206f776e65726044820152606401610503565b600081815260ca602052604090205480610c615760405162461bcd60e51b815260206004820152601b60248201527f4352573a524e2d4e6574776f726b20646f65736e7420657869737400000000006044820152606401610503565b600082815260ca602052604081205560cb54610c7e9082906126f3565b60cb556040518281527f5facada410c6be008b72512db0d04c9210ef1b5336cff9c7306c741f083bdc5b906020015b60405180910390a15050565b6097546001600160a01b03163314610d135760405162461bcd60e51b815260206004820181905260248201527f4f776e61626c653a2063616c6c6572206973206e6f7420746865206f776e65726044820152606401610503565b6001600160a01b038116610d8e5760405162461bcd60e51b8152602060048201526024808201527f4352573a5550412d504f4e4420746f6b656e20616464726573732063616e742060448201527f62652030000000000000000000000000000000000000000000000000000000006064820152608401610503565b60cf80547fffffffffffffffffffffffff0000000000000000000000000000000000000000166001600160a01b0383169081179091556040519081527f7c5c83d102d6ea0acddb82e57f9c4b34d02eff8d010a0634dc65378f16eb032390602001610ae0565b306001600160a01b037f0000000000000000000000000000000000000000000000000000000000000000161415610e935760405162461bcd60e51b815260206004820152602c60248201527f46756e6374696f6e206d7573742062652063616c6c6564207468726f7567682060448201527f64656c656761746563616c6c00000000000000000000000000000000000000006064820152608401610503565b7f00000000000000000000000000000000000000000000000000000000000000006001600160a01b0316610eee7f360894a13ba1a3210667c828492db98dca3e2076cc3735a920a3ca505d382bbc546001600160a01b031690565b6001600160a01b031614610f6a5760405162461bcd60e51b815260206004820152602c60248201527f46756e6374696f6e206d7573742062652063616c6c6564207468726f7567682060448201527f6163746976652070726f787900000000000000000000000000000000000000006064820152608401610503565b610f7381611cac565b60408051600080825260208201909252610f8f91839190611d06565b50565b306001600160a01b037f00000000000000000000000000000000000000000000000000000000000000001614156110315760405162461bcd60e51b815260206004820152602c60248201527f46756e6374696f6e206d7573742062652063616c6c6564207468726f7567682060448201527f64656c656761746563616c6c00000000000000000000000000000000000000006064820152608401610503565b7f00000000000000000000000000000000000000000000000000000000000000006001600160a01b031661108c7f360894a13ba1a3210667c828492db98dca3e2076cc3735a920a3ca505d382bbc546001600160a01b031690565b6001600160a01b0316146111085760405162461bcd60e51b815260206004820152602c60248201527f46756e6374696f6e206d7573742062652063616c6c6564207468726f7567682060448201527f6163746976652070726f787900000000000000000000000000000000000000006064820152608401610503565b61111182611cac565b61111d82826001611d06565b5050565b6097546001600160a01b0316331461117b5760405162461bcd60e51b815260206004820181905260248201527f4f776e61626c653a2063616c6c6572206973206e6f7420746865206f776e65726044820152606401610503565b60cd8190556040518181527ffadb327aca6305798f1aa5f1789ad0891f66536158cfed5b0ff60f802600ec8d90602001610ae0565b6097546001600160a01b0316331461120a5760405162461bcd60e51b815260206004820181905260248201527f4f776e61626c653a2063616c6c6572206973206e6f7420746865206f776e65726044820152606401610503565b6112146000611f24565b565b6097546001600160a01b031633146112705760405162461bcd60e51b815260206004820181905260248201527f4f776e61626c653a2063616c6c6572206973206e6f7420746865206f776e65726044820152606401610503565b600082815260ca6020526040902054806112cc5760405162461bcd60e51b815260206004820152601c60248201527f4352573a434e522d4e6574776f726b20646f65736e74206578697374000000006044820152606401610503565b600083815260ca6020526040902082905560cb5482906112ed9083906126f3565b6112f791906126a2565b60cb5560408051848152602081018490527f0895c8505f5833a67ad2dd6c3ba0083127b45a334ea7979e13c2a9be656d335f910160405180910390a1505050565b6097546001600160a01b031633146113925760405162461bcd60e51b815260206004820181905260248201527f4f776e61626c653a2063616c6c6572206973206e6f7420746865206f776e65726044820152606401610503565b60d38190556040518181527ef381735348a6dff8988a70f5c47a6e3fed4d57d2202eb150e5af37f25b13e490602001610ae0565b6097546001600160a01b031633146114205760405162461bcd60e51b815260206004820181905260248201527f4f776e61626c653a2063616c6c6572206973206e6f7420746865206f776e65726044820152606401610503565b600082815260ca60205260409020541561147c5760405162461bcd60e51b815260206004820152601d60248201527f4352573a414e2d4e6574776f726b20616c7265616479206578697374730000006044820152606401610503565b806114c95760405162461bcd60e51b815260206004820152601760248201527f4352573a414e2d5265776172642063616e7420626520300000000000000000006044820152606401610503565b600082815260ca6020526040902081905560cb546114e89082906126a2565b60cb5560408051838152602081018390527f6775a77d64e5cf0a9076d463ca614f2cfd52ce76c1498a835c35fddad2dd253e9101610cad565b60ce546000906001600160a01b031633146115a45760405162461bcd60e51b815260206004820152602560248201527f53656e646572206e6f74205265776172642044656c656761746f727320636f6e60448201527f74726163740000000000000000000000000000000000000000000000000000006064820152608401610503565b6001600160a01b038216600090815260c9602052604090205460018111156115f95760006115d36001836126f3565b6001600160a01b038516600090815260c9602052604090206001905592506115ff915050565b60009150505b919050565b60d0546001600160a01b0316331461165e5760405162461bcd60e51b815260206004820152601160248201527f53656e646572206e6f74206665656465720000000000000000000000000000006044820152606401610503565b600081815260d16020526040902054806117215760d35460d25461168291906126a2565b421161171c5760405162461bcd60e51b815260206004820152604560248201527f4352573a462d43616e7420646973747269627574652072657761726420666f7260448201527f206e65772065706f63682077697468696e20737563682073686f727420696e7460648201527f657276616c000000000000000000000000000000000000000000000000000000608482015260a401610503565b4260d2555b60cb5460cc5460cd5460008a815260ca6020526040812054905b8981101561184757600083868b8b8581811061175957611759612644565b90506020020135858861176c919061270a565b611776919061270a565b6117809190612747565b61178a9190612747565b905061179681886126a2565b96508060c960008e8e868181106117af576117af612644565b90506020020160208101906117c4919061243a565b6001600160a01b03166001600160a01b03168152602001908152602001600020546117ef91906126a2565b60c960008e8e8681811061180557611805612644565b905060200201602081019061181a919061243a565b6001600160a01b03168152602081019190915260400160002055508061183f816126ba565b91505061173b565b5060cc548511156118e65760405162461bcd60e51b815260206004820152604160248201527f4352573a462d526577617264204469737472696275746564202063616e74202060448201527f6265206d6f726520207468616e20746f74616c52657761726450657245706f6360648201527f6800000000000000000000000000000000000000000000000000000000000000608482015260a401610503565b600086815260d1602052604090819020869055517f3fdd4ae70d0675c6923caf899c19621fbb5ccff8acc1128bd12bd5b46066bb5a90611929908d815260200190565b60405180910390a15050505050505050505050565b6097546001600160a01b031633146119985760405162461bcd60e51b815260206004820181905260248201527f4f776e61626c653a2063616c6c6572206973206e6f7420746865206f776e65726044820152606401610503565b6001600160a01b038116611a145760405162461bcd60e51b815260206004820152602660248201527f4f776e61626c653a206e6577206f776e657220697320746865207a65726f206160448201527f64647265737300000000000000000000000000000000000000000000000000006064820152608401610503565b610f8f81611f24565b60cb54600082815260ca602052604081205460cc54919291611a3f919061270a565b611a499190612747565b92915050565b6097546001600160a01b03163314611aa95760405162461bcd60e51b815260206004820181905260248201527f4f776e61626c653a2063616c6c6572206973206e6f7420746865206f776e65726044820152606401610503565b60cc8190556040518181527f2200a867406d1045d4ee4da8938118683406f907803111905cc0354edca57cc790602001610ae0565b600054610100900460ff1680611af7575060005460ff16155b611b695760405162461bcd60e51b815260206004820152602e60248201527f496e697469616c697a61626c653a20636f6e747261637420697320616c72656160448201527f647920696e697469616c697a65640000000000000000000000000000000000006064820152608401610503565b600054610100900460ff16158015611ba857600080547fffffffffffffffffffffffffffffffffffffffffffffffffffffffffffff0000166101011790555b8015610f8f57600080547fffffffffffffffffffffffffffffffffffffffffffffffffffffffffffff00ff16905550565b600054610100900460ff1680611bf2575060005460ff16155b611c645760405162461bcd60e51b815260206004820152602e60248201527f496e697469616c697a61626c653a20636f6e747261637420697320616c72656160448201527f647920696e697469616c697a65640000000000000000000000000000000000006064820152608401610503565b600054610100900460ff16158015611ca357600080547fffffffffffffffffffffffffffffffffffffffffffffffffffffffffffff0000166101011790555b611ba833611f24565b6097546001600160a01b03163314610f8f5760405162461bcd60e51b815260206004820181905260248201527f4f776e61626c653a2063616c6c6572206973206e6f7420746865206f776e65726044820152606401610503565b6000611d397f360894a13ba1a3210667c828492db98dca3e2076cc3735a920a3ca505d382bbc546001600160a01b031690565b9050611d4484611f8e565b600083511180611d515750815b15611d6257611d60848461205b565b505b7f4910fdfa16fed3260ed0e7147f7cc6da11a60208b5b9406d12a635614ffd9143805460ff16611f1d5780547fffffffffffffffffffffffffffffffffffffffffffffffffffffffffffffff001660011781556040516001600160a01b0383166024820152611e4b908690604401604080517fffffffffffffffffffffffffffffffffffffffffffffffffffffffffffffffe08184030181529190526020810180517bffffffffffffffffffffffffffffffffffffffffffffffffffffffff167f3659cfe60000000000000000000000000000000000000000000000000000000017905261205b565b5080547fffffffffffffffffffffffffffffffffffffffffffffffffffffffffffffff001681557f360894a13ba1a3210667c828492db98dca3e2076cc3735a920a3ca505d382bbc546001600160a01b03838116911614611f145760405162461bcd60e51b815260206004820152602f60248201527f45524331393637557067726164653a207570677261646520627265616b73206660448201527f75727468657220757067726164657300000000000000000000000000000000006064820152608401610503565b611f1d8561215d565b5050505050565b609780546001600160a01b038381167fffffffffffffffffffffffff0000000000000000000000000000000000000000831681179093556040519116919082907f8be0079c531659141344cd1fd0a4f28419497f9722a3daafe3b4186f6b6457e090600090a35050565b803b6120025760405162461bcd60e51b815260206004820152602d60248201527f455243313936373a206e657720696d706c656d656e746174696f6e206973206e60448201527f6f74206120636f6e7472616374000000000000000000000000000000000000006064820152608401610503565b7f360894a13ba1a3210667c828492db98dca3e2076cc3735a920a3ca505d382bbc80547fffffffffffffffffffffffff0000000000000000000000000000000000000000166001600160a01b0392909216919091179055565b6060823b6120d15760405162461bcd60e51b815260206004820152602660248201527f416464726573733a2064656c65676174652063616c6c20746f206e6f6e2d636f60448201527f6e747261637400000000000000000000000000000000000000000000000000006064820152608401610503565b600080846001600160a01b0316846040516120ec91906127b2565b600060405180830381855af49150503d8060008114612127576040519150601f19603f3d011682016040523d82523d6000602084013e61212c565b606091505b509150915061215482826040518060600160405280602781526020016128206027913961219d565b95945050505050565b61216681611f8e565b6040516001600160a01b038216907fbc7cd75a20ee27fd9adebab32041f755214dbc6bffa90cc0225b39da2e5c2d3b90600090a250565b606083156121ac5750816121d6565b8251156121bc5782518084602001fd5b8160405162461bcd60e51b815260040161050391906127ce565b9392505050565b6000602082840312156121ef57600080fd5b5035919050565b80356001600160a01b03811681146115ff57600080fd5b7f4e487b7100000000000000000000000000000000000000000000000000000000600052604160045260246000fd5b604051601f82017fffffffffffffffffffffffffffffffffffffffffffffffffffffffffffffffe016810167ffffffffffffffff811182821017156122835761228361220d565b604052919050565b600067ffffffffffffffff8211156122a5576122a561220d565b5060051b60200190565b600082601f8301126122c057600080fd5b813560206122d56122d08361228b565b61223c565b82815260059290921b840181019181810190868411156122f457600080fd5b8286015b8481101561230f57803583529183019183016122f8565b509695505050505050565b60008060008060008060008060006101208a8c03121561233957600080fd5b6123428a6121f6565b985061235060208b016121f6565b975060408a013567ffffffffffffffff8082111561236d57600080fd5b818c0191508c601f83011261238157600080fd5b813561238f6122d08261228b565b8082825260208201915060208360051b86010192508f8311156123b157600080fd5b6020850194505b828510156123d35784358252602094850194909101906123b8565b9a50505060608c01359150808211156123eb57600080fd5b506123f88c828d016122af565b96505060808a0135945061240e60a08b016121f6565b935060c08a0135925061242360e08b016121f6565b91506101008a013590509295985092959850929598565b60006020828403121561244c57600080fd5b6121d6826121f6565b6000806040838503121561246857600080fd5b612471836121f6565b915060208084013567ffffffffffffffff8082111561248f57600080fd5b818601915086601f8301126124a357600080fd5b8135818111156124b5576124b561220d565b6124e5847fffffffffffffffffffffffffffffffffffffffffffffffffffffffffffffffe0601f8401160161223c565b915080825287848285010111156124fb57600080fd5b80848401858401376000848284010152508093505050509250929050565b6000806040838503121561252c57600080fd5b50508035926020909101359150565b60008083601f84011261254d57600080fd5b50813567ffffffffffffffff81111561256557600080fd5b6020830191508360208260051b850101111561258057600080fd5b9250929050565b600080600080600080608087890312156125a057600080fd5b86359550602087013567ffffffffffffffff808211156125bf57600080fd5b6125cb8a838b0161253b565b909750955060408901359150808211156125e457600080fd5b506125f189828a0161253b565b979a9699509497949695606090950135949350505050565b60006020828403121561261b57600080fd5b5051919050565b60006020828403121561263457600080fd5b815180151581146121d657600080fd5b7f4e487b7100000000000000000000000000000000000000000000000000000000600052603260045260246000fd5b7f4e487b7100000000000000000000000000000000000000000000000000000000600052601160045260246000fd5b600082198211156126b5576126b5612673565b500190565b60007fffffffffffffffffffffffffffffffffffffffffffffffffffffffffffffffff8214156126ec576126ec612673565b5060010190565b60008282101561270557612705612673565b500390565b6000817fffffffffffffffffffffffffffffffffffffffffffffffffffffffffffffffff048311821515161561274257612742612673565b500290565b60008261277d577f4e487b7100000000000000000000000000000000000000000000000000000000600052601260045260246000fd5b500490565b60005b8381101561279d578181015183820152602001612785565b838111156127ac576000848401525b50505050565b600082516127c4818460208701612782565b9190910192915050565b60208152600082518060208401526127ed816040850160208701612782565b601f017fffffffffffffffffffffffffffffffffffffffffffffffffffffffffffffffe016919091016040019291505056fe416464726573733a206c6f772d6c6576656c2064656c65676174652063616c6c206661696c6564a26469706673582212200cc773052fb80857440da20e903e4ac041ea436068c55571c4ddc0b822d1034264736f6c63430008090033",
  "linkReferences": {},
  "deployedLinkReferences": {}
}